:1000000023C10000DAC60000ADC6000080C60000B3
:1000100053C6000026C60000F9C50000CCC500008C
:100020009FC5000042C1000040C100003EC1000069
:100030003CC100003AC1000038C1000036C10000D8
:1000400034C10000E5C6000030C100002EC1000030
:100050002CC100002AC1000028C1000037C50000E3
:1000600024C1000043C3000018C300001EC10000EB
:100070001CC100001AC1000018C1000016C1000018
:1000800014C1000012C1000010C100000EC1000028
:10009000DBC20000B0C2000008C1000006C10000C1
:1000A00004C1000002C1000000C10000FEC0000049
:1000B000FCC00000FAC00000F8C00000F6C000005C
:1000C000F4C00000F2C00000F0C00000EEC000006C
:1000D000ECC00000EAC00000E8C00000E6C000007C
:1000E000E4C000009402970286028A029002CE02C7
:1000F0009B029F02A502A902AD02B302B702BB0296
:10010000CE02C102C502C902310436043B044504D3
:100110004F04C80459046104690473047D0487040E
:100120009604A004C804AA04B404BE04000021007C
:10013000240027002A002D003000330001010000B8
:10014000040107010A0101021020200808102040C4
:10015000102040800201020108040201010204088B
:100160001020408080402010080402018004020119
:100170008040201008040201080402010102040862
:10018000102040800102040810204080050505056C
:10019000070508080808020202020A0A08080404FF
:1001A000040401010101010101010303030303032D
:1001B0000303040707070C0C0C0C0C0C0C0C0202BC
:1001C000020206060606060606060B0B0B0B0B0BB9
:1001D0000B0B0001020304051112131415160A0B70
:1001E0000C0D0E0F00002200250028002B002E0011
:1001F0003100340002010000050108010B0100007C
:100200000A0B02090C0D0E08070304010000000090
:1002100000000000000000000000000000000000DE
:10022000000000000000000000001211100000009B
:1002300000000000000000000000000000000000BE
:1002400000000000EC15E71511241FBECFEFD1E22E
:10025000DEBFCDBF00E00CBF13E0A0E0B2E0E2E9FA
:10026000F8E300E00BBF02C007900D92A034B10785
:10027000D9F726E0A0E4B3E001C01D92A13DB2078A
:10028000E1F711E0C3E2D1E000E006C021970109E7
:10029000802FFE010E94231BC232D10780E0080795
:1002A000A9F70E94080C0C94381CAACEFC01A08966
:1002B000B1898C91A689B78982FD0FC09C91818DEF
:1002C0008F5F8F73228D821749F0218DDF01A20F7E
:1002D000B11D5D969C93818F08958C910895FC01CA
:1002E000538D448D252F30E0842F90E0821B930B9B
:1002F000541710F0CF96089501970895FC01918D41
:10030000828D981761F0828DDF01A80FB11D5D9677
:100310008C91928D9F5F9F73928F90E008958FEFE5
:100320009FEF0895FC01918D828D981731F0828D99
:10033000E80FF11D858D90E008958FEF9FEF0895F0
:10034000FC01918D228D892F90E0805C9F4F821B54
:1003500091098F739927089589E894E0F1DF21E0EE
:10036000892B09F420E0822F08958CEE93E0E8DFDA
:1003700021E0892B09F420E0822F0895FC01848D6F
:10038000DF01A80FB11DA35ABF4F2C91848D90E0BF
:1003900001968F739927848FA689B7892C93A0899A
:1003A000B1898C9180648C93938D848D981306C051
:1003B0000288F389E02D80818F7D80830895EF92FC
:1003C000FF920F931F93CF93DF93EC0181E0888F0F
:1003D0009B8D8C8D981305C0E889F989808185FDF6
:1003E00023C0F62E0B8D10E00F5F1F4F0F731127E8
:1003F000E02E8C8DE8120BC00FB607FCFACFE8890F
:10040000F989808185FFF5CFCE01B8DFF2CF8B8DE2
:10041000FE01E80FF11DE35AFF4FF0820B8FEA89CE
:10042000FB898081806207C0EE89FF896083E8894B
:10043000F98980818064808381E090E0DF91CF91B1
:100440001F910F91FF90EF900895CF93DF93EC01F0
:10045000888D8823C1F0EA89FB89808185FD05C0EC
:10046000A889B9898C9186FD0EC00FB607FCF5CF1F
:10047000808185FFF2CFA889B9898C9185FFEDCF66
:10048000CE017CDFE8CFDF91CF91089580E090E04E
:10049000892B19F06ADF811120C080E090E0892B60
:1004A00019F05ADF81111CC080E090E0892B41F0E7
:1004B00080E090E0892B21F00E940000811113C0A0
:1004C00080E090E0892BA1F080E090E0892B81F022
:1004D0000E94000081110AC008950E940000DDCF33
:1004E0000E940000E1CF0E940000EACF0C940000BF
:1004F000089590E0FC013197E231F10508F04EC01B
:100500008827EE58FF4F8F4F0C94231B809180005B
:100510008F7703C0809180008F7D80938000089545
:1005200080918000877FF9CF84B58F7702C084B532
:100530008F7D84BD08958091B0008F7703C0809136
:10054000B0008F7D8093B0000895809190008F77E8
:1005500007C0809190008F7D03C080919000877FBD
:100560008093900008958091A0008F7707C08091BC
:10057000A0008F7D03C08091A000877F8093A000A2
:100580000895809120018F7707C0809120018F7D91
:1005900003C080912001877F8093200108953FB799
:1005A000F8948091E8039091E903A091EA03B09157
:1005B000EB0326B5A89B05C02F3F19F00196A11D9E
:1005C000B11D3FBFBA2FA92F982F8827820F911DE9
:1005D000A11DB11DBC01CD0142E0660F771F881F30
:1005E000991F4A95D1F708950895089580E090E005
:1005F00008950E941B1C1F920F920FB60F92112498
:100600000BB60F922F933F934F935F936F937F930C
:100610008F939F93AF93BF93EF93FF9389E894E0F9
:10062000ADDEFF91EF91BF91AF919F918F917F913F
:100630006F915F914F913F912F910F900BBE0F9053
:100640000FBE0F901F9018951F920F920FB60F922A
:1006500011240BB60F922F933F934F935F936F9399
:100660007F938F939F93AF93BF93EF93FF9389E80B
:1006700094E01CDEFF91EF91BF91AF919F918F911C
:100680007F916F915F914F913F912F910F900BBE92
:100690000F900FBE0F901F9018951F920F920FB6DC
:1006A0000F9211240BB60F922F933F934F935F93AA
:1006B0006F937F938F939F93AF93BF93EF93FF932A
:1006C0008CEE93E05BDEFF91EF91BF91AF919F9134
:1006D0008F917F916F915F914F913F912F910F90EB
:1006E0000BBE0F900FBE0F901F9018951F920F9288
:1006F0000FB60F9211240BB60F922F933F934F9387
:100700005F936F937F938F939F93AF93BF93EF9379
:10071000FF938CEE93E0CADDFF91EF91BF91AF9113
:100720009F918F917F916F915F914F913F912F9109
:100730000F900BBE0F900FBE0F901F9018951F9338
:10074000CF93DF93282F30E0F901E250FE4F8491E0
:10075000F901EA5BFE4FD491F901E457FE4FC491D1
:10076000CC23C1F0162F8111C4DEEC2FF0E0EE0F88
:10077000FF1FEC51FE4FA591B4918FB7F894111162
:1007800005C09C91ED2FE095E92302C0EC91ED2B83
:10079000EC938FBFDF91CF911F910895CF93DF939B
:1007A00090E0FC01EA5BFE4F2491FC01E457FE4F10
:1007B0008491882361F190E0880F991FFC01E45D2A
:1007C000FE4FC591D491FC01EC51FE4FA591B4911F
:1007D000611109C09FB7F89488812095822388838E
:1007E000EC912E230BC0623061F49FB7F8943881EE
:1007F000822F809583238883EC912E2B2C939FBF8F
:1008000006C08FB7F894E8812E2B28838FBFDF9125
:10081000CF9108951F93CF93DF93182FEB0161E0E1
:10082000BDDF209711F460E004C0CF3FD10531F463
:1008300061E0812FDF91CF911F9181CFE12FF0E017
:10084000E250FE4FE4914E2F50E0FA013197E23131
:10085000F10508F09DC08827EC57FF4F8F4F0C948F
:10086000231B84B5806884BDC7BD97C084B58062F2
:1008700084BDC8BD92C08091800080688093800054
:10088000D0938900C093880088C0809180008062E6
:1008900080938000D0938B00C0938A007EC08091AB
:1008A0008000886080938000D0938D00C0938C007E
:1008B00074C08091B00080688093B000C093B30092
:1008C0006CC08091B00080628093B000C093B4008F
:1008D00064C080919000806880939000D0939900CC
:1008E000C09398005AC080919000806280939000DD
:1008F000D0939B00C0939A0050C080919000886074
:1009000080939000D0939D00C0939C0046C080913E
:10091000A00080688093A0008091A0008F7B8093CE
:10092000A000D093A900C093A80037C08091A00078
:1009300080628093A000D093AB00C093AA002DC02A
:100940008091A00088608093A000D093AD00C093F8
:10095000AC0023C080912001806880932001D09357
:100960002901C093280119C08091200180628093E1
:100970002001D0932B01C0932A010FC08091200148
:10098000886080932001D0932D01C0932C0105C075
:10099000C038D1050CF04CCF46CFDF91CF911F91DD
:1009A00008958F929F92AF92BF92CF92DF92EF9273
:1009B000FF926B017C01F3DD4B015C01C114D1049A
:1009C000E104F104E9F0EBDDDC01CB0188199909C0
:1009D000AA09BB09883E9340A105B10578F321E03F
:1009E000C21AD108E108F10888EE880E83E0981E4B
:1009F000A11CB11CC114D104E104F10421F7DECF24
:100A0000FF90EF90DF90CF90BF90AF909F908F902E
:100A100008952FB7F8946091E4037091E5038091F5
:100A2000E6039091E7032FBF08950F931F93CF9391
:100A3000DF938C01EEDFE801CC0FDD1FCC0FDD1F53
:100A4000DE01AB5BBC4F0D911D912D913C91139735
:100A5000FE01EB5AFC4F012B022B032B51F41082A9
:100A60001182128213826D937D938D939C931397C1
:100A700014C0DE01A35BBC4F6D937D938D939C935B
:100A8000139740815181628173814F5F5F4F6F4F38
:100A90007F4F4083518362837383FE01E952FC4F91
:100AA00080819181A281B3810196A11DB11D8083B6
:100AB0009183A283B383DF91CF911F910F9108950A
:100AC00080E090E0B2CF81E090E0AFCF1F920F9234
:100AD0000FB60F9211242F933F938F939F93AF9351
:100AE000BF938091E4039091E503A091E603B09158
:100AF000E7033091E30323E0230F2D3720F4019621
:100B0000A11DB11D05C026E8230F0296A11DB11D30
:100B10002093E3038093E4039093E503A093E6031B
:100B2000B093E7038091E8039091E903A091EA0371
:100B3000B091EB030196A11DB11D8093E803909342
:100B4000E903A093EA03B093EB03BF91AF919F91A8
:100B50008F913F912F910F900FBE0F901F9018957E
:100B60001F920F920FB60F9211240BB60F922F9374
:100B70003F934F935F936F937F938F939F93AF9325
:100B8000BF93EF93FF93E0910F02F091100219953C
:100B9000FF91EF91BF91AF919F918F917F916F9155
:100BA0005F914F913F912F910F900BBE0F900FBE11
:100BB0000F901F9018951F920F920FB60F9211244D
:100BC0000BB60F922F933F934F935F936F937F9347
:100BD0008F939F93AF93BF93EF93FF93E0910D0299
:100BE000F0910E021995FF91EF91BF91AF919F91F6
:100BF0008F917F916F915F914F913F912F910F90C6
:100C00000BBE0F900FBE0F901F9018951F920F9262
:100C10000FB60F9211240BB60F922F933F934F9361
:100C20005F936F937F938F939F93AF93BF93EF9354
:100C3000FF93E0910302F09104021995FF91EF9167
:100C4000BF91AF919F918F917F916F915F914F91E4
:100C50003F912F910F900BBE0F900FBE0F901F90E2
:100C600018951F920F920FB60F9211240BB60F9288
:100C70002F933F934F935F936F937F938F939F93A4
:100C8000AF93BF93EF93FF93E0910102F0910202C3
:100C90001995FF91EF91BF91AF919F918F917F91A6
:100CA0006F915F914F913F912F910F900BBE0F90DD
:100CB0000FBE0F901F9018951F920F920FB60F92B4
:100CC00011240BB60F922F933F934F935F936F9323
:100CD0007F938F939F93AF93BF93EF93FF93E09195
:100CE0000B02F0910C021995FF91EF91BF91AF911A
:100CF0009F918F917F916F915F914F913F912F9134
:100D00000F900BBE0F900FBE0F901F9018951F9263
:100D10000F920FB60F9211240BB60F922F933F93A1
:100D20004F935F936F937F938F939F93AF93BF93F3
:100D3000EF93FF93E0910902F0910A021995FF9158
:100D4000EF91BF91AF919F918F917F916F915F9143
:100D50004F913F912F910F900BBE0F900FBE0F90B0
:100D60001F9018951F920F920FB60F9211240BB679
:100D70000F922F933F934F935F936F937F938F9334
:100D80009F93AF93BF93EF93FF93E0910702F0918E
:100D900008021995FF91EF91BF91AF919F918F91AB
:100DA0007F916F915F914F913F912F910F900BBE6B
:100DB0000F900FBE0F901F9018951F920F920FB6B5
:100DC0000F9211240BB60F922F933F934F935F9383
:100DD0006F937F938F939F93AF93BF93EF93FF9303
:100DE000E0910502F09106021995FF91EF91BF91F4
:100DF000AF919F918F917F916F915F914F913F91B3
:100E00002F910F900BBE0F900FBE0F901F90189553
:100E10001F920F920FB60F9211240BB60F922F93C1
:100E20003F934F935F936F937F938F939F93AF9372
:100E3000BF93EF93FF9380914303882301F1809147
:100E4000400391E0980F90934003811118C0E09106
:100E5000420380914403E817C8F060E08AE06FDC49
:100E600060E0809100026BDC109243038091E1030B
:100E70009091E20301969093E2038093E1038091C5
:100E80004003883018F11092400320C0F0E0EF5E7C
:100E9000FD4F90818091410321E0280F2093410371
:100EA00061E070E001C0660F8A95EAF769238091DE
:100EB000000245DC80914103863008F31092410323
:100EC000809142038F5F80934203D9CFFF91EF91CE
:100ED000BF91AF919F918F917F916F915F914F9152
:100EE0003F912F910F900BBE0F900FBE0F901F9050
:100EF00018958627082E8295807F8025092E982FA9
:100F000082958F700826869598278927880F880FE5
:100F1000880F802508958EBD00000DB407FEFDCF1B
:100F20008EB508954F925F926F927F928F929F92AB
:100F3000AF92BF92CF92DF92EF92FF920F931F93E7
:100F4000CF93DF9300D01F92CDB7DEB74C012701BE
:100F500038010C8D1D8DDC015D965C934E935C9782
:100F60005B967C936E935A975F963C932E935E9715
:100F7000DC961C92FC0114AA15AA16AA17AA80E0F6
:100F800090E0AFE7B3E480AF91AFA2AFB3AF84E638
:100F900090E0A0E0B0E080AB91ABA2ABB3AB118F1F
:100FA000008F20E030E0A901C301B2010E94E218E5
:100FB00087FD7AC020E030E0A901C601B5010E949A
:100FC000E21887FD71C020E030E0A901688D798DBD
:100FD0008A8D9B8D0E94E21887FD66C0D4014D92D8
:100FE0005D926D927C921397F401A482B582C682C1
:100FF000D782888D998DAA8DBB8D80879187A28796
:10100000B38744865586668677862DEC3CEC4CEC9F
:101010005DE3C601B5010E94471969837A838B831A
:101020009C83F401608B718B828B938B2DEC3CEC59
:101030004CEC5DE3688D798D8A8D9B8D0E94601AE2
:101040006B017C01D40154966D937D938D939C9399
:1010500057970130110541F5A301920160E070E05E
:10106000CB010E94FB19F4016487758786879787F7
:1010700029813A814B815C8160E070E0CB010E9464
:10108000FB19D40150966D937D938D939C93539748
:10109000A701960160E070E0CB010E94FB19F4010A
:1010A000648B758B868B978BB4DCD401D0960D91B5
:1010B0001D912D913C91D397DC01CB01801B910BAD
:1010C000A20BB30BF40180A391A3A2A3B3A30F902F
:1010D0000F900F900F90DF91CF911F910F91FF9084
:1010E000EF90DF90CF90BF90AF909F908F907F90C8
:1010F0006F905F904F9008954F925F926F927F92A2
:101100008F929F92AF92BF92CF92DF92EF92FF9217
:101110000F931F93CF93DF9300D01F92CDB7DEB70D
:101120008C0149835A836B837C83FC01208131814C
:101130004281538164857585868597850E94FC1957
:101140006B017C01F80124813581468157810E9421
:10115000FC199B01AC01C701B6010E94601A4B014A
:101160005C01F801608B718B828B938B408451847E
:1011700062847384A301920169817A818B819C814D
:101180000E94FB199B01AC01C501B4010E944719E3
:101190009B01AC01C301B2010E94FC192B013C016F
:1011A000F8016087718782879387A501940160E0C9
:1011B00070E080E89FE30E94FB19A70196010E945E
:1011C0004719F8016487758786879787C301B2013D
:1011D0000F900F900F900F90DF91CF911F910F9173
:1011E000FF90EF90DF90CF90BF90AF909F908F9047
:1011F0007F906F905F904F900895CF92DF92EF9223
:10120000FF920F931F93CF93DF936C017A018B01B1
:10121000C0E0D0E0CE15DF0589F0D8016D918D01D9
:10122000D601ED91FC910190F081E02DC601199558
:10123000892B11F47E0102C02196ECCFC701DF910A
:10124000CF911F910F91FF90EF90DF90CF90089575
:101250009CB59F7D9CBD9CB5937F9CBD9CB59C7FA0
:101260009CBD9DB59E7F9DBD682F8091140667CA69
:10127000CF9380E090E0ECDF82EE4DDEC82F81E07E
:1012800090E0E6DF8C2FCF910895CF9380E090E03F
:10129000DFDF81EE40DEC82F81E090E0D9DF8C2FC8
:1012A000CF910895CF93C82F80E090E0D1DF8C2FAD
:1012B0008F7131DE8FEF2FDEC82F81E090E0C8DF25
:1012C0008C2FCF9108951F93CF93DF931F92CDB7AB
:1012D000DEB7182F80E090E06983BADF812F8F712D
:1012E000806219DE182F6981862F15DE81E090E07B
:1012F000AFDF812F0F90DF91CF911F910895EF9273
:10130000FF920F931F93CF93DF931F921F92CDB73E
:10131000DEB7082F162F80E090E049837A8398DFAC
:10132000802F8F718062F7DD082FE12E7A81F72EF2
:101330004981140F1E1529F0F70181917F01EBDD22
:10134000F9CF81E090E084DF802F0F900F90DF9144
:10135000CF911F910F91FF90EF900895CF93DF935E
:10136000CDB7DEB7A8970FB6F894DEBF0FBECDBFDE
:1013700084E1FE01BE96DE01119601900D928A95E0
:10138000E1F786E190E00E947A1724E1FE013196B0
:10139000DE01559601900D922A95E1F724E1FE01B8
:1013A0007596DC01129601900D922A95E1F7DC0109
:1013B0001D921C92E0913306F0913406309729F487
:1013C00090933406809333060CC0DC01ED93FC93BC
:1013D00090933406809333060190F081E02D30978E
:1013E000D9F780913106909132060196909332069A
:1013F00080933106A8960FB6F894DEBF0FBECDBF1E
:10140000DF91CF910895FC0124813581232B31F4A4
:1014100021E061157105A1F0FB0108C0FC0180818C
:1014200091816115710531F421E0FC0180818823EF
:1014300039F005C00E94281C21E0892B09F020E02A
:10144000822F08950F931F93CF93DF93EC01888130
:101450009981009729F02A813B812617370788F464
:101460008B016F5F7F4F0E94371B009761F099835C
:1014700088831B830A832C813D81232B11F4FC017B
:10148000108281E001C080E0DF91CF911F910F9128
:101490000895EF92FF920F931F93CF93DF93EC0188
:1014A0007B018A01BA01CEDF2881398181110DC00B
:1014B0002115310519F0C9010E940F1819821882EF
:1014C0001D821C821B821A8206C01D830C83B701F9
:1014D000C9010E94311CCE01DF91CF911F910F9164
:1014E000FF90EF900895DF92EF92FF920F931F937A
:1014F000CF93DF937C01EB018A014617570720F455
:101500008D2FEA01062F182FF70111821082138206
:1015100012821582148240E050E063E273E0C7015A
:10152000B8DF8091390690913A06C817D907A8F517
:101530008017910708F48C01E0913506F09136068A
:10154000E00FF11FD0801082609135067091360651
:101550006C0F7D1F6115710559F0FB010190002092
:10156000E9F73197AF01461B570BC70192DF0EC059
:10157000F70180819181009711F00E940F18F70107
:10158000118210821582148213821282E091350634
:10159000F0913606E00FF11FD082C701DF91CF91A5
:1015A0001F910F91FF90EF90DF900895DC01ED9176
:1015B000FC910190F081E02D19946115710579F08D
:1015C000FB0101900020E9F73197AF01461B570B53
:1015D000DC01ED91FC910280F381E02D199480E013
:1015E00090E008954F925F926F927F92EF92FF92F8
:1015F0000F931F93CF93DF93CDB7DEB7A1970FB6AD
:10160000F894DEBF0FBECDBF7C01FA01CB0119A259
:10161000223008F42AE08E010F5D1F4F422E512C1C
:10162000612C712CBF01A30192010E94011BF901E1
:10163000CA01015011096A3014F4605D01C0695C8F
:10164000D8016C93232B242B252B61F7B801C701FC
:10165000B4DFA1960FB6F894DEBF0FBECDBFDF9109
:10166000CF911F910F91FF90EF907F906F905F90BF
:101670004F9008958F929F92AF92BF92CF92DF9238
:10168000EF92FF920F931F93CF93DF93EC016A01C8
:101690007B019A01AB01C701B6010E94FD1A8823A4
:1016A00019F064E373E027C046015701E894B7F8E6
:1016B0002FEF3FEF4FE75FE7C501B4010E94FD1A2E
:1016C00081110DC02FEF3FEF4FE75FE7C501B40178
:1016D0000E94E21818161CF468E373E00CC02FEFA8
:1016E0003FEF4FE75FE4C701B6010E94F91A1816F1
:1016F00084F46CE373E0CE01DF91CF911F910F91E1
:10170000FF90EF90DF90CF90BF90AF909F908F9021
:1017100054CF2FEF3FEF4FE75FECC701B6010E94B8
:10172000E21887FDE6CF20E030E0A901C701B6014D
:101730000E94E21887FF09C06DE2CE0137DF8C01FD
:10174000F7FAF094F7F8F09402C000E010E02AE015
:1017500037ED43EA5BE3C701B6010E94FC196B0158
:101760007C010E94CD1A4B015C010E94E6189B018E
:10177000AC01C701B6010E94FB196B017C012AE094
:10178000B501A401CE012EDF080F191F6EE2CE01B4
:101790000DDF080F191F20E030E040E251E4C701DF
:1017A000B6010E9447194B015C010E94CD1A6B01E2
:1017B000E12CF12C2AE0B701A601CE0113DF080FBE
:1017C000191FC701B6010E94E6189B01AC01C501B3
:1017D000B4010E94FB1920E030E040E251E40E9495
:1017E00047190E94CD1AAB0160E070E02AE0CE01FB
:1017F000F9DE800F911FDF91CF911F910F91FF9024
:10180000EF90DF90CF90BF90AF909F908F90089512
:10181000CF93DF93CDB7DEB7EF970FB6F894DEBF67
:101820000FBECDBF789484B5826084BD84B58160DD
:1018300084BD85B5826085BD85B5816085BD80919B
:101840006E00816080936E00109281008091810013
:10185000826080938100809181008160809381000B
:10186000809180008160809380008091B1008460CD
:101870008093B1008091B00081608093B00080912E
:1018800091008260809391008091910081608093AB
:101890009100809190008160809390008091A100E0
:1018A00082608093A1008091A10081608093A1005B
:1018B0008091A00081608093A000809121018260CE
:1018C0008093210180912101816080932101809189
:1018D000200181608093200180917A008460809350
:1018E0007A0080917A00826080937A0080917A00F9
:1018F000816080937A0080917A00806880937A007A
:101900001092C1004FE8C42E46E0D42E28EE32E0FB
:101910003AA329A30DE616E053E5E52E56E0F52E91
:10192000D6018C9181113AC0D7015C96ED91FC9162
:101930005D9780809180A280B380F8018286938633
:10194000A486B5860190F081E02D80819181A281ED
:10195000B381F80186879787A08BB18B468C578C13
:1019600060A071A0A3019201C501B4010E94F91AFF
:1019700018166CF0F801428C538C648C758CA301A2
:101980009201C501B4010E94E21887FF07C0D80187
:101990001A964D925D926D927C921D9721E0F60110
:1019A0002083D80156966D917D918D919C91599788
:1019B0000E94E6189B01AC0160E070E086E193E4D0
:1019C0000E94601A4B015C019B01AC01F701608928
:1019D0007189828993890E944719D70150966D9326
:1019E0007D938D939C935397A501940154966D918B
:1019F0007D918D919C9157970E94601AF701648B9D
:101A0000758B868B978B26E930E040E050E0D8015B
:101A100056962D933D934D935C935997E9A1FAA166
:101A20006191FAA3E9A3062E000C770B880B990BA2
:101A30000E94E8184B015C0120E030E048E453E4E8
:101A40000E94F91A87FF60C0D8015A968D929D9224
:101A5000AD92BC925D9720E030E048E453E45E969E
:101A60002D933D934D935C939197F701248C358C86
:101A7000D1014D905D906D907C90C301B2010E94A8
:101A8000F91A18165CF420E030E048E453E4D10180
:101A90002D933D934D935C9313970DC0A501940135
:101AA000C301B2010E94E21887FF05C0F1018082E4
:101AB0009182A282B382D8011A964D905D906D906A
:101AC0007C901D975E968D909D90AD90BC90919767
:101AD000A5019401C301B2010E94F91A18167CF005
:101AE000D8015A968D909D90AD90BC905D97A501C0
:101AF0009401C301B2010E94E21887FF05C0F801FA
:101B000082869386A486B586FDE3CF0ED11C2DE395
:101B1000E20EF11C035C1F4F3DECE31636E0F306CA
:101B200009F0FECE80E090E0A8ECB2E480935E0382
:101B300090935F03A0936003B093610380933B068F
:101B400090933C06A0933D06B0933E061092430648
:101B500010924406109245061092460610924B06CB
:101B600010924C0610924D0610924E06809362031E
:101B700090936303A0936403B093650380933F063F
:101B800090934006A0934106B093420610924706F8
:101B9000109248061092490610924A0610924F067B
:101BA00010925006109251061092520630EEE32E1B
:101BB00032E0F32E0CEF12E061E0D8018D918D013F
:101BC0000E94CE0360E0F70181917F010E94CE0365
:101BD000F3E004301F0781F760E085E20E94CE0346
:101BE00060E084E20E94CE0360E083E20E94CE03C4
:101BF00060E083E00E94CE0360E082E00E94CE03BA
:101C000061E08CE10E94CE0361E08DE10E94CE0391
:101C100061E087E00E94CE0361E08AE10E94CE038A
:101C200061E08BE10E94CE0361E08DE00E94CE0373
:101C300061E085E00E94CE0360E084E00E94CE0374
:101C4000E091FC03F091FD0322E02083E091FC038E
:101C5000F091FD031082E091F803F091F9031082F6
:101C6000E091FA03F091FB0380E180831092040479
:101C7000E0910004F091010496E09083E091FE036E
:101C8000F091FF03808180618083E091FE03F091F9
:101C9000FF03808188608083E091FE03F091FF0361
:101CA000808180688083E091FE03F091FF03808152
:101CB0008F7D8083E0919904F0919A042083E091D4
:101CC0009504F09196041082E0919704F0919804A5
:101CD00083E380831092A104E0919D04F0919E041F
:101CE0009083E0919B04F0919C04808180618083CB
:101CF000E0919B04F0919C04808188608083E09156
:101D00009B04F0919C04808180688083E0919B0417
:101D1000F0919C0480818F7D808361E085E10E9449
:101D2000CE0361E085E10E949F0361E0809113068C
:101D30000E94CE0361E0809114060E94CE031FB77B
:101D4000F89480915D03811127C0E1ECF1E084916A
:101D5000EBE7F1E09491E82FF0E0EE0FFF1FE45D78
:101D6000FE4FA591B491EC91E92321F461E085E364
:101D70000E949F0361E085E30E94CE038CB58061E1
:101D80008CBD8CB580648CBD61E084E30E94CE0381
:101D900061E083E30E94CE0380915D038F5F8093B7
:101DA0005D031FBF60E0809113060E949F0381E0E6
:101DB00090E04EDA65E070E080E090E00E94D104AF
:101DC0006FE484E080DA86E06DDA682F666086E092
:101DD0007ADA86E067DA10921506877D182F10628E
:101DE000612F86E070DA86E05DDA811709F44CC66F
:101DF0001092150686E056DA10921506182F177DF8
:101E0000612F86E060DA86E04DDA811310921506C4
:101E100080E048DA682F6C6080E055DA60E08CE1A1
:101E200052DA60E787E04FDA6CE485E04CDA20DADA
:101E30002CDA86E037DA897F682F646086E043DA3F
:101E400021EE2D8B90EF9E8B9F8B88EE888F898F54
:101E50001A8E1B8E1C8E20931B0690931C0690934B
:101E60001D0680931E0680931F0610922006109276
:101E7000210610922206EEEDF1E0849145E0BE01CC
:101E80006B5E7F4F3CDAE8EDF1E0849160911706DC
:101E90001ADA82E007DAE2EDF1E0E49161E070E065
:101EA00001C0660FEA95EAF7682B82E00CDA6CE66F
:101EB00085E009DA65E584E006DA6FE381E003DABC
:101EC0008CE0809300028EE0E1EDF2E09E012F5F56
:101ED0003F4F6901D90101900D928A95E1F77E018A
:101EE00033E0E30EF11C11E0812C04E2902E04EFAC
:101EF000A02EB12C412C8DE7582E612C712CD701CE
:101F00002D913D917D0140E050E0C501B4010E945A
:101F1000011BCA01B901A30192010E94011B2230D9
:101F200031054105510520F41F5F173041F728C0E6
:101F3000163031F1112321F11092800088E0809356
:101F4000810080918100182B1093810030938900CB
:101F50002093880080916F00826080936F0061E021
:101F6000809100020E94CE0360E08BE00E94CE03CD
:101F700061E08AE00E94CE0360E08AE00E949F0355
:101F800081E090E0A0E0B0E089839A83AB83BC83DA
:101F90009E838D8398878F832AE530E0388B2F8747
:101FA0009C8B8B8B84E090E09A8B898B8AE090E00D
:101FB0009A8789879C878B879E878D87EDB7FEB729
:101FC00074970FB6F894FEBF0FBEEDBFADB7BEB7A6
:101FD000119684E1F60101900D928A95E1F7BED940
:101FE00082E090E0A0E0B0E089839A83AB83BC8379
:101FF0009E838D8382ED90E09A8789872DB73EB7C7
:10200000245131090FB6F8943EBF0FBE2DBFADB7B6
:10201000BEB7119684E1F60101900D928A95E1F721
:102020009DD90FB6F894DEBF0FBECDBF68E173E057
:102030008CEE93E0C2DA8091CD069091CE060097A7
:1020400011F481ED96E0C81AD90A0D2C000CEE08A7
:10205000FF08F7FE0DC06DE28CEE93E0A7DA44278F
:102060005527BA014C195D096E097F092AE003C0A2
:102070002AE0B701A6018CEE93E0B4DA61E273E0E6
:102080008CEE93E09ADA62E070E080E090E00E94EB
:10209000D10483E695E0909302028093010280913F
:1020A0006A00836080936A00EC9A80E695E09093E2
:1020B00004028093030280916A008C6080936A001E
:1020C000ED9A81E08093CC0310923F061092400677
:1020D000109241061092420610923B0610923C0666
:1020E00010923D0610923E06CE014D9698A38F8F1A
:1020F0000E9409056093D3037093D4038093D503A2
:102100009093D603109268031092720381E080933B
:102110006603E9EBF2E001900020E9F731978F01C7
:10212000095B1240B02E9DE4901708F4A2C0809184
:1021300043038111FCCF23E0200F622F8FEF9FEF2D
:102140002FAF0E9479072FADE22FF0E0A4E0F595C4
:10215000E795AA95E1F7E451FD4F308130931902DC
:102160002F70E22FF0E0E451FD4F208120931A02FE
:10217000BCE1CB2EB2E0DB2E16E6E12E13E0F12E11
:102180002E2DE6E6F3E02E1B2B1500F5D7016C9102
:102190000E947907F70121917F01D6011197E22F63
:1021A000F0E074E0F595E7957A95E1F7E451FD4F9D
:1021B00030813C932F70E22FF0E0E451FD4F2081FD
:1021C000D6012C93B2E0CB0ED11CDACF0F5F000FFB
:1021D000FC01E095F095802F90E0875E9D4FDF0138
:1021E00044E0B695A7954A95E1F7AF70BB27A45197
:1021F000BD4F2C91DC012C93A1E0A00FB0E09D011C
:10220000275E3D4FCF018F70992784519D4FDC0190
:102210008C91D9018C93A2E0A00FB0E09D01275EC4
:102220003D4FCF01892F992782958F7084519D4F03
:10223000DC018C91D9018C93A3E0A00FB0E0A75EE4
:10224000BD4FEF2FFF27EF70FF27E451FD4F808137
:102250008C93045F00934403109242031092410355
:102260001092400361E08AE00E949F0381E0809326
:102270004303809143038111FCCF0CEF12E060E037
:10228000F80181918F010E949F03F3E004301F0742
:10229000B1F78FE090E00197F1F70CEF12E061E009
:1022A000D8018D918D010E949F03B3E004301B077C
:1022B000B1F787E390E00197F1F70CEF12E060E0EF
:1022C000F80181918F010E949F03F3E004301F0702
:1022D000B1F780E00E945209682F636080E00E949D
:1022E000630960E787E00E94630920911B06309133
:1022F0001C0640911D0650911E0660911F067091AC
:1023000020068091210690912206A0E00E942B1BBE
:1023100031F045E06BE176E08AE00E947F090E949F
:1023200038090E94450961E0809113060E949F03CD
:1023300083E092E00197F1F70E9409054B015C01EF
:1023400038E6E32E33E0F32EECE7EE16E3E0FE068C
:10235000D1F010E080E090E00E9428098FEF0E9409
:102360008B07082F81E090E00E94280906FF90C3A8
:1023700060E487E00E94630905FF9CC360E287E098
:102380000E94630997C310E060E0809113060E94E9
:102390009F030E9445090E943809111151C0809184
:1023A0006803F09072038F1509F44AC001E010E051
:1023B0000C0F1D1FB4E08B9F000D111D1124045044
:1023C00011096091690370916A0380916B03909188
:1023D0006C03FED6F801608371838283938301E0EE
:1023E00010E00C0F1D1FF4E0FF9E000D111D1124C5
:1023F0000450110960917303709174038091750307
:1024000090917603E5D6D8016D937D938D939C933F
:102410001397C980DA80EB80FC8020E030E040E256
:1024200051E4C701B6010E94F91A18164CF420E0D5
:1024300030E04AE754E4C701B601C4D687FD81C342
:1024400065E070E080E090E00E94D104FF24F39406
:1024500089E894E00E94A001892B09F4E6C01D8E52
:102460001E8E89E894E00E947E018D8F8E3269F184
:10247000EF8DF8A101900020E9F731972F8D38A159
:10248000E21BF30B0091390610913A06309701F3E5
:102490000E0F1F1FB80185E396E00E94220A8823D1
:1024A000B9F2209135063091360680913906909127
:1024B0003A06BE01635E7F4F820F931F0E94311C5C
:1024C00010933A0600933906C3CF42E050E060E033
:1024D00070E0CE01019607D866E273E0CE01019666
:1024E0000E94030A182F89819A8199D5112349F1F5
:1024F0001092CC034091390650913A0662E070E0A8
:10250000CE0101960E94730A09811A8101151105F5
:1025100029F0C8011CD64B015C0103C0812C912C11
:102520005401C8017CD5B401990C880B990B50D685
:1025300060933F0670934006809341069093420655
:102540006BC042E050E060E070E0CE0101960E9476
:10255000730A69E273E0CE0101960E94030A182F04
:1025600089819A815CD5112349F11092CC03409165
:10257000390650913A0662E070E0CE0101960E9461
:10258000730A09811A810115110529F0C801DFD5E7
:102590004B015C0103C0812C912C5401C8013FD533
:1025A000B401990C880B990B13D660933B0670937A
:1025B0003C0680933D0690933E062EC042E050E0DC
:1025C00060E070E0CE0101960E94730A6CE273E055
:1025D000CE0101960E94030A182F89819A811FD586
:1025E00011111AC06FE273E085E396E00E94030ABE
:1025F000882391F0F092CC0310923F06109240068F
:10260000109241061092420610923B0610923C0630
:1026100010923D0610923E0640E050E063E273E007
:1026200085E396E00E94490A13CF0E9409054B01F9
:102630005C018091CF039091D003A091D103B09120
:10264000D203A5019401281B390B4A0B5B0B2639D9
:102650003105410551050CF414C21092CE031092BD
:10266000CD032090CD033090CE0322E0221631041A
:102670000CF06EC08101000F111F000F111FF80137
:10268000EB5AFC4F6081718182819381F801E35B99
:10269000FC4FC080D180E280F380F801EB5BFC4FFF
:1026A0004080518062807380A801455B594F5AA3D6
:1026B00049A3C414D504E604F70439F4DA011D92E1
:1026C0001D921D921C9213971EC082D520E030E40B
:1026D0004CE156E4DCD56BA37CA38DA39EA3C7017C
:1026E000B601641975098609970972D59B01AC0179
:1026F0006BA17CA18DA19EA1E3D6E9A1FAA1608383
:10270000718382839383F801EB5BFC4F108211820B
:1027100012821382055B194FD8014D915D916D9125
:102720007C91B4E1B29DC001B39D900D11248D53F5
:102730009A4F0E947C08F80160837183828393839F
:10274000FFEF2F1A3F0A3092CE032092CD0389CF9C
:102750008092CF039092D003A092D103B092D20383
:1027600049EC52E05CA34BA384E093E09AAB89ABC5
:1027700083E4482E86E0582EA7E7B6E0BAA3A9A3C3
:1027800093E5692E96E0792E18A61FA2D301DC9658
:102790008C91882309F404C10E9409056BAB7CABC2
:1027A0008DAB9EABF30180A191A1A2A1B3A14BA9D6
:1027B0005CA96DA97EA9481B590B6A0B7B0B80A9EC
:1027C00091A9A2A9B3A9481759076A077B0708F47A
:1027D000E7C0028CF38DE02D20813181428153814D
:1027E00029A73AA74BA75CA7D3015E96ED91FC9170
:1027F0005F976081718182819381FDD54B015C017E
:10280000F30120A531A542A553A569A57AA58BA5FD
:102810009CA5F1D56BAF7CAF8DAF9EAFD3011C965D
:10282000CD90DD90ED90FC901F9720E030E048ECDB
:1028300051E4C501B401C6D487FF09C020E030E0EF
:1028400040E05FE3C701B60122D56B017C01F301D3
:102850002089318942895389C501B40118D5A9A1BC
:10286000BAA12D913D914D915C91C6D56DA77EA7E2
:102870008FA798ABE9A1FAA16083718382839383C8
:10288000D301D8962C90D897D9963C90D997DA96C0
:102890000C91DA97DB961C919101A801AAD6181623
:1028A0004CF4C101D801E9A1FAA180839183A283EC
:1028B000B3831DC0D301D4962D913D914D915C9170
:1028C000D7972FAB38AF49AF5AAF6DA57EA58FA56F
:1028D00098A978D487FF0BC02FA938AD49AD5AAD60
:1028E000A9A1BAA12D933D934D935C931397A50194
:1028F0009401C701B601CBD4E9A1FAA120813181AD
:102900004281538179D56B017C01D30154962D917D
:102910003D914D915C9157976BAD7CAD8DAD9EAD6A
:10292000B6D49B01AC01C701B60165D56B017C0132
:102930009101A8015ED6181674F0F30124A835A8F9
:1029400006A917A99101A801B601C7013BD487FDCB
:1029500002C016018701D3015C96ED91FC915D9751
:10296000C101D80180839183A283B38329A53AA5AD
:102970004BA55CA5D30198962D933D934D935C9305
:102980009B972BA93CA94DA95EA990962D933D93A9
:102990004D935C939397F30184A695A6A6A6B7A63C
:1029A000D2016D917D918D919D912D01EBA1FCA1A5
:1029B0001081E12EF12CF1D570E0CB010597E816DE
:1029C000F9062CF41B5FABA1BCA11C9309C06B5F83
:1029D0007F4F6E157F0524F41550EBA1FCA11083E9
:1029E000A9A9BAA90D91BAABA9ABEBA1FCA18081B1
:1029F000002E000C110B080F111D8091CC038823B1
:102A000041F060E070E08DE00E940A0460E070E058
:102A100014C00F3F110519F014F00FEF10E02FA1B3
:102A200038A560E02130310551F48CE10E949F030C
:102A300061E08DE10E949F03B80187E009C08BE14E
:102A40000E949F0361E08AE10E949F03B8018DE02C
:102A50000E940A043DE3630E711C4BA15CA14F5F11
:102A60005F4F5CA34BA389A19AA1CD969AA389A39A
:102A7000AFA1B8A5119729F0E1E0F0E0F8A7EFA326
:102A800085CE0E94460234CB81E080931606B2C9FF
:102A9000111112C00E940905DC01CB0188199909A6
:102AA000AA09BB0911E081359105A105B10508F01E
:102AB00051CC4FCC112311F011E066CC10911706C8
:102AC000012F1B3008F00AE080911906811102C025
:102AD000101B01C010E080E090E00E94280981E610
:102AE0000E948B076701015038F08FEF0E948B071F
:102AF000D6018D936D01F7CF112329F08FEF0E943E
:102B00008B071150F9CF81E090E00E94280987E1FE
:102B10000E945209F701618172818381948158D3A7
:102B20002AE939E949EE51E4CBD432D5D7011196DF
:102B30006D937D938D939C931497BAE0EB0EF11CEB
:102B400003CC8D809E80AF80B88420E030E040E2EE
:102B500051E4C501B4014DD518160CF071CC20E03C
:102B600030E04AE754E4C501B4012CD387FF68CCB8
:102B7000B701A6018FEF95E00E947C086B017C01F4
:102B8000B501A4018BEE95E00E947C084B015C012D
:102B9000B701A60189E894E00E943A0B64E273E071
:102BA00089E894E00E94DD0AB501A40189E894E077
:102BB0000E943A0B63E273E089E894E00E94DD0A28
:102BC00061E273E089E894E00E94DD0A39CC8091EB
:102BD00035069091360623C25F926F927F928F9254
:102BE0009F92AF92BF92CF92DF92EF92FF920F939C
:102BF0001F93CF93DF93C9E8D4E01B821A8288EE3B
:102C000093E0A0E0B0E08C839D83AE83BF832AE095
:102C1000822E23E0922E998288822DEC30E03D872F
:102C20002C872CEC30E03F872E8728EC30E0398B66
:102C3000288B29EC30E03B8B2A8B2AEC30E03D8B53
:102C40002C8B2EEC30E03F8B2E8B198E1A8E1B8E28
:102C50001C8EECEEF3E01382128284839583A683AC
:102C6000B7839182808285EC90E09587848784EC9D
:102C700090E09787868780EC90E0918B808B81EC49
:102C800090E0938B828B82EC90E0958B848B86EC2A
:102C900090E0978B868B118E128E138E148E1F925E
:102CA0001F923DE3532E5F924CEC742E7F927F92E5
:102CB0005DEC652E6F926DECA62E6CECB62E6CE47E
:102CC000C62E6EE3D62E1DECE12E1CECF12E0CE888
:102CD0001FE32BE336E043E456E06BE476E083E564
:102CE00096E00E9492071F921F925F927F927F92BE
:102CF0006F922FE336E047E456E06FE476E080E938
:102D000096E00E949207E5E3F6E0118210821382BA
:102D100012821582148240E050E063E273E0CF013A
:102D20000E94490AE1E3F6E01182108213821282C6
:102D3000EDE2F6E01182108213821282E3E2F6E005
:102D40001482128216821782108611861582E3E1A0
:102D5000F6E089E0808385E3818381E082831382CA
:102D600080E284831582168210861186128613866D
:102D70001486158616861786EFEFF5E000E010E062
:102D800020E03EE3008311832283338340E050E060
:102D900060E072E4448355836683778380E090EC3F
:102DA000AFE7B4E484879587A687B7871086118636
:102DB00012861386EBEEF5E00083118322833383C2
:102DC000448355836683778384879587A687B787EF
:102DD0001086118612861386E3ECF5E080E090E021
:102DE000A0EAB0E480839183A283B3838483958334
:102DF000A683B78340E050E060E271E444875587E2
:102E0000668777871086118612861386848B958B4A
:102E1000A68BB78B808F918FA28FB38F40A351A3C6
:102E200062A373A3148E158E168E178EE6E2F5E05C
:102E30008A819B81938382838C819D81AE81BF81B6
:102E400084839583A683B78388859985AA85BB8566
:102E500080879187A287B387918280828C859D85A8
:102E6000958784878E859F859787868788899989A6
:102E7000918B808B8A899B89938B828B8C899D898E
:102E8000958B848B8E899F89978B868B888D808F7D
:102E9000898D818F8A8D828F8B8D838F8C8D848F8E
:102EA00080E4E6EAF4E0A3E4B5E001900D928A95AF
:102EB000E1F780E4E6EEF4E0A3E8B5E001900D92DE
:102EC0008A95E1F78DB79EB70C960FB6F8949EBF22
:102ED0000FBE8DBFDF91CF911F910F91FF90EF90AB
:102EE000DF90CF90BF90AF909F908F907F906F902A
:102EF0005F900895CF93DF938230910510F482E0C4
:102F000090E0E091CF06F091D00620E030E0C0E004
:102F1000D0E0309711F14081518148175907C0F036
:102F20004817590761F482819381209719F09B8398
:102F30008A832BC09093D0068093CF0626C021159C
:102F4000310519F04217530718F49A01BE01DF0149
:102F5000EF010280F381E02DDCCF2115310509F16D
:102F6000281B390B2430310590F412968D919C91D9
:102F700013976115710521F0FB019383828304C0CF
:102F80009093D0068093CF06FD01329644C0FD0198
:102F9000E20FF31F81939193225031092D933C93BB
:102FA0003AC02091CD063091CE06232B41F42091DA
:102FB000CD023091CE023093CE062093CD062091E3
:102FC000CB023091CC022115310541F42DB73EB72B
:102FD0004091CF025091D002241B350BE091CD06D9
:102FE000F091CE06E217F307A0F42E1B3F0B281733
:102FF000390778F0AC014E5F5F4F2417350748F072
:103000004E0F5F1F5093CE064093CD068193919350
:1030100002C0E0E0F0E0CF01DF91CF9108950F937F
:103020001F93CF93DF93009709F48CC0FC01329774
:10303000138212820091CF061091D006011511055E
:1030400081F420813181820F931F2091CD06309130
:10305000CE062817390779F5F093CE06E093CD0612
:1030600071C0D80140E050E0AE17BF0750F412968F
:103070002D913C911397AD012115310509F1D9012D
:10308000F3CF9D01DA013383228360817181860F42
:10309000971F8217930769F4EC0128813981260F65
:1030A000371F2E5F3F4F318320838A819B8193831B
:1030B0008283452B29F4F093D006E093CF0642C0DB
:1030C0001396FC93EE931297ED01499159919E014D
:1030D000240F351FE217F30771F480819181840F6B
:1030E000951F029611969C938E93828193811396DD
:1030F0009C938E931297E0E0F0E0D80112968D91A8
:103100009C911397009719F0F8018C01F6CF8D91DF
:103110009C9198012E5F3F4F820F931F2091CD0607
:103120003091CE062817390769F4309729F41092A8
:10313000D0061092CF0602C0138212821093CE06E0
:103140000093CD06DF91CF911F910F9108951F93AA
:10315000FC0199278827BC01E89411911032E9F30A
:10316000193010F01E30C8F31B3249F01D3241F403
:10317000689405C012D0610F711D811D911D1191C0
:1031800010531A30B8F33EF4909580957095619580
:103190007F4F8F4F9F4F1F910895592F482F372FE3
:1031A000262F660F771F881F991F660F771F881FAE
:1031B000991F620F731F841F951F660F771F881F4B
:1031C000991F089540D008F481E00895E89409C05B
:1031D00097FB3EF490958095709561957F4F8F4F4A
:1031E0009F4F9923A9F0F92F96E9BB279395F69560
:1031F000879577956795B795F111F8CFFAF4BB0FDE
:1032000011F460FF1BC06F5F7F4F8F4F9F4F16C041
:10321000882311F096E911C0772321F09EE8872FCB
:10322000762F05C0662371F096E8862F70E060E087
:103230002AF09A95660F771F881FDAF7880F969500
:10324000879597F90895990F0008550FAA0BE0E8A4
:10325000FEEF16161706E807F907C0F01216130658
:10326000E407F50798F0621B730B840B950B39F498
:103270000A2661F0232B242B252B21F408950A26FE
:1032800009F4A140A6958FEF811D811D08950BD0F3
:1032900078C069D028F06ED018F0952309F05AC094
:1032A0005FC01124A2C07ED0A0F3959FD1F3950FEB
:1032B00050E0551F629FF001729FBB27F00DB11DBA
:1032C000639FAA27F00DB11DAA1F649F6627B00D4A
:1032D000A11D661F829F2227B00DA11D621F739F33
:1032E000B00DA11D621F839FA00D611D221F749F41
:1032F0003327A00D611D231F849F600D211D822F88
:10330000762F6A2F11249F5750408AF0E1F08823CE
:103310004AF0EE0FFF1FBB1F661F771F881F9150DB
:103320005040A9F79E3F510570F014C05EC05F3F4A
:10333000ECF3983EDCF3869577956795B795F7950E
:10334000E7959F5FC1F7FE2B880F911D9695879596
:1033500097F9089597F99F6780E870E060E0089515
:103360009FEF80EC089500240A941616170618069D
:103370000906089500240A94121613061406050679
:103380000895092E0394000C11F4882352F0BB0F0A
:1033900040F4BF2B11F460FF04C06F5F7F4F8F4F6D
:1033A0009F4F089557FD9058440F551F59F05F3FA8
:1033B00071F04795880F97FB991F61F09F3F79F057
:1033C00087950895121613061406551FF2CF4695D9
:1033D000F1DF08C0161617061806991FF1CF86955B
:1033E0007105610508940895E894BB27662777273F
:1033F000CB0197F908955058BB27AA270ED0C1CF0B
:10340000B2DF30F0B7DF20F031F49F3F11F41EF44B
:10341000A7CF0EF4E095E7FB9DCFE92FC3DF80F344
:10342000BA17620773078407950718F071F49EF5C1
:10343000DBCF0EF4E0950B2EBA2FA02D0B01B901B6
:1034400090010C01CA01A0011124FF27591B99F01A
:10345000593F50F4503E68F11A16F040A22F232F26
:10346000342F4427585FF3CF469537952795A79576
:10347000F0405395C9F77EF41F16BA0B620B730B1D
:10348000840BBAF09150A1F0FF0FBB1F661F771F8E
:10349000881FC2F70EC0BA0F621F731F841F48F443
:1034A000879577956795B795F7959E3F08F0B3CFC9
:1034B0009395880F08F09927EE0F979587950895B3
:1034C0000CD05FCF57DF40F04EDF30F021F45F3F8C
:1034D00019F040CF511189CF43CF64DF98F399237E
:1034E000C9F35523B1F3951B550BBB27AA276217C8
:1034F0007307840738F09F5F5F4F220F331F441F0D
:10350000AA1FA9F333D00E2E3AF0E0E830D0915044
:103510005040E695001CCAF729D0FE2F27D0660F31
:10352000771F881FBB1F261737074807AB07B0E870
:1035300009F0BB0B802DBF01FF2793585F4F2AF086
:103540009E3F510568F006CF50CF5F3FECF3983EA9
:10355000DCF3869577956795B795F7959F5FC9F7E3
:10356000880F911D9695879597F90895E1E0660F6C
:10357000771F881FBB1F621773078407BA0720F0E5
:10358000621B730B840BBA0BEE1F88F7E09508954E
:1035900004D06894B11129CF08950CDF88F09F57AB
:1035A00090F0B92F9927B751A0F0D1F0660F771F8F
:1035B000881F991F1AF0BA95C9F712C0B13081F06F
:1035C00013DFB1E0089510CF672F782F8827B85FF9
:1035D00039F0B93FCCF3869577956795B395D9F7D0
:1035E0003EF490958095709561957F4F8F4F9F4FDA
:1035F000089529DE08F48FEF089525DE880B990BD6
:103600000895A1E21A2EAA1BBB1BFD010DC0AA1F23
:10361000BB1FEE1FFF1FA217B307E407F50720F03B
:10362000A21BB30BE40BF50B661F771F881F991FB6
:103630001A9469F760957095809590959B01AC01FF
:10364000BD01CF010895EE0FFF1F881F8BBF0790AC
:10365000F691E02D19940024A7FD00942A17300557
:1036600040055005600570058005900508956F922E
:103670007F928F929F92AF92BF92CF92DF92EF9202
:10368000FF920F931F93CF93DF93EC01009781F488
:10369000CB01DF91CF911F910F91FF90EF90DF90C1
:1036A000CF90BF90AF909F908F907F906F9022CCE3
:1036B000FC01E60FF71F9C0122503109E217F307C6
:1036C00008F4A8C0D9010D911C911197061717078E
:1036D000A8F00530110508F49BC0C80104978617AF
:1036E000970708F495C002501109061B170B0193A8
:1036F00011936D937C93CF0192DC8AC05B01A01A79
:10370000B10A4C01800E911EA091CF06B091D00657
:1037100040E050E0E12CF12C109709F44AC0A815C4
:10372000B905D1F56D907C901197630182E0C80EC8
:10373000D11CCA14DB0480F1A3014A195B096A0198
:1037400082E0C80ED11C1296BC9012971396AC91D1
:10375000B5E0CB16D10440F0B282A38351834083FD
:10376000D9016D937C930AC00E5F1F4FC301800F78
:10377000911FF90191838083EB2DFA2FE114F1045D
:1037800031F0D7011396FC93EE93129741C0F0935A
:10379000D006E093CF063CC08D919C9111974817BD
:1037A000590708F4AC017D0112960D90BC91A02D33
:1037B000B3CF8091CD069091CE0688159905E1F49E
:1037C00046175707C8F48091CB029091CC0200971E
:1037D00041F48DB79EB74091CF025091D002841B27
:1037E000950BE817F907B0F4F093CE06E093CD06F9
:1037F000F901718360830CC0CB017CDB7C010097F5
:1038000049F0A801BE011BD0CE0109DCC70104C0EC
:10381000CE0102C080E090E0DF91CF911F910F9127
:10382000FF90EF90DF90CF90BF90AF909F908F90E0
:103830007F906F90089581E090E0F89419C0FB01AB
:10384000DC0102C001900D9241505040D8F708951C
:10385000FB01DC018D91019080190110D9F3990BC6
:103860000895FB01DC0101900D920020E1F708951D
:1038700011E0C3E2D1E000E005C0802FFE01E3DEED
:103880002196011DC432D10780E00807B1F7F894F2
:02389000FFCF68
:103892000CF402F402F402F402F402F402F402F46C
:1038A200022A2A2A2A2A2A382C00000000000000B4
:1038B2000000000000000000000000000000000006
:1038C20000000000000000000000000000000000F6
:1038D20000000000000000000000000000000000E6
:1038E20000000000000000000000000000000000D6
:1038F20000000000000000000000000000000000C6
:1039020000000000000000000000000000000000B5
:1039120000000000000000000000000000000000A5
:103922000000000000000000000000000000000095
:103932000000000000000000000000000000000085
:103942000000000000000000002E00000000000047
:103952000000000000000000000A0A0000D10680FA
:1039620000000001000800400000010004050D0BEA
:103972002A2B2C2D2E2F30310A0A0A000D0E131578
:1039820016191A1C232526292A2C323426272829DF
:10399200161718190F0000000000DF01FD086F0163
:1039A2002502A0017E0192014D2E467265653A20E4
:1039B200000D0A002C006D64006D69006B6C0073D1
:1039C200746F70006E616E00696E66006F766600DD
:020000023000CC
:10E000000D9489F10D94B2F10D94B2F10D94B2F129
:10E010000D94B2F10D94B2F10D94B2F10D94B2F1F0
:10E020000D94B2F10D94B2F10D94B2F10D94B2F1E0
:10E030000D94B2F10D94B2F10D94B2F10D94B2F1D0
:10E040000D94B2F10D94B2F10D94B2F10D94B2F1C0
:10E050000D94B2F10D94B2F10D94B2F10D94B2F1B0
:10E060000D94B2F10D94B2F10D94B2F10D94B2F1A0
:10E070000D94B2F10D94B2F10D94B2F10D94B2F190
:10E080000D94B2F10D94B2F10D94B2F10D94B2F180
:10E090000D94B2F10D94B2F10D94B2F10D94B2F170
:10E0A0000D94B2F10D94B2F10D94B2F10D94B2F160
:10E0B0000D94B2F10D94B2F10D94B2F10D94B2F150
:10E0C0000D94B2F10D94B2F10D94B2F10D94B2F140
:10E0D0000D94B2F10D94B2F10D94B2F10D94B2F130
:10E0E0000D94B2F141546D656761323536300041AF
:10E0F000726475696E6F206578706C6F72657220DE
:10E1000073746B3530305632206279204D4C530099
:10E11000426F6F746C6F616465723E004875683F52
:10E1200000436F6D70696C6564206F6E203D200048
:10E130004350552054797065202020203D20005FF9
:10E140005F4156525F415243485F5F3D2000415658
:10E1500052204C696243205665723D20004743437C
:10E160002056657273696F6E203D20004350552024
:10E1700049442020202020203D20004C6F7720663D
:10E18000757365202020203D20004869676820665F
:10E190007573652020203D200045787420667573D6
:10E1A00065202020203D20004C6F636B2066757336
:10E1B000652020203D20004D617220203720323024
:10E1C000313300312E362E3800342E332E350056A2
:10E1D00023202020414444522020206F7020636F70
:10E1E00064652020202020696E73747275637469E1
:10E1F0006F6E2061646472202020496E74657272B3
:10E20000757074006E6F20766563746F7200726A49
:10E210006D702020006A6D70200057686174207056
:10E220006F72743A00506F7274206E6F7420737541
:10E2300070706F72746564004D7573742062652030
:10E2400061206C6574746572002000577269747483
:10E25000696E672045450052656164696E672045B7
:10E26000450045452065727220636E743D00504F35
:10E27000525400303D5A65726F2061646472003FF1
:10E280003D43505520737461747300403D454550C3
:10E29000524F4D207465737400423D426C696E6B41
:10E2A000204C454400453D44756D70204545505215
:10E2B0004F4D00463D44756D7020464C415348001B
:10E2C000483D48656C70004C3D4C69737420492F83
:10E2D0004F20506F72747300513D51756974005234
:10E2E0003D44756D702052414D00563D73686F7707
:10E2F00020696E7465727275707420566563746FF0
:10E30000727300593D506F727420626C696E6B00BD
:10E310002A0011241FBECFEFD1E2DEBFCDBF01E046
:10E320000CBF12E0A0E0B2E0EEE1FDEF03E00BBFB6
:10E3300002C007900D92A030B107D9F712E0A0E01B
:10E34000B2E001C01D92AE30B107E1F70F9460F367
:10E350000D948DFE01E20EBF0FEF0DBF11241FBE05
:10E360000D9460F30D9400F020E030E040ED57E0B4
:10E3700005C0FA013197F1F72F5F3F4F2817390792
:10E38000C0F308959C01260F311DC901A0E0B0E043
:10E390002F5F3F4FABBFFC018791882361F08093D3
:10E3A000C6008091C00086FFFCCF8091C0008064D1
:10E3B0008093C000EACF08958DE08093C6008091DD
:10E3C000C00086FFFCCF8091C00080648093C000B5
:10E3D0008AE08093C6008091C00086FFFCCF8091C8
:10E3E000C00080648093C00008950F94C2F10F9420
:10E3F000DCF10895FC019081992359F09093C600B7
:10E400008091C00086FFFCCF8091C0008064809323
:10E41000C0003196992379F70895282F982F929567
:10E420009F70892F805D8A3308F0895F8093C600D2
:10E430008091C00086FFFCCF8091C00080648093F3
:10E44000C000822F8F70982F905D9A3308F0995FEB
:10E450009093C6008091C00086FFFCCF8091C000E1
:10E4600080648093C00008959C01FB01853691056E
:10E470001CF46330710594F0C90164E670E00F94F8
:10E480002EFE605D7F4F6093C6008091C00086FFC6
:10E49000FCCF8091C00080648093C0002B30310598
:10E4A00014F43297B4F0C90164E670E00F942EFEC4
:10E4B0006AE070E00F942EFE605D7F4F6093C600AF
:10E4C0008091C00086FFFCCF8091C0008064809363
:10E4D000C000C9016AE070E00F942EFEC0968093E0
:10E4E000C6008091C00086FFFCCF8091C000806490
:10E4F0008093C00008951F93182F8EE692EE60E07F
:10E500000F94C2F11093C6008091C00086FFFCCF2B
:10E510008091C00080648093C0000F94DCF11F9153
:10E5200008952F923F924F925F926F927F928F92B7
:10E530009F92AF92BF92CF92DF92EF92FF920F9392
:10E540001F93DF93CF93CDB7DEB762970FB6F894E2
:10E55000DEBF0FBECDBF382E622ECA01DB015C01CB
:10E560006D01772420E2222E2E010894411C511CBB
:10E570008BC081E0A81680E0B80681E0C80680E084
:10E58000D80628F0C601AA27BB270F940DF2BB2797
:10E59000AD2D9C2D8B2D0F940DF28A2D0F940DF225
:10E5A0002092C6008091C00086FFFCCF8091C00001
:10E5B00080648093C0009DE29093C6008091C0006B
:10E5C00086FFFCCF8091C00080648093C0002092C1
:10E5D000C6008091C00086FFFCCF8091C00080649F
:10E5E0008093C00019828601750188249924A1E0D6
:10E5F0003A1651F03A1620F0B2E03B1661F409C029
:10E600000BBFF701779007C0C7010F9477FE782EF4
:10E6100002C0F7017080872D0F940DF22092C60082
:10E620008091C00086FFFCCF8091C0008064809301
:10E63000C000872D8052F401EF70F0708F3520F408
:10E64000E40DF51D708204C0E40DF51D8EE280839B
:10E650000894E11CF11C011D111D0894811C911CE2
:10E6600090E18916910409F0C2CF80E190E0A0E02A
:10E67000B0E0A80EB91ECA1EDB1E198AC2010F9493
:10E68000FAF10F94DCF16A94662009F072CF629679
:10E690000FB6F894DEBF0FBECDBFCF91DF911F91B3
:10E6A0000F91FF90EF90DF90CF90BF90AF909F9031
:10E6B0008F907F906F905F904F903F902F90089534
:10E6C0002F923F924F925F926F927F928F929F9282
:10E6D000AF92BF92CF92DF92EF92FF920F931F9370
:10E6E000DF93CF93CDB7DEB7CD53D1400FB6F894BB
:10E6F000DEBF0FBECDBF01E20EBF0FEF0DBF94B75F
:10E70000F894A89514BE80916000886180936000A1
:10E7100010926000789493FF05C0E0910002F091A0
:10E7200001021995279A2F9A8091C00082608093E8
:10E73000C00080E18093C40088E18093C1000000A4
:10E74000EE24FF24870144E0A42EB12CCC24DD2448
:10E7500024C0C5010197F1F70894E11CF11C011DCB
:10E76000111D21E2E2162EE4F20620E0020720E06D
:10E77000120718F031E0C32ED12CC801B70127ECE5
:10E780003BE140E050E00F9441FE611571058105C9
:10E79000910519F485B1805885B98091C00087FD35
:10E7A00003C0C114D104A9F2A6014F5F5F4FC25E3E
:10E7B000DE4F59834883CE51D140C25EDE4F8881FF
:10E7C0009981CE51D140019711F00D9410FEC05D9A
:10E7D000DE4F19821882C053D14060E0C15DDE4F28
:10E7E0001882CF52D14088249924C35DDE4F19820C
:10E7F0001882CD52D140C05EDE4F188219821A8233
:10E800001B82C052D140CE5CDE4F188219821A8220
:10E810001B82C253D140EE24FF2487010BBFF701B6
:10E8200007911691C45CDE4F19830883CC53D14005
:10E830000D940BFEC25EDE4F28813981CE51D1404E
:10E840002130310509F52091C600C25EDE4F1982E4
:10E850001882CE51D14022C02F5F3F4F4F4F5F4FA4
:10E86000213082E138078AE7480780E0580780F0C6
:10E87000C45CDE4FE881F981CC53D140EF5FFF4F9C
:10E8800019F0EE27FF27099420E030E040E050E047
:10E890008091C00087FFE0CF2091C600C35DDE4FAE
:10E8A00048815981CD52D1404F5F5F4FC35DDE4FEC
:10E8B00059834883CD52D140213209F063C64A3092
:10E8C000510508F05FC60894811C911C53E0851621
:10E8D000910409F059C600E010E018C081E280936D
:10E8E000C6008091C00086FFFCCF8091C00080648C
:10E8F0008093C0002F5F3F4F2931310579F70F9486
:10E90000DCF10F5F1F4F0530110519F020E030E0FA
:10E91000E5CF10920A0210920B0210920C02109294
:10E920000D02109206021092070210920802109235
:10E930000902109202021092030210920402109235
:10E9400005028FEE90EE60E00F94F5F180E191EE1C
:10E9500060E00F94C2F18091C00087FFFCCF9091DE
:10E96000C600903608F09F759032B8F09093C600BC
:10E970008091C00086FFFCCF8091C00080648093AE
:10E98000C000A0E2A093C6008091C00086FFFCCF2B
:10E990008091C00080648093C000983409F4D7C18E
:10E9A0009934B8F4923409F459C1933458F490333B
:10E9B00019F1903308F4E3C59F33A1F1903409F0C5
:10E9C000DEC5BDC0953409F470C1963409F0D7C5D1
:10E9D00098C1923509F42BC2933538F49C3409F46C
:10E9E000F5C1913509F0CBC518C2963509F445C279
:10E9F000993509F0C4C567C483E792EE62E00F94CD
:10EA0000F5F110920602109207021092080210927D
:10EA1000090210920A0210920B0210920C0210923C
:10EA20000D0213C18FE792EE62E00F94F5F18FEEC5
:10EA300090EE60E00F94F5F181E291EE60E00F94CA
:10EA4000C2F187EB91EE60E00F94F5F180E391EE77
:10EA500060E00F94C2F184EE90EE60E00F94F5F167
:10EA60008FE391EE60E00F94C2F186E090E061E008
:10EA700070E00F9434F20F94DCF18DE591EE60E0DC
:10EA80000F94C2F189EC91EE60E00F94F5F18EE401
:10EA900091EE60E00F94C2F183EC91EE60E00F9490
:10EAA000F5F18CE691EE60E00F94C2F18EE10F94E7
:10EAB0000DF288E90F940DF281E00F940DF20F949E
:10EAC000DCF18BE791EE60E00F94C2F119E0E0E039
:10EAD000F0E010935700E4918E2F0F940DF20F94F5
:10EAE000DCF18AE891EE60E00F94C2F1E3E0F0E03F
:10EAF00010935700E4918E2F0F940DF20F94DCF1D8
:10EB000089E991EE60E00F94C2F1E2E0F0E0109349
:10EB10005700E4918E2F0F940DF20F94DCF188EAE8
:10EB200091EE60E00F94C2F1E1E0F0E01093570045
:10EB30001491812F0F940DF20F94DCF107CF8BE825
:10EB400092EE62E00F94F5F18BE492EE60E00F94A8
:10EB5000F5F10F94DCF100E010E019C0C8016F2D51
:10EB60000F947FFEFF2031F489E492EE60E00F9471
:10EB7000C2F10BC0F092C6008091C00086FFFCCFAE
:10EB80008091C00080648093C0000F5F1F4FC80158
:10EB900081519F41A0E0B0E0ABBFFC01F790BAE229
:10EBA000FB1621F0E2E000301E07C1F60F94DCF105
:10EBB0000F94DCF187E592EE60E00F94F5F10F948D
:10EBC000DCF1CC24DD2400E010E01EC0C8010F946D
:10EBD00077FEF82E882331F489E492EE60E00F94FA
:10EBE000C2F10BC08093C6008091C00086FFFCCFAD
:10EBF0008091C00080648093C000FE1419F00894D6
:10EC0000C11CD11C0F5F1F4FC80181519F41A0E063
:10EC1000B0E0ABBFFC01E790FAE2EF1621F022E092
:10EC20000030120799F60F94DCF10F94DCF182E6C4
:10EC300092EE60E00F94C2F1C60161E070E00F94C3
:10EC400034F20F94DCF10F94DCF110920202109276
:10EC50000302109204021092050278CE89E992EE26
:10EC600062E00F94F5F1279A2F9A16C02F9880E052
:10EC700090E0E0EDF7E03197F1F7019684369105E9
:10EC8000C1F72F9A80E090E0E0EDF7E03197F1F7DF
:10EC9000019684369105C1F78091C00087FFE6CFC9
:10ECA0008091C00087FFFCCF64C485EA92EE62E0E9
:10ECB0000F94F5F140910202509103026091040219
:10ECC0007091050281E020E10F9491F2809102029F
:10ECD00090910302A0910402B091050280509F4FD1
:10ECE000AF4FBF4F8093020290930302A0930402A0
:10ECF000B093050280509041A040B04008F426CE69
:10ED0000A4CF83EB92EE62E00F94F5F140910602FE
:10ED100050910702609108027091090280E020E1A1
:10ED20000F9491F28091060290910702A09108023F
:10ED3000B091090280509F4FAF4FBF4F80930602A2
:10ED400090930702A0930802B0930902FFCD80ECD4
:10ED500092EE62E00F94F5F183E792EE60E00F949B
:10ED6000F5F18FE792EE60E00F94F5F18BE892EE0B
:10ED700060E00F94F5F189E992EE60E00F94F5F10F
:10ED800085EA92EE60E00F94F5F183EB92EE60E09D
:10ED90000F94F5F180EC92EE60E00F94F5F187ECC2
:10EDA00092EE60E00F94F5F188ED92EE60E00F9442
:10EDB000F5F18FED92EE60E00F94F5F18AEE92EEB0
:10EDC00060E00F94F5F183E093EEBDCD87EC92EE19
:10EDD00062E00F94F5F181E40F947BF282E40F94EA
:10EDE0007BF283E40F947BF284E40F947BF285E45E
:10EDF0000F947BF286E40F947BF287E40F947BF20E
:10EE000088E40F947BF28AE40F947BF28BE40F94F6
:10EE10007BF28CE40F947BF299CD88ED92EE62E068
:10EE20000F94F5F1772473948824992409C48FED05
:10EE300092EE62E00F94F5F140910A0250910B02BC
:10EE400060910C0270910D0282E020E10F9491F22A
:10EE500080910A0290910B02A0910C02B0910D02D8
:10EE600080509F4FAF4FBF4F80930A0290930B0289
:10EE7000A0930C02B0930D0269CD8AEE92EE62E08F
:10EE80000F94F5F184EE90EE60E00F94F5F18FECC5
:10EE900091EE60E00F94F5F1662477244301CC5D98
:10EEA000DE4F19821882C452D140D401C301B695F5
:10EEB000A79597958795CA5DDE4F88839983AA8326
:10EEC000BB83C652D140CC5DDE4FA881B981C4520C
:10EED000D1401196CC5DDE4FB983A883C452D14096
:10EEE000CD0162E070E00F9434F2B0E2B093C6005E
:10EEF0008091C00086FFFCCF8091C0008064809329
:10EF0000C000EDE2E093C6008091C00086FFFCCF18
:10EF10008091C00080648093C000F0E2F093C6004E
:10EF20008091C00086FFFCCF8091C00080648093F8
:10EF3000C000CA5DDE4FE880F9800A811B81C6529D
:10EF4000D140BB27A12F902F8F2D0F940DF2CA5DBA
:10EF5000DE4F8881C652D1400F940DF2B0E2FB2EF5
:10EF6000F092C6008091C00086FFFCCF8091C00067
:10EF700080648093C0000DE30093C6008091C000C0
:10EF800086FFFCCF8091C00080648093C00010E2B7
:10EF90001093C6008091C00086FFFCCF8091C00016
:10EFA00080648093C0008BBEF3012791C65DDE4F65
:10EFB0002883CA52D140A22EBB24CC24DD2408943D
:10EFC000611C711C811C911C8BBEF3018791282E42
:10EFD0003324442455240894611C711C811C911C09
:10EFE0008BBEF3013791C55DDE4F3883CB52D140E4
:10EFF0000894611C711C811C911C8BBEF30147910C
:10F00000C45DDE4F4883CC52D140ADEFEA2EAFEF66
:10F01000FA2EAFEF0A2FAFEF1A2F6E0C7F1C801E57
:10F02000911E142D032DF22CEE24EA0CFB1C0C1D5A
:10F030001D1D0F940DF220E22093C6008091C000A8
:10F0400086FFFCCF8091C00080648093C000C65DC5
:10F05000DE4F8881CA52D1400F940DF230E23093D6
:10F06000C6008091C00086FFFCCF8091C000806404
:10F070008093C000C45DDE4F8881CC52D1400F9494
:10F080000DF240E24093C6008091C00086FFFCCFA5
:10F090008091C00080648093C000C55DDE4F888190
:10F0A000CB52D1400F940DF250E25093C6008091A4
:10F0B000C00086FFFCCF8091C00080648093C000B8
:10F0C0008FEFE8168FEFF80680E0080780E018075A
:10F0D00031F484E092EE60E00F94C2F1DFC0D80119
:10F0E000C7018070907CA070B0708050904CA040A0
:10F0F000B040D1F52FEF3FE340E050E0E222F322B1
:10F1000004231523CA5DDE4FA880B980CA80DB8046
:10F11000C652D140AE0CBF1CC01ED11EAA0CBB1CD7
:10F12000CC1CDD1C8EE092EE60E00F94C2F1BB2798
:10F13000A12F902F8F2D0F940DF28E2D0F940DF285
:10F1400030E23093C6008091C00086FFFCCF8091F2
:10F15000C00080648093C0004EE34093C60080915D
:10F16000C00086FFFCCF87C08EE09EEFA0E0B0E03D
:10F17000E822F9220A231B239CE0E91694E9F90608
:10F1800090E0090790E0190709F088C0C45DDE4FE0
:10F19000A881CC52D140EA2EFF2400E010E0102FCD
:10F1A0000F2DFE2CEE24C55DDE4FB881CB52D14031
:10F1B000EB0EF11C011D111DD601C501817090706F
:10F1C000A070B070DC0199278827E80EF91E0A1F8D
:10F1D0001B1F20EF30E040E050E0A222B322C42207
:10F1E000D52241E1AA0CBB1CCC1CDD1C4A95D1F7F1
:10F1F000EA0CFB1C0C1D1D1D81E090E0A0E0B0E0BE
:10F20000282239224A225B2235E1220C331C441C7D
:10F21000551C3A95D1F7E20CF31C041D151D57013E
:10F220006801AA0CBB1CCC1CDD1C85E192EE60E0E1
:10F230000F94C2F1C801AA27BB270F940DF2BB2778
:10F24000A12F902F8F2D0F940DF28E2D0F940DF274
:10F2500090E29093C6008091C00086FFFCCF809121
:10F26000C00080648093C000AEE3A093C60080918C
:10F27000C00086FFFCCF8091C00080648093C000F6
:10F28000C601AA27BB270F940DF2BB27AD2D9C2DDD
:10F290008B2D0F940DF28A2D0F940DF20F94DCF14B
:10F2A000CC5DDE4FE881F981C452D140F99709F471
:10F2B0004DCBF4E0EF2EF12C012D112D6E0C7F1CA7
:10F2C000801E911EF2CD83E093EE62E00F94F5F183
:10F2D0008AE192EE60E00F94C2F18091C00087FF56
:10F2E000FCCF1091C6001F751093C6008091C0001E
:10F2F00086FFFCCF8091C00080648093C0000F9493
:10F30000DCF1812F81548A3108F036C1163409F4BA
:10F3100095C0173490F4133409F44EC0143430F40B
:10F320001134F1F0123409F01DC130C0143409F465
:10F3300059C0153409F016C16BC01A3409F4C4C0A1
:10F340001B3438F4173409F48FC0183409F00AC19B
:10F35000A1C01B3409F4D2C01C3409F003C1E8C0B9
:10F360008FEF81B90DC082B1809582B980E090E0C5
:10F37000E0EDF7E03197F1F70196883C9105C1F790
:10F380008091C00087FFEFCF12B8EFC08FEF84B934
:10F390000DC085B1809585B980E090E0E0EDF7E0A3
:10F3A0003197F1F70196883C9105C1F78091C00033
:10F3B00087FFEFCF15B8D9C08FEF87B90DC088B1DF
:10F3C000809588B980E090E0E0EDF7E03197F1F7C3
:10F3D0000196883C9105C1F78091C00087FFEFCF6F
:10F3E00018B8C3C08FEF8AB90DC08BB180958BB9A7
:10F3F00080E090E0E0EDF7E03197F1F70196883C8E
:10F400009105C1F78091C00087FFEFCF1BB8ADC059
:10F410008FEF8DB90DC08EB180958EB980E090E0F0
:10F42000E0EDF7E03197F1F70196883C9105C1F7DF
:10F430008091C00087FFEFCF1EB897C08FEF80BBD1
:10F440000DC081B3809581BB80E090E0E0EDF7E0F6
:10F450003197F1F70196883C9105C1F78091C00082
:10F4600087FFEFCF11BA81C08FEF83BB0DC084B38C
:10F47000809584BB80E090E0E0EDF7E03197F1F714
:10F480000196883C9105C1F78091C00087FFEFCFBE
:10F4900014BA6BC08FEF809301010FC080910201FD
:10F4A00080958093020180E090E0E0EDF7E03197F5
:10F4B000F1F70196883C9105C1F78091C00087FF64
:10F4C000EDCF1092020151C08FEF809304010FC065
:10F4D0008091050180958093050180E090E0E0ED4A
:10F4E000F7E03197F1F70196883C9105C1F78091DB
:10F4F000C00087FFEDCF1092050137C08FEF8093DA
:10F5000007010FC08091080180958093080180E079
:10F5100090E0E0EDF7E03197F1F70196883C910536
:10F52000C1F78091C00087FFEDCF109208011DC088
:10F530008FEF80930A010FC080910B01809580931B
:10F540000B0180E090E0E0EDF7E03197F1F70196F4
:10F55000883C9105C1F78091C00087FFEDCF1092E4
:10F560000B0103C085E292EEEEC98091C00087FFD7
:10F57000FCCF8091C600EAC988E392EEE4C98CE131
:10F5800091EEE1C988249924933011F1943028F444
:10F59000913089F09230B8F408C0953061F195301F
:10F5A000F0F0963009F048C043C02B3109F042C951
:10F5B00091E06BE13FC96227C15DDE4F2883CF52E6
:10F5C000D14092E037C9B22FA0E0622793E032C960
:10F5D000822F90E0A82BB92B622794E02BC92E3004
:10F5E00009F039C3622795E0C05DDE4F19821882A9
:10F5F000C053D1401FC9E1E0F0E0EC0FFD1FC05D3A
:10F60000DE4F08811981C053D140E00FF11F2083E4
:10F610000F5F1F4FC05DDE4F19830883C053D14079
:10F6200062270A171B0709F005C9D80196E002C92D
:10F63000261709F010C303C0973009F0FBC87724E0
:10F640009981933109F412C19431C8F4963009F4C8
:10F65000D8C0973050F4923009F406C1933009F4C1
:10F660006DC0913009F059C253C0913109F477C08F
:10F67000923108F0BBC0903109F04FC2F5C098310B
:10F6800009F487C0993150F4953109F4EFC09531F0
:10F6900008F4C6C1963109F040C2C2C19A3109F4DA
:10F6A0006CC09A3108F491C09B3109F45BC09D3164
:10F6B00009F033C29D81903359F48F81882311F46E
:10F6C0009EE11CC0813011F091E018C098E916C08D
:10F6D000892F807591F0903539F4E0E0F0E089E011
:10F6E0008093570094910AC0983539F4E3E0F0E034
:10F6F00089E080935700949101C090E01A821B82A8
:10F700008D818C831D829E831F8227E030E009C299
:10F710001A8288E08B8381E48C8386E58D8382E581
:10F720008E8389E48F8383E5888780E589878FE5E9
:10F730008A8782E38B872BE030E0F3C18A818139AD
:10F7400041F0823941F0803911F48FE005C080E04A
:10F7500003C082E001C08AE01A828B8344C0772410
:10F76000739482C08D81882311F48EE12CC0813086
:10F7700011F081E028C088E926C01A82E1E0F0E0BB
:10F7800089E08093570084918B831C8224E030E0D1
:10F79000C8C18B81803589F48C81883039F4E2E0EE
:10F7A000F0E089E08093570084910DC0E0E0F0E044
:10F7B00089E080935700849106C0E3E0F0E089E09F
:10F7C0008093570084911A82DFCF8D81836C99E0FA
:10F7D000E1E0F0E0082E90935700E89507B600FCB2
:10F7E000FDCF1A821B8223E030E09BC180EC8A832C
:10F7F000CE5CDE4F188219821A821B82C253D1401E
:10F800008EC18A8190E0A0E0B0E0582F44273327D2
:10F8100022278B8190E0A0E0B0E0DC0199278827C7
:10F82000282B392B4A2B5B2B8D8190E0A0E0B0E098
:10F83000282B392B4A2B5B2B8C8190E0A0E0B0E089
:10F84000BA2FA92F982F8827282B392B4A2B5B2BCF
:10F85000220F331F441F551FC05EDE4F288339839C
:10F860004A835B83C052D1401A8259C13A81C95C34
:10F87000DE4F3883C753D140CA5CDE4F1882C6536F
:10F88000D1408B81C82EDD24CA5CDE4F488159816E
:10F89000C653D140C42AD52A933109F082C0CE5C28
:10F8A000DE4F88819981AA81BB81C253D1408050AB
:10F8B000904CA340B04030F583E0CE5CDE4FE88052
:10F8C000F9800A811B81C253D140F70100935B008C
:10F8D00080935700E89507B600FCFDCFCE5CDE4F65
:10F8E000088119812A813B81C253D14000501F4FAA
:10F8F0002F4F3F4FCE5CDE4F088319832A833B8313
:10F90000C253D140C05EDE4F488159816A817B81FC
:10F91000C052D140DE011B9631E08C9111962C91A2
:10F9200011971296C75CDE4F2883C953D140C85C3B
:10F93000DE4F1882C853D14090E0C85CDE4FE881AA
:10F94000F981C853D1408E2B9F2B0C01FA01609393
:10F950005B0030935700E89511244E5F5F4F6F4F67
:10F960007F4F0EEFE02E0FEFF02ECE0CDF1CC114F8
:10F97000D10499F685E0C05EDE4F088119812A81A5
:10F980003B81C052D140F80120935B008093570027
:10F99000E89507B600FCFDCF81E180935700E8951C
:10F9A00035C0C05EDE4F88819981AA81BB81C0527B
:10F9B000D140B695A795979587957C018601ABE0D8
:10F9C000AA2EB12CAC0EBD1E0BC0D5016D915D01F0
:10F9D000C7010F947FFE0894E11CF11C01501040F8
:10F9E0000115110591F7A60160E070E0440F551F65
:10F9F000661F771FC05EDE4FE880F9800A811B8199
:10FA0000C052D1404E0D5F1D601F711F1A82C05E33
:10FA1000DE4F488359836A837B83C052D1407FC0C5
:10FA2000FA80C55CDE4FF882CB53D140C65CDE4F16
:10FA30001882CA53D1408B81C82EDD24C65CDE4FAC
:10FA400008811981CA53D140C02AD12A1A828981DA
:10FA5000BE016D5F7F4F843121F59601C05EDE4FA0
:10FA6000E880F9800A811B81C052D1400BBFF701A9
:10FA700087919691DB018C9311969C936E5F7F4FDB
:10FA8000D801C7010296A11DB11DC05EDE4F88835B
:10FA90009983AA83BB83C052D14022503040F1F6F3
:10FAA00036C0C05EDE4F288139814A815B81C052F9
:10FAB000D1400894C108D108760100E010E0089414
:10FAC000C11CD11C0894E11CF11C011D111DE20E8A
:10FAD000F31E041F151F21BDBB27A52F942F832FB5
:10FAE00082BD2F5F3F4F4F4F5F4FF89A80B5DB01CC
:10FAF0008D93BD012E153F054007510761F7C05E8C
:10FB0000DE4F288339834A835B83C052D1409601FC
:10FB10002D5F3F4FFB01108204C080EC8A8322E0FE
:10FB200030E08BE18093C6008091C00086FFFCCF5F
:10FB30008091C00080648093C000C15DDE4FF88179
:10FB4000CF52D140F093C6008091C00086FFFCCF19
:10FB50008091C00080648093C000432F3093C60022
:10FB60008091C00086FFFCCF8091C00080648093AC
:10FB7000C000922F2093C6008091C00086FFFCCF6A
:10FB80008091C00080648093C0008EE08093C600A6
:10FB90008091C00086FFFCCF8091C000806480937C
:10FBA000C00065E1C15DDE4FE880CF52D1406E25D7
:10FBB00069276427FE01319610C090819093C6009A
:10FBC0008091C00086FFFCCF31968091C000806498
:10FBD0008093C0006927215030402115310569F715
:10FBE0006093C6008091C00086FFFCCF8091C0006A
:10FBF00080648093C00085B1805885B9772081F4F6
:10FC0000C15DDE4F0881CF52D1400F5FC15DDE4F35
:10FC10000883CF52D14090E0A0E0B0E00D941AF4F8
:10FC200027982F9880E090E020ED37E0F901319798
:10FC3000F1F7019684369105C9F700008091C00064
:10FC40008D7F8093C00081E180935700E895EE2777
:10FC5000FF270994FFCF90E00D941AF497FB092E2B
:10FC600007260AD077FD04D02ED006D000201AF443
:10FC7000709561957F4F0895F6F7909581959F4F08
:10FC80000895A1E21A2EAA1BBB1BFD010DC0AA1FDD
:10FC9000BB1FEE1FFF1FA217B307E407F50720F0F5
:10FCA000A21BB30BE40BF50B661F771F881F991F70
:10FCB0001A9469F760957095809590959B01AC01B9
:10FCC000BD01CF010895AA1BBB1B51E107C0AA1FAC
:10FCD000BB1FA617B70710F0A61BB70B881F991FED
:10FCE0005A95A9F780959095BC01CD010895F99991
:10FCF000FECF92BD81BDF89A992780B50895262F31
:10FD0000F999FECF1FBA92BD81BD20BD0FB6F89400
:0EFD1000FA9AF99A0FBE01960895F894FFCF63
:040000033000E000E9
:00000001FF