:100000000C9463000C948B000C948B000C948B006C
:100010000C948B000C948B000C946E020C948B004F
:100020000C948B000C948B000C948B000C94610747
:100030000C948B000C948B000C948B000C948B0014
:100040000C945E080C948B000C946E0A0C94BC0A01
:100050000C948B000C948B000C948B000C948B00F4
:100060000C948B000C948B000000000024002700EF
:100070002A0000000000250028002B0000000000DE
:1000800023002600290004040404040404040202DA
:100090000202020203030303030301020408102007
:1000A0004080010204081020010204081020000012
:1000B0000007000201000003040600000000000029
:1000C00000009600280C11241FBECFEFD8E0DEBF41
:1000D000CDBF12E0A0E0B1E0E0E7FCE102C0059096
:1000E0000D92A831B107D9F713E0A8E1B2E001C041
:1000F0001D92A737B107E1F710E0C6ECD0E004C0CD
:100100002297FE010E94320EC23CD107C9F70E941D
:100110007E0C0C94360E0C940000FB01DC0102C036
:1001200001900D9241505040D8F7089580E292E03E
:1001300068E047E00E94820208950F931F93DF93C7
:10014000CF93CDB7DEB7C055D0400FB6F894DEBF21
:100150000FBECDBF8C01CE0101966EE172E00E9410
:10016000E207882319F420E030E012C0012B71F07F
:1001700085E593E060E071E00E94D80D85E593E0AD
:1001800060911E024AE050E00E94660D21E030E0DE
:10019000C901C05BDF4F0FB6F894DEBF0FBECDBF05
:1001A000CF91DF911F910F9108956F927F928F925F
:1001B0009F92AF92BF92CF92DF92EF92FF920F93F6
:1001C0001F93CF93DF933B014C015A0189010E9499
:1001D000B4086B017C01E501CC0FDD1FCC0FDD1FE6
:1001E0000130110549F40E94B408CB5CDD4F6883EF
:1001F00079838A839B832EC0CB5CDD4F2881398134
:100200004A815B81621773078407950750F4DA010E
:10021000C90180959095A095B095C80ED91EEA1E8B
:10022000FB1EC21AD30AE40AF50AC614D704E8046E
:10023000F90410F481E00EC0AA0CBB1CAA0CBB1C74
:1002400085E392E0A80EB91EF50110821182128298
:10025000138280E0DF91CF911F910F91FF90EF907B
:10026000DF90CF90BF90AF909F908F907F906F90D6
:100270000895AF92BF92CF92DF92EF92FF920F93C9
:100280001F93CF93DF930E94B4086B017C0183E03E
:1002900060E00E94C60985E090E00E94DA0883E0F1
:1002A00061E00E94C6098AE090E00E94DA0883E0DB
:1002B00060E00E94C6098AE090E00E94DA0880911E
:1002C0003D010E941A0A892BD1F382E08093180223
:1002D00060E375E780E090E040E050E021E030E04E
:1002E0000E94D50010923402BB24AA2439C0F80120
:1002F00080810E941A0A892B69F580913402482F67
:1003000050E020E030E00AC0F901E05DFD4F80815F
:1003100090E028173907F1F02F5F3F4F241735077A
:100320009CF357C080913402E82FF0E0E05DFD4F70
:10033000C0838F5F809334020DC0C0931D0280E2A2
:1003400092E068E172E046E00E945E05A82EBB24C0
:10035000B39406C021960E5F1F4FC430D10539F605
:1003600060E375E780E090E040E050E022E030E0BC
:100370000E94D500882339F0BB2029F407E311E05F
:10038000C0E0D0E0B4CF4091190250911A026091C0
:100390001B0270911C0285E593E02AE030E00E9488
:1003A000C40DAA2029F085E593E06EE071E004C059
:1003B00085E593E06AE171E00E94DB0DDF91CF916A
:1003C0001F910F91FF90EF90DF90CF90BF90AF9073
:1003D00008950E94B4086C197D098E099F096093E5
:1003E000190270931A0280931B0290931C026C52A4
:1003F0007140804090400CF495CF9FCF80E090E01A
:100400000E949D00892B11F00E94390108950F93DD
:100410001F9385E593E040E051EE60E070E00E94BC
:10042000F70A00E212E0C8010E94E204C80162E09B
:1004300070E00E947E04C8016CE60E94A303C8011C
:1004400063E048E00E946103C80161E00E946B0321
:10045000C80101EE10EF20EF38EE48EE50E060E00A
:1004600070E00E94D80383E061E00E9487098091D8
:10047000370160E00E9487098091390160E00E94A5
:10048000870980913B0160E00E94870980913D01CE
:1004900060E00E94870984E061E00E94870984E0AF
:1004A00061E00E94C60964EF71E080E090E00E9484
:1004B0001F0989E00E94F00581E00E94ED0580EAB5
:1004C0009FE00E9420080E94490762E370E080E0FC
:1004D00090E00E941F091F910F9108951F920F92A3
:1004E0000FB60F9211248F9388E10FB6F894809382
:1004F0006000109260000FBE8F910F900FBE0F90A2
:100500001F901895FC016083418381E082831382F0
:1005100080E28483158216821086118612861386E5
:1005200014861586168617860895FF920F931F93DB
:100530008C01F62E81E00E94B70580E00E94C00584
:1005400080E00E94C505F80181816F2D0E94C609D7
:100550001F910F91FF9008951F93CF93DF93EC01AC
:1005600060E070E00E94950280E68EBD0DB407FE4B
:10057000FDCF8EB58FEF8EBD0DB407FEFDCF1EB53E
:10058000CE0161E070E00E949502812FDF91CF9152
:100590001F9108951F93CF93DF93EC0160E070E00B
:1005A0000E94950281EE8EBD0DB407FEFDCF1EB5F3
:1005B000CE0161E070E00E949502812FDF91CF9122
:1005C0001F9108951F93CF93DF93EC0160E070E0DB
:1005D0000E94950282EE8EBD0DB407FEFDCF1EB5C2
:1005E000CE0161E070E00E949502812FDF91CF91F2
:1005F0001F910895EF92FF920F931F93CF93DF9374
:10060000EC01F62EE72E9C81142F941708F4192F75
:100610008E81882311F000E002C0092F011BCE015A
:1006200060E070E00E94950280EA8EBD0DB407FE86
:10063000FDCF8F2D9E2D9C01F901FEB408C0808155
:100640008EBD0DB407FEFDCF31968EB5115011232E
:10065000B1F706C01EBC0DB407FEFDCF8EB501502C
:100660000023C1F7CE0161E070E00E9495028F2D5A
:10067000DF91CF911F910F91FF90EF9008950F930D
:100680001F93CF93DF93EC01162F042F60E070E0EF
:100690000E9495021F7110621EBD0DB407FEFDCFB2
:1006A0001EB50EBD0DB407FEFDCF8EB5CE0161E0C7
:1006B00070E00E949502812FDF91CF911F910F91E1
:1006C0000895262F4F702295207F242B64E0422F1F
:1006D0000E943F030895662319F061E04FE302C0D2
:1006E00061E040E00E943F030895CF92DF92EF92D5
:1006F000FF920F931F938B017A01690167E040E736
:100700000E943F0390E09C01E5E036952795EA952D
:10071000E1F72170F801208374E0969587957A952A
:10072000E1F7282F2170F7012083969587959695FC
:1007300087958170F60180831F910F91FF90EF9054
:10074000DF90CF900895462F603808F04FE765E0BE
:100750000E943F030895EF92FF920F931F93CF9350
:10076000DF937C01162FEA01022F60E070E00E9407
:1007700095021F7110621EBD0DB407FEFDCF1EB5A0
:1007800008C088818EBD0DB407FEFDCF21968EB5C1
:1007900001500023B1F7C70161E070E00E949502AB
:1007A000812FDF91CF911F910F91FF90EF900895CE
:1007B000EF92FF920F931F93DF93CF93CDB7DEB7E6
:1007C00028970FB6F894DEBF0FBECDBF7C0109831A
:1007D0001A832B833C834D835E836F8378878E01DE
:1007E0000F5F1F4F6AE0A80125E00E94AB03C7011D
:1007F00060E1A80125E00E94AB03F701448141328A
:1008000008F040E2C70161E10E943F0328960FB65D
:10081000F894DEBF0FBECDBFCF91DF911F910F9136
:10082000FF90EF9008951F93CF93DF93EC01162F65
:1008300060E070E00E9495021F711EBD0DB407FEBE
:10084000FDCF8EB58FEF8EBD0DB407FEFDCF1EB56B
:10085000CE0161E070E00E949502812FDF91CF917F
:100860001F9108950F931F93CF93DF938C01EB019A
:1008700060E00E941304482F437F209729F02197BE
:1008800011F4486001C04C60C80160E00E943F0361
:10089000DF91CF911F910F910895FF920F931F93B6
:1008A000CF93DF93EC018B0166E00E9413041A8260
:1008B000B7EDFB2EF8220230110511F480E206C0DC
:1008C0000130110529F481E08A8388E0F82A01C00B
:1008D0001A82CE0166E04F2D0E943F03CE0166E0F2
:1008E0000E9413048F1511F481E002C01A8280E087
:1008F000DF91CF911F910F91FF9008950F931F9358
:10090000CF93DF938C01EB0166E00E941304482F24
:10091000497FC330D10571F0C230D10511F4446074
:100920000AC0C130D10511F4426005C0209719F00A
:10093000249709F44660C80166E00E943F03DF91F6
:10094000CF911F910F910895DF92EF92FF920F9335
:100950001F938C017B01D42E60E00E941304482F6A
:100960004C7F4260C80160E00E943F0386E990E04E
:100970000E94DA08C801B7014D2D0E94FA02F80161
:10098000808161E00E94C6098FE090E00E94DA0851
:10099000F801808160E00E94C6091F910F91FF90CD
:1009A000EF90DF9008950F931F938C0160E00E94F9
:1009B0001304482F4D7FC80160E00E943F031F9140
:1009C0000F910895CF93DF93EC01888161E00E943D
:1009D0008709898161E00E9487090E94D605888184
:1009E00060E00E94C609CE0161E070E00E949502BD
:1009F00065E070E080E090E00E941F09CE0164E0B5
:100A00004FE40E943F03CE0163E070E00E947E0449
:100A1000CE0162E070E00E944D04882311F081E075
:100A20008B83CE0160E070E00E944D04CE0162E055
:100A300070E00E943204CE016CE140E00E943F036E
:100A4000CE0167E040E70E943F03CE016CE40E94C4
:100A5000A303CE010E94E202CE010E94CA02DF91EE
:100A6000CF910895EF92FF920F931F93CF93DF934F
:100A70007C01162FEA01022F60E070E00E949502CF
:100A80001F711EBD0DB407FEFDCF1EB59FEF07C041
:100A90009EBD0DB407FEFDCF8EB589930150002396
:100AA000B9F7C70161E070E00E949502812FDF91E4
:100AB000CF911F910F91FF90EF900895AF92BF9249
:100AC000CF92DF92EF92FF920F931F93DF93CF931A
:100AD00000D00F92CDB7DEB78C010E94A4040E9413
:100AE000A6086B017C015E010894A11CB11CC80121
:100AF00068E0A50121E00E943205807331F50E9473
:100B0000A6086C197D098E099F09645F71408040B9
:100B10009040D8F4ECCFC8010E94AC02F801878362
:100B2000C8010E94D304C8010E94CA028F2D0F90F1
:100B30000F900F90CF91DF911F910F91FF90EF9049
:100B4000DF90CF90BF90AF90089598012B5F3F4FFB
:100B5000C801BE016E5F7F4FAE014D5F5F4F0E94C7
:100B60007503FA80F80185818823D1F2D4CF8823D8
:100B700019F48CB5806202C08CB58F7D8CBD089550
:100B80009CB5937F982B9CBD08952CB5382F33705E
:100B90002C7F322B3CBD2DB590E095958795959592
:100BA000879581702E7F822B8DBD08958AE061E04C
:100BB0000E94C6098AE061E00E9487098CB58061C5
:100BC0008CBD8CB580648CBD8DE061E00E9487098E
:100BD0008BE061E00E94870908958093BC0208952C
:100BE00080933F01089520916002222329F0809193
:100BF000BD028F5F8093BD028091BE029091BF02C3
:100C0000281759F0903510F08DE101C08BE0890F65
:100C10008093BF022093BE0203C09C5E9093BF02EC
:100C20009091BF02903A08F496C02091C002309192
:100C3000C102369527953093C1022093C00280915E
:100C4000BD02853028F038603093C1022093C00285
:100C5000905A9093BF021092BD028091BB028823EC
:100C600009F469C08091C2028F5F8093C2028C3008
:100C700008F471C02091C0023091C102522F5F73FD
:100C8000452F46954695487098E008C0E42FF0E05F
:100C9000E651FE4F8081581721F04F5F9150B0F719
:100CA00040E086E0369527958A95E1F7322F922F1E
:100CB00096959695987028E008C0E92FF0E0E651E7
:100CC000FE4F8081381721F09F5F2150B0F790E0F0
:100CD000242F2295207F292B80916A02882371F48A
:100CE0002093C302822F84508D3440F01092BB02B7
:100CF000809167028F5F80936702089580916A02F6
:100D0000E82FF0E0E559FD4F20838F5F80936A0262
:100D100090916A028091C302981750F01092BB0222
:100D2000809168028F5F8093680281E080936902FE
:100D30001092C20208958091C0029091C10288531E
:100D40009B4049F481E08093BB021092C202109252
:100D50006A021092690208952F923F924F925F9219
:100D60006F927F929F92AF92BF92CF92DF92EF925B
:100D7000FF920F931F93DF93CF93CDB7DEB76297A8
:100D80000FB6F894DEBF0FBECDBF1B012A01DE01F6
:100D90001196EAEFF1E04EE001900D924150E1F73B
:100DA000009709F455C05C01CC24DD2463E0AA0C53
:100DB000BB1CCC1CDD1C6A95D1F753E0652E712C51
:100DC0006C0E7D1E99249394C101A0E0B0E08F8742
:100DD000988BA98BBA8BD3012D913C9140E050E0C8
:100DE00060E074E284EF90E00E940E0ECA01B90147
:100DF000A60195010E940E0E79018A01B2E0EB1660
:100E0000F1040105110548F08F859889A989BA89EF
:100E1000E816F9060A071B0748F09394A2E0B0E031
:100E20006A0E7B1EB7E09B16B1F604C0E6E09E1684
:100E300079F006C0F2E0EF16F1040105110540F06B
:100E4000C101A0E0B0E08E159F05A007B10728F40E
:100E5000D2011D921C92992403C0F201F182E0821A
:100E6000892D62960FB6F894DEBF0FBECDBFCF912D
:100E7000DF911F910F91FF90EF90DF90CF90BF9087
:100E8000AF909F907F906F905F904F903F902F908A
:100E9000089580915D02882329F481E080935D02AA
:100EA0001092BB0208958091E9016091BC020E94FA
:100EB000C6098091400160E00E94C60910925E025E
:100EC00008951F920F920FB60F9211242F933F9304
:100ED0004F935F936F937F938F939F93AF93BF9342
:100EE000EF93FF9380915D02882369F080915E0209
:100EF000882349F480913F010E941A0A90915F0271
:100F000098279093600280915E028823D1F18091AE
:100F100061028F5F80936102815099F5E0916202D6
:100F200080916302E81760F00E9453078091640289
:100F3000909165020196909365028093640221C0AE
:100F4000809140019091660221E030E0092E02C0BC
:100F5000220F331F0A94E2F7F0E0EF5BFE4F60814F
:100F600062239F5F909366020E94C6098091660289
:100F7000863038F010926602809162028F5F809313
:100F8000620280916102883010F0109261028091BB
:100F90005D02882331F080915E02882311F40E9463
:100FA000F305FF91EF91BF91AF919F918F917F9149
:100FB0006F915F914F913F912F910F900FBE0F90C6
:100FC0001F9018950F931F93382FFB018091690292
:100FD000882309F432C020916A02235080812817A7
:100FE00008F4208340810CE612E0832FB80150E022
:100FF0000E948D001092690290916A02F801319767
:101000002FEF3FEF13C081912827022E2295207FDA
:101010002025032E322F22952F7002262695322767
:101020002327220F220F220F20259150992359F7B1
:1010300080E0285B304F09F481E01F910F91089503
:10104000DF93CF9300D0CDB7DEB76FEF7FEFAE0168
:101050004F5F5F4F0E94AC06982F882351F110928A
:10106000800088E08093810080918100892B8093AB
:10107000810089819A819093890080938800809172
:101080006F00826080936F008091400161E00E9458
:10109000870980913F0160E00E9487098091E90102
:1010A00061E00E9487098091E9016091BC020E9481
:1010B000C6090F900F90CF91DF9108951F920F9264
:1010C0000FB60F9211242F933F938F939F93AF935B
:1010D000BF938091C8029091C902A091CA02B091B9
:1010E000CB023091CC020196A11DB11D232F2D5FA3
:1010F0002D3720F02D570196A11DB11D2093CC0254
:101100008093C8029093C902A093CA02B093CB0205
:101110008091C4029091C502A091C602B091C7020D
:101120000196A11DB11D8093C4029093C502A093A6
:10113000C602B093C702BF91AF919F918F913F912B
:101140002F910F900FBE0F901F9018958FB7F894A6
:101150002091C8023091C9024091CA025091CB023D
:101160008FBFB901CA0108959FB7F8942091C402B6
:101170003091C5024091C6025091C70286B5A89B26
:1011800006C08F3F21F02F5F3F4F4F4F5F4F9FBFF4
:10119000542F432F322F2227280F311D411D511D5F
:1011A00082E0220F331F441F551F8A95D1F7B901E2
:1011B000CA010895019739F0880F991F880F991F68
:1011C00002970197F1F70895789484B5826084BD01
:1011D00084B5816084BD85B5826085BD85B581603B
:1011E00085BDEEE6F0E0808181608083E1E8F0E09B
:1011F0001082808182608083808181608083E0E8CA
:10120000F0E0808181608083E1EBF0E080818460A8
:101210008083E0EBF0E0808181608083EAE7F0E0AA
:10122000808184608083808182608083808181600E
:1012300080838081806880831092C1000895EF923E
:10124000FF920F931F93CF93DF937B018C013FB7E6
:10125000F8948091C4029091C502A091C602B09109
:10126000C70226B5A89B05C02F3F19F00196A11D06
:10127000B11D3FBFBA2FA92F982F8827820F911D2C
:10128000A11DB11D52E0880F991FAA1FBB1F5A95BF
:10129000D1F7EC0130C00E94EE0D3FB7F894809179
:1012A000C4029091C502A091C602B091C70226B5B2
:1012B000A89B05C02F3F19F00196A11DB11D3FBF8E
:1012C000BA2FA92F982F8827820F911DA11DB11D1C
:1012D00032E0880F991FAA1FBB1F3A95D1F78C1BCC
:1012E0009D0B885E9340B8F20894E108F10801096B
:1012F0001109C851DC4FE114F1040105110559F63B
:10130000DF91CF911F910F91FF90EF900895CF93B0
:10131000DF93482F50E0CA0186569F4FFC0134915D
:101320004A575F4FFA018491882369F190E0880F52
:10133000991FFC01E859FF4FA591B491FC01EE58AB
:10134000FF4FC591D491662351F42FB7F8948C9137
:10135000932F909589238C93888189230BC06230C9
:1013600061F42FB7F8948C91932F909589238C93E7
:101370008881832B88832FBF06C09FB7F8948C91F8
:10138000832B8C939FBFDF91CF910895482F50E01E
:10139000CA0182559F4FFC012491CA0186569F4F76
:1013A000FC0194914A575F4FFA013491332309F4B9
:1013B00040C0222351F1233071F0243028F4213031
:1013C000A1F0223011F514C02630B1F02730C1F061
:1013D0002430D9F404C0809180008F7703C08091BD
:1013E00080008F7D8093800010C084B58F7702C00D
:1013F00084B58F7D84BD09C08091B0008F7703C014
:101400008091B0008F7D8093B000E32FF0E0EE0F6D
:10141000FF1FEE58FF4FA591B4912FB7F8946623A4
:1014200021F48C919095892302C08C91892B8C9307
:101430002FBF0895682F70E0CB0182559F4FFC01AC
:101440002491CB0186569F4FFC0144916A577F4FF0
:10145000FB019491992319F420E030E03CC0222351
:1014600051F1233071F0243028F42130A1F02230E2
:1014700011F514C02630B1F02730C1F02430D9F472
:1014800004C0809180008F7703C0809180008F7DA1
:101490008093800010C084B58F7702C084B58F7DA3
:1014A00084BD09C08091B0008F7703C08091B000E7
:1014B0008F7D8093B000892F90E0880F991F84580A
:1014C0009F4FFC01A591B4918C9120E030E08423E2
:1014D00011F021E030E0C901089508951F920F92A4
:1014E0000FB60F9211242F933F934F938F939F9397
:1014F000EF93FF938091C00082FD1DC04091C60014
:1015000020910D0330910E032F5F3F4F2F733070EA
:1015100080910F03909110032817390771F0E09123
:101520000D03F0910E03E353FD4F408330930E0300
:1015300020930D0302C08091C600FF91EF919F910F
:101540008F914F913F912F910F900FBE0F901F9051
:101550001895E0916103F0916203E05CFF4F819187
:10156000919120813181821B930B8F739070892B15
:1015700011F00E946D0A08951F920F920FB60F92FC
:1015800011242F933F938F939F93EF93FF93209179
:1015900051033091520380915303909154032817C3
:1015A000390731F48091C1008F7D8093C10014C050
:1015B000E0915303F0915403EF5EFC4F2081809142
:1015C00053039091540301968F739070909354033A
:1015D000809353032093C600FF91EF919F918F91C9
:1015E0003F912F910F900FBE0F901F901895AF92C3
:1015F000BF92DF92EF92FF920F931F93CF93DF93EF
:10160000EC017A018B01DD24403081EE580780E047
:10161000680780E0780711F0DD24D39491E0A92ECB
:10162000B12CEC89FD89DD2069F0C50108A002C05C
:10163000880F991F0A94E2F7808360E079E08DE3D8
:1016400090E005C0108260E874E88EE190E0A801A7
:1016500097010E940E0E2150304040405040569558
:1016600047953795279580E12030380720F0DD2019
:1016700011F0DD24D6CFE889F9893083EA89FB8926
:10168000208319A2EE89FF89408121E030E0C90161
:101690000C8C02C0880F991F0A94E2F7482B4083F4
:1016A000EE89FF894081C9010D8C02C0880F991F06
:1016B0000A94E2F7482B4083EE89FF894081C901F3
:1016C0000E8C02C0880F991F0A94E2F7482B4083C2
:1016D000EE89FF8980810F8C02C0220F331F0A948C
:1016E000E2F7209528232083DF91CF911F910F915E
:1016F000FF90EF90DF90BF90AF900895DC011C96B3
:10170000ED91FC911D97E05CFF4F2191319180811B
:101710009181281B390B2F733070C9010895DC01AA
:101720001C96ED91FC911D97E05CFF4F208131816B
:10173000E054F040DF01AE5BBF4F8D919C9111975B
:101740002817390719F42FEF3FEF07C08D919C91AF
:10175000E80FF91F8081282F30E0C9010895DC01CE
:101760001C96ED91FC911D97E05CFF4F208131812B
:10177000E054F040DF01AE5BBF4F8D919C9111971B
:101780002817390719F42FEF3FEF10C08D919C9166
:101790001197E80FF91F20818D919C911197019667
:1017A0008F73907011969C938E9330E0C9010895C9
:1017B000DC0191968C919197882339F05496ED91A4
:1017C000FC915597808186FFF9CF91961C920895E0
:1017D000CF93DF93EC01EE85FF85E05CFF4F208126
:1017E0003181E054F0402F5F3F4F2F733070DF01A5
:1017F000AE5BBF4F8D919C91119728173907D1F39C
:10180000E05CFF4F80819181E054F040E80FF91FC8
:101810006083EE85FF85E05CFF4F31832083EE8996
:10182000FF89208181E090E00F8C02C0880F991F12
:101830000A94E2F7282B208381E089A3EC89FD89B3
:1018400080818064808381E090E0DF91CF91089572
:10185000109258031092570388EE93E0A0E0B0E096
:101860008093590390935A03A0935B03B0935C0356
:101870008CE092E090935603809355038DEC92E0B8
:10188000909362038093610381E193E090936403FA
:101890008093630385EC90E09093660380936503E7
:1018A00084EC90E0909368038093670380EC90E071
:1018B00090936A038093690381EC90E090936C03AA
:1018C00080936B0382EC90E090936E0380936D03A2
:1018D00086EC90E09093700380936F0384E0809394
:1018E000710383E08093720387E08093730385E044
:1018F0008093740381E0809375030895CF93DF9301
:101900000E94E4080E940702C9EADAE00E94FE0190
:101910002097E1F30E94A90AF9CFCF92DF92EF92CC
:10192000FF920F931F93CF93DF937C016B018A018A
:10193000C0E0D0E00FC0D6016D916D01D701ED91EF
:10194000FC910190F081E02DC7010995C80FD91FC6
:10195000015010400115110571F7CE01DF91CF91B3
:101960001F910F91FF90EF90DF90CF900895EF922D
:10197000FF920F931F938C01DC01ED91FC9101907C
:10198000F081E02D6DE009957C01D801ED91FC918D
:101990000190F081E02DC8016AE009959C012E0DAF
:1019A0003F1DC9011F910F91FF90EF900895CF93B4
:1019B000DF93EC016115710519F420E030E00FC0F0
:1019C000DB010D900020E9F71197A61BB70BE8810A
:1019D000F9810280F381E02DAD0109959C01C901D7
:1019E000DF91CF9108954F925F927F928F929F9255
:1019F000AF92BF92CF92DF92EF92FF920F931F931D
:101A0000DF93CF93CDB7DEB7A1970FB6F894DEBFC3
:101A10000FBECDBF2C01742ECB01223008F42AE07A
:101A200019A231E2C32ED12CCC0EDD1E822E9924B8
:101A3000AA24BB24672D752FA50194010E940E0EC8
:101A400079018A01C801B701A50194010E94EF0D37
:101A5000472D461B0894C108D1084A3014F4405D54
:101A600001C0495CF6014083E114F1040105110550
:101A700021F07E2C5F2DC801DDCFC201B6010E948E
:101A8000D70CA1960FB6F894DEBF0FBECDBFCF9195
:101A9000DF911F910F91FF90EF90DF90CF90BF905B
:101AA000AF909F908F907F905F904F900895DC0152
:101AB0002115310541F4ED91FC910190F081E02D6B
:101AC000642F099508950E94F30C0895CF92DF9238
:101AD000EF92FF920F931F936C01E62E9A01FF2461
:101AE00000E010E0B801A7010E94570D8C01C6016B
:101AF0000E94B70C080F191FC8011F910F91FF908A
:101B0000EF90DF90CF900895CF92DF92EF92FF9207
:101B10000F931F93CF93DF93EC016A017B01211593
:101B2000310541F4E881F9810190F081E02D642FC5
:101B300009951FC02A303105D1F477FF17C0E8811D
:101B4000F9810190F081E02D6DE209958C01442727
:101B50005527BA014C195D096E097F09CE012AE0AB
:101B60000E94F30C9801280F391F04C02AE00E943C
:101B7000F30C9C01C901DF91CF911F910F91FF9050
:101B8000EF90DF90CF900895EF92FF920F931F9305
:101B90007C010E94840D8C01C7010E94B70C9C013E
:101BA000200F311FC9011F910F91FF90EF900895F1
:101BB0000E94D70C0895EF92FF920F931F937C0120
:101BC0000E94D70C8C01C7010E94B70C080F191F87
:101BD000C8011F910F91FF90EF9008950895629FA3
:101BE000D001739FF001829FE00DF11D649FE00D15
:101BF000F11D929FF00D839FF00D749FF00D659F76
:101C0000F00D9927729FB00DE11DF91F639FB00D74
:101C1000E11DF91FBD01CF0111240895A1E21A2E83
:101C2000AA1BBB1BFD010DC0AA1FBB1FEE1FFF1F80
:101C3000A217B307E407F50720F0A21BB30BE40BD0
:101C4000F50B661F771F881F991F1A9469F7609517
:101C50007095809590959B01AC01BD01CF010895D1
:101C6000EE0FFF1F0590F491E02D0994F894FFCF3B
:101C70004C6563747572613A20002C002D002020A1
:101C8000202020202020206F6B00202020202020DA
:101C900020206661696C65640020202020202020BF
:101CA000206F6B2E2E2E0013001200110010000B5F
:101CB0000C2A2A2A2A2A2A382C00000000000000B8
:101CC0000000000000000000000000000000000014
:101CD0000000000000000000000000000000000004
:101CE00000000000000000000000000000000000F4
:101CF00000000000000000000000000000000000E4
:101D000000000000000000000000000000000000D3
:101D100000000000000000000000000000000000C3
:101D200000000000000000000000000000000000B3
:101D300000000000000000000000000000000000A3
:101D40000000000000000000000000000000000093
:101D50000000000000000000000A0D0E1315161907
:101D60001A1C232526292A2C3234000001000800E1
:101D7000400000010004050D00000000E80B8D0C80
:081D80007E0BAF0B8F0BD80B9B
:107E0000112484B714BE81FFF0D085E080938100F7
:107E100082E08093C00088E18093C10086E0809377
:107E2000C20080E18093C4008EE0C9D0259A86E02C
:107E300020E33CEF91E0309385002093840096BBD3
:107E4000B09BFECF1D9AA8958150A9F7CC24DD24C4
:107E500088248394B5E0AB2EA1E19A2EF3E0BF2EE7
:107E6000A2D0813461F49FD0082FAFD0023811F036
:107E7000013811F484E001C083E08DD089C08234E0
:107E800011F484E103C0853419F485E0A6D080C0E4
:107E9000853579F488D0E82EFF2485D0082F10E0AE
:107EA000102F00270E291F29000F111F8ED06801E7
:107EB0006FC0863521F484E090D080E0DECF843638
:107EC00009F040C070D06FD0082F6DD080E0C81688
:107ED00080E7D80618F4F601B7BEE895C0E0D1E017
:107EE00062D089930C17E1F7F0E0CF16F0E7DF06D8
:107EF00018F0F601B7BEE89568D007B600FCFDCFD4
:107F0000A601A0E0B1E02C9130E011968C91119780
:107F100090E0982F8827822B932B1296FA010C0160
:107F200087BEE89511244E5F5F4FF1E0A038BF0790
:107F300051F7F601A7BEE89507B600FCFDCF97BE46
:107F4000E89526C08437B1F42ED02DD0F82E2BD052
:107F50003CD0F601EF2C8F010F5F1F4F84911BD097
:107F6000EA94F801C1F70894C11CD11CFA94CF0C13
:107F7000D11C0EC0853739F428D08EE10CD085E9AC
:107F80000AD08FE07ACF813511F488E018D01DD067
:107F900080E101D065CF982F8091C00085FFFCCF94
:107FA0009093C60008958091C00087FFFCCF809118
:107FB000C00084FD01C0A8958091C6000895E0E648
:107FC000F0E098E1908380830895EDDF803219F02E
:107FD00088E0F5DFFFCF84E1DECF1F93182FE3DFCA
:107FE0001150E9F7F2DF1F91089580E0E8DFEE27F6
:047FF000FF270994CA
:027FFE00040479
:0400000300007E007B
:00000001FF