:1000000009C1000038C1000036C1000034C1000041
:1000100032C1000030C100002EC100002CC1000020
:100020002AC100000C9489190C9489190C9489191F
:1000300022C1000020C100001EC100000C944B1919
:100040001AC100000C94931916C1000014C10000DD
:1000500012C1000010C100000EC100000C94411834
:100060000AC100000C9415190C94EB1804C100008F
:1000700002C1000000C10000FEC00000FCC0000082
:10008000FAC00000F8C00000F6C00000F4C0000094
:100090000C94B5180C948B18EEC00000ECC0000056
:1000A000EAC00000E8C00000E6C00000E4C00000B4
:1000B000E2C00000E0C00000DEC00000DCC00000C4
:1000C000DAC00000D8C00000D6C00000D4C00000D4
:1000D000D2C00000D0C00000CEC00000CCC00000E4
:1000E000CAC000000A0B0C0D0E0F000021002400F6
:1000F00027002A002D003000330001010000040118
:1001000007010A0100002200250028002B002E0014
:100110003100340002010000050108010B0100005C
:1001200020002300260029002C002F0032000001AF
:10013000000003010601090105050505070508087A
:100140000808020202020A0A080804040404010161
:100150000101010101010303030303030303040776
:1001600007070C0C0C0C0C0C0C0C0202020206060D
:100170000606060606060B0B0B0B0B0B0B0B010200
:1001800010202008081020401020408002010201A9
:100190000804020101020408102040808040201061
:1001A00008040201800402018040201008040201BA
:1001B0000804020101020408102040800102040822
:1001C0001020408000000A0B02090C0D0E080703E6
:1001D000040100000000000000000000000000001A
:1001E000000000000000000000000000000000000F
:1001F00012111000000000000000000000000000CC
:1002000000000000000000000000000102030405DF
:10021000581BD32F11241FBECFEFD1E2DEBFCDBFBD
:1002200000E00CBF13E0A0E0B2E0ECEAFAE600E088
:100230000BBF02C007900D92AE3FB107D9F728E07F
:10024000AEEFB3E001C01D92AF39B207E1F711E0A4
:10025000C9E0D1E000E006C021970109802FFE012E
:100260000E943E34C830D10780E00807A9F70E94F9
:100270004B1D0C944535C4CE8150823108F05AC0D4
:10028000E82FF0E08827E85BFE4F8F4F0C943E3458
:1002900068016C015A01600164019A016F017501E6
:1002A00079017F01830187018D0191019A019501F7
:1002B0009B019F01809180008F778093800008953B
:1002C000809180008F7DF9CF80918000877FF5CF6E
:1002D00084B58F7784BD089584B58F7DFBCF8091E1
:1002E000B0008F778093B00008958091B0008F7D2B
:1002F000F9CF809190008F7780939000089580913E
:1003000090008F7DF9CF80919000877FF5CF80910D
:10031000A0008F778093A00008958091A0008F7D2A
:10032000F9CF8091A000877FF5CF809120018F7752
:10033000809320010895809120018F7DF9CF8091D5
:100340002001877FF5CFCF93DF93282F30E0F9018D
:10035000EC53FE4F8491F901E258FE4FD491F9011C
:10036000E85CFE4FC491CC2399F0811185DFEC2F1E
:10037000F0E0EE0FFF1FE25EFE4FA591B491EC910D
:10038000ED2381E090E009F480E0DF91CF910895C2
:1003900080E090E0FACF1F93CF93DF93282F30E0D7
:1003A000F901EC53FE4F8491F901E258FE4FD491CC
:1003B000F901E85CFE4FC491CC23A1F0162F811106
:1003C0005BDFEC2FF0E0EE0FFF1FEC5FFE4FA5911F
:1003D000B4918FB7F894EC91111108C0D095DE2339
:1003E000DC938FBFDF91CF911F910895DE2BF8CF63
:1003F000682F80916B08CFDF8091830890918408EB
:100400008230910538F0880F991F880F991F059742
:100410000197F1F7089581E0EBCFCF93DF9390E060
:10042000FC01E258FE4F2491885C9E4FFC018491B0
:100430008823D1F090E0880F991FFC01E651FF4F0F
:10044000A591B491FC01EC5FFE4FC591D49161116F
:100450000EC09FB7F8948C91E22FE0958E238C9379
:100460002881E223E8839FBFDF91CF9108958FB762
:10047000F894EC91E22BEC938FBFF6CF3FB7F89452
:100480008091090590910A05A0910B05B0910C058A
:1004900026B5A89B05C02F3F19F00196A11DB11DDF
:1004A0003FBFBA2FA92F982F8827BC01CD01620F1B
:1004B000711D811D911D42E0660F771F881F991FD6
:1004C0004A95D1F708958F929F92AF92BF92CF92A3
:1004D000DF92EF92FF92CF934B015C017A01CEDF66
:1004E000EA94EF28A1F4CADF609314057093150510
:1004F00080931605909317058C2FCF91FF90EF9066
:10050000DF90CF90BF90AF909F908F900895C09054
:100510001405D0901505E0901605F09017056C15A0
:100520007D058E059F05A0F4C094D094E094F094CE
:100530006C0D7D1D8E1D9F1DC12CD12C7601C39489
:10054000C0921405D0921505E0921605F092170599
:10055000C0901405D0901505E0901605F090170591
:100560009B01AC012C193D094E095F0969017A0113
:10057000A8EEB3E0A50194010E948A32C1E0C6163C
:10058000D706E806F90608F4B7CF109214051092C2
:1005900015051092160510921705C0E0ADCF8F9289
:1005A0009F92AF92BF92CF92DF92EF92FF924B0158
:1005B0005C0164DF6B017C0161DF6C197D098E09D0
:1005C0009F09683E734081059105B0F321E0821ACE
:1005D0009108A108B10888EEC80E83E0D81EE11C7E
:1005E000F11C81149104A104B10431F7FF90EF9044
:1005F000DF90CF90BF90AF909F908F9008952FB7CE
:10060000F894609105057091060580910705909119
:1006100008052FBF0895AF92BF92CF92DF92EF925D
:10062000FF920F931F93CF93DF936C017B018B019C
:10063000040F151FEB015E01AE18BF08C017D107EC
:1006400059F06991D601ED91FC910190F081E02D76
:10065000C6011995892B79F7C501DF91CF911F91BB
:100660000F91FF90EF90DF90CF90BF90AF900895E3
:10067000FC01538D448D252F30E0842F90E0821BA8
:10068000930B541710F0CF96089501970895FC012D
:10069000918D828D981761F0A28DAE0FBF2FB11D85
:1006A0005D968C91928D9F5F9F73928F90E00895DD
:1006B0008FEF9FEF0895FC01918D828D981731F097
:1006C000828DE80FF11D858D90E008958FEF9FEFEB
:1006D0000895FC01918D228D892F90E0805C9F4FC1
:1006E000821B91098F73992708958AED95E0F1DFB8
:1006F00021E0892B09F420E0822F08958CE395E016
:10070000E8DF21E0892B09F420E0822F0895FC0125
:10071000A48DA80FB92FB11DA35ABF4F2C91848D62
:1007200090E001968F739927848FA689B7892C93BF
:10073000A089B1898C91837080648C93938D848D12
:10074000981306C00288F389E02D80818F7D808315
:100750000895EF92FF920F931F93CF93DF93EC01D5
:1007600081E0888F9B8D8C8D98131AC0E889F98958
:10077000808185FF15C09FB7F894EE89FF8960835B
:10078000E889F98980818370806480839FBF81E0DC
:1007900090E0DF91CF911F910F91FF90EF9008951E
:1007A000F62E0B8D10E00F5F1F4F0F731127E02EF9
:1007B0008C8D8E110BC00FB607FCFACFE889F98932
:1007C000808185FFF5CFCE01A2DFF2CFEB8DEC0F5C
:1007D000FD2FF11DE35AFF4FF0829FB7F8940B8F66
:1007E000EA89FB8980818062D0CFCF93DF93EC01CF
:1007F000888D8823B1F0AA89BB89E889F9898C9111
:1008000085FD03C0808186FD0CC00FB607FCF7CFC5
:100810008C9185FFF2CF808185FFEDCFCE0177DF10
:10082000EACFDF91CF91089580E090E0892B21F00D
:1008300065DF81110E94000080E090E0892B21F0AB
:1008400054DF81110E94000080E090E0892B49F084
:1008500080E090E0892B29F00E94000081110E9425
:10086000000080E090E0892B49F080E090E0892B47
:1008700029F00E94000081110C94000008958EBDA3
:1008800000000DB407FEFDCF8EB508958627082E13
:100890008295807F8025092E982F82958F7008265B
:1008A000869598278927880F880F880F80250895B7
:1008B0008F929F92AF92BF92CF92DF92EF92FF9270
:1008C0000F931F93CF93DF93EC014A015B012885BF
:1008D00039854A855B85CB01B4010E94A4326887C3
:1008E00079878A879B87EE80FF80CC80DD800A81B4
:1008F0001B81EC14FD045CF0F80120813181428100
:1009000053810E94A332688779878A879B87F80181
:1009100081929192A192B192FB83EA8328813981DD
:10092000C601880F991F880F991F820F931FE81720
:10093000F90710F03B832A83EC14FD042CF4FFEF3D
:10094000EF1AFF0AFF82EE826E817F81072E000C74
:10095000880B990B0E9477319B01AC0168857985E2
:100960008A859B850E940833DF91CF911F910F915B
:10097000FF90EF90DF90CF90BF90AF909F908F90BF
:1009800008950F931F93CF93DF9302EE12E0E801D7
:100990008F3F9807C9F08E519D4FFC01C08160E0E8
:1009A0008C2FF9DC8FE090E00197F1F761E08C2F5C
:1009B000F2DC87E390E00197F1F760E08C2FDF91A4
:1009C000CF911F910F91E7CC60E08991E4DCF2E0D8
:1009D000CA3EDF07C9F78FE090E00197F1F7C2EE5A
:1009E000D2E061E08991D7DC22E0CA3ED207C9F7A4
:1009F00087E390E00197F1F760E0F80181918F01C2
:100A0000CADCC017D107C1F7DF91CF911F910F91B9
:100A10000895089590E080E008951F93CF93DF93A9
:100A2000EC01653B710514F064EB70E0DB0177FFCE
:100A300002C0B0E0A0E0A9831C812D81211B330BF3
:100A4000032E000C440B550B542F432F322F22271B
:100A50000E94463424EB30E040E050E00E94223413
:100A6000612F70E090E080E0982F872F762F662727
:100A7000620F731F841F951F20E430E040E050E0B8
:100A80000E9422343B832A83DF91CF911F910895E6
:100A9000EF92FF920F931F93CF938C017B01809174
:100AA00009024130510509F050C081119AC06EE62B
:100AB00070E087E598E0B1DF6EE670E08FE598E0E2
:100AC000ACDFE0910204F0910304A2E0B4E03097BF
:100AD00071F028E0E735F20779F580915D08909193
:100AE0005E088D939C9310925E0810925D08E2E080
:100AF000F4E080819181009771F028E08F359207B2
:100B000009F5809165089091660891838083109221
:100B100066081092650881E0809309021092F7043C
:100B20001092F8041092F9041092FA04CF911F91D8
:100B30000F91FF90EF900895DF0116960680F781E0
:100B4000E02DC5CFFC013696D4CF882309F449C0E7
:100B500080E280935708CFEFC093580810925A084C
:100B600010925908809102049091030490935E08BA
:100B700080935D0887E598E09093030480930204D6
:100B800060E080E208DC61E08091570846DC81E2A9
:100B900080935F08C0936008109262081092610809
:100BA00080910204909103049093660880936508F5
:100BB0008FE598E0909303048093020460E081E263
:100BC000EADB61E080915F0828DC6EE670E087E593
:100BD00098E023DF6EE670E08FE598E01EDF10926C
:100BE0000902B70187E598E018DFB8018FE598E0C2
:100BF00014DF05DD6093F7047093F8048093F90423
:100C00009093FA0493CF8F929F92AF92BF92CF921C
:100C1000DF92EF92FF92CF93DF93EC01EC8DFD8D8D
:100C2000C080D180E280F380CCA2DDA2EEA2FFA240
:100C3000EA8DFB8D80819181A281B38188A799A7DC
:100C4000AAA7BBA788AC99ACAAACBBACA501940180
:100C5000C701B6010E94A13318162CF48CA29DA2E4
:100C6000AEA2BFA20CC08CA89DA8AEA8BFA8A5012B
:100C70009401C701B6010E94713187FDEFCFDF916A
:100C8000CF91FF90EF90DF90CF90BF90AF909F906B
:100C90008F900895FB0101900020E9F73197AF0193
:100CA000461B570BB8CC8F929F92AF92BF92EF9298
:100CB000FF920F931F93CF93DF93CDB7DEB7A1972A
:100CC0000FB6F894DEBF0FBECDBF7C01FA01CB0199
:100CD00019A2223008F42AE08E010F5D1F4F822EE8
:100CE000912CB12CA12CBF01A50194010E940034CC
:100CF000F901CA016A3004F5605DD8016E938D0177
:100D0000232B242B252B79F790E080E0109719F006
:100D1000BD01C701BFDFA1960FB6F894DEBF0FBEBD
:100D2000CDBFDF91CF911F910F91FF90EF90BF90BA
:100D3000AF909F908F900895695CDFCFCF92DF9244
:100D4000EF92FF920F931F93CF93DF9377FF1BC018
:100D50006A017B01EC016DE2FCDC8C014427552724
:100D6000BA014C195D096E097F092AE0CE019BDFAB
:100D7000800F911FDF91CF911F910F91FF90EF9006
:100D8000DF90CF9008952AE0DF91CF911F910F91CE
:100D9000FF90EF90DF90CF9086CF0F931F93CF936C
:100DA000DF93EC01AB01770F660B770BC7DF8C018C
:100DB00060E273E0CE016EDF800F911FDF91CF9173
:100DC0001F910F9108952F923F924F925F926F92D1
:100DD0007F928F929F92AF92BF92CF92DF92EF92CB
:100DE000FF921F93CF93DF93EC016A017B01722E78
:100DF000AB019601CB01B6010E94E73363E273E0D9
:100E0000811126C046015701E894B7F82FEF3FEF54
:100E10004FE75FE7C501B4010E94E73381110CC0C1
:100E20002FEF3FEF4FE75FE7C501B4010E9471313B
:100E300067E273E0181664F02FEF3FEF4FE75FE4CF
:100E4000C701B6010E94A1331816ACF46BE273E03F
:100E5000CE01DF91CF911F91FF90EF90DF90CF9067
:100E6000BF90AF909F908F907F906F905F904F90CA
:100E70003F902F900FCF2FEF3FEF4FE75FECC70171
:100E8000B6010E94713187FDE1CF20E030E0A90179
:100E9000C701B6010E947131312C212C87FF08C097
:100EA0006DE2CE0156DC1C01F7FAF094F7F8F094ED
:100EB00010E060E070E080E09FE3711641F020E018
:100EC00030E040E251E40E9408331F5FF6CFA701F3
:100ED00096010E94A4322B013C010E9475334B0104
:100EE0005C012AE0BC01A401CE01DDDE7C01E20C44
:100EF000F31C1123B1F1C501B4010E9475319B01AE
:100F0000AC01C301B2010E94A3324B015C016EE24D
:100F1000CE011FDCE80EF91E115018F120E030E080
:100F200040E251E4C501B4010E94D6312B013C01DD
:100F30000E9475334B01B12CA12C2AE0B501A4010C
:100F4000CE01B1DEE80EF91EC501B4010E94753173
:100F50009B01AC01C301B2010E94A3324B015C01B1
:100F6000DBCFC701DF91CF911F91FF90EF90DF9012
:100F7000CF90BF90AF909F908F907F906F905F9039
:100F80004F903F902F9008950F931F93CF93DF932F
:100F9000EC0180DE8C0160E273E0CE017BDE800F2D
:100FA000911FDF91CF911F910F91089573CECF9331
:100FB000DF93CDB7DEB7A8970FB6F894DEBF0FBEAC
:100FC000CDBF84E1FE01BE96DE01119601900D9227
:100FD0008A95E1F786E190E00E94113024E1FE015C
:100FE0003196DE01559601900D922A95E1F724E1A4
:100FF000FE017596DC01129601900D922A95E1F79B
:10100000DC0111961C921E92E0919308F0919408D5
:101010003097B1F49093940880939308809191084D
:101020009091920801969093920880939108A896C7
:101030000FB6F894DEBF0FBECDBFDF91CF910895FC
:10104000ED93FC9390939408809393080190F08122
:10105000E02D3097D9F7E2CFFC0180819181009794
:1010600011F00C94AD3008950F931F93CF93DF933D
:101070008C01D0E0C0E0F801808191812681378128
:10108000C217D30770F49E01220F331F820F931FE4
:10109000FC0180819181009711F00E94AD30219672
:1010A000EACF009731F0DF91CF911F910F910C940F
:1010B000AD30DF91CF911F910F910895EF92FF9284
:1010C0000F931F93CF93DF938C017B01DB01ED9195
:1010D000FC9182859385019693878287F801C08170
:1010E000D1818A859B8501979B878A87892B39F4D3
:1010F000209729F0CE01B8DFCE010E94AD30D70194
:101100008D919C91F80191838083C801DF91CF91EB
:101110001F910F91FF90EF900895CF93DF93FC0103
:10112000C081D1818A859B8501979B878A87892B7E
:1011300049F4209739F0CE0197DFCE01DF91CF91AE
:101140000C94AD30DF91CF9108950F931F930091D0
:101150006D0810916E0820916F083091700840E082
:1011600052E16AE770E080E00417150726073707A9
:1011700040F476956795579547958F5F8630A1F730
:1011800087E0982F906A9695809581709CBD8DBD63
:1011900080E01F910F912CC9CF93C82FD6DF8C2FE1
:1011A00080626DDB80937108CF9135C9CF93DF9357
:1011B000D82FC62FCADF8D2F806261DB8093710824
:1011C0008C2F5DDBDF91CF9126C96091780861FD9E
:1011D00009C062606093780880E0E8DF8BE19EE4FC
:1011E0000197F1F70895CF93C82FAFDF8C2F47DB1E
:1011F000809371088FEF43DBC82F0DD98C2FCF91CF
:1012000008958091690890916A0820916B08309147
:101210006C088217930711F060E0BDD880917F08B9
:10122000909180088230910538F0880F991F880FBF
:10123000991F05970197F1F780917B08882311F09A
:1012400081EEAADF609178086E7F6093780880E075
:10125000ADDF82E0C8DFEAE0F2E0E49161E070E057
:1012600001C0660FEA95EAF7682B82E09FCFCF9323
:10127000C82F82E0B8DFEC2FF0E0E65FFD4FE4918D
:1012800061E070E001C0660FEA95EAF7682B82E042
:10129000CF918CCFEF92FF920F931F93CF93DF9359
:1012A0007C0180917D08C0E0DAE0811107C0C09127
:1012B0007208DC2FCB3008F0DAE0CD1B46DF81E688
:1012C000DEDA809371088701D15030F08FEFD7DAE2
:1012D000F80181938F01F8CFC15018F08FEFCFDA6A
:1012E000FBCFDF91CF911F910F91FF90EF9093C8AB
:1012F000FF920F931F93CF93DF93C82FF62E072FE4
:10130000142F23DF8C2F8062BADA80937108CF2DDF
:10131000D02F115018F08991B2DAFBCFDF91CF9125
:101320001F910F91FF9077C850DF6091780861603E
:101330006093780880E03ADF60E787E037DF8091EC
:10134000690890916A0820916B0830916C088217A7
:10135000930711F061E01FD880917A08882331F05B
:1013600040917C0863E778E08AE0C2CF82E03BDF0F
:10137000EAE0F2E0E49121E030E001C0220FEA95DA
:10138000EAF72095622F682382E010DF10927A0836
:101390000895DBDE80E573DA8093710883E76FDA06
:1013A0003AC80E942835FC0180819181009711F094
:1013B0000C94363160E070E0CB010895FC0124818B
:1013C0003581232B39F421E0FB018081882349F00A
:1013D00020E007C0808191810E94353521E0892B72
:1013E000B9F7822F08950F931F93CF93DF93EC01EA
:1013F00088819981009759F02A813B812617370708
:1014000030F081E0DF91CF911F910F9108958B0112
:101410006F5F7F4F0E944C34009759F09983888307
:101420001B830A832C813D81232B59F7FC011082F9
:10143000E8CF80E0E7CFEF92FF920F931F93CF9317
:10144000DF93EC017B018A01BA01CDDF288139816C
:10145000811114C02115310519F0C9010E94AD3068
:10146000198218821D821C821B821A82CE01DF9192
:10147000CF911F910F91FF90EF9008951D830C83E2
:10148000B701C9010E943E35F1CFCF92DF92EF92B2
:10149000FF920F931F93CF93DF93EC016B017A01BF
:1014A0004617570720F48D2D6A01E62EF82E198273
:1014B00018821B821A821D821C8250E040E062E288
:1014C00073E0CE01B8DF0091990810919A08C01618
:1014D000D10638F5E016F10608F48701E091950889
:1014E000F0919608E00FF11FF0801082609195084E
:1014F000709196086C0D7D1D61157105E1F0FB0181
:1015000001900020E9F73197AF01461B570BCE0140
:1015100092DF8091950890919608080F191FF801A5
:10152000F082CE01DF91CF911F910F91FF90EF904C
:10153000DF90CF90089588819981009711F00E94E3
:10154000AD30198218821D821C821B821A82E1CF63
:101550007F928F929F92AF92BF92CF92DF92EF9243
:10156000FF920F931F93CF93DF93CDB7DEB7EDB606
:10157000FEB645D8AB01BC018091FE039091FF03FC
:10158000A0910004B0910104481759076A077B072E
:1015900048F04496A11DB11D481759076A077B07FB
:1015A00008F493C04093FE035093FF03609300043C
:1015B00070930104E0910204F0910304DF0110E054
:1015C000109761F012968D919C911397892B09F0D9
:1015D0001F5F16960D90BC91A02DF2CF112309F438
:1015E00074C0812F90E0880F991F2DB73EB7281B3C
:1015F000390B0FB6F8943EBF0FBE2DBF8DB79EB707
:1016000001966C0120E0309789F042815381452B8F
:1016100049F0A22FB0E0AA0FBB1FAC0DBD1DED938A
:10162000FC932F5F0680F781E02DEDCF5601F60188
:10163000712C01E00117D9F08281938121913191C0
:10164000DC0112966D917C91D90112964D915C91BD
:101650006417750750F4318320839F0122503109AC
:10166000D9018D939C93772473940F5FE3CF71100E
:10167000DDCF00E0D601ED91FD916D0161E080814B
:101680000E94CB010F5F1013F5CF06B5D12CC12CF2
:10169000802E912CD501ED91FD915D018281938188
:1016A000880D991D202F06B5021708F4D394202F1A
:1016B000A601400F511D84179507A8F760E08081AF
:1016C0000E94CB0173941711E5CF0FB6F894FEBEBC
:1016D0000FBEEDBE0FB6F894FEBE0FBEEDBEDF919D
:1016E000CF911F910F91FF90EF90DF90CF90BF901F
:1016F000AF909F908F907F90089581E08093120526
:1017000080931305809110058111FCCF65E08FEF68
:101710009FEFBCD82DE02093120229E12093130201
:1017200060911205B3D8E0911205AE2FB0E024E02D
:10173000B595A7952A95E1F7A251BD4F2C9120931D
:101740001402EF70F0E0E251FD4F2081209315026A
:10175000609113059BD8E0911305AE2FB0E034E003
:10176000B595A7953A95E1F7A251BD4F2C912093DD
:101770001602EF70F0E0E251FD4F20812093170236
:1017800080959095FC0144E0F695E7954A95E1F740
:10179000EF70FF27E251FD4F208120931802FC01DA
:1017A000EF70FF27E251FD4F208120931902FC01C9
:1017B000EF2FFF27E295EF70E251FD4F208120933C
:1017C0001A02E92FFF27EF70FF27E251FD4F8081BA
:1017D00080931B0282E18093110510920F051092F5
:1017E0000E0510920D0561E08AE00E94CB0181E0B8
:1017F0008093100541E050E063E270E080E090E00B
:101800000E94630242E050E063E270E080E090E01A
:101810000E946302882311F09BDEF4CF80911005B3
:101820008111FCCF08954F925F926F927F928F92B9
:101830009F92AF92BF92CF92DF92EF92FF920F935F
:101840001F93CF93DF93EC014B017A0169017B83F6
:101850006A837F836E835D834C835987488781E0E9
:1018600090E09B878A878FEF9FEF611520E47207D6
:1018700038F4CB01880F991F009711F481E090E0B4
:101880000E941130888399833701660C771C660C9F
:10189000771C9301E114E0E2FE0610F02FEF3FEF1A
:1018A000522E432E232B19F455245394412CEC0132
:1018B0005C0110E000E008151905C1F0852D942D9C
:1018C0000E941130F501819391935F01C114D104FD
:1018D00051F0F801EE0FFF1FEC0DFD1D60817181CD
:1018E000A3010E942C350F5F1F4FE5CFCD28E9F4EF
:1018F00030E020E002171307C1F090E080E0E81626
:10190000F90679F0AC01440F551F440F551FE881CB
:10191000F981E40FF51F1082118212821382019661
:10192000EECF2F5F3F4F2296E5CFDF91CF911F91F2
:101930000F91FF90EF90DF90CF90BF90AF909F906E
:101940008F907F906F905F904F900895EF92FF92ED
:101950000F931F93CF93DF938C01FC01C081D18142
:101960008A859B8501979B878A878CE090E00E94FF
:1019700011307C01288139814C815D816A817B81B4
:1019800052DFF801F182E082DF91CF911F910F9138
:10199000FF90EF9008954F925F926F927F928F9297
:1019A0009F92AF92BF92CF92DF92EF92FF920F93EE
:1019B0001F93CF93DF93EC018A01DB01ED91FC9142
:1019C000F983E88382859385019693878287DA017C
:1019D0006D917C9142815381DB0112962D913C9156
:1019E00013974217530741F44481558114962D9162
:1019F0003C914217530711F00E94D02F029714F028
:101A0000CE01A4DFF801A080B180D50112964D90DF
:101A10005C9010E000E040165106D9F1F5016480B9
:101A200075804801880C991CF12CE12C6E147F0400
:101A300069F1C701880F991F880F991FE881F98103
:101A40000190F081E02DE80DF91DC080D180C80E15
:101A5000D91EF501A081B181A80DB91DED91FC91B0
:101A6000E80FF91F2081318142815381D6016D91A8
:101A70007D918D919C910E94A332F60160837183C8
:101A800082839383FFEFEF1AFF0AD0CF0F5F1F4FC0
:101A9000C2CFCE01DF91CF911F910F91FF90EF90B8
:101AA000DF90CF90BF90AF909F908F907F906F907E
:101AB0005F904F9008954F925F926F927F928F92B6
:101AC0009F92AF92BF92CF92DF92EF92FF920F93CD
:101AD0001F93CF93DF93EC018A01DB01ED91FC9121
:101AE000F983E88382859385019693878287DA015B
:101AF0006D917C9142815381DB0112962D913C9135
:101B000013974217530741F44481558114962D9140
:101B10003C914217530711F00E94D02F029714F006
:101B2000CE0114DFF801A080B180D50112964D904E
:101B30005C9010E000E040165106D9F1F501648098
:101B400075804801880C991CF12CE12C6E147F04DF
:101B500069F1C701880F991F880F991FE881F981E2
:101B60000190F081E02DE80DF91DC080D180C80EF4
:101B7000D91EF501A081B181A80DB91DED91FC918F
:101B8000E80FF91F2081318142815381D6016D9187
:101B90007D918D919C910E94A432F60160837183A6
:101BA00082839383FFEFEF1AFF0AD0CF0F5F1F4F9F
:101BB000C2CFCE01DF91CF911F910F91FF90EF9097
:101BC000DF90CF90BF90AF909F908F907F906F905D
:101BD0005F904F9008952F923F924F925F926F9235
:101BE0007F928F929F92AF92BF92CF92DF92EF92AD
:101BF000FF920F931F93CF93DF93EC014A01DB0118
:101C0000ED91FC91F983E883828593850196938712
:101C10008287029714F0CE0199DEA880B980F50181
:101C20002280338010E000E02016310691F1D501CA
:101C300014966D907C902801440C551CF12CE12CDD
:101C40006E147F0419F1D501ED91FC91E40DF51DA1
:101C5000C701880F991F880F991FC080D180C80EB7
:101C6000D91EF4012081318142815381D6016D91C9
:101C70007D918D919C910E94D631F6016083718394
:101C800082839383FFEFEF1AFF0ADACF0F5F1F4FB4
:101C9000CBCFCE01DF91CF911F910F91FF90EF90AD
:101CA000DF90CF90BF90AF909F908F907F906F907C
:101CB0005F904F903F902F900895EF92FF920F9377
:101CC0001F93CF93DF937C018B01EA01DC01ED913F
:101CD000FC91828193816817790728F4848195812A
:101CE0004817590710F00E94D02F828593850297DC
:101CF00014F0C7012BDED701ED91FC91000F111FED
:101D000080819181080F191FCC0FDD1FCC0FDD1FC3
:101D1000F801808191818C0F9D1FDF91CF911F91E0
:101D20000F91FF90EF900895CF92DF92EF92FF9284
:101D30000F931F93CF93DF938C017B016A018CE09B
:101D400090E00E941130EC0130E020E0A601B701E4
:101D50006ADDF801D183C083DF91CF911F910F918C
:101D6000FF90EF90DF90CF9008954F925F926F9227
:101D70007F928F929F92AF92BF92CF92DF92EF921B
:101D8000FF920F931F93CF93DF9300D000D000D02A
:101D90001F92CDB7DEB74B015C0169017A0184E087
:101DA00090E090934C0880934B0882E090E09093F1
:101DB0004E0880934D0844E050E064E070E0CE01AE
:101DC0000996B2DF10E000E0412C512C90E8692E1A
:101DD0009FE3792E80914B0890914C0808171907C2
:101DE0006CF4A801B801CE01099667DFFC014082BE
:101DF0005182628273820F5F1F4FECCF60914D085A
:101E000070914E08AB01CE0107968EDF10E000E026
:101E1000412C512C80E8682E8FE3782E80914D085C
:101E200090914E08081719076CF4A801B801CE016B
:101E3000079643DFFC0140825182628273820F5F0A
:101E40001F4FECCFBE01675F7F4F83E598E036D927
:101E5000A5019401C501B4010E94D63169837A833A
:101E60008B839C83AE014F5F5F4FBE01675F7F4FE7
:101E7000CE010596B0DEBE016B5F7F4F8FE498E028
:101E80001DD9CE01059649D9A7019601C701B60112
:101E90000E94D63169837A838B839C83AE014F5F26
:101EA0005F4FBE01695F7F4FCE01059694DEBE0194
:101EB0006B5F7F4F81E598E001D9CE0105962DD962
:101EC00060914B0870914C0841E050E0CE010196C2
:101ED0002BDFBE016F5F7F4F85E598E0EFD8CE0125
:101EE00001961BD9CE01079618D9CE01099615D9AE
:101EF0002A960FB6F894DEBF0FBECDBFDF91CF910B
:101F00001F910F91FF90EF90DF90CF90BF90AF9017
:101F10009F908F907F906F905F904F9008952F9239
:101F20003F924F925F926F927F928F929F92AF9269
:101F3000BF92CF92DF92EF92FF920F931F93CF93B6
:101F4000DF93CDB7DEB7C251D2400FB6F894DEBFF3
:101F50000FBECDBF43E050E070E060E0CE010196DF
:101F600094DA6FE273E0CE01019628DA182FCE01E1
:101F7000019672D8112309F468C080919908909154
:101F80009A080A9709F03DC046E050E063E070E02F
:101F9000CE0101967ADACE01019605DA4B01CE0127
:101FA00001965AD84AE050E067E070E0CE01019611
:101FB0006CDACE010196F7D96B01CE0101964CD8AF
:101FC000A401092C000C660B770B8CE395E00E94B2
:101FD0009E0665E773E08CE395E00E94D607B601A4
:101FE0008CE395E00E94CD0627EE821623E0920650
:101FF00011F541E050E070E060E090E080E00E9488
:102000004805CE5EDD4F0FB6F894DEBF0FBECDBFE4
:10201000DF91CF911F910F91FF90EF90DF90CF90C4
:10202000BF90AF909F908F907F906F905F904F90F8
:102030003F902F900895B6016A587F4F86E690E052
:102040008819990942E050E0DACF44E050E070E0AE
:1020500060E0CE01019619DA63E373E0CE010196E8
:10206000ADD9182FCE0101960E942C0842E050E015
:1020700066E770E086E690E01111C1CF43E050E0E2
:1020800070E060E0CE01019600DA68E373E0CE0113
:10209000019694D9182FCE0101960E942C0842E097
:1020A00050E060E870E08AE590E01111A8CF43E0CD
:1020B00050E070E060E0CE010196E7D96CE373E098
:1020C000CE0101967BD9182FCE0101960E942C08D3
:1020D00042E050E06AE570E08FE790E011118FCFA9
:1020E00043E050E070E060E0CE010196CED960E4BC
:1020F00073E0CE01019662D9182FCE0101960E949D
:102100002C0842E050E06AE570E0111130C043E075
:1021100050E070E060E0CE010196B7D964E473E06E
:10212000CE0101964BD9182FCE0101960E942C08A2
:1021300042E050E06EE670E088E790E011115FCF7A
:1021400043E050E070E060E0CE0101969ED968E483
:1021500073E0CE01019632D9182FCE0101960E946C
:102160002C08112339F041E050E06EE670E08EE675
:1021700090E045CF45E050E070E060E0CE01019690
:1021800084D96CE473E0CE01019618D9182FCE01E2
:1021900001960E942C08112321F0F0E0E0E019954F
:1021A00030CF44E050E070E060E0CE0101966DD9A0
:1021B00062E573E0CE01019601D9182FCE01019698
:1021C0000E942C08112359F01092FB041092FC0479
:1021D0001092FD041092FE041092FF0412CF44E00E
:1021E00050E070E060E0CE0101964FD967E573E002
:1021F000CE010196E3D8182FCE0101960E942C083B
:10220000112371F081E08093FB040E94FF02609330
:10221000FC047093FD048093FE049093FF04F1CEC0
:1022200043E050E070E060E0CE0101962ED96CE50D
:1022300073E0CE010196C2D8182FCE0101960E94FC
:102240002C08112309F4B2C08091990890919A0842
:10225000049709F0D6CE44E050E063E070E0CE0190
:10226000019613D9CE0101969ED82B01CE0101967D
:102270000E942C088FEF9FEF4114510411F0C2010E
:102280000197909302028093010288E090E0A0E021
:10229000B0E089839A83AB83BC83EAED8E2EE2E0C3
:1022A0009E2E9E012F5F3F4F79016901B12CA12C19
:1022B000C5010E94C104D4018D914D0190E0FC0143
:1022C000E258FE4F6491FC01E85CFE4FE491F0E0BF
:1022D000EE0FFF1FE25EFE4F8591949100E412E441
:1022E0002FE030E0462F0E94091A85010F5F1F4F33
:1022F0005801611571058105910561F06F5F7F4F90
:102300008F4F9F4F9F706135B3EC7B07810591051F
:1023100008F044C0F601648375838683978362E284
:1023200070E080E090E00E94CF02B4E0CB0ED11CC0
:102330000830110509F0BCCF60E673E08AED95E046
:102340000E94D60710E000E0F701419151916191A0
:1023500071917F018AED95E00E949E06083011057B
:1023600031F065E673E08AED95E00E94D6070F5FD5
:102370001F4F0930110541F762E273E08AED95E0E5
:102380000E94C40767E673E08CE395E00E94D607DD
:10239000B2018CE395E00E94CD0633CED6011496AF
:1023A0001D921D921D921C921797B9CF43E050E0E9
:1023B00070E060E0CE01019668D860E773E0CE017E
:1023C00001960E94DE09182FCE0101960E942C086A
:1023D000112309F483C28091990890919A08049777
:1023E00009F00FCE44E050E063E070E0CE010196CA
:1023F0004CD8CE0101960E94D309C55FDD4F68839A
:1024000079838A839B83CB50D240C55FDD4F28817F
:102410003981CB50D240C95FDD4F39832883C75003
:10242000D240CE0101960E942C088091E304909145
:10243000E404A091E504B091E604C15FDD4F888318
:102440009983AA83BB83CF50D240DE011196CF5F20
:10245000DD4FB983A883C150D2409E012F513E4F1A
:10246000FD018FEF8083848B80A78287868F82AB6C
:10247000FC962E173F07B1F7B12CA12C10E000E01D
:102480005AE0C52EF12CE12C41E050E062E270E010
:1024900080E090E00E94630230D9C8010E94C1042C
:1024A0000E9494090E94FF022B013C01912C812C77
:1024B000D12C17012A0C3B1C8FEF0E94CC08809175
:1024C000710890E0959587958770863008F4D0C1A3
:1024D000DD2009F4EAC10E94010942E050E062E215
:1024E00070E080E090E00E9463028111F6CF24E169
:1024F000E20EF11C3CE3E316F10431F60F5F1F4FCF
:102500008CE3A80EB11C0830110509F0BBCFDE0129
:10251000AF51BE4FCB5FDD4FB983A883C550D240CA
:102520009096C75FDD4FB983A883C950D240CB5F77
:10253000DD4F08811981C550D24080E090E0AFEABC
:10254000B4E4F80180839183A283B383CF5FDD4F2E
:1025500048805980C150D240312C212C3201CD5FAE
:10256000DD4F19821882C350D240D3018C91C95FCC
:10257000DD4FE881F981C750D2408E171F0609F060
:102580004AC011966D917D918D919C9114970E94F6
:1025900077312BEB38EB4DE05DE30E94D6319B01A8
:1025A000AC01C15FDD4F688179818A819B81CF5009
:1025B000D2400E94A3326B017C01D8018D909D9086
:1025C000AD90BC9020E030E04FEA54E4C501B40186
:1025D0000E9471318823D1F020E030E040E05FE3D9
:1025E000C501B4010E94D6314B015C0120E030E00E
:1025F00040E05FE3C701B6010E94D6319B01AC0108
:10260000C501B4010E94A4326B017C01F801C082B3
:10261000D182E282F382FAE06F0E711CCD5FDD4F52
:1026200028813981C350D2402130310509F04DC194
:102630003FEF231A330A84E1480E511C93E0291618
:10264000310409F08BCF0C5F1F4FCF5FDD4FA881A6
:10265000B981C150D240DC96CF5FDD4FB983A883EA
:10266000C150D240C75FDD4FE881F981C950D240E7
:102670000E171F0709F061CFC12CD12C76010FEF87
:102680001FEF512C412C9FEA392E24E4222E712C6D
:10269000612CCB5FDD4FA881B981C550D2408D90B0
:1026A0009D90AD90BD90CB5FDD4FB983A883C550A1
:1026B000D240C501B4010E9470339B0177FF04C072
:1026C00022273327261B370BB901330F880B990BB1
:1026D0000E947731CF5FDD4F6883C150D240CD5F1C
:1026E000DD4F7883C350D240C95FDD4F8883C75028
:1026F000D240C75FDD4F9883C950D240252D342D7D
:10270000432D522D0E94713187FF15C0CF5FDD4FE1
:102710005880C150D240CD5FDD4F4880C350D24079
:10272000C95FDD4F3880C750D240C75FDD4F28807A
:10273000C950D2408301B701A6018CE395E00E9405
:102740009E0664E773E08CE395E00E94D60722E0E2
:10275000B501A4018CE395E00E94E30660E273E01A
:102760008CE395E00E944A06BFEF6B1A7B0AEFEFFD
:10277000CE1ADE0AEE0AFE0AF8E06F16710409F0BE
:1027800088CFC12CD12C80E8E82E8FEBF82E0F3F9C
:102790001007E9F168E773E08CE395E00E94D60743
:1027A00022E0C15FDD4F488159816A817B81CF5032
:1027B000D2408CE395E00E94E30661E873E08CE38D
:1027C00095E00E94D60722E0452D542D632D722DF1
:1027D0008CE395E00E94E3066FE873E08CE395E0FC
:1027E0000E94D607B8018CE395E00E94CD068DE2E9
:1027F000809FB001819F700D11246A5E7F4F072E6C
:10280000000C880B990B0E9477316B017C016EE9FB
:1028100073E08AED95E00E94D60722E0B701A60199
:102820008AED95E00E94E30665E673E08AED95E0A7
:102830000E94D607C55FDD4F68817981CB50D240B9
:102840008AED95E00E94CD066AE973E08CE395E09D
:102850000E94D60722E0B701A6018CE395E00E9412
:10286000E30660E273E08CE395E00E944A06C9CB80
:10287000D11031CEC89CC001C99C900D1124820D8D
:10288000931DE1E0F0E0EC0FFD1F8E0F9F1F0E94F3
:102890004A0960E487E00E94D6088A94892809F4EE
:1028A0001ACE88248394912C07CE0E94FF026419CB
:1028B000750986099709DD24D3946E327105810567
:1028C000910508F0F9CDD12CF7CD21E030E0CD5FB6
:1028D000DD4F39832883C350D24047CE42E050E0D9
:1028E00070E060E0CE0101960E94450A63EA73E061
:1028F000CE0101960E94DE09182FCE0101960E949A
:102900002C08112301F18091990890919A0805975C
:1029100009F077CB1092090245E050E062E070E0E8
:10292000CE0101960E94450ACE0101960E94D3096C
:102930006B01CE0101960E942C08B6018FE598E04C
:102940000E940D055ECB42E050E070E060E0CE01F9
:1029500001960E94450A66EA73E0CE0101960E9444
:10296000DE09182FCE0101960E942C081123F1F0E8
:102970008091990890919A08059709F042CB10929E
:10298000090245E050E062E070E0CE0101960E944D
:10299000450ACE0101960E94D3096B01CE01019632
:1029A0000E942C08B60187E598E0CACF69EA73E077
:1029B00085E998E00E94DE098823C9F08091990892
:1029C00090919A08049709F01CCB41E050E06FEF1A
:1029D0007FEF8FEF9FEF0E94480581E0809309020F
:1029E00064E670E080E090E00E94CF020ACB6EEADD
:1029F00073E085E998E00E94DE09882359F0809110
:102A0000990890919A08059709F0FBCA81E0809394
:102A10000902F7CA64EB73E085E998E00E94DE09D9
:102A2000882351F08091990890919A08069709F0AF
:102A3000E8CA10920902E5CA42E050E070E060E0A6
:102A4000CE0101960E94450A6BEB73E0CE01019620
:102A50000E94DE09182FCE0101960E942C08112336
:102A600009F445C08091990890919A080A9709F055
:102A7000C8CA45E050E062E070E0CE0101960E94D5
:102A8000450ACE0101960E94D3094B015C01CE019B
:102A900001960E942C0849E050E066E070E0CE010B
:102AA00001960E94450ACE0101960E94D3096B014E
:102AB0007C01CE0101960E942C08C701B6010E943C
:102AC000773120E030E04AE754E40E9408336B019C
:102AD0007C01C501B4010E94773120E030E04AE773
:102AE00054E40E940833A70196013FD98ACA42E004
:102AF00050E070E060E0CE0101960E94450A6EEB66
:102B000073E0CE0101960E94DE09182FCE010196D6
:102B10000E942C081123E1F08091990890919A0865
:102B2000039709F06ECA43E050E062E070E0CE0126
:102B300001960E94450ACE0101960E94D309709326
:102B4000080260930702CE0101960E942C0859CA20
:102B500061EC73E085E998E00E94DE09882309F4BE
:102B600050CA1092A1041092A2041092A3041092D1
:102B7000A4041092C6041092C7041092C8041092C4
:102B8000C9043FCA4F925F926F927F92AF92BF92F9
:102B9000CF92DF92EF92FF920F931F93CF93DF9329
:102BA0007C016B01DB01ED91FC91428153816481D9
:102BB0007581BAD8D0E0C0E0D601ED91FC91828158
:102BC0009381C817D90798F55E01AA0CBB1C10E0C9
:102BD00000E0D601ED91FC918281938124813581C1
:102BE0000217130710F5C817D90710F00E94D02F4D
:102BF000A081B181AA0DBB1DC801880F991F880F44
:102C0000991FED91FC91E80FF91F4080518062807F
:102C10007380AE01B801C70150D8FC0140825182D7
:102C2000628273820F5F1F4FD4CF2196C5CFC70139
:102C3000DF91CF911F910F91FF90EF90DF90CF9098
:102C4000BF90AF907F906F905F904F9008952F92BC
:102C50003F924F925F926F927F928F929F92AF922C
:102C6000BF92CF92DF92EF92FF920F931F93CF9379
:102C7000DF93CDB7DEB72E970FB6F894DEBF0FBE49
:102C8000CDBF7C015E834D83DB01ED91FC91DC01C6
:102C9000ED93FC9382859385019693878287DA0171
:102CA0004D915C9124813581DA0112968D919C9130
:102CB00013972817390711F00E94D02F14964D91C1
:102CC0005C9162817381CE0101962ED8F70140801C
:102CD0005180D20112960D90BC91A02DB887AF8380
:102CE000E981FA81FC87EB87D12CC12C8F819885F3
:102CF0008C159D0509F47BC0AD81BE810D90BC9102
:102D0000A02DBC83AB831496ED91FC91FA87E987E3
:102D10003601660C771CB12CA12C89859A858A1501
:102D20009B0509F460C04501880C991C880C991C0E
:102D3000AB85BC85ED91FC91E60DF71D20803180BF
:102D4000280C391CF1011082118212821382D201E7
:102D500014960D90BC91A02DBE87AD8710E000E0C9
:102D6000ED85FE85E017F107D1F1F201A081B18177
:102D7000A60DB71DC801880F991F880F991FED91E7
:102D8000FC91BF01680F791FC801880F991FEB8163
:102D9000FC81A081B181A80FB91F0D90BC91A02D1D
:102DA000A80DB91D2D913D914D915C91DB016D9167
:102DB0007D918D919C910E94D6319B01AC01F101D6
:102DC00060817181828193810E94A432D1016D93CF
:102DD0007D938D939C9313970F5F1F4FC1CFBFEFD0
:102DE000AB1ABB0A9ACFEFEFCE1ADE0A7FCFBE0135
:102DF0006F5F7F4FC7010E945E08CE0101960E945F
:102E00008D08C7012E960FB6F894DEBF0FBECDBF5A
:102E1000DF91CF911F910F91FF90EF90DF90CF90B6
:102E2000BF90AF909F908F907F906F905F904F90EA
:102E30003F902F9008950F931F93CF93DF93EC0152
:102E40008A0141E050E062E070E00E94940EB80117
:102E5000CE010E945E08CE01DF91CF911F910F91AC
:102E600008954F925F926F927F928F929F92AF924E
:102E7000BF92CF92DF92EF92FF920F931F93CF9367
:102E8000DF93EC017A01FB016281738141E050E044
:102E90000E94940E10E000E050E040E0B801C7014D
:102EA0000E945D0EFC0180809180A280B380B801F9
:102EB0006E5F7F4F50E040E0C7010E945D0EFC0155
:102EC000408051806280738050E040E0B801CE01C4
:102ED0000E945D0E6C01A3019201C501B4010E9424
:102EE000A432F601608371838283938301301105DC
:102EF00019F001E010E0D0CF50E040E062E070E077
:102F0000C7010E945D0E8C0150E040E062E070E07D
:102F1000CE010E945D0EF801408151816281738172
:102F2000FC01408351836283738350E040E063E09F
:102F300070E0C7010E945D0E8C0150E040E063E04C
:102F400070E0CE010E945D0EF801408151816281E6
:102F50007381FC014083518362837383CE01DF91CF
:102F6000CF911F910F91FF90EF90DF90CF90BF9086
:102F7000AF909F908F907F906F905F904F9008954B
:102F80000F931F93CF93DF93EC018A0141E050E050
:102F900061E070E00E94940EB801CE010E945E08CC
:102FA000CE01DF91CF911F910F9108954F925F92C3
:102FB0006F927F928F929F92AF92BF92EF92FF9209
:102FC0000F931F93CF93DF93EC018A01FB01628182
:102FD000738141E050E00E94940E50E040E070E0C8
:102FE00060E0C8010E945D0EFC0180809180A2809B
:102FF000B38050E040E061E070E0C8010E945D0EE7
:10300000FC01408051806280738050E040E070E0BD
:1030100060E0CE010E945D0E7C01A3019201C5011A
:10302000B4010E94A432F701608371838283938389
:1030300050E040E061E070E0C8010E945D0E8C014C
:1030400050E040E061E070E0CE010E945D0EF801CA
:103050004081518162817381FC014083518362838D
:103060007383CE01DF91CF911F910F91FF90EF906D
:10307000BF90AF909F908F907F906F905F904F9098
:1030800008951F920F920FB60F9211242F933F9322
:103090008F939F93AF93BF93809105059091060501
:1030A000A0910705B09108053091040523E0230F96
:1030B0002D3758F50196A11DB11D2093040580936D
:1030C000050590930605A0930705B0930805809128
:1030D000090590910A05A0910B05B0910C05019688
:1030E000A11DB11D8093090590930A05A0930B05BE
:1030F000B0930C05BF91AF919F918F913F912F910C
:103100000F900FBE0F901F90189526E8230F029680
:10311000A11DB11DD2CF1F920F920FB60F92112495
:103120000BB60F922F933F934F935F936F937F93C1
:103130008F939F93AF93BF93EF93FF938AED95E0A7
:103140000E948703FF91EF91BF91AF919F918F9163
:103150007F916F915F914F913F912F910F900BBE97
:103160000F900FBE0F901F9018951F920F920FB6E1
:103170000F9211240BB60F922F938F939F93EF937F
:10318000FF93E091EA05F091EB058081E091F00575
:10319000F091F10582FD1DC090818091F3058F5F54
:1031A0008F732091F405821741F0E091F305F0E070
:1031B000E652FA4F958F8093F305FF91EF919F911F
:1031C0008F912F910F900BBE0F900FBE0F901F90FD
:1031D00018958081F2CF1F920F920FB60F92112493
:1031E0000BB60F922F933F934F935F936F937F9301
:1031F0008F939F93AF93BF93EF93FF938CE395E0EF
:103200000E948703FF91EF91BF91AF919F918F91A2
:103210007F916F915F914F913F912F910F900BBED6
:103220000F900FBE0F901F9018951F920F920FB620
:103230000F9211240BB60F922F938F939F93EF93BE
:10324000FF93E0914C05F0914D058081E09152058E
:10325000F091530582FD1DC09081809155058F5FCF
:103260008F7320915605821741F0E0915505F0E0EB
:10327000E45CFA4F958F80935505FF91EF919F91F4
:103280008F912F910F900BBE0F900FBE0F901F903C
:1032900018958081F2CF1F920F920FB60F921124D2
:1032A0008F9380910B048F5F80930B0480910A04AD
:1032B00080910B0481110AC080910A041092B2001F
:1032C0008F910F900FBE0F901F90189580910A0458
:1032D00080910B048823A1F380910A0480910A0451
:1032E0008F5F80930A0410920B041092B2008091B9
:1032F0000A04882339F080910A04893018F48091F7
:103300000A04DECF80910A048930D0F210920A04B8
:10331000D7CF1F920F920FB60F9211240F900FBEAE
:103320000F901F9018951F920F920FB60F921124B5
:103330000BB60F921F932F933F934F935F936F930F
:103340007F938F939F93AF93BF93CF93DF93EF932D
:10335000FF9380911005882319F180910D0591E06C
:10336000980F90930D0581111BC0C0910F0510910E
:10337000000280911105C81778F160E08AE00E9490
:10338000CB0160E0812F0E94CB011092100580914B
:103390000604909107040196909307048093060415
:1033A00080910D05883010F010920D05FF91EF917E
:1033B000DF91CF91BF91AF919F918F917F916F914D
:1033C0005F914F913F912F911F910F900BBE0F90E6
:1033D0000FBE0F901F901895EC2FF0E0E65FFD4FA9
:1033E000608120910E05D1E0D20FD0930E0581E0CF
:1033F00090E001C0880F2A95EAF76823812F0E9488
:10340000CB01D63098F210920E05CF5FC0930F0516
:10341000C7CFCF92DF92EF92FF920F931F93E82FC7
:10342000F92F05C0015011092109310961F190817D
:1034300096239417B9F305C00150110921093109E8
:1034400011F1908196239413F7CFC12CD12CE12C4C
:10345000F12C0AC08FEFC81AD80AE80AF80A0C152E
:103460001D052E053F0579F080818623841791F391
:103470006C2D7D2D8E2D9F2D1F910F91FF90EF9024
:10348000DF90CF90089560E070E080E090E01F91C1
:103490000F91FF90EF90DF90CF9008954F925F9241
:1034A0006F927F928F929F92AF92BF92CF92DF9254
:1034B000EF92FF920F931F93CF93DF9300D01F9251
:1034C000CDB7DEB74C01270138010C8D1D8DDC0115
:1034D0005D965C934E935C975B967C936E935A9744
:1034E0005F963C932E935E97DC961C92FC0114AA87
:1034F00015AA16AA17AA80E090E0AFE7B3E480AF60
:1035000091AFA2AFB3AF84E690E0A0E0B0E080ABB3
:1035100091ABA2ABB3AB118F008F20E030E0A901DB
:10352000C301B7010E94713187FD7AC020E030E00D
:10353000A901C601B5010E94713187FD71C020E06B
:1035400030E0A901688D798D8A8D9B8D0E94713143
:1035500087FD66C0D4014D925D926D927C92139767
:10356000F401A482B582C682D782888D998DAA8DF6
:10357000BB8D80879187A287B387448655866686F0
:1035800077862DEC3CEC4CEC5DE3C601B5010E9466
:10359000D63169837A838B839C83F401608B718B32
:1035A000828B938B2DEC3CEC4CEC5DE3688D798D3C
:1035B0008A8D9B8D0E9408336B017C01D401549647
:1035C000CD92DD92ED92FC9257970130110541F5B5
:1035D000A301920160E070E0CB010E94A332F401EC
:1035E000648775878687978729813A814B815C81BB
:1035F00060E070E0CB010E94A332D40150966D933D
:103600007D938D939C935397A701960160E070E0A2
:10361000CB010E94A332F401648B758B868B978B50
:103620000E94FF02D401D0960D911D912D913C91E5
:10363000D397601B710B820B930BF40160A371A3F2
:1036400082A393A30F900F900F900F90DF91CF91D3
:103650001F910F91FF90EF90DF90CF90BF90AF90B0
:103660009F908F907F906F905F904F900895CF9331
:10367000DF93EC0186ED92E09983888346E050E089
:1036800066E070E0CE0106960E94940E46E050E09F
:1036900066E070E0CE0108960E94940E46E050E08D
:1036A00066E070E0CE010A96DF91CF910C94940E03
:1036B0003F924F925F926F927F928F929F92AF92C2
:1036C000BF92CF92DF92EF92FF920F931F93CF930F
:1036D000DF93CAEDD5E01B821A8288EE93E0A0E06A
:1036E000B0E08C839D83AE83BF8322E0822E23E0F3
:1036F000922E998288822DEC30E03D872C872CEC2D
:1037000030E03F872E8728EC30E0398B288B29EC7E
:1037100030E03B8B2A8B2AEC30E03D8B2C8B2EEC5F
:1037200030E03F8B2E8B198E1A8E1B8E1C8EECE395
:10373000F5E01382128284839583A683B7839182F6
:10374000808285EC90E09587848784EC90E0978771
:10375000868780EC90E0918B808B81EC90E0938B5E
:10376000828B82EC90E0958B848B86EC90E0978B3B
:10377000868B118E128E138E148EE5E9F8E011827D
:103780001082138212821582148250E040E062E2BD
:1037900073E0CF010E941B0AE1E9F8E01182108278
:1037A00013821282E7E8F8E01482128216821782EE
:1037B000108611861582E7E6F8E089E090E09383B1
:1037C000828385E390E09583848380E896E9A8E985
:1037D000B0E086839783A087B18780E28387128ACF
:1037E000138A85E0858B77247394768A85E090E050
:1037F000A0E0B0E0848F958FA68FB78F89ED95E01C
:10380000918380831486E7E5F8E010822FEF21830F
:103810001382128292E2948386E98583178216824C
:1038200010862187138612869487858717861686C9
:1038300089E498E01CDF8CE193E090934A08809340
:10384000490846E050E066E070E085E598E00E94B7
:10385000940E8BE398E00BDF84E193E090933C08B7
:1038600080933B0846E050E066E070E087E498E033
:103870000E94940E1F927F923CE3332E3F9243E2CC
:10388000442E4F9257ED552E5F926AE0662E6F924E
:103890007AE9A72E79E9B72ECB2C7EE3D72E1AE949
:1038A000E12E19E9F12E09E11FE329EA37E041EBA6
:1038B00057E069EB77E081EC97E0F0DD1F927F92B3
:1038C0003F924F925F926F922DEA37E045EB57E0BF
:1038D0006DEB77E08EEF97E0E1DD1F921F921F9274
:1038E0001F921F921F92A12CB12C6501E12CF12C8B
:1038F00000E010E422EB32E046EB52E06AEB72E0CB
:103900008CE697E0CBDDE8E5F7E000E010E020E0B2
:103910003EE3008311832283338340E050E060E084
:1039200072E4448355836683778380E090ECAFE74D
:10393000B4E484879587A687B787A086B186C286B8
:10394000D386E4E4F7E00083118322833383448346
:1039500055836683778384879587A687B787A086F4
:10396000B186C286D38688E290E00E941130E8E3F7
:10397000F7E091838083938382830AE010E01583CC
:1039800004831782168288E290E00E941130ECE2F4
:10399000F7E0918380839383828315830483178266
:1039A00016828DEC9CECACE4BEE3809320079093F0
:1039B0002107A0932207B0932307809314079093C5
:1039C0001507A0931607B0931707E7E7F6E08A817B
:1039D0009B81938382838C819D81AE81BF8184830F
:1039E0009583A683B78388859985AA85BB858087BB
:1039F0009187A287B387918280828C859D859587E8
:103A000084878E859F859787868788899989918BFA
:103A1000808B8A899B89938B828B8C899D89958BDE
:103A2000848B8E899F89978B868B888D808F898DDB
:103A3000818F8A8D828F8B8D838F8C8D848F80E494
:103A4000E7EFF5E0A4E9B6E001900D928A95E1F781
:103A500080E4E7E3F6E0A4EDB6E001900D928A95EC
:103A6000E1F78DB79EB742960FB6F8949EBF0FBE92
:103A70008DBFDF91CF911F910F91FF90EF90DF905D
:103A8000CF90BF90AF909F908F907F906F905F90FE
:103A90004F903F900895CF93DF93CDB7DEB7C257D5
:103AA000D1090FB6F894DEBF0FBECDBF789484B5B0
:103AB000826084BD84B5816084BD85B5826085BD2A
:103AC00085B5816085BD80916E00816080936E00B8
:103AD00010928100809181008260809381008091AA
:103AE000810081608093810080918000816080935B
:103AF00080008091B10084608093B1008091B0001B
:103B000081608093B00080919100826080939100E9
:103B100080919100816080939100809190008160FC
:103B2000809390008091A10082608093A100809199
:103B3000A10081608093A1008091A00081608093AA
:103B4000A000809121018260809321018091210158
:103B50008160809321018091200181608093200108
:103B600080917A00846080937A0080917A008260EC
:103B700080937A0080917A00816080937A008091AE
:103B80007A00806880937A001092C10001EC17E0FF
:103B90002CEE32E02F963FAF2EAF2F974AEE52E039
:103BA0002D965FAF4EAF2D97D801DC968C91811189
:103BB00003C0C8010E94030621E0F80124AF60A9F8
:103BC00071A982A993A90E9475319B01AC0160E0A3
:103BD00070E086E193E40E9408336B017C01AC0144
:103BE0009B01D80150966D917D918D919C91539739
:103BF0000E94D631F801608B718B828B938BA70169
:103C0000960164897589868997890E940833D8014D
:103C100054966D937D938D939C93579726E930E04E
:103C200040E050E0D0962D933D934D935C93D39715
:103C30002F96EEADFFAD2F9761912F96FFAFEEAFB0
:103C40002F9770E090E080E00E9475314B015C019D
:103C50002D96AEADBFAD2D976D912D96BFAFAEAF8A
:103C60002D9770E090E080E00E9475316B017C013F
:103C7000AC019B01C501B4010E94713118160CF012
:103C800056C0F801C4AAD5AAE6AAF7AA80AE91AE9A
:103C9000A2AEB3AE248C358CF1014080518062809D
:103CA0007380A3019201C501B4010E94713187FFA5
:103CB00021C0D1018D929D92AD92BC921397D801F3
:103CC00094968D909D90AD90BC909797D896CD90FE
:103CD000DD90ED90FC90DB97A7019601C501B40142
:103CE0000E94A1331816A4F4F801C4A2D5A2E6A23A
:103CF000F7A21DC0A3019201C701B6010E94A13322
:103D00001816ECF6F101C082D182E282F382D7CF9D
:103D1000D801D496CD90DD90ED90FC90D797A70177
:103D20009601C501B4010E94713187FDDDCF035CAE
:103D30001F4FF8E00B331F0709F036CF80E090E00B
:103D4000A8E8B1E48093A9079093AA07A093AB07D2
:103D5000B093AC071092B1071092B2071092B3075C
:103D60001092B4071092B9071092BA071092BB07CD
:103D70001092BC078093AD079093AE07A093AF0756
:103D8000B093B0071092B5071092B6071092B7071C
:103D90001092B8071092BD071092BE071092BF078D
:103DA0001092C00761E08DE00E940D0260E083E0A8
:103DB0000E940D0260E084E10E940D0210928D04C9
:103DC00010928E0410928F0410929004109291041D
:103DD0001092920410929304109294041092890409
:103DE00010928A0410928B0410928C0402EE12E05E
:103DF0009AEDE92E92E0F92E2AEEC22E22E0D22E82
:103E000061E0D8018D918D010E940D0260E0F70103
:103E100081917F010E940D02C016D10689F760E0F2
:103E200085E20E940D0260E084E20E940D0260E0E3
:103E300083E20E940D0260E083E00E940D0260E0D8
:103E400082E00E940D0261E085E00E940D0260E0C8
:103E500084E00E940D028CE0809300028EE0E4EC8E
:103E6000F2E08E010F5F1F4FD80101900D928A95ED
:103E7000E1F76E01F3E0CF0ED11CFF24F394812C07
:103E8000B4E29B2EB4EFAB2EB12C80E2482E8EE430
:103E9000582E612C712CD6012D913D916D0150E071
:103EA00040E0C501B4010E940034CA01B901A30178
:103EB00092010E940034223031054105510510F075
:103EC0000C949A2FF394B7E0FB12E5CFE0914C05E8
:103ED000F0914D0522E02083E0914C05F0914D05D5
:103EE0001082E0914805F09149051082E0914A0561
:103EF000F0914B0580E1808310925405E0915005CC
:103F0000F091510596E09083E0914E05F0914F05B8
:103F1000808180618083E0914E05F0914F05808122
:103F200088608083E0914E05F0914F058081806824
:103F30008083E0914E05F0914F0580818F7D8083D5
:103F4000E091EA05F091EB052083E091E605F09120
:103F5000E7051082E091E805F091E90583E38083AD
:103F60001092F205E091EE05F091EF059083E0915B
:103F7000EC05F091ED05808180618083E091EC0596
:103F8000F091ED05808188608083E091EC05F091EF
:103F9000ED05808180688083E091EC05F091ED056E
:103FA00080818F7D808361E085E10E940D0261E068
:103FB00085E10E94CB01FFB6F89480910C04811139
:103FC00027C0EDE6F1E08491E3EBF1E09491E82F76
:103FD000F0E0EE0FFF1FE651FF4FA591B491EC9179
:103FE000E92321F461E085E30E94CB0161E085E3F0
:103FF0000E940D028CB580618CBD8CB580648CBD37
:1040000061E084E30E940D0261E083E30E940D02FF
:1040100080910C048F5F80930C04FFBE809169082F
:1040200090916A088F3F980709F493C020916B081C
:1040300030916C082F3F320709F48BC08217930729
:1040400041F061E00E940D0261E080916B080E94E6
:104050000D028091690890916A0820916B08309157
:104060006C088217930719F060E00E94CB0181E091
:104070000E94F80165E070E080E090E00E94CF02CD
:104080006FE584E00E94D60885E590E0A0E0B0E00E
:1040900080937F0890938008A0938108B093820852
:1040A00067E086E00E94D6088DE10E94F308F82EB2
:1040B0000E94C9098DE10E94F30891E0F81290E096
:1040C00090937908882341F0F81202C00E94C90930
:1040D00060E08DE10E94D60810927B0860E08CE1E0
:1040E0000E94D60810927D086FE381E00E94D608F6
:1040F00063E082E00E94D60880E280937208E1E1EA
:10410000FE2E609172088F2D0E94D608F39427E14D
:10411000F212F7CF63E083E00E94D60885E0809337
:104120007C086CE40E94D60860E787E00E94D6080D
:1041300082EE0E94CC0881EE0E94CC086CE080E008
:104140000E94D60880E00E94F308809378080E94BD
:10415000E50881EE8D8B1E8A1F8A188E198E1A8EA5
:104160001B8E1C8EE5EEF0E0849140917C08BE0130
:104170006B5E7F4F0E94780981E00E94370982EED2
:104180008D8F1E8E1F8E18A219A21AA21BA21CA20E
:10419000E6EEF0E0849141E0BE01635E7F4F0E9455
:1041A000780982E00E9437096CE685E00E94D60813
:1041B00063E384E00E94D6086FE381E00E94D608A2
:1041C00081E090E0A0E0B0E089839A83AB83BC8378
:1041D000EE24E394F12CFE82ED82F886EF828AE5EC
:1041E00090E0988B8F87FC8AEB8A84E090E09A8B32
:1041F000898B8AE090E09A8789879C878B879E8746
:104200008D874DB75EB7445151090FB6F8945EBF24
:104210000FBE4DBFADB7BEB7119684E1F801019056
:104220000D928A95E1F70E94D70782E090E0A0E026
:10423000B0E089839A83AB83BC8362E0C62ED12C25
:10424000DE82CD8282ED90E09A8789878DB79EB716
:1042500044970FB6F8949EBF0FBE8DBFADB7BEB7E3
:10426000119684E1F80101900D928A95E1F70E9480
:10427000D7070FB6F894DEBF0FBECDBF2DEC3CECD8
:104280004CEC5CE36FE672E183E89AE30E94B50EC2
:10429000D0923E08C0923D08F0924008E0923F085C
:1042A00042E050E062E070E0CE0189960E94940EF8
:1042B000F12CE12C812C912C70E8A72E7FE3B72EF6
:1042C00080913D0890913E08E816F9067CF4A7011C
:1042D000B701CE0189960E945D0EFC018082918219
:1042E000A282B382FFEFEF1AFF0AEACF60913F0884
:1042F00070914008AB01CE0187960E94940EF12C7C
:10430000E12C812C912C40E8A42E4FE3B42E809117
:104310003F0890914008E816F90684F4A701B70118
:10432000CE0187960E945D0EDC018D929D92AD922A
:10433000BC921397BFEFEB1AFB0AE9CFBE01675D92
:104340007F4F85E498E00E945E088EEB97E3A6E835
:10435000B5E389839A83AB83BC83A801BE01675D03
:104360007F4FCE0185960E94EB0DBE016B5D7F4FA6
:1043700081E498E00E945E08CE0185960E948D0837
:104380008BE097EDA3E2BAE389839A83AB83BC8386
:10439000A801BE01695D7F4FCE0185960E94EB0D9D
:1043A000BE016B5D7F4F83E498E00E945E08CE0102
:1043B00085960E948D0860913D0870913E0841E00D
:1043C00050E0C8010E94940EB80187E498E00E9472
:1043D0005E08C8010E948D08CE0187960E948D0854
:1043E000CE0189960E948D0883E00E94A3018093EC
:1043F000CE0484E10E94A3018093A9048091A807C0
:10440000811104C08CE697E00E94030681E080934E
:10441000A80760919C0770919D0780919E079091DD
:104420009F070E9475319B01AC0160E070E086E15E
:1044300093E40E9408336B017C01AC019B01609105
:104440007C0770917D0780917E0790917F070E9485
:10445000D63160937C0770937D0780937E0790939D
:104460007F07A70196016091800770918107809175
:104470008207909183070E940833609380077093AE
:104480008107809382079093830786E990E0A0E0FC
:10449000B0E080939C0790939D07A0939E07B093F4
:1044A0009F076AE070E080E090E00E94CF026AEC33
:1044B00073E08AED95E00E94C4076FEE73E08CE331
:1044C00095E00E94D60780919B0890919C080097E8
:1044D00011F48FE998E0B801681B790B8CE395E043
:1044E0000E94CD066AEC73E08AED95E00E94C40755
:1044F0006AEC73E08AED95E00E94C4076FEE73E00A
:104500008AED95E00E94D60780919B0890919C08C7
:10451000009711F48FE998E0B801681B790B8AEDD8
:1045200095E00E94CD066AEC73E08AED95E00E946A
:10453000C40762E070E080E090E00E94CF021E01BC
:10454000E5E22E0E311C8091000590910105A091AD
:104550000205B09103050196A11DB11D80930005D0
:1045600090930105A0930205B0930305C090FC044D
:10457000D090FD04E090FE04F090FF04C114D1043B
:10458000E104F104B1F00E94FF026C197D098E096B
:104590009F0961327F4B8240910508F444C010921C
:1045A000FB041092FC041092FD041092FE04109281
:1045B000FF04C090F704D090F804E090F904F09064
:1045C000FA041C141D041E041F049CF40E94FF0224
:1045D0006C197D098E099F09613D77408105910520
:1045E00058F141E050E06FEF7FEF8FEF9FEF0E94B7
:1045F000480541E050E064E170E080E090E00E9416
:10460000630242E050E064E170E080E090E00E94EC
:104610006302F82E8823A1F1809109028111F1CF64
:104620000E94A80AEECF0E94FF026C157D058E0540
:104630009F0508F4B4CFBDCF0E94FF026C157D0525
:104640008E059F0570F2D5CF4091990850919A0838
:1046500060919508709196088CE395E00E940B0399
:1046600060E273E08CE395E00E944A060E948F0F9F
:1046700050E040E062E273E085E998E00E941B0AA6
:104680008AED95E00E9469038C01892B81F11DA2BE
:104690001EA28AED95E00E9447038DA38E32A1F2FF
:1046A000F10101900020E9F73197E219F30941F394
:1046B0000091990810919A080E0F1F1FB80185E903
:1046C00098E00E94F3098823D9F22091950830914F
:1046D00096088091990890919A08B101820F931FD2
:1046E0000E943E3510939A0800939908C9CF809193
:1046F000FB04882311F40C943F2FC0900102D0904A
:1047000002021092250410922F040E947D0BC60114
:104710000E94C1040E9494090E94FF024B015C01A7
:104720003AE0E32E8FEF0E94CC088091710890E070
:10473000959587958770863008F0C0C1F11014C038
:10474000E09EC001E19E900D11248B5D9B4F0E9465
:104750004A0960E487E00E94D60882EE0E94CC08F5
:104760000130110509F0A7C10E940109F1100C9454
:104770003F2F8091250490912F04891711F40C94F8
:104780003F2F992311F40C943F2F21E030E081302A
:1047900011F430E020E0EE24E394F12C813011F0AC
:1047A000F12CE12CBAE0DB2ED29E8001D39E100DBD
:1047B00011240B5D1B4FD80111966D917D918D9148
:1047C0009C9114970E9477312BEB38EB4DE05DE321
:1047D0000E94D6316F966CAF7DAF8EAF9FAF6F9753
:1047E000DE9CF001DF9CF00D1124EB5DFB4FC180DE
:1047F000D280E380F480D80115968C9190E090935C
:10480000040280930302858190E0909306028093D6
:10481000050220E030E040E251E46F966CAD7DADE2
:104820008EAD9FAD6F970E94A133181614F00C94B3
:104830003F2F20E030E04AE754E46F966CAD7DAD49
:104840008EAD9FAD6F970E94713187FD02C00C94B1
:104850003F2FC701B6010E9477312BEB38EB4DE0BB
:104860005DE30E94D631A3966CAF7DAF8EAF9FAF54
:10487000A39720E030E040E251E40E94A1331816F3
:1048800014F00C943F2F20E030E04AE754E4A39664
:104890006CAD7DAD8EAD9FADA3970E94713187FD4C
:1048A00002C00C943F2F6F962CAD3DAD4EAD5FAD69
:1048B0006F97209321043093220440932304509354
:1048C0002404A3968CAD9DADAEADBFADA3978093F0
:1048D0001D0490931E04A0931F04B0932004209302
:1048E0000D0430930E0440930F04509310048093F2
:1048F000110490931204A0931304B093140441E0A4
:1049000050E062E070E0CE01875B9F4F0E94940E02
:1049100050E040E070E060E0CE01875B9F4F0E9476
:104920005D0E40910D0450910E0460910F04709142
:104930001004DC014D935D936D937C93139750E0CD
:1049400040E061E070E0CE01875B9F4F0E945D0E0A
:104950004091110450911204609113047091140459
:10496000FC01408351836283738300914B08109153
:104970004C08B801012E000C880B990B0E9477316E
:104980006B017C0120E030E0A9010E94A4322BE001
:1049900037ED43E25CE30E94D631A70196010E9405
:1049A000A3324B015C01AC019B01C701B6010E941F
:1049B000A4326B017C01000F111F98012F5F3F4F44
:1049C0002D963FAF2EAF2D97A90161E070E0CE018B
:1049D000895B9F4F0E94940E2996EEADFFAD2997FB
:1049E0002796FFAFEEAF2797828593850196938731
:1049F000828750E040E070E060E0CE01895B9F4F2D
:104A00000E945D0E8C01A7019601C501B4010E94B0
:104A100008334B015C01D8018D929D92AD92BC92FE
:104A2000139750E040E070E060E0CE018B5B9F4F59
:104A30000E945D0E8C0129E23CE54FE350E4C50184
:104A4000B4010E94A432F80160837183828393834E
:104A500001E010E02D962EAD3FAD2D970217130704
:104A600008F044C0A80170E060E0CE01895B9F4F70
:104A70000E945D0E5C01A701960160E070E080E09D
:104A80009FE30E9408332B013C01D5014D925D92BA
:104A90006D927C921397A80170E060E0CE018B5B71
:104AA0009F4F0E945D0EFC014082518262827382A0
:104AB0000F5F1F4FCFCF01E010E034CEF11054CE86
:104AC00080910902811102C00E94A80A0E94FF027F
:104AD000681979098A099B09FF24F3946E327105DC
:104AE0008105910508F01ECEF12C1CCEC701B60140
:104AF0000E94A93369837A838B839C83E091530856
:104B0000F0915408228133812F963FAF2EAF2F971B
:104B1000C901880F991FAC014F5F5F4F6B965FAF64
:104B20004EAF6B97A901B901CE0187960E94940EF2
:104B30002F968EAD9FAD2F978115A0E29A0708F0B2
:104B400048C0880F991F880F991F009709F444C027
:104B50000E94113063969FAF8EAF639769969FAFA7
:104B60008EAF6997EFEFFFEF6796FFAFEEAF6797F6
:104B7000512C412C2F962EAD3FAD2F972415350586
:104B800009F4EFC04114510409F05CC06396EEAC27
:104B9000FFAC639710E000E02F964EAD5FAD2F970E
:104BA0004017510709F4C3C050E040E0B80183E565
:104BB00098E00E945D0EFC0180819181A281B38109
:104BC000F70181939193A193B1937F010F5F1F4FE1
:104BD000E3CF8FEF9FEFBCCF81E090E0B9CF10E043
:104BE00000E0C12CD12C7601350167962EAD3FAD8A
:104BF00067972017310768F1A801B301CE018796A6
:104C00000E945D0EDC018D909D90AD90BC90A8013E
:104C1000B201CE0187960E945D0EFC012081318198
:104C200042815381C501B4010E94D6319B01AC0180
:104C3000C701B6010E94A4326B017C010F5F1F4FB8
:104C40005301D2CF320110E000E0C12CD12C76010B
:104C5000CCCF5301FFEFAF1ABF0AA201B30183E526
:104C600098E00E945D0E8301000F111F000F111FBD
:104C700063962EAD3FAD6397020F131FA7019601F8
:104C8000DC016D917D918D919C910E94A332F80180
:104C900060837183828393832F962EAD3FAD2F97D0
:104CA000A216B30608F49BCF82016201CC0CDD1C76
:104CB000CC0CDD1C63964EAD5FAD6397C40ED51E64
:104CC0002F968EAD9FAD2F970817190798F5D6012F
:104CD0008D909D90AD90BD906D016996EEADFFAD4C
:104CE000699760817181828193810E94A933A7961F
:104CF0006CAF7DAF8EAF9FAFA797A201B801CE0179
:104D000087960E945D0E7C01A7962CAD3DAD4EAD01
:104D10005FADA797C501B4010E940833D7016D9319
:104D20007D938D939C9313970F5F1F4FC9CF10E016
:104D300000E0BBCFBFEF4B1A5B0A6996EEADFFAD4B
:104D4000699734966996FFAFEEAF699767962EAD77
:104D50003FAD67972F5F3F4F67963FAF2EAF679787
:104D600009CF63964EAD5FAD63974115510519F0BC
:104D7000CA010E94AD30AE014F5F5F4FBE01695D59
:104D80007F4FC1010E94EB0D7E0153E4E50EF11C43
:104D90006B964EAD5FAD6B97B201C7010E94940E4A
:104DA00010E000E0DE2CCF2C04151505E1F050E0FA
:104DB00040E0B80185E598E00E945D0E7C0150E07E
:104DC00040E0B8018D2D9C2D0E945D0ED7014D91C4
:104DD0005D916D917C91FC0140835183628373836B
:104DE0000F5F1F4FE1CF712C612CCC24C394D12CC9
:104DF0002F96EEACFFAC2F97FFEFEF1AFF0ACE1401
:104E0000DF0408F042C010E000E004151505B1F120
:104E100050E040E0B80185E598E00E945D0EDC01BD
:104E20008D909D90AD90BC90A301B801C1010E94EE
:104E30005D0EDC012D913D914D915C9165962CAFFD
:104E40003DAF4EAF5FAF6597A601B801CE018D5B58
:104E50009F4F0E945D0E7C0165962CAD3DAD4EAD21
:104E60005FAD6597C501B4010E94A432F70160836C
:104E70007183828393830F5F1F4FC7CFFFEFCF1ADA
:104E8000DF0A2FEF621A720AB3CFD12CC12C6B96B6
:104E90004EAD5FAD6B97E416F50608F042C010E02A
:104EA00000E004151505B1F150E040E0B80185E5DA
:104EB00098E00E945D0EDC018D909D90AD90BC90BD
:104EC000A601B801C1010E945D0EDC012D913D914A
:104ED0004D915C9161962CAF3DAF4EAF5FAF619746
:104EE000A701B801CE018D5B9F4F0E945D0E3C0172
:104EF00061962CAD3DAD4EAD5FAD6197C501B4017E
:104F00000E94A332F30160837183828393830F5FD6
:104F10001F4FC7CFFFEFEF1AFF0A2FEFC21AD20AB7
:104F2000B6CFC1010E948D08CE0187960E948D08E0
:104F3000F0900902F11002C00E94A80A60914B088B
:104F400070914C0841E050E0CE018F5B9F4F0E9472
:104F5000940E60914B0870914C082D964EAD5FAD4C
:104F60002D97CE01CF960E94940E10E000E02D9672
:104F70004EAD5FAD2D970417150708F0BDC06091C9
:104F80004B0870914C0841E050E0CE0189960E9498
:104F9000940E60914B0870914C0841E050E0CE01B6
:104FA00087960E94940ED12CC12C80914B08909131
:104FB0004C08C816D906E8F4A801B601CE018D5BED
:104FC0009F4F0E945D0E5C0150E040E0B601CE01B3
:104FD00089960E945D0ED5014D915D916D917C91F8
:104FE000FC014083518362837383FFEFCF1ADF0A92
:104FF000DCCFAE01475D5F4F69E478E0C1010E94FC
:105000003117B101CE0187960E945E08C1010E944E
:105010008D08D12CC12C80914B0890914C08C8165A
:10502000D906D0F5A80170E060E0CE01895B9F4F02
:105030000E945D0EDC018D909D90AD90BC9050E083
:1050400040E0B601CE0187960E945D0EFC012081F2
:10505000318142815381C501B4010E94D6312B01B7
:105060003C0150E040E0B601CE018F5B9F4F0E94B3
:105070005D0E5C01A3019201DC016D917D918D912A
:105080009C910E94A432F501608371838283938393
:10509000FFEFCF1ADF0ABFCFD12CC12C80914B0874
:1050A00090914C08C816D906E0F450E040E0B601F3
:1050B000CE0187960E945D0E5C01A801B601CE016B
:1050C000CF960E945D0ED5014D915D916D917C91C1
:1050D000FC014083518362837383FFEFCF1ADF0AA1
:1050E000DDCFCE0187960E948D08CE0189960E9461
:1050F0008D080F5F1F4F3BCFF11002C00E94A80A1E
:1051000060914B0870914C082D964EAD5FAD2D9778
:10511000CE01CD960E94940ED12CC12C2D962EAD91
:105120003FAD2D97C216D30608F041C010E000E055
:1051300080914B0890914C0808171907A0F5A6011B
:10514000B801CE01CF960E945D0EDC018D909D903E
:10515000AD90BC9050E040E0B801CE018F5B9F4F16
:105160000E945D0EFC014080518062807380A60128
:10517000B801CE01CD960E945D0E2F969FAF8EAFE7
:105180002F97A3019201C501B4010E94A3322F966B
:10519000AEADBFAD2F976D937D938D939C93139779
:1051A0000F5F1F4FC5CFBFEFCB1ADB0AB7CFF11090
:1051B00002C00E94A80A2D964EAD5FAD2D97BA0190
:1051C000CE01CB960E94940E10E000E02D96EEAD3D
:1051D000FFAD2D970E171F07E0F4A80170E060E007
:1051E000CE01895B9F4F0E945D0E6C01A801B80142
:1051F000CE01CB960E945D0ED6014D915D916D91D1
:105200007C91FC0140835183628373830F5F1F4F46
:10521000DDCFBE01635C7F4FCE0187960E94C21531
:10522000AE01455C5F4FBE01635C7F4FC1010E94D0
:105230002716AE01495D5F4FB101CE0189960E94EC
:1052400027164FE458E0BE01675D7F4FCE01C99637
:105250000E945B0DCE0189960E948D08C1010E94BB
:105260008D08CE0187960E948D08F11002C00E9421
:10527000A80A60914D0870914E0841E050E0CE01BF
:10528000C7960E94940E60914D0870914E082D961D
:105290004EAD5FAD2D97CE01C5960E94940E10E0E5
:1052A00000E02D962EAD3FAD2D970217130708F0A5
:1052B000BBC060914B0870914C0841E050E0CE01BA
:1052C00089960E94940E60914D0870914E0841E0BD
:1052D00050E0CE0187960E94940ED12CC12C809173
:1052E0004B0890914C08C816D906E0F4A801B60105
:1052F000CE01CF960E945D0E5C0150E040E0B60109
:10530000CE0189960E945D0ED5014D915D916D9102
:105310007C91FC014083518362837383FFEFCF1A3A
:10532000DF0ADDCFAE01475D5F4F69E478E0C10180
:105330000E941B17B101CE0187960E945E08C10131
:105340000E948D08D12CC12C80914D0890914E085F
:10535000C816D906C8F5A80170E060E0CE01895BE7
:105360009F4F0E945D0EDC018D909D90AD90BC9092
:1053700050E040E0B601CE0187960E945D0EFC0130
:105380002081318142815381C501B4010E94D6310F
:105390002B013C0150E040E0B601CE01C7960E94CF
:1053A0005D0E5C01A3019201DC016D917D918D91F7
:1053B0009C910E94A432F501608371838283938360
:1053C000FFEFCF1ADF0AC0CFD12CC12C80914D083E
:1053D00090914E08C816D906E0F450E040E0B601BE
:1053E000CE0187960E945D0E5C01A801B601CE0138
:1053F000C5960E945D0ED5014D915D916D917C9198
:10540000FC014083518362837383FFEFCF1ADF0A6D
:10541000DDCFCE0187960E948D08CE0189960E942D
:105420008D080F5F1F4F3DCFF11002C00E94A80AE8
:1054300060914D0870914E082D964EAD5FAD2D9741
:10544000CE01C3960E94940EF12CE12C2D962EAD28
:105450003FAD2D97E216F306D0F510E000E0809105
:105460004D0890914E080817190768F5A701B80173
:10547000CE01C5960E945D0EDC018D909D90AD9091
:10548000BC9050E040E0B801CE01C7960E945D0E8E
:10549000FC014080518062807380A701B801CE0179
:1054A000C3960E945D0E6C01A3019201C501B40177
:1054B0000E94A332D6016D937D938D939C93139795
:1054C0000F5F1F4FCCCFBFEFEB1AFB0ABFCF2D965C
:1054D0004EAD5FAD2D97BA01CE01C1960E94940EDC
:1054E00010E000E02D96EEADFFAD2D970E171F07D3
:1054F000E0F4A80170E060E0CE018B5B9F4F0E945A
:105500005D0E7C01A801B801CE01C1960E945D0E1E
:10551000D7014D915D916D917C91FC014083518348
:10552000628373830F5F1F4FDDCFBE016D5C7F4FC2
:10553000CE0187960E94C215AE014F5C5F4FBE013F
:105540006D5C7F4FC1010E942716AE01495D5F4F20
:10555000B101CE0189960E94271641E558E0BE01AF
:10556000675D7F4FCE018F960E945B0DCE018996BD
:105570000E948D08C1010E948D08CE0187960E946D
:105580008D08BE016D5C7F4FCE0187960E94C215CB
:10559000AE014F5C5F4FBE01635C7F4FC1010E9453
:1055A0002716AE01495D5F4FB101CE018D960E9475
:1055B0002716C1010E948D08CE0187960E948D0892
:1055C000EFA5F8A9F8A7EFA382859385FEA3EDA325
:1055D000029693878287628173818481958168179F
:1055E000790709F0DDD4AB01CE0189960E94940EB3
:1055F000EDA1FEA18285938502971CF0C1010E9456
:10560000A60CE9A5FAA582859385029724F0CE0120
:1056100089960E94A60C29A53AA52D963FAF2EAFDC
:105620002D97D90114962D913C91159712968D9135
:105630009C912817390708F4C9012D96EEADFFADEE
:105640002D97958384839383828330E020E08217B3
:10565000930779F1D901AA0FBB1F50E040E08417EE
:10566000950709F4E6C1C12CD12C00E8E02E0FE328
:10567000F02E2417350719F0C12CD12C76012D9668
:10568000EEADFFAD2D9760817181FB01EA0FFB1F2D
:10569000BA01660F771F660F771F0190F081E02D2A
:1056A000E60FF71FC082D182E282F3824F5F5F4F25
:1056B000D6CF2DA13EA1AD963FAF2EAFAD97D9016C
:1056C00012960D90BC91A02DAF96BFAFAEAFAF9725
:1056D00063961FAE1EAE63972F961FAE1EAE2F971A
:1056E000AF962EAD3FADAF972F964EAD5FAD2F97D6
:1056F0002417350709F4E5C1AD96AEADBFADAD9742
:105700000D90BC91A02D6996BFAFAEAF699763961F
:10571000EEADFFAD6397EE0FFF1FA596FFAFEEAFA7
:10572000A59763962EAD3FAD6397A20FB31F6B96FF
:10573000BFAFAEAF6B97A996BFAFAEAFA9972A0127
:1057400067965FAF4EAF6797612C712C00E81FEB37
:10575000A996AEADBFADA997ED91FD91A996BFAF4A
:10576000AEAFA997A5962EAD3FADA597E20FF31F5B
:1057700080809180A280B38020E030E0A901C50143
:10578000B401DFD718160CF400C475016401F7FAF0
:10579000F094F7F8F0949301A801C701B601D1D7AE
:1057A000181674F420E030E0A901C501B40199D5C0
:1057B000882331F067964EAC5FAC6797360187015E
:1057C00067964EAD5FAD67974F5F5F4F67965FAF70
:1057D0004EAF6797AF968EAD9FADAF978417950785
:1057E00009F0B6CF6201CC0CDD1C6996EEACFFACC3
:1057F0006997EC0CFD1CD7010D911C91A596EEAD9F
:10580000FFADA597E00FF11F20E030E0A901608116
:1058100071818281938165D5882309F4E3CE2F9627
:10582000EEADFFAD2F97E415F50551F16B96AEADDA
:10583000BFAD6B978D919C911197F70191838083F8
:105840000D931C93FFEF4F165F0609F4CBCE45284E
:10585000B9F02D96AEADBFAD2D97ED91FC9163964D
:10586000AEADBFAD6397AE0FBF1F8D919C911197E9
:10587000EC0DFD1D208131812D933C93918380831C
:105880006B96EEADFFAD6B9740805180A596EEAD67
:10589000FFADA597E40DF51DC080D180E280F380B7
:1058A0003201912C812C67962EAD3FAD6797821601
:1058B000930609F0C1C0712C612C67962EAD3FADE7
:1058C00067972F964EAD5FAD2F976216730609F45A
:1058D000E8C04615570509F49EC06996AEADBFAD48
:1058E00069972D913C91A596EEADFFADA597E20F7E
:1058F000F31F80809180A280B3802D96EEADFFAD26
:105900002D9780819181A9963FAF2EAFA997F30182
:10591000EE0FFF1FE80FF91F208131816B963FAF1B
:105920002EAF6B9763964EAD5FAD6397840F951F57
:10593000DC010D90BC91A02DE196BFAFAEAFE19719
:10594000E3965FAE4EAEE39710E000E0A996EEADB1
:10595000FFADA997C190D190E190F190A996FFAFCA
:10596000EEAFA997E396AEADBFADE3972D913D9114
:105970004D915D91E396BFAFAEAFE3973497AB9691
:10598000FFAFEEAFAB97C501B40110D59B01AC01E1
:10599000C701B601D8D5AB96EEADFFADAB9760832E
:1059A0007183828393836B96AEADBFAD6B97CD90C1
:1059B000DD90ED90FD906B96BFAFAEAF6B97E1962B
:1059C000EEADFFADE1972191319141915191E19679
:1059D000FFAFEEAFE1971497AB96BFAFAEAFAB970B
:1059E000C501B401E3D49B01AC01C701B601ABD53D
:1059F000AB96AEADBFADAB976D937D938D939C93FE
:105A000013970F5F1F4F6796EEADFFAD67970E17A9
:105A10001F0709F09BCFFFEF6F1A7F0A69962EAD23
:105A20003FAD69972E5F3F4F69963FAF2EAF6997A5
:105A300044CF2F5F3F4F0BCE5301A418B508D301BD
:105A40006D917D918D919D913D018D0104501109C4
:105A5000A7019601DDD5F80160837183828393836A
:105A60002D96AEADBFAD2D97ED91FC9163962EAD09
:105A70003FAD6397E20FF31F008111810A0D1B1DDB
:105A8000A7019601D8016D917D918D919C91C0D512
:105A9000F8016083718382839383FFEF8F1A9F0ADB
:105AA00002CF4F5F5F4F2F965FAF4EAF2F9763963A
:105AB0008EAD9FAD6397029663969FAF8EAF63974F
:105AC0000FCEC1010E948D08AE01475D5F4FBE0140
:105AD000635D7F4FCE018B960E942716CE0189967B
