:1000000011C1000040C100003EC100003CC1000021
:100010003AC1000038C1000036C1000034C1000000
:1000200032C1000030C100002EC100002CC1000010
:100030002AC100002CC5000026C1000024C1000018
:1000400022C1000056C400001EC100001CC10000F7
:100050001AC1000018C1000016C1000000C4000051
:1000600012C1000030C3000005C300000CC1000035
:100070000AC1000008C1000006C1000004C1000060
:1000800002C1000000C10000FEC00000FCC0000072
:10009000C8C200009DC20000F6C00000F4C000000D
:1000A000F2C00000F0C00000EEC00000ECC0000094
:1000B000EAC00000E8C00000E6C00000E4C00000A4
:1000C000E2C00000E0C00000DEC00000DCC00000B4
:1000D000DAC00000D8C00000D6C00000D4C00000C4
:1000E000D2C0000082028502740278027E02BC0245
:1000F00089028D02930297029B02A102A502A90226
:10010000BC02AF02B302B7020000210024002700A6
:100110002A002D0030003300010100000401070116
:100120000A01010210202008081020401020408001
:1001300002010201080402010102040810204080AB
:100140008040201008040201800402018040201039
:100150000804020108040201010204081020408082
:100160000102040810204080050505050705080860
:100170000808020202020A0A080804040404010131
:100180000101010101010303030303030303040746
:1001900007070C0C0C0C0C0C0C0C020202020606DD
:1001A0000606060606060B0B0B0B0B0B0B0B0001D2
:1001B000020304051112131415160A0B0C0D0E0F71
:1001C00000002200250028002B002E003100340002
:1001D00002010000050108010B0100000A0B0209E1
:1001E0000C0D0E08070304010000000000000000D1
:1001F00000000000000000000000000000000000FF
:1002000000000000000012111000000000000000BB
:1002100000000000000000000000000000000000DE
:10022000A710A21011241FBECFEFD1E2DEBFCDBFB9
:1002300000E00CBF13E0A0E0B2E0E6E1FEE200E087
:100240000BBF02C007900D92A833B107D9F726E083
:10025000A8E3B3E001C01D92AA31B207E1F711E0B3
:10026000C1E1D1E000E006C021970109802FFE0125
:100270000E94DF15C031D10780E00807A9F70E946E
:100280006E090C94FA16BCCEFC01A089B1898C9140
:10029000A689B78982FD0FC09C91818D8F5F8F7376
:1002A000228D821749F0218DDF01A20FB11D5D96CD
:1002B0009C93818F08958C910895FC01538D448DFA
:1002C000252F30E0842F90E0821B930B541710F001
:1002D000CF96089501970895FC01918D828D98170E
:1002E00061F0828DDF01A80FB11D5D968C91928D1A
:1002F0009F5F9F73928F90E008958FEF9FEF089517
:10030000FC01918D828D981731F0828DE80FF11DDF
:10031000858D90E008958FEF9FEF0895FC01918DFA
:10032000228D892F90E0805C9F4F821B91098F73F3
:100330009927089584E594E0F1DF21E0892B09F401
:1003400020E0822F089587EB93E0E8DF21E0892BFE
:1003500009F420E0822F0895FC01848DDF01A80FAD
:10036000B11DA35ABF4F2C91848D90E001968F73DD
:100370009927848FA689B7892C93A089B1898C91FC
:1003800080648C93938D848D981306C00288F389C2
:10039000E02D80818F7D80830895EF92FF920F93EF
:1003A0001F93CF93DF93EC0181E0888F9B8D8C8D21
:1003B000981305C0E889F989808185FD23C0F62E50
:1003C0000B8D10E00F5F1F4F0F731127E02E8C8DE8
:1003D000E8120BC00FB607FCFACFE889F9898081D3
:1003E00085FFF5CFCE01B8DFF2CF8B8DFE01E80F90
:1003F000F11DE35AFF4FF0820B8FEA89FB89808160
:10040000806207C0EE89FF896083E889F98980816D
:100410008064808381E090E0DF91CF911F910F9104
:10042000FF90EF900895CF93DF93EC01888D8823A0
:10043000C1F0EA89FB89808185FD05C0A889B98959
:100440008C9186FD0EC00FB607FCF5CF808185FF2D
:10045000F2CFA889B9898C9185FFEDCFCE017CDFE1
:10046000E8CFDF91CF91089580E090E0892B19F0DB
:100470006ADF811120C080E090E0892B19F05ADFFB
:1004800081111CC080E090E0892B41F080E090E079
:10049000892B21F00E940000811113C080E090E0C0
:1004A000892BA1F080E090E0892B81F00E94000070
:1004B00081110AC008950E940000DDCF0E94000053
:1004C000E1CF0E940000EACF0C940000089590E074
:1004D000FC013197E231F10508F04EC08827EE5853
:1004E000FF4F8F4F0C94DF15809180008F7703C0F2
:1004F000809180008F7D809380000895809180009E
:10050000877FF9CF84B58F7702C084B58F7D84BD96
:1005100008958091B0008F7703C08091B0008F7DE7
:100520008093B0000895809190008F7707C08091EC
:1005300090008F7D03C080919000877F8093900012
:1005400008958091A0008F7707C08091A0008F7DD3
:1005500003C08091A000877F8093A00008958091C0
:1005600020018F7707C0809120018F7D03C080918B
:100570002001877F8093200108953FB7F8948091F0
:10058000B3039091B403A091B503B091B60326B51F
:10059000A89B05C02F3F19F00196A11DB11D3FBFBB
:1005A000BA2FA92F982F8827820F911DA11DB11D49
:1005B000BC01CD0142E0660F771F881F991F4A9545
:1005C000D1F70895089580E090E008950E94DD1627
:1005D0001F920F920FB60F9211240BB60F922F930A
:1005E0003F934F935F936F937F938F939F93AF93BB
:1005F000BF93EF93FF9384E594E0AEDEFF91EF911C
:10060000BF91AF919F918F917F916F915F914F912A
:100610003F912F910F900BBE0F900FBE0F901F9028
:1006200018951F920F920FB60F9211240BB60F92CE
:100630002F933F934F935F936F937F938F939F93EA
:10064000AF93BF93EF93FF9384E594E01DDEFF919A
:10065000EF91BF91AF919F918F917F916F915F913A
:100660004F913F912F910F900BBE0F900FBE0F90A7
:100670001F9018951F920F920FB60F9211240BB670
:100680000F922F933F934F935F936F937F938F932B
:100690009F93AF93BF93EF93FF9387EB93E05CDE61
:1006A000FF91EF91BF91AF919F918F917F916F914A
:1006B0005F914F913F912F910F900BBE0F900FBE06
:1006C0000F901F9018951F920F920FB60F92112442
:1006D0000BB60F922F933F934F935F936F937F933C
:1006E0008F939F93AF93BF93EF93FF9387EB93E029
:1006F000CBDDFF91EF91BF91AF919F918F917F9152
:100700006F915F914F913F912F910F900BBE0F9082
:100710000FBE0F901F9018951F93CF93DF93282F34
:1007200030E0F901E652FE4F8491F901EE5DFE4F93
:10073000D491F901E859FE4FC491CC23C1F0162F92
:100740008111C5DEEC2FF0E0EE0FFF1FE054FE4FED
:10075000A591B4918FB7F894111105C09C91ED2F1C
:10076000E095E92302C0EC91ED2BEC938FBFDF9174
:10077000CF911F910895CF93DF9390E0FC01EE5D40
:10078000FE4F2491FC01E859FE4F8491882361F1CA
:1007900090E0880F991FFC01E85FFE4FC591D4914E
:1007A000FC01E054FE4FA591B491611109C09FB7BF
:1007B000F8948881209582238883EC912E230BC0A6
:1007C000623061F49FB7F8943881822F809583233B
:1007D0008883EC912E2B2C939FBF06C08FB7F89483
:1007E000E8812E2B28838FBFDF91CF9108958F92C0
:1007F0009F92AF92BF92CF92DF92EF92FF926B01E6
:100800007C01BBDE4B015C01C114D104E104F104A5
:10081000E9F0B3DEDC01CB0188199909AA09BB090B
:10082000883E9340A105B10578F321E0C21AD108B2
:10083000E108F10888EE880E83E0981EA11CB11C27
:10084000C114D104E104F10421F7DECFFF90EF9051
:10085000DF90CF90BF90AF909F908F9008951F92A0
:100860000F920FB60F9211242F933F938F939F9364
:10087000AF93BF9380913F0390914003A0914103B8
:10088000B09142033091B20323E0230F2D3720F4BF
:100890000196A11DB11D05C026E8230F0296A11DDA
:1008A000B11D2093B20380933F0390934003A09324
:1008B0004103B09342038091B3039091B403A0919C
:1008C000B503B091B6030196A11DB11D8093B3038A
:1008D0009093B403A093B503B093B603BF91AF91C7
:1008E0009F918F913F912F910F900FBE0F901F906E
:1008F00018951F920F920FB60F9211240BB60F92FC
:100900002F933F934F935F936F937F938F939F9317
:10091000AF93BF93EF93FF9380913D03882301F141
:1009200080913A0391E0980F90933A03811118C097
:10093000E0913C0380913E03E817C8F060E08AE054
:10094000EBDE60E080910002E7DE10923D038091D3
:10095000B0039091B10301969093B1038093B003DB
:1009600080913A03883018F110923A0320C0F0E0E9
:10097000EF5FFD4F908180913B0321E0280F209392
:100980003B0361E070E001C0660F8A95EAF76923D6
:1009900080910002C1DE80913B03863008F3109203
:1009A0003B0380913C038F5F80933C03D9CFFF9141
:1009B000EF91BF91AF919F918F917F916F915F91D7
:1009C0004F913F912F910F900BBE0F900FBE0F9044
:1009D0001F9018958627082E8295807F8025092EE6
:1009E000982F82958F700826869598278927880FDB
:1009F000880F880F802508958EBD00000DB407FE76
:100A0000FDCF8EB50895CF92DF92EF92FF92CF93F4
:100A1000DF93EC0177FD06C0653B71052CF064EBBC
:100A200070E002C060E070E06983CC802D8130E02E
:100A30002C193109D12CE12CF12CFE2CED2CDC2CC5
:100A4000CC24C901330FAA0BBB0B2227382F492F07
:100A50005A2FDB010E94E71524EB30E040E050E024
:100A60000E94C315C701B601620F731F841F951F33
:100A700020E430E040E050E00E94C3153B832A832D
:100A8000DF91CF91FF90EF90DF90CF9008951F926C
:100A90000F920FB60F9211240BB60F924F925F92E6
:100AA0006F927F928F929F92AF92BF92CF92DF927E
:100AB000EF92FF920F931F932F933F934F935F9368
:100AC0006F937F938F939F93AF93BF93EF93FF9316
:100AD000CF93DF93CDB7DEB78DB69EB68091BB02C4
:100AE0008111C9C08091B9029091BA02019729F091
:100AF0009093BA028093B902BEC088EC90E09093C4
:100B0000BA028093B902CDB6DEB68FB7F8944091A1
:100B10003F035091400360914103709142038FBFA6
:100B20008091AA039091AB03A091AC03B091AD0367
:100B3000481759076A077B0748F04496A11DB11D65
:100B4000481759076A077B0708F490C04093AA0327
:100B50005093AB036093AC037093AD03E091380303
:100B6000F0913903DF0110E0109761F012968D913A
:100B70009C911397892B09F01F5F16960D90BC91DD
:100B8000A02DF2CF112309F471C08DB79EB7A2E05A
:100B90001A9F8019910911240FB6F8949EBF0FBEB9
:100BA0008DBF019620E0309781F042815381452B23
:100BB00041F0DC01A20FB11DA20FB11DED93FC931A
:100BC0002F5F0680F781E02DEECF5C01FC01F12C58
:100BD00001E00117E9F06280738021913191D30126
:100BE00012966D917C911397D90112964D915C915B
:100BF00013976417750750F4318320839F012250A7
:100C00003109D9016D927C92FF24F3940F5FE1CFFB
:100C1000F110DBCF7C01712CD701ED91FD917D01AD
:100C200061E0808179DD73947112F6CFF6B4612CA6
:100C3000712CE12C4F2C512CD501ED91FD915D01D2
:100C400082819381840D951D4F2DF6B4F41608F41E
:100C500073944F2D93012F0D311D82179307A8F721
:100C600060E0808159DDE394E112E6CF0FB6F8949D
:100C7000DEBE0FBECDBE0FB6F8949EBE0FBE8DBEBB
:100C8000DF91CF91FF91EF91BF91AF919F918F91A4
:100C90007F916F915F914F913F912F911F910F9194
:100CA000FF90EF90DF90CF90BF90AF909F908F908C
:100CB0007F906F905F904F900F900BBE0F900FBE84
:100CC0000F901F901895CF92DF92EF92FF920F93A3
:100CD0001F93CF93DF936C017A018B01C0E0D0E0CA
:100CE000CE15DF0589F0D8016D918D01D601ED910A
:100CF000FC910190F081E02DC6011995892B11F42A
:100D00007E0102C02196ECCFC701DF91CF911F91E8
:100D10000F91FF90EF90DF90CF9008959CB59F7D4D
:100D20009CBD9CB5937F9CBD9CB59C7F9CBD9DB597
:100D30009E7F9DBD682F8091EF05EECCCF9380E024
:100D400090E0ECDF82EE58DEC82F81E090E0E6DF35
:100D50008C2FCF910895CF9380E090E0DFDF81EE7C
:100D60004BDEC82F81E090E0D9DF8C2FCF91089522
:100D7000CF93C82F80E090E0D1DF8C2F8F713CDEC5
:100D80008FEF3ADEC82F81E090E0C8DF8C2FCF9143
:100D900008951F93CF93DF931F92CDB7DEB7182F1F
:100DA00080E090E06983BADF812F8F71806224DE5A
:100DB000182F6981862F20DE81E090E0AFDF812F40
:100DC0000F90DF91CF911F910895EF92FF920F93B3
:100DD0001F93CF93DF931F921F92CDB7DEB7082FDB
:100DE000162F80E090E049837A8398DF802F8F71FF
:100DF000806202DE082FE12E7A81F72E4981140FDE
:100E00001E1529F0F70181917F01F6DDF9CF81E010
:100E100090E084DF802F0F900F90DF91CF911F9192
:100E20000F91FF90EF900895CF93DF93CDB7DEB78A
:100E3000A8970FB6F894DEBF0FBECDBF84E1FE01C8
:100E4000BE96DE01119601900D928A95E1F786E13A
:100E500090E00E94011224E1FE013196DE015596D8
:100E600001900D922A95E1F724E1FE017596DC01CF
:100E7000129601900D922A95E1F7DC011D921C92C9
:100E8000E0910E06F0910F06309729F490930F062B
:100E900080930E060CC0DC01ED93FC9390930F063B
:100EA00080930E060190F081E02D3097D9F7809164
:100EB0000C0690910D06019690930D0680930C06FA
:100EC000A8960FB6F894DEBF0FBECDBFDF91CF91CD
:100ED0000895FC0124813581232B31F421E0611533
:100EE0007105A1F0FB0108C0FC01808191816115B1
:100EF000710531F421E0FC018081882339F005C0BF
:100F00000E94EA1621E0892B09F020E0822F089543
:100F10000F931F93CF93DF93EC0188819981009702
:100F200029F02A813B812617370788F48B016F5FF0
:100F30007F4F0E94F915009761F0998388831B8386
:100F40000A832C813D81232B11F4FC01108281E066
:100F500001C080E0DF91CF911F910F910895EF9232
:100F6000FF920F931F93CF93DF93EC017B018A01D4
:100F7000BA01CEDF2881398181110DC021153105DB
:100F800019F0C9010E949612198218821D821C82D2
:100F90001B821A8206C01D830C83B701C9010E94FF
:100FA000F316CE01DF91CF911F910F91FF90EF903B
:100FB0000895DF92EF92FF920F931F93CF93DF93E9
:100FC0007C01EB018A014617570720F48D2FEA01B7
:100FD000062F182FF70111821082138212821582B8
:100FE000148240E050E060E173E0C701B8DF809117
:100FF000140690911506C817D907A8F58017910710
:1010000008F48C01E0911006F0911106E00FF11F39
:10101000D080108260911006709111066C0F7D1FB8
:101020006115710559F0FB0101900020E9F7319736
:10103000AF01461B570BC70192DF0EC0F70180813D
:101040009181009711F00E949612F701118210828F
:101050001582148213821282E0911006F09111061B
:10106000E00FF11FD082C701DF91CF911F910F9147
:10107000FF90EF90DF900895DC01ED91FC910190DD
:10108000F081E02D19946115710579F0FB01019053
:101090000020E9F73197AF01461B570BDC01ED91BA
:1010A000FC910280F381E02D199480E090E0089596
:1010B0004F925F926F927F92EF92FF920F931F93E6
:1010C000CF93DF93CDB7DEB7A1970FB6F894DEBF0D
:1010D0000FBECDBF7C01FA01CB0119A2223008F46A
:1010E0002AE08E010F5D1F4F422E512C612C712C76
:1010F000BF01A30192010E94A115F901CA0101508B
:1011000011096A3014F4605D01C0695CD8016C9308
:10111000232B242B252B61F7B801C701B4DFA1963F
:101120000FB6F894DEBF0FBECDBFDF91CF911F91F8
:101130000F91FF90EF907F906F905F904F90089588
:101140008F929F92AF92BF92CF92DF92EF92FF92D7
:101150000F931F93CF93DF93EC016A017B019A01F8
:10116000AB01C701B6010E949D15882319F06BE2FF
:1011700073E027C046015701E894B7F82FEF3FEF1F
:101180004FE75FE7C501B4010E949D1581110DC0B5
:101190002FEF3FEF4FE75FE7C501B4010E946913EE
:1011A00018161CF46FE273E00CC02FEF3FEF4FE70F
:1011B0005FE4C701B6010E949915181684F463E331
:1011C00073E0CE01DF91CF911F910F91FF90EF90CF
:1011D000DF90CF90BF90AF909F908F9054CF2FEF24
:1011E0003FEF4FE75FECC701B6010E94691387FD2F
:1011F000E6CF20E030E0A901C701B6010E946913E3
:1012000087FF09C06DE2CE0137DF8C01F7FAF09459
:10121000F7F8F09402C000E010E02AE037ED43EA6E
:101220005BE3C701B6010E949C146B017C010E9424
:101230006D154B015C010E946D139B01AC01C70150
:10124000B6010E949B146B017C012AE0B501A40148
:10125000CE012EDF080F191F6EE2CE010DDF080F41
:10126000191F20E030E040E251E4C701B6010E94BE
:10127000CE134B015C010E946D156B01E12CF12C2A
:101280002AE0B701A601CE0113DF080F191FC7011D
:10129000B6010E946D139B01AC01C501B4010E940F
:1012A0009B1420E030E040E251E40E94CE130E9403
:1012B0006D15AB0160E070E02AE0CE01F9DE800F31
:1012C000911FDF91CF911F910F91FF90EF90DF90D1
:1012D000CF90BF90AF909F908F900895CF93DF9362
:1012E000CDB7DEB7A7970FB6F894DEBF0FBECDBF60
:1012F000789484B5826084BD84B5816084BD85B5F1
:10130000826085BD85B5816085BD80916E008160FC
:1013100080936E00109281008091810082608093A2
:1013200081008091810081608093810080918000A4
:101330008160809380008091B10084608093B100CF
:101340008091B00081608093B000809191008260B4
:1013500080939100809191008160809391008091B1
:1013600090008160809390008091A10082608093C2
:10137000A1008091A10081608093A1008091A000D4
:1013800081608093A000809121018260809321017F
:1013900080912101816080932101809120018160F1
:1013A0008093200180917A00846080937A008091FC
:1013B0007A00826080937A0080917A0081608093C5
:1013C0007A0080917A00806880937A001092C10040
:1013D00061E08DE0D0D980E28093DE051FEF1093AD
:1013E000DF051092E1051092E0058091380390919D
:1013F00039039093E5058093E40560E080E28CD9A1
:1014000061E08091DE05B7D981E28093E605109313
:10141000E7051092E9051092E8058EED95E09093AE
:10142000ED058093EC0586EE95E09093390380936B
:10143000380360E081E270D961E08091E6059BD9D4
:101440006DE470E08EED95E0DEDA60E570E086EE4A
:1014500095E0D9DAB1EDEB2EB2E0FB2E0BEE12E007
:1014600061E0D8018D918D0186D960E0F70181910D
:101470007F0181D9F2E0033F1F0791F760E085E229
:101480007AD960E084E277D960E083E274D960E0E1
:1014900083E071D960E082E06ED961E085E06BD9CC
:1014A00060E084E068D9E091C703F091C80322E0CE
:1014B0002083E091C703F091C8031082E091C30339
:1014C000F091C4031082E091C503F091C60380E15E
:1014D00080831092CF03E091CB03F091CC0396E090
:1014E0009083E091C903F091CA0380818061808379
:1014F000E091C903F091CA03808188608083E09104
:10150000C903F091CA03808180688083E091C90398
:10151000F091CA0380818F7D8083E0916404F09113
:1015200065042083E0916004F09161041082E091F1
:101530006204F091630483E3808310926C04E09171
:101540006804F09169049083E0916604F091670467
:10155000808180618083E0916604F09167048081DE
:1015600088608083E0916604F091670480818068E0
:101570008083E0916604F091670480818F7D808391
:1015800061E085E1F8D861E085E1C6D861E080914D
:10159000EE05F1D861E08091EF05EDD81FB7F89422
:1015A00080914303811123C0EDE9F1E08491E7E5E7
:1015B000F1E09491E82FF0E0EE0FFF1FE85FFE4F9F
:1015C000A591B491EC91E92319F461E085E3A4D8E5
:1015D00061E085E3D0D88CB580618CBD8CB580642A
:1015E0008CBD61E084E3C7D861E083E3C4D8809117
:1015F00043038F5F809343031FBF60E08091EE053C
:101600008BD881E090E08ADB65E070E080E090E0DC
:10161000EED86FE484E0BDDB86E0AADB682F66606D
:1016200086E0B7DB86E0A4DB1092F005877D182FFB
:101630001062612F86E0ADDB86E09ADB811709F44A
:1016400017C41092F00586E093DB1092F005182F76
:10165000177D612F86E09DDB86E08ADB8113109287
:10166000F00580E085DB682F6C6080E092DB60E055
:101670008CE18FDB60E787E08CDB6CE485E089DB65
:101680005DDB69DB86E074DB897F682F646086E060
:1016900080DB21EE2D8B90EF9E8B9F8B88EE888FC9
:1016A000898F1A8E1B8E1C8E2093F6059093F7055A
:1016B0009093F8058093F9058093FA051092FB0545
:1016C0001092FC051092FD05EAEBF1E0849145E0F3
:1016D000BE016B5E7F4F79DBE4EBF1E084916091BA
:1016E000F20557DB82E044DBEEEAF1E0E49161E0F1
:1016F00070E001C0660FEA95EAF7682B82E049DBEB
:101700006CE685E046DB65E584E043DB6FE381E082
:1017100040DB8CE0809300028EE0E2ECF2E08E0190
:101720000F5F1F4FD80101900D928A95E1F76E016E
:1017300023E0C20ED11CFF24F394812C74E2972E77
:1017400074EFA72EB12C412CEDE75E2E612C712C8D
:10175000D6012D913D916D0140E050E0C501B401ED
:101760000E94A115CA01B901A30192010E94A1150D
:10177000223031054105510528F4F394B7E0FB12FE
:10178000E7CF29C096E0F91631F1FF2021F1109240
:10179000800088E08093810080918100F82AF09297
:1017A0008100309389002093880080916F008260CF
:1017B00080936F0061E0809100020E94BB0360E0B3
:1017C0008BE00E94BB0361E08AE00E94BB0360E003
:1017D0008AE00E948C0381E090E0A0E0B0E0898381
:1017E0009A83AB83BC839E838D8398878F832AE5FE
:1017F00030E0388B2F879C8B8B8B84E090E09A8B2A
:10180000898B8AE090E09A8789879C878B879E875F
:101810008D87EDB7FEB774970FB6F894FEBF0FBE75
:10182000EDBFADB7BEB7119684E1F80101900D92FE
:101830008A95E1F7F9DA82E090E0A0E0B0E08983F0
:101840009A83AB83BC839E838D8382ED90E09A87DD
:1018500089872DB73EB7245131090FB6F8943EBFA2
:101860000FBE2DBFADB7BEB7119684E1F801019050
:101870000D928A95E1F7D8DA0FB6F894DEBF0FBE65
:10188000CDBF65E073E087EB93E0FDDB809116064A
:1018900090911706009711F48AE196E06801C81A42
:1018A000D90A0D2C000CEE08FF08F7FE0DC06DE202
:1018B00087EB93E0E1DB44275527BA014C195D091A
:1018C0006E097F092AE003C02AE0B701A60187EB71
:1018D00093E0EEDB6EE073E087EB93E0D4DB62E055
:1018E00070E080E090E00E94F703F8941092B0005E
:1018F0001092B1001092B20089EF8093B3008091F2
:10190000B00082608093B0008091B10082608093CB
:10191000B10080917000826080937000789460E5DF
:1019200070E086EE95E06FD86DE470E08EED95E0A6
:101930006AD81E015DE1250E311C109246031092FB
:10194000500381E080934403E9EAF2E00190002033
:10195000E9F73197CF01895A92407C01982E9DE496
:101960009E1508F49AC080913D038111FCCF23E0BD
:101970002E0D622F8FEF9FEF2FA32CD82FA1E22FD8
:10198000F0E044E0F595E7954A95E1F7E552FD4F23
:101990003081309309022F70E22FF0E0E552FD4FC5
:1019A000208120930A025CE0A52E52E0B52E64E46B
:1019B000C62E63E0D62E2C2DE4E4F3E02E1B291571
:1019C000F8F4D6016C9106D8F60121916F01D5018A
:1019D0001197E22FF0E034E0F595E7953A95E1F7BD
:1019E000E552FD4F30813C932F70E22FF0E0E5523D
:1019F000FD4F2081D5012C93B2E0AB0EB11CDBCFA3
:101A0000E3942E2D220F80959095A22FB0E0A75F32
:101A1000BD4FFC0164E0F695E7956A95E1F7EF703C
:101A2000FF27E552FD4F30813C93E1E0E20FF0E00B
:101A3000E75FFD4FDC01AF70BB27A552BD4F3C9166
:101A40003083E2E0E20FF0E0E75FFD4FDC01AB2F17
:101A5000BB27A295AF70A552BD4F3C913083A3E048
:101A6000A20FB0E0A75FBD4F892F9927FC01EF704F
:101A7000FF27E552FD4F80818C93245F20933E0326
:101A800010923C0310923B0310923A0361E08AE00B
:101A90000E948C0381E080933D0380913D0381117E
:101AA000FCCF5BEEE52E52E0F52E60E0D7018D9184
:101AB0007D010E948C03B3EFEB16B2E0FB06A9F7A1
:101AC0008FE090E00197F1F74BEEE42E42E0F42E28
:101AD00061E0F70181917F010E948C03F3EFEF1623
:101AE000F2E0FF06A9F787E390E00197F1F73BEEFC
:101AF000E32E32E0F32E60E0D7018D917D010E944C
:101B00008C03B3EFEB16B2E0FB06A9F780E030D907
:101B1000682F636080E03DD960E787E03AD9209183
:101B2000F6053091F7054091F8055091F90560915F
:101B3000FA057091FB058091FC059091FD05A0E0F0
:101B40000E94ED1529F045E066EF75E08AE03DD989
:101B5000F5D801D961E08091EE050E948C0383E005
:101B600092E00197F1F78FB7F89480903F0390903F
:101B70004003A0904103B09042038FBF26E4C22EE1
:101B800023E0D22E2AE5C21623E0D206B1F0F12CD2
:101B900080E090E0C3D88FEF0E94FC04E82E81E043
:101BA00090E0BCD8E6FEB1C160E487E0F2D8E5FE83
:101BB00063C160E287E0EDD85FC1F12C60E0809105
:101BC000EE050E948C03C7D8B9D8F1104EC08091A1
:101BD0004603D09050038D1509F447C0D801E4E0C6
:101BE0008E9FA00DB11D11249D0124503109790152
:101BF00060914703709148038091490390914A0393
:101C00006ED5D7016D937D938D939C931397C801E7
:101C1000B4E0DB9E800D911D1124FC0134977F01FF
:101C2000609151037091520380915303909154033A
:101C300056D5D7016D937D938D939C931397C9804F
:101C4000DA80EB80FC8020E030E040E251E4C70124
:101C5000B6016FD718164CF420E030E04AE754E4A0
:101C6000C701B60136D587FD6DC165E070E080E043
:101C700090E00E94F703DD24D39484E594E00E9471
:101C80008E01892B09F4F1C01D8E1E8E84E594E02F
:101C90000E946C018D8F8E3239F1F101019000208C
:101CA000E9F73197E219F309E0901406F090150670
:101CB000309719F3EE0EFF1EB70180E196E028D9A8
:101CC0008823D9F2209110063091110680911406D4
:101CD00090911506B101820F931F0E94F316F092A6
:101CE0001506E0921406C9CF4091140650911506CE
:101CF000609110067091110687EB93E00E946306D5
:101D00006EE073E087EB93E0BED98091140690916A
:101D10001506059709F0A1C042E050E060E070E0D0
:101D2000C80147D963E173E0C801D3D8F82E89818F
:101D30009A81FCD3FF20E9F01092BB024091140677
:101D40005091150662E070E0C80133D9E980FA804D
:101D5000E114F10429F0C70181D44B015C0103C0F7
:101D6000812C912C5401C701E1D3B40186EE95E09A
:101D70002CC042E050E060E070E0C8011AD966E192
:101D800073E0C801A6D8F82E89819A81CFD3FF20AD
:101D9000F9F01092BB02409114065091150662E0D2
:101DA00070E0C80106D9E980FA80E114F10429F055
:101DB000C70154D44B015C0103C0812C912C540108
:101DC000C701B4D3B4018EED95E00E94030545C070
:101DD00069E173E080E196E07CD88823D9F060E582
:101DE00070E086EE95E00E9403056DE470E08EEDF4
:101DF00095E00E94030564E670E080E090E00E94B8
:101E0000F703D092BB0248EC50E05093BA024093E3
:101E1000B90223C06FE173E080E196E05AD88823CD
:101E200019F0D092BB0219C065E273E080E196E040
:101E300050D8882349F088EC90E09093BA028093C0
:101E4000B9021092BB0209C042E050E060E070E0CD
:101E5000C801AFD889819A8169D340E050E060E140
:101E600073E080E196E07BD808CF0E94340265CD14
:101E700081E08093F105E7CBF11049C08091F20534
:101E8000E82E8B3010F09AE0E92E9091F405911134
:101E900003C0F82EFE1801C0F12C80E090E00E94F3
:101EA0008E0681E60E94FC043601EA94FFEFEF16ED
:101EB00039F08FEF0E94FC04F30181933F01F5CFCD
:101EC000FF2029F08FEF0E94FC04FA94F9CF81E003
:101ED00090E00E948E0687E10E94B806D601119616
:101EE0006D917D918D919C911497F9D32AE939E9EF
:101EF00049EE51E485D5ECD5F60161837283838385
:101F00009483FAE0CF0ED11C3DCEFF2019F0FF24C0
:101F1000F39454CE2FB7F89480913F0390914003EF
:101F2000A0914103B09142032FBF88199909AA09D2
:101F3000BB09FF24F39481359105A105B10508F093
:101F400027CE25CE8D819E81AF81B8858BA39CA3A2
:101F5000ADA3BEA320E030E040E251E4BC01CD01DE
:101F6000E8D518160CF081CE20E030E04AE754E4C2
:101F70006BA17CA18DA19EA1ACD387FF76CE2091D1
:101F8000CA053091CB054091CC055091CD056091AB
:101F9000D6057091D7058091D8059091D905CCD4FC
:101FA0002B013C012091CE053091CF054091D00509
:101FB0005091D105C1D49B01AC01C301B20120D520
:101FC0004B015C016093DA057093DB058093DC05BF
:101FD0009093DD052091D2053091D3054091D40531
:101FE0005091D5052F8F38A349A35AA3C701B60135
:101FF000A2D49B01AC01C501B401D0D39B01AC01BB
:102000006F8D78A189A19AA197D46F8F78A389A3A6
:102010009AA36093D2057093D3058093D4059093CF
:10202000D505A501940160E070E080E89FE383D4CA
:10203000A3019201B3D36093D6057093D705809323
:10204000D8059093D9052091B6053091B7054091F8
:10205000B8055091B9056091C2057091C305809192
:10206000C4059091C50568D46B017C012091BA0527
:102070003091BB054091BC055091BD055DD49B01DD
:10208000AC01C701B601BCD44B015C016093C6052D
:102090007093C7058093C8059093C9054090BE050D
:1020A0005090BF056090C0057090C105A3019201DA
:1020B0006BA17CA18DA19EA13ED49B01AC01C50169
:1020C000B4016CD39B01AC01C301B20135D42B0127
:1020D0003C016093BE057093BF058093C00590934B
:1020E000C105A501940160E070E080E89FE323D47E
:1020F000A701960153D36093C2057093C3058093E3
:10210000C4059093C5054F8D58A169A17AA184E5B6
:1021100094E016D861E173E084E594E00E944308FE
:10212000B301A20184E594E00BD860E173E084E59B
:1021300094E00E9443086EE073E084E594E00E941E
:10214000430893CD8091100690911106EFC1CF9274
:10215000DF92EF92FF920F931F93CF93DF93C4E52B
:10216000D4E01B821A8288EE93E0A0E0B0E08C837A
:102170009D83AE83BF8307EF12E0198308832DECA4
:1021800030E03D872C872CEC30E03F872E8728EC11
:1021900030E0398B288B29EC30E03B8B2A8B2AEC02
:1021A00030E03D8B2C8B2EEC30E03F8B2E8B198E4C
:1021B0001A8E1B8E1C8EE7EBF3E01382128284834F
:1021C0009583A683B7831183008385EC90E0958780
:1021D000848784EC90E09787868780EC90E0918BF1
:1021E000808B81EC90E0938B828B82EC90E0958BDE
:1021F000848B86EC90E0978B868B118E128E138EDB
:10220000148EE0E1F6E011821082138212821582B0
:10221000148240E050E060E173E0CF010E94AF071C
:10222000ECE0F6E01182108213821282E8E0F6E020
:102230001182108213821282EEEFF5E01482128274
:1022400016821782108611861582EEEEF5E089E07F
:10225000808385E3818381E08283138280E28483AB
:1022600015821682108611861286138614861586AC
:1022700016861786E6EEF5E010822FEF2183138293
:10228000128292E2948386E9858317821682EEEDAC
:10229000F5E0108221831382128294838583178252
:1022A0001682EAECF5E0C12CD12CE12C8EE3F82E5D
:1022B000C082D182E282F38240E050E060E072E4CA
:1022C000448355836683778380E090ECAFE7B4E482
:1022D00084879587A687B78710861186128613860E
:1022E000E6EBF5E0C082D182E282F382448355833B
:1022F0006683778384879587A687B787108611863C
:1023000012861386EEE8F5E080E090E0A0EAB0E403
:1023100080839183A283B38384839583A683B783C9
:1023200040E050E060E271E4448755876687778734
:102330001086118612861386848B958BA68BB78B9D
:10234000808F918FA28FB38F40A351A362A373A3F9
:10235000148E158E168E178EE1EFF4E08A819B8124
:10236000938382838C819D81AE81BF818483958399
:10237000A683B78388859985AA85BB858087918741
:10238000A287B387118300838C859D859587848779
:102390008E859F859787868788899989918B808B81
:1023A0008A899B89938B828B8C899D89958B848B61
:1023B0008E899F89978B868B888D808F898D818F61
:1023C0008A8D828F8B8D838F8C8D848F80E4E1E763
:1023D000F4E0AEE0B5E001900D928A95E1F780E47B
:1023E000E1EBF4E0AEE4B5E001900D928A95E1F7FF
:1023F000DF91CF911F910F91FF90EF90DF90CF90E1
:102400000895CF93DF938230910510F482E090E03D
:10241000E0911806F091190620E030E0C0E0D0E02D
:10242000309711F14081518148175907C0F0481782
:10243000590761F482819381209719F09B838A83E5
:102440002BC0909319068093180626C021153105DC
:1024500019F04217530718F49A01BE01DF01EF018A
:102460000280F381E02DDCCF2115310509F1281B15
:10247000390B2430310590F412968D919C9113976D
:102480006115710521F0FB019383828304C0909351
:10249000190680931806FD01329644C0FD01E20F33
:1024A000F31F81939193225031092D933C933AC0AD
:1024B0002091160630911706232B41F42091BE027D
:1024C0003091BF0230931706209316062091BC026C
:1024D0003091BD022115310541F42DB73EB7409131
:1024E000C0025091C102241B350BE0911606F091F9
:1024F0001706E217F307A0F42E1B3F0B2817390726
:1025000078F0AC014E5F5F4F2417350748F04E0F4F
:102510005F1F50931706409316068193919302C054
:10252000E0E0F0E0CF01DF91CF9108950F931F938A
:10253000CF93DF93009709F48CC0FC01329713828C
:10254000128200911806109119060115110581F4E7
:1025500020813181820F931F20911606309117063A
:102560002817390779F5F0931706E093160671C01E
:10257000D80140E050E0AE17BF0750F412962D91FD
:102580003C911397AD012115310509F1D901F3CF24
:102590009D01DA013383228360817181860F971F49
:1025A0008217930769F4EC0128813981260F371FC0
:1025B0002E5F3F4F318320838A819B819383828367
:1025C000452B29F4F0931906E093180642C01396A0
:1025D000FC93EE931297ED01499159919E01240FBE
:1025E000351FE217F30771F480819181840F951FE5
:1025F000029611969C938E938281938113969C935D
:102600008E931297E0E0F0E0D80112968D919C91A4
:102610001397009719F0F8018C01F6CF8D919C91DA
:1026200098012E5F3F4F820F931F20911606309125
:1026300017062817390769F4309729F410921906FC
:102640001092180602C0138212821093170600938C
:102650001606DF91CF911F910F9108951F93FC01F2
:1026600099278827BC01E89411911032E9F31930B9
:1026700010F01E30C8F31B3249F01D3241F468944B
:1026800005C012D0610F711D811D911D1191105354
:102690001A30B8F33EF490958095709561957F4F10
:1026A0008F4F9F4F1F910895592F482F372F262F57
:1026B000660F771F881F991F660F771F881F991F46
:1026C000620F731F841F951F660F771F881F991F46
:1026D000089540D008F481E00895E89409C097FB7C
:1026E0003EF490958095709561957F4F8F4F9F4FE9
:1026F0009923A9F0F92F96E9BB279395F69587952D
:1027000077956795B795F111F8CFFAF4BB0F11F4EF
:1027100060FF1BC06F5F7F4F8F4F9F4F16C0882396
:1027200011F096E911C0772321F09EE8872F762FCC
:1027300005C0662371F096E8862F70E060E02AF00D
:102740009A95660F771F881FDAF7880F96958795F9
:1027500097F90895990F0008550FAA0BE0E8FEEFCE
:1027600016161706E807F907C0F012161306E40755
:10277000F50798F0621B730B840B950B39F40A264E
:1027800061F0232B242B252B21F408950A2609F42C
:10279000A140A6958FEF811D811D08950BD078C0B3
:1027A00069D028F06ED018F0952309F05AC05FC0A8
:1027B0001124A2C07ED0A0F3959FD1F3950F50E0D5
:1027C000551F629FF001729FBB27F00DB11D639FE3
:1027D000AA27F00DB11DAA1F649F6627B00DA11D89
:1027E000661F829F2227B00DA11D621F739FB00D2F
:1027F000A11D621F839FA00D611D221F749F33279F
:10280000A00D611D231F849F600D211D822F762F37
:102810006A2F11249F5750408AF0E1F088234AF034
:10282000EE0FFF1FBB1F661F771F881F9150504080
:10283000A9F79E3F510570F014C05EC05F3FECF3F6
:10284000983EDCF3869577956795B795F795E7956C
:102850009F5FC1F7FE2B880F911D9695879597F97D
:10286000089597F99F6780E870E060E008959FEF12
:1028700080EC089500240A94161617061806090617
:10288000089500240A9412161306140605060895E6
:10289000092E0394000C11F4882352F0BB0F40F46E
:1028A000BF2B11F460FF04C06F5F7F4F8F4F9F4FAE
:1028B000089557FD9058440F551F59F05F3F71F030
:1028C0004795880F97FB991F61F09F3F79F0879597
:1028D0000895121613061406551FF2CF4695F1DF20
:1028E00008C0161617061806991FF1CF86957105B0
:1028F000610508940895E894BB2766277727CB01E4
:1029000097F9089509D0A59F900DB49F900DA49FAD
:10291000800D911D11240895A29FB001B39FC001A5
:10292000A39F700D811D1124911DB29F700D811DFB
:102930001124911D08955058BB27AA270ED0A8CF67
:1029400099DF30F09EDF20F031F49F3F11F41EF448
:102950008ECF0EF4E095E7FB84CFE92FAADF80F35A
:10296000BA17620773078407950718F071F49EF58C
:10297000C2CF0EF4E0950B2EBA2FA02D0B01B9019A
:1029800090010C01CA01A0011124FF27591B99F0E5
:10299000593F50F4503E68F11A16F040A22F232FF1
:1029A000342F4427585FF3CF469537952795A79541
:1029B000F0405395C9F77EF41F16BA0B620B730BE8
:1029C000840BBAF09150A1F0FF0FBB1F661F771F59
:1029D000881FC2F70EC0BA0F621F731F841F48F40E
:1029E000879577956795B795F7959E3F08F0B3CF94
:1029F0009395880F08F09927EE0F9795879508957E
:102A00000CD046CF3EDF40F035DF30F021F45F3FA1
:102A100019F027CF511170CF2ACF4BDF98F39923AC
:102A2000C9F35523B1F3951B550BBB27AA27621792
:102A30007307840738F09F5F5F4F220F331F441FD7
:102A4000AA1FA9F333D00E2E3AF0E0E830D091500F
:102A50005040E695001CCAF729D0FE2F27D0660FFC
:102A6000771F881FBB1F261737074807AB07B0E83B
:102A700009F0BB0B802DBF01FF2793585F4F2AF051
:102A80009E3F510568F0EDCE37CF5F3FECF3983EA7
:102A9000DCF3869577956795B795F7959F5FC9F7AE
:102AA000880F911D9695879597F90895E1E0660F37
:102AB000771F881FBB1F621773078407BA0720F0B0
:102AC000621B730B840BBA0BEE1F88F7E095089519
:102AD00004D06894B11110CF0895F3DE88F09F57A9
:102AE00090F0B92F9927B751A0F0D1F0660F771F5A
:102AF000881F991F1AF0BA95C9F712C0B13081F03A
:102B0000FADEB1E00895F7CE672F782F8827B85FF7
:102B100039F0B93FCCF3869577956795B395D9F79A
:102B20003EF490958095709561957F4F8F4F9F4FA4
:102B3000089510DE08F48FEF08950CDE880B990BD2
:102B40000895A1E21A2EAA1BBB1BFD010DC0AA1FEE
:102B5000BB1FEE1FFF1FA217B307E407F50720F006
:102B6000A21BB30BE40BF50B661F771F881F991F81
:102B70001A9469F760957095809590959B01AC01CA
:102B8000BD01CF010895052E97FB16F400940FD0D8
:102B900057FD05D0D6DF07FC02D046F408C050959B
:102BA0004095309521953F4F4F4F5F4F0895909539
:102BB0008095709561957F4F8F4F9F4F0895EE0FD1
:102BC000FF1F881F8BBF0790F691E02D1994B7FF68
:102BD00099CE98DE821B930B08950024A7FD0094E4
:102BE0002A173005400550056005700580059005E1
:102BF00008956F927F928F929F92AF92BF92CF92E1
:102C0000DF92EF92FF920F931F93CF93DF93EC012C
:102C1000009781F4CB01DF91CF911F910F91FF902D
:102C2000EF90DF90CF90BF90AF909F908F907F906C
:102C30006F90E7CBFC01E60FF71F9C012250310992
:102C4000E217F30708F4A8C0D9010D911C91119760
:102C500006171707A8F00530110508F49BC0C80136
:102C600004978617970708F495C002501109061BB0
:102C7000170B019311936D937C93CF0157DC8AC09E
:102C80005B01A01AB10A4C01800E911EA09118069A
:102C9000B091190640E050E0E12CF12C109709F4B6
:102CA0004AC0A815B905D1F56D907C9011976301C4
:102CB00082E0C80ED11CCA14DB0480F1A3014A19BA
:102CC0005B096A0182E0C80ED11C1296BC90129773
:102CD0001396AC91B5E0CB16D10440F0B282A38339
:102CE00051834083D9016D937C930AC00E5F1F4FBF
:102CF000C301800F911FF90191838083EB2DFA2F7F
:102D0000E114F10431F0D7011396FC93EE9312977E
:102D100041C0F0931906E09318063CC08D919C9138
:102D200011974817590708F4AC017D0112960D90D0
:102D3000BC91A02DB3CF80911606909117068815EF
:102D40009905E1F446175707C8F48091BC029091A9
:102D5000BD02009741F48DB79EB74091C0025091DB
:102D6000C102841B950BE817F907B0F4F09317061E
:102D7000E0931606F901718360830CC0CB0141DB3F
:102D80007C01009749F0A801BE011BD0CE01CEDB2B
:102D9000C70104C0CE0102C080E090E0DF91CF9176
:102DA0001F910F91FF90EF90DF90CF90BF90AF9069
:102DB0009F908F907F906F90089581E090E0F894BD
:102DC00019C0FB01DC0102C001900D92415050403E
:102DD000D8F70895FB01DC018D9101908019011055
:102DE000D9F3990B0895FB01DC0101900D920020AD
:102DF000E1F7089511E0C1E1D1E000E005C0802FC6
:102E0000FE01DDDE2196011DC231D10780E00807F9
:062E1000B1F7F894FFCFBA
:102E16000C2A2A2A2A2A2A382C0000000000000040
:102E2600000000000000000000000000000000009C
:102E3600000000000000000000000000000000008C
:102E4600000000000000000000000000000000007C
:102E5600000000000000000000000000000000006C
:102E6600000000000000000000000000000000005C
:102E7600000000000000000000000000000000004C
:102E8600000000000000000000000000000000003C
:102E9600000000000000000000000000000000002C
:102EA600000000000000000000000000000000001C
:102EB6000000000000000000002E000000000000DE
:102EC600000000000000000000C8000100001A0613
:102ED6008000000001000800400000010004050D0C
:102EE6000B2A2B2C2D2E2F30310A000D0E13151602
:102EF600191A1C232526292A2C3234262728291676
:102F060017181900000000CD0163065D0113028E3B
:102F1600016C0180014D2E467265653A20000D0A4E
:102F2600002C006D64006D690073746F702D007065
:102F36006175736500726573756D006E616E00690B
:082F46006E66006F7666000064
:020000023000CC
:10E000000D9489F10D94B2F10D94B2F10D94B2F129
:10E010000D94B2F10D94B2F10D94B2F10D94B2F1F0
:10E020000D94B2F10D94B2F10D94B2F10D94B2F1E0
:10E030000D94B2F10D94B2F10D94B2F10D94B2F1D0
:10E040000D94B2F10D94B2F10D94B2F10D94B2F1C0
:10E050000D94B2F10D94B2F10D94B2F10D94B2F1B0
:10E060000D94B2F10D94B2F10D94B2F10D94B2F1A0
:10E070000D94B2F10D94B2F10D94B2F10D94B2F190
:10E080000D94B2F10D94B2F10D94B2F10D94B2F180
:10E090000D94B2F10D94B2F10D94B2F10D94B2F170
:10E0A0000D94B2F10D94B2F10D94B2F10D94B2F160
:10E0B0000D94B2F10D94B2F10D94B2F10D94B2F150
:10E0C0000D94B2F10D94B2F10D94B2F10D94B2F140
:10E0D0000D94B2F10D94B2F10D94B2F10D94B2F130
:10E0E0000D94B2F141546D656761323536300041AF
:10E0F000726475696E6F206578706C6F72657220DE
:10E1000073746B3530305632206279204D4C530099
:10E11000426F6F746C6F616465723E004875683F52
:10E1200000436F6D70696C6564206F6E203D200048
:10E130004350552054797065202020203D20005FF9
:10E140005F4156525F415243485F5F3D2000415658
:10E1500052204C696243205665723D20004743437C
:10E160002056657273696F6E203D20004350552024
:10E1700049442020202020203D20004C6F7720663D
:10E18000757365202020203D20004869676820665F
:10E190007573652020203D200045787420667573D6
:10E1A00065202020203D20004C6F636B2066757336
:10E1B000652020203D20004D617220203720323024
:10E1C000313300312E362E3800342E332E350056A2
:10E1D00023202020414444522020206F7020636F70
:10E1E00064652020202020696E73747275637469E1
:10E1F0006F6E2061646472202020496E74657272B3
:10E20000757074006E6F20766563746F7200726A49
:10E210006D702020006A6D70200057686174207056
:10E220006F72743A00506F7274206E6F7420737541
:10E2300070706F72746564004D7573742062652030
:10E2400061206C6574746572002000577269747483
:10E25000696E672045450052656164696E672045B7
:10E26000450045452065727220636E743D00504F35
:10E27000525400303D5A65726F2061646472003FF1
:10E280003D43505520737461747300403D454550C3
:10E29000524F4D207465737400423D426C696E6B41
:10E2A000204C454400453D44756D70204545505215
:10E2B0004F4D00463D44756D7020464C415348001B
:10E2C000483D48656C70004C3D4C69737420492F83
:10E2D0004F20506F72747300513D51756974005234
:10E2E0003D44756D702052414D00563D73686F7707
:10E2F00020696E7465727275707420566563746FF0
:10E30000727300593D506F727420626C696E6B00BD
:10E310002A0011241FBECFEFD1E2DEBFCDBF01E046
:10E320000CBF12E0A0E0B2E0EEE1FDEF03E00BBFB6
:10E3300002C007900D92A030B107D9F712E0A0E01B
:10E34000B2E001C01D92AE30B107E1F70F9460F367
:10E350000D948DFE01E20EBF0FEF0DBF11241FBE05
:10E360000D9460F30D9400F020E030E040ED57E0B4
:10E3700005C0FA013197F1F72F5F3F4F2817390792
:10E38000C0F308959C01260F311DC901A0E0B0E043
:10E390002F5F3F4FABBFFC018791882361F08093D3
:10E3A000C6008091C00086FFFCCF8091C0008064D1
:10E3B0008093C000EACF08958DE08093C6008091DD
:10E3C000C00086FFFCCF8091C00080648093C000B5
:10E3D0008AE08093C6008091C00086FFFCCF8091C8
:10E3E000C00080648093C00008950F94C2F10F9420
:10E3F000DCF10895FC019081992359F09093C600B7
:10E400008091C00086FFFCCF8091C0008064809323
:10E41000C0003196992379F70895282F982F929567
:10E420009F70892F805D8A3308F0895F8093C600D2
:10E430008091C00086FFFCCF8091C00080648093F3
:10E44000C000822F8F70982F905D9A3308F0995FEB
:10E450009093C6008091C00086FFFCCF8091C000E1
:10E4600080648093C00008959C01FB01853691056E
:10E470001CF46330710594F0C90164E670E00F94F8
:10E480002EFE605D7F4F6093C6008091C00086FFC6
:10E49000FCCF8091C00080648093C0002B30310598
:10E4A00014F43297B4F0C90164E670E00F942EFEC4
:10E4B0006AE070E00F942EFE605D7F4F6093C600AF
:10E4C0008091C00086FFFCCF8091C0008064809363
:10E4D000C000C9016AE070E00F942EFEC0968093E0
:10E4E000C6008091C00086FFFCCF8091C000806490
:10E4F0008093C00008951F93182F8EE692EE60E07F
:10E500000F94C2F11093C6008091C00086FFFCCF2B
:10E510008091C00080648093C0000F94DCF11F9153
:10E5200008952F923F924F925F926F927F928F92B7
:10E530009F92AF92BF92CF92DF92EF92FF920F9392
:10E540001F93DF93CF93CDB7DEB762970FB6F894E2
:10E55000DEBF0FBECDBF382E622ECA01DB015C01CB
:10E560006D01772420E2222E2E010894411C511CBB
:10E570008BC081E0A81680E0B80681E0C80680E084
:10E58000D80628F0C601AA27BB270F940DF2BB2797
:10E59000AD2D9C2D8B2D0F940DF28A2D0F940DF225
:10E5A0002092C6008091C00086FFFCCF8091C00001
:10E5B00080648093C0009DE29093C6008091C0006B
:10E5C00086FFFCCF8091C00080648093C0002092C1
:10E5D000C6008091C00086FFFCCF8091C00080649F
:10E5E0008093C00019828601750188249924A1E0D6
:10E5F0003A1651F03A1620F0B2E03B1661F409C029
:10E600000BBFF701779007C0C7010F9477FE782EF4
:10E6100002C0F7017080872D0F940DF22092C60082
:10E620008091C00086FFFCCF8091C0008064809301
:10E63000C000872D8052F401EF70F0708F3520F408
:10E64000E40DF51D708204C0E40DF51D8EE280839B
:10E650000894E11CF11C011D111D0894811C911CE2
:10E6600090E18916910409F0C2CF80E190E0A0E02A
:10E67000B0E0A80EB91ECA1EDB1E198AC2010F9493
:10E68000FAF10F94DCF16A94662009F072CF629679
:10E690000FB6F894DEBF0FBECDBFCF91DF911F91B3
:10E6A0000F91FF90EF90DF90CF90BF90AF909F9031
:10E6B0008F907F906F905F904F903F902F90089534
:10E6C0002F923F924F925F926F927F928F929F9282
:10E6D000AF92BF92CF92DF92EF92FF920F931F9370
:10E6E000DF93CF93CDB7DEB7CD53D1400FB6F894BB
:10E6F000DEBF0FBECDBF01E20EBF0FEF0DBF94B75F
:10E70000F894A89514BE80916000886180936000A1
:10E7100010926000789493FF05C0E0910002F091A0
:10E7200001021995279A2F9A8091C00082608093E8
:10E73000C00080E18093C40088E18093C1000000A4
:10E74000EE24FF24870144E0A42EB12CCC24DD2448
:10E7500024C0C5010197F1F70894E11CF11C011DCB
:10E76000111D21E2E2162EE4F20620E0020720E06D
:10E77000120718F031E0C32ED12CC801B70127ECE5
:10E780003BE140E050E00F9441FE611571058105C9
:10E79000910519F485B1805885B98091C00087FD35
:10E7A00003C0C114D104A9F2A6014F5F5F4FC25E3E
:10E7B000DE4F59834883CE51D140C25EDE4F8881FF
:10E7C0009981CE51D140019711F00D9410FEC05D9A
:10E7D000DE4F19821882C053D14060E0C15DDE4F28
:10E7E0001882CF52D14088249924C35DDE4F19820C
:10E7F0001882CD52D140C05EDE4F188219821A8233
:10E800001B82C052D140CE5CDE4F188219821A8220
:10E810001B82C253D140EE24FF2487010BBFF701B6
:10E8200007911691C45CDE4F19830883CC53D14005
:10E830000D940BFEC25EDE4F28813981CE51D1404E
:10E840002130310509F52091C600C25EDE4F1982E4
:10E850001882CE51D14022C02F5F3F4F4F4F5F4FA4
:10E86000213082E138078AE7480780E0580780F0C6
:10E87000C45CDE4FE881F981CC53D140EF5FFF4F9C
:10E8800019F0EE27FF27099420E030E040E050E047
:10E890008091C00087FFE0CF2091C600C35DDE4FAE
:10E8A00048815981CD52D1404F5F5F4FC35DDE4FEC
:10E8B00059834883CD52D140213209F063C64A3092
:10E8C000510508F05FC60894811C911C53E0851621
:10E8D000910409F059C600E010E018C081E280936D
:10E8E000C6008091C00086FFFCCF8091C00080648C
:10E8F0008093C0002F5F3F4F2931310579F70F9486
:10E90000DCF10F5F1F4F0530110519F020E030E0FA
:10E91000E5CF10920A0210920B0210920C02109294
:10E920000D02109206021092070210920802109235
:10E930000902109202021092030210920402109235
:10E9400005028FEE90EE60E00F94F5F180E191EE1C
:10E9500060E00F94C2F18091C00087FFFCCF9091DE
:10E96000C600903608F09F759032B8F09093C600BC
:10E970008091C00086FFFCCF8091C00080648093AE
:10E98000C000A0E2A093C6008091C00086FFFCCF2B
:10E990008091C00080648093C000983409F4D7C18E
:10E9A0009934B8F4923409F459C1933458F490333B
:10E9B00019F1903308F4E3C59F33A1F1903409F0C5
:10E9C000DEC5BDC0953409F470C1963409F0D7C5D1
:10E9D00098C1923509F42BC2933538F49C3409F46C
:10E9E000F5C1913509F0CBC518C2963509F445C279
:10E9F000993509F0C4C567C483E792EE62E00F94CD
:10EA0000F5F110920602109207021092080210927D
:10EA1000090210920A0210920B0210920C0210923C
:10EA20000D0213C18FE792EE62E00F94F5F18FEEC5
:10EA300090EE60E00F94F5F181E291EE60E00F94CA
:10EA4000C2F187EB91EE60E00F94F5F180E391EE77
:10EA500060E00F94C2F184EE90EE60E00F94F5F167
:10EA60008FE391EE60E00F94C2F186E090E061E008
:10EA700070E00F9434F20F94DCF18DE591EE60E0DC
:10EA80000F94C2F189EC91EE60E00F94F5F18EE401
:10EA900091EE60E00F94C2F183EC91EE60E00F9490
:10EAA000F5F18CE691EE60E00F94C2F18EE10F94E7
:10EAB0000DF288E90F940DF281E00F940DF20F949E
:10EAC000DCF18BE791EE60E00F94C2F119E0E0E039
:10EAD000F0E010935700E4918E2F0F940DF20F94F5
:10EAE000DCF18AE891EE60E00F94C2F1E3E0F0E03F
:10EAF00010935700E4918E2F0F940DF20F94DCF1D8
:10EB000089E991EE60E00F94C2F1E2E0F0E0109349
:10EB10005700E4918E2F0F940DF20F94DCF188EAE8
:10EB200091EE60E00F94C2F1E1E0F0E01093570045
:10EB30001491812F0F940DF20F94DCF107CF8BE825
:10EB400092EE62E00F94F5F18BE492EE60E00F94A8
:10EB5000F5F10F94DCF100E010E019C0C8016F2D51
:10EB60000F947FFEFF2031F489E492EE60E00F9471
:10EB7000C2F10BC0F092C6008091C00086FFFCCFAE
:10EB80008091C00080648093C0000F5F1F4FC80158
:10EB900081519F41A0E0B0E0ABBFFC01F790BAE229
:10EBA000FB1621F0E2E000301E07C1F60F94DCF105
:10EBB0000F94DCF187E592EE60E00F94F5F10F948D
:10EBC000DCF1CC24DD2400E010E01EC0C8010F946D
:10EBD00077FEF82E882331F489E492EE60E00F94FA
:10EBE000C2F10BC08093C6008091C00086FFFCCFAD
:10EBF0008091C00080648093C000FE1419F00894D6
:10EC0000C11CD11C0F5F1F4FC80181519F41A0E063
:10EC1000B0E0ABBFFC01E790FAE2EF1621F022E092
:10EC20000030120799F60F94DCF10F94DCF182E6C4
:10EC300092EE60E00F94C2F1C60161E070E00F94C3
:10EC400034F20F94DCF10F94DCF110920202109276
:10EC50000302109204021092050278CE89E992EE26
:10EC600062E00F94F5F1279A2F9A16C02F9880E052
:10EC700090E0E0EDF7E03197F1F7019684369105E9
:10EC8000C1F72F9A80E090E0E0EDF7E03197F1F7DF
:10EC9000019684369105C1F78091C00087FFE6CFC9
:10ECA0008091C00087FFFCCF64C485EA92EE62E0E9
:10ECB0000F94F5F140910202509103026091040219
:10ECC0007091050281E020E10F9491F2809102029F
:10ECD00090910302A0910402B091050280509F4FD1
:10ECE000AF4FBF4F8093020290930302A0930402A0
:10ECF000B093050280509041A040B04008F426CE69
:10ED0000A4CF83EB92EE62E00F94F5F140910602FE
:10ED100050910702609108027091090280E020E1A1
:10ED20000F9491F28091060290910702A09108023F
:10ED3000B091090280509F4FAF4FBF4F80930602A2
:10ED400090930702A0930802B0930902FFCD80ECD4
:10ED500092EE62E00F94F5F183E792EE60E00F949B
:10ED6000F5F18FE792EE60E00F94F5F18BE892EE0B
:10ED700060E00F94F5F189E992EE60E00F94F5F10F
:10ED800085EA92EE60E00F94F5F183EB92EE60E09D
:10ED90000F94F5F180EC92EE60E00F94F5F187ECC2
:10EDA00092EE60E00F94F5F188ED92EE60E00F9442
:10EDB000F5F18FED92EE60E00F94F5F18AEE92EEB0
:10EDC00060E00F94F5F183E093EEBDCD87EC92EE19
:10EDD00062E00F94F5F181E40F947BF282E40F94EA
:10EDE0007BF283E40F947BF284E40F947BF285E45E
:10EDF0000F947BF286E40F947BF287E40F947BF20E
:10EE000088E40F947BF28AE40F947BF28BE40F94F6
:10EE10007BF28CE40F947BF299CD88ED92EE62E068
:10EE20000F94F5F1772473948824992409C48FED05
:10EE300092EE62E00F94F5F140910A0250910B02BC
:10EE400060910C0270910D0282E020E10F9491F22A
:10EE500080910A0290910B02A0910C02B0910D02D8
:10EE600080509F4FAF4FBF4F80930A0290930B0289
:10EE7000A0930C02B0930D0269CD8AEE92EE62E08F
:10EE80000F94F5F184EE90EE60E00F94F5F18FECC5
:10EE900091EE60E00F94F5F1662477244301CC5D98
:10EEA000DE4F19821882C452D140D401C301B695F5
:10EEB000A79597958795CA5DDE4F88839983AA8326
:10EEC000BB83C652D140CC5DDE4FA881B981C4520C
:10EED000D1401196CC5DDE4FB983A883C452D14096
:10EEE000CD0162E070E00F9434F2B0E2B093C6005E
:10EEF0008091C00086FFFCCF8091C0008064809329
:10EF0000C000EDE2E093C6008091C00086FFFCCF18
:10EF10008091C00080648093C000F0E2F093C6004E
:10EF20008091C00086FFFCCF8091C00080648093F8
:10EF3000C000CA5DDE4FE880F9800A811B81C6529D
:10EF4000D140BB27A12F902F8F2D0F940DF2CA5DBA
:10EF5000DE4F8881C652D1400F940DF2B0E2FB2EF5
:10EF6000F092C6008091C00086FFFCCF8091C00067
:10EF700080648093C0000DE30093C6008091C000C0
:10EF800086FFFCCF8091C00080648093C00010E2B7
:10EF90001093C6008091C00086FFFCCF8091C00016
:10EFA00080648093C0008BBEF3012791C65DDE4F65
:10EFB0002883CA52D140A22EBB24CC24DD2408943D
:10EFC000611C711C811C911C8BBEF3018791282E42
:10EFD0003324442455240894611C711C811C911C09
:10EFE0008BBEF3013791C55DDE4F3883CB52D140E4
:10EFF0000894611C711C811C911C8BBEF30147910C
:10F00000C45DDE4F4883CC52D140ADEFEA2EAFEF66
:10F01000FA2EAFEF0A2FAFEF1A2F6E0C7F1C801E57
:10F02000911E142D032DF22CEE24EA0CFB1C0C1D5A
:10F030001D1D0F940DF220E22093C6008091C000A8
:10F0400086FFFCCF8091C00080648093C000C65DC5
:10F05000DE4F8881CA52D1400F940DF230E23093D6
:10F06000C6008091C00086FFFCCF8091C000806404
:10F070008093C000C45DDE4F8881CC52D1400F9494
:10F080000DF240E24093C6008091C00086FFFCCFA5
:10F090008091C00080648093C000C55DDE4F888190
:10F0A000CB52D1400F940DF250E25093C6008091A4
:10F0B000C00086FFFCCF8091C00080648093C000B8
:10F0C0008FEFE8168FEFF80680E0080780E018075A
:10F0D00031F484E092EE60E00F94C2F1DFC0D80119
:10F0E000C7018070907CA070B0708050904CA040A0
:10F0F000B040D1F52FEF3FE340E050E0E222F322B1
:10F1000004231523CA5DDE4FA880B980CA80DB8046
:10F11000C652D140AE0CBF1CC01ED11EAA0CBB1CD7
:10F12000CC1CDD1C8EE092EE60E00F94C2F1BB2798
:10F13000A12F902F8F2D0F940DF28E2D0F940DF285
:10F1400030E23093C6008091C00086FFFCCF8091F2
:10F15000C00080648093C0004EE34093C60080915D
:10F16000C00086FFFCCF87C08EE09EEFA0E0B0E03D
:10F17000E822F9220A231B239CE0E91694E9F90608
:10F1800090E0090790E0190709F088C0C45DDE4FE0
:10F19000A881CC52D140EA2EFF2400E010E0102FCD
:10F1A0000F2DFE2CEE24C55DDE4FB881CB52D14031
:10F1B000EB0EF11C011D111DD601C501817090706F
:10F1C000A070B070DC0199278827E80EF91E0A1F8D
:10F1D0001B1F20EF30E040E050E0A222B322C42207
:10F1E000D52241E1AA0CBB1CCC1CDD1C4A95D1F7F1
:10F1F000EA0CFB1C0C1D1D1D81E090E0A0E0B0E0BE
:10F20000282239224A225B2235E1220C331C441C7D
:10F21000551C3A95D1F7E20CF31C041D151D57013E
:10F220006801AA0CBB1CCC1CDD1C85E192EE60E0E1
:10F230000F94C2F1C801AA27BB270F940DF2BB2778
:10F24000A12F902F8F2D0F940DF28E2D0F940DF274
:10F2500090E29093C6008091C00086FFFCCF809121
:10F26000C00080648093C000AEE3A093C60080918C
:10F27000C00086FFFCCF8091C00080648093C000F6
:10F28000C601AA27BB270F940DF2BB27AD2D9C2DDD
:10F290008B2D0F940DF28A2D0F940DF20F94DCF14B
:10F2A000CC5DDE4FE881F981C452D140F99709F471
:10F2B0004DCBF4E0EF2EF12C012D112D6E0C7F1CA7
:10F2C000801E911EF2CD83E093EE62E00F94F5F183
:10F2D0008AE192EE60E00F94C2F18091C00087FF56
:10F2E000FCCF1091C6001F751093C6008091C0001E
:10F2F00086FFFCCF8091C00080648093C0000F9493
:10F30000DCF1812F81548A3108F036C1163409F4BA
:10F3100095C0173490F4133409F44EC0143430F40B
:10F320001134F1F0123409F01DC130C0143409F465
:10F3300059C0153409F016C16BC01A3409F4C4C0A1
:10F340001B3438F4173409F48FC0183409F00AC19B
:10F35000A1C01B3409F4D2C01C3409F003C1E8C0B9
:10F360008FEF81B90DC082B1809582B980E090E0C5
:10F37000E0EDF7E03197F1F70196883C9105C1F790
:10F380008091C00087FFEFCF12B8EFC08FEF84B934
:10F390000DC085B1809585B980E090E0E0EDF7E0A3
:10F3A0003197F1F70196883C9105C1F78091C00033
:10F3B00087FFEFCF15B8D9C08FEF87B90DC088B1DF
:10F3C000809588B980E090E0E0EDF7E03197F1F7C3
:10F3D0000196883C9105C1F78091C00087FFEFCF6F
:10F3E00018B8C3C08FEF8AB90DC08BB180958BB9A7
:10F3F00080E090E0E0EDF7E03197F1F70196883C8E
:10F400009105C1F78091C00087FFEFCF1BB8ADC059
:10F410008FEF8DB90DC08EB180958EB980E090E0F0
:10F42000E0EDF7E03197F1F70196883C9105C1F7DF
:10F430008091C00087FFEFCF1EB897C08FEF80BBD1
:10F440000DC081B3809581BB80E090E0E0EDF7E0F6
:10F450003197F1F70196883C9105C1F78091C00082
:10F4600087FFEFCF11BA81C08FEF83BB0DC084B38C
:10F47000809584BB80E090E0E0EDF7E03197F1F714
:10F480000196883C9105C1F78091C00087FFEFCFBE
:10F4900014BA6BC08FEF809301010FC080910201FD
:10F4A00080958093020180E090E0E0EDF7E03197F5
:10F4B000F1F70196883C9105C1F78091C00087FF64
:10F4C000EDCF1092020151C08FEF809304010FC065
:10F4D0008091050180958093050180E090E0E0ED4A
:10F4E000F7E03197F1F70196883C9105C1F78091DB
:10F4F000C00087FFEDCF1092050137C08FEF8093DA
:10F5000007010FC08091080180958093080180E079
:10F5100090E0E0EDF7E03197F1F70196883C910536
:10F52000C1F78091C00087FFEDCF109208011DC088
:10F530008FEF80930A010FC080910B01809580931B
:10F540000B0180E090E0E0EDF7E03197F1F70196F4
:10F55000883C9105C1F78091C00087FFEDCF1092E4
:10F560000B0103C085E292EEEEC98091C00087FFD7
:10F57000FCCF8091C600EAC988E392EEE4C98CE131
:10F5800091EEE1C988249924933011F1943028F444
:10F59000913089F09230B8F408C0953061F195301F
:10F5A000F0F0963009F048C043C02B3109F042C951
:10F5B00091E06BE13FC96227C15DDE4F2883CF52E6
:10F5C000D14092E037C9B22FA0E0622793E032C960
:10F5D000822F90E0A82BB92B622794E02BC92E3004
:10F5E00009F039C3622795E0C05DDE4F19821882A9
:10F5F000C053D1401FC9E1E0F0E0EC0FFD1FC05D3A
:10F60000DE4F08811981C053D140E00FF11F2083E4
:10F610000F5F1F4FC05DDE4F19830883C053D14079
:10F6200062270A171B0709F005C9D80196E002C92D
:10F63000261709F010C303C0973009F0FBC87724E0
:10F640009981933109F412C19431C8F4963009F4C8
:10F65000D8C0973050F4923009F406C1933009F4C1
:10F660006DC0913009F059C253C0913109F477C08F
:10F67000923108F0BBC0903109F04FC2F5C098310B
:10F6800009F487C0993150F4953109F4EFC09531F0
:10F6900008F4C6C1963109F040C2C2C19A3109F4DA
:10F6A0006CC09A3108F491C09B3109F45BC09D3164
:10F6B00009F033C29D81903359F48F81882311F46E
:10F6C0009EE11CC0813011F091E018C098E916C08D
:10F6D000892F807591F0903539F4E0E0F0E089E011
:10F6E0008093570094910AC0983539F4E3E0F0E034
:10F6F00089E080935700949101C090E01A821B82A8
:10F700008D818C831D829E831F8227E030E009C299
:10F710001A8288E08B8381E48C8386E58D8382E581
:10F720008E8389E48F8383E5888780E589878FE5E9
:10F730008A8782E38B872BE030E0F3C18A818139AD
:10F7400041F0823941F0803911F48FE005C080E04A
:10F7500003C082E001C08AE01A828B8344C0772410
:10F76000739482C08D81882311F48EE12CC0813086
:10F7700011F081E028C088E926C01A82E1E0F0E0BB
:10F7800089E08093570084918B831C8224E030E0D1
:10F79000C8C18B81803589F48C81883039F4E2E0EE
:10F7A000F0E089E08093570084910DC0E0E0F0E044
:10F7B00089E080935700849106C0E3E0F0E089E09F
:10F7C0008093570084911A82DFCF8D81836C99E0FA
:10F7D000E1E0F0E0082E90935700E89507B600FCB2
:10F7E000FDCF1A821B8223E030E09BC180EC8A832C
:10F7F000CE5CDE4F188219821A821B82C253D1401E
:10F800008EC18A8190E0A0E0B0E0582F44273327D2
:10F8100022278B8190E0A0E0B0E0DC0199278827C7
:10F82000282B392B4A2B5B2B8D8190E0A0E0B0E098
:10F83000282B392B4A2B5B2B8C8190E0A0E0B0E089
:10F84000BA2FA92F982F8827282B392B4A2B5B2BCF
:10F85000220F331F441F551FC05EDE4F288339839C
:10F860004A835B83C052D1401A8259C13A81C95C34
:10F87000DE4F3883C753D140CA5CDE4F1882C6536F
:10F88000D1408B81C82EDD24CA5CDE4F488159816E
:10F89000C653D140C42AD52A933109F082C0CE5C28
:10F8A000DE4F88819981AA81BB81C253D1408050AB
:10F8B000904CA340B04030F583E0CE5CDE4FE88052
:10F8C000F9800A811B81C253D140F70100935B008C
:10F8D00080935700E89507B600FCFDCFCE5CDE4F65
:10F8E000088119812A813B81C253D14000501F4FAA
:10F8F0002F4F3F4FCE5CDE4F088319832A833B8313
:10F90000C253D140C05EDE4F488159816A817B81FC
:10F91000C052D140DE011B9631E08C9111962C91A2
:10F9200011971296C75CDE4F2883C953D140C85C3B
:10F93000DE4F1882C853D14090E0C85CDE4FE881AA
:10F94000F981C853D1408E2B9F2B0C01FA01609393
:10F950005B0030935700E89511244E5F5F4F6F4F67
:10F960007F4F0EEFE02E0FEFF02ECE0CDF1CC114F8
:10F97000D10499F685E0C05EDE4F088119812A81A5
:10F980003B81C052D140F80120935B008093570027
:10F99000E89507B600FCFDCF81E180935700E8951C
:10F9A00035C0C05EDE4F88819981AA81BB81C0527B
:10F9B000D140B695A795979587957C018601ABE0D8
:10F9C000AA2EB12CAC0EBD1E0BC0D5016D915D01F0
:10F9D000C7010F947FFE0894E11CF11C01501040F8
:10F9E0000115110591F7A60160E070E0440F551F65
:10F9F000661F771FC05EDE4FE880F9800A811B8199
:10FA0000C052D1404E0D5F1D601F711F1A82C05E33
:10FA1000DE4F488359836A837B83C052D1407FC0C5
:10FA2000FA80C55CDE4FF882CB53D140C65CDE4F16
:10FA30001882CA53D1408B81C82EDD24C65CDE4FAC
:10FA400008811981CA53D140C02AD12A1A828981DA
:10FA5000BE016D5F7F4F843121F59601C05EDE4FA0
:10FA6000E880F9800A811B81C052D1400BBFF701A9
:10FA700087919691DB018C9311969C936E5F7F4FDB
:10FA8000D801C7010296A11DB11DC05EDE4F88835B
:10FA90009983AA83BB83C052D14022503040F1F6F3
:10FAA00036C0C05EDE4F288139814A815B81C052F9
:10FAB000D1400894C108D108760100E010E0089414
:10FAC000C11CD11C0894E11CF11C011D111DE20E8A
:10FAD000F31E041F151F21BDBB27A52F942F832FB5
:10FAE00082BD2F5F3F4F4F4F5F4FF89A80B5DB01CC
:10FAF0008D93BD012E153F054007510761F7C05E8C
:10FB0000DE4F288339834A835B83C052D1409601FC
:10FB10002D5F3F4FFB01108204C080EC8A8322E0FE
:10FB200030E08BE18093C6008091C00086FFFCCF5F
:10FB30008091C00080648093C000C15DDE4FF88179
:10FB4000CF52D140F093C6008091C00086FFFCCF19
:10FB50008091C00080648093C000432F3093C60022
:10FB60008091C00086FFFCCF8091C00080648093AC
:10FB7000C000922F2093C6008091C00086FFFCCF6A
:10FB80008091C00080648093C0008EE08093C600A6
:10FB90008091C00086FFFCCF8091C000806480937C
:10FBA000C00065E1C15DDE4FE880CF52D1406E25D7
:10FBB00069276427FE01319610C090819093C6009A
:10FBC0008091C00086FFFCCF31968091C000806498
:10FBD0008093C0006927215030402115310569F715
:10FBE0006093C6008091C00086FFFCCF8091C0006A
:10FBF00080648093C00085B1805885B9772081F4F6
:10FC0000C15DDE4F0881CF52D1400F5FC15DDE4F35
:10FC10000883CF52D14090E0A0E0B0E00D941AF4F8
:10FC200027982F9880E090E020ED37E0F901319798
:10FC3000F1F7019684369105C9F700008091C00064
:10FC40008D7F8093C00081E180935700E895EE2777
:10FC5000FF270994FFCF90E00D941AF497FB092E2B
:10FC600007260AD077FD04D02ED006D000201AF443
:10FC7000709561957F4F0895F6F7909581959F4F08
:10FC80000895A1E21A2EAA1BBB1BFD010DC0AA1FDD
:10FC9000BB1FEE1FFF1FA217B307E407F50720F0F5
:10FCA000A21BB30BE40BF50B661F771F881F991F70
:10FCB0001A9469F760957095809590959B01AC01B9
:10FCC000BD01CF010895AA1BBB1B51E107C0AA1FAC
:10FCD000BB1FA617B70710F0A61BB70B881F991FED
:10FCE0005A95A9F780959095BC01CD010895F99991
:10FCF000FECF92BD81BDF89A992780B50895262F31
:10FD0000F999FECF1FBA92BD81BD20BD0FB6F89400
:0EFD1000FA9AF99A0FBE01960895F894FFCF63
:040000033000E000E9
:00000001FF