:1000000002C1000030C100002EC100002CC1000060
:100010002AC1000028C1000026C1000024C1000040
:1000200022C1000020C100001EC100001CC1000050
:100030001AC10000F5C6000016C1000014C100007E
:1000400012C1000096C400000EC100000CC10000E7
:100050000AC1000008C1000006C10000E1C30000A1
:1000600002C1000050C4000025C40000FCC0000014
:10007000FAC00000F8C00000F6C00000F4C00000A4
:10008000F2C00000F0C00000EEC00000ECC00000B4
:10009000EAC00000E8C00000E6C00000A2C5000001
:1000A000E2C00000E0C00000DEC00000DCC00000D4
:1000B000DAC00000D8C00000D6C00000D4C00000E4
:1000C000D2C00000D0C00000CEC00000CCC00000F4
:1000D000CAC00000C8C00000C6C00000C4C0000004
:1000E000C2C00000000020002300260029002C00D0
:1000F0002F00320000010000030106010901000089
:100100002100240027002A002D00300033000101C7
:100110000000040107010A01000022002500280058
:100120002B002E00310034000201000005010801FF
:100130000B0105050505070508080808020202026B
:100140000A0A080804040404010101010101010173
:100150000303030303030303040707070C0C0C0C3E
:100160000C0C0C0C02020202060606060606060627
:100170000B0B0B0B0B0B0B0B0102102020080810B4
:100180002040102040800201020108040201010207
:1001900004081020408080402010080402018004E0
:1001A000020180402010080402010804020101023B
:1001B0000408102040800102040810204080000044
:1001C0000A0B02090C0D0E080703040100000000D1
:1001D000000000000000000000000000000000001F
:1001E00000000000000000000000121110000000DC
:1001F00000000000000000000000000000000000FF
:10020000000000005F0711241FBECFEFD1E2DEBF68
:10021000CDBF00E00CBF12E0A0E0B2E0E8E8F2E100
:1002200000E00BBF02C007900D92A833B107D9F7C9
:1002300023E0A8E3B2E001C01D92A436B207E1F7C3
:1002400011E0C3E0D1E000E006C021970109802F52
:10025000FE010E943A09C230D10780E00807A9F7E1
:100260005BD60C944209CCCE8150823108F059C043
:10027000E82FF0E08827E15CFE4F8F4FFBC75F015E
:100280006301510157015B01910166016C0170012D
:1002900076017A017E018401880191018C0192012D
:1002A0009601809180008F778093800008958091DF
:1002B00080008F7DF9CF80918000877FF5CF84B556
:1002C0008F7784BD089584B58F7DFBCF8091B0007A
:1002D0008F778093B00008958091B0008F7DF9CF23
:1002E000809190008F778093900008958091900086
:1002F0008F7DF9CF80919000877FF5CF8091A0000E
:100300008F778093A00008958091A0008F7DF9CF12
:100310008091A000877FF5CF809120018F77809317
:1003200020010895809120018F7DF9CF80912001D7
:10033000877FF5CF1F93CF93DF93282F30E0F9010C
:10034000E254FE4F8491F901E858FE4FD491F9012F
:10035000EE5CFE4FC491CC23A1F0162F811184DFF7
:10036000EC2FF0E0EE0FFF1FE85EFE4FA591B49179
:100370008FB7F894EC91111108C0D095DE23DC936F
:100380008FBFDF91CF911F910895DE2BF8CFCF93D0
:10039000DF9390E0FC01E858FE4F24918E5C9E4F65
:1003A000FC0184918823D1F090E0880F991FFC0113
:1003B000E250FF4FA591B491FC01E85EFE4FC5915C
:1003C000D49161110EC09FB7F8948C91E22FE09503
:1003D0008E238C932881E223E8839FBFDF91CF9106
:1003E00008958FB7F894EC91E22BEC938FBFF6CF82
:1003F0003FB7F8948091C3029091C402A091C502C6
:10040000B091C60226B5A89B05C02F3F19F00196F2
:10041000A11DB11D3FBFBA2FA92F982F8827BC015E
:10042000CD01620F711D811D911D42E0660F771F86
:10043000881F991F4A95D1F70895AF92BF92CF9226
:10044000DF92EF92FF920F931F93CF93DF936C0194
:100450007B018B01040F151FEB015E01AE18BF0875
:10046000C017D10759F06991D601ED91FC91019027
:10047000F081E02DC6011995892B79F7C501DF912F
:10048000CF911F910F91FF90EF90DF90CF90BF9091
:10049000AF900895FC01538D448D252F30E0842FBB
:1004A00090E0821B930B541710F0CF96089501979C
:1004B0000895FC01918D828D981761F0A28DAE0F89
:1004C000BF2FB11D5D968C91928D9F5F9F73928F10
:1004D00090E008958FEF9FEF0895FC01918D828D3C
:1004E000981731F0828DE80FF11D858D90E0089509
:1004F0008FEF9FEF0895FC01918D228D892F90E061
:10050000805C9F4F821B91098F739927089587EC18
:1005100092E0F1DF21E0892B09F420E0822F089599
:10052000FC01A48DA80FB92FB11DA35ABF4F2C9168
:10053000848D90E001968F739927848FA689B7895F
:100540002C93A089B1898C91837080648C93938D56
:10055000848D981306C00288F389E02D80818F7DF9
:1005600080830895EF92FF920F931F93CF93DF93B1
:10057000EC0181E0888F9B8D8C8D98131AC0E889DF
:10058000F989808185FF15C09FB7F894EE89FF89AE
:100590006083E889F98980818370806480839FBF4C
:1005A00081E090E0DF91CF911F910F91FF90EF904C
:1005B0000895F62E0B8D10E00F5F1F4F0F7311275C
:1005C000E02E8C8D8E110BC00FB607FCFACFE88998
:1005D000F989808185FFF5CFCE01A2DFF2CFEB8DC7
:1005E000EC0FFD2FF11DE35AFF4FF0829FB7F894F7
:1005F0000B8FEA89FB8980818062D0CFCF93DF9314
:10060000EC01888D8823B1F0AA89BB89E889F98932
:100610008C9185FD03C0808186FD0CC00FB607FC60
:10062000F7CF8C9185FFF2CF808185FFEDCFCE0192
:1006300077DFEACFDF91CF91089580E090E0892BBA
:1006400021F065DF81110E94000080E090E0892B9D
:1006500049F080E090E0892B29F00E940000811190
:100660000E94000080E090E0892B49F080E090E05B
:10067000892B29F00E94000081110E94000080E077
:1006800090E0892B49F080E090E0892B29F00E94CE
:10069000000081110C940000089508958FEF9FEFE2
:1006A00008958FEF9FEF08958091A80290E09195B3
:1006B00081959109089590E080E0089520915E026F
:1006C000260F3327331F21323105ECF420918202AB
:1006D000FC0190E080E0243069F082E00895A09170
:1006E0005E022191AC01425C5D4FA40FB52FB11D9C
:1006F0002C930196861798F380915E02680F6093A1
:100700005E0280E0089581E00895CF93DF93CB01EE
:10071000EA01642FD3DFCE01DF91CF910895CF930B
:10072000DF931F92CDB7DEB7698361E0CE010196FA
:10073000C5DF81E090E00F90DF91CF9108951F9386
:10074000CF93DF9385ED8093BC0080913A02909126
:100750003B02A0913C02B0913D020796A11DB11D44
:1007600023E0B695A795979587952A95D1F720917F
:10077000BC0024FD03C0109282024EC040913A0298
:1007800050913B0260913C0270913D02452B462BFB
:10079000472B69F30097A105B10541F02AE22A959C
:1007A000F1F700C00197A109B109E1CF80913902A9
:1007B000C1E0C0933802882379F1D091B80010913C
:1007C000BA008091BC008A7B8093BC0060E084E129
:1007D000B1DD60E085E1AEDD10928202C09384025B
:1007E0001092830261E084E1A5DD61E085E1A2DD94
:1007F0008091B9008E7F8093B9008091B9008D7F80
:100800008093B90088E48093B80085E48093BC00AD
:100810001093BA00D093B800DF91CF911F91089543
:100820001F920F920FB60F9211242F933F938F9325
:100830009F93AF93BF938091BF029091C002A0910C
:10084000C102B091C2023091BE0223E0230F2D37C6
:1008500058F50196A11DB11D2093BE028093BF02E1
:100860009093C002A093C102B093C2028091C302D0
:100870009091C402A091C502B091C6020196A11D3B
:10088000B11D8093C3029093C402A093C502B0939C
:10089000C602BF91AF919F918F913F912F910F9081
:1008A0000FBE0F901F90189526E8230F0296A11DEA
:1008B000B11DD2CF1F920F920FB60F9211240BB61B
:1008C0000F922F933F934F935F936F937F938F93E9
:1008D0009F93AF93BF93EF93FF9387EC92E020DE5B
:1008E000FF91EF91BF91AF919F918F917F916F9108
:1008F0005F914F913F912F910F900BBE0F900FBEC4
:100900000F901F9018951F920F920FB60F921124FF
:100910000BB60F922F938F939F93EF93FF93E091DA
:10092000D702F091D8028081E091DD02F091DE02E1
:1009300082FD1DC090818091E0028F5F8F732091B6
:10094000E102821741F0E091E002F0E0E953FD4F4F
:10095000958F8093E002FF91EF919F918F912F915E
:100960000F900BBE0F900FBE0F901F9018958081B7
:10097000F2CF1F920F920FB60F9211240BB60F9267
:100980001F932F933F934F935F936F937F938F9317
:100990009F93AF93BF93CF93DF93EF93FF93109108
:1009A000BB02112331F18091B802811122C0209144
:1009B000030230E0F901E254FE4F8491F901E85856
:1009C000FE4FD491F901EE5CFE4FC491CC2371F03F
:1009D00081114ADCEC2FF0E0EE0FFF1FEC51FF4FCE
:1009E000A591B491EC91DE2381E009F480E080933D
:1009F000B7028091B8028823D9F08091B60291E0C5
:100A0000980F9093B602811113C06091B9028AE0E9
:100A100091DC60E0809104028DDC1092B80280913C
:100A2000B4029091B50201969093B5028093B402FE
:100A30008091B602883010F01092B602112309F4AA
:100A400091C08091B80281118DC09091B702992315
:100A500029F08091B3028F5F8093B3028091B1023D
:100A60002091B202921709F44AC02BE0803508F0B9
:100A70002DE1820F8093B1029093B2022091B102D6
:100A8000203A08F46FC08091AF029091B002969521
:100A900087959093B0028093AF023091B3023530C6
:100AA00028F098609093B0028093AF02205A209370
:100AB000B1021092B3028091BA02882309F480C077
:100AC0008091AE028F5F8093AE028C3008F44AC0F2
:100AD0008091AF029091B002382F3F73232F26955B
:100AE0002695287048E0420F421769F0E22FF0E0A7
:100AF000EB5EFD4F5081351739F02F5FF5CF8C5EDF
:100B00008093B102BBCF20E036E0969587953A9569
:100B1000E1F7382F9595879595958795887098E09A
:100B2000980F981749F0E82FF0E0EB5EFD4F4081F9
:100B3000341719F08F5FF5CF80E09091AD029111DD
:100B400027C090E1299F90011124822B8093AC0251
:100B500084508D34E8F01092BA028091AB028F5F1E
:100B60008093AB02FF91EF91DF91CF91BF91AF9155
:100B70009F918F917F916F915F914F913F912F91B5
:100B80001F910F900BBE0F900FBE0F901F901895E6
:100B90008091AD028F5F8093AD029091AD02809104
:100BA000AC02981750F01092BA028091AA028F5F9F
:100BB0008093AA0281E08093A9021092AE02D2CF64
:100BC0008091AF029091B00288339B4059F681E04A
:100BD0008093BA021092AE021092AD021092A90256
:100BE000C1CF1F920F920FB60F9211240BB60F9226
:100BF0002F933F934F935F936F937F938F939F9325
:100C0000AF93BF93EF93FF938091B900887F8036B5
:100C100009F44CC008F03FC0883209F4A6C028F59A
:100C2000803109F49AC0C8F4882309F4F6C08830EA
:100C300009F493C0FF91EF91BF91AF919F918F9174
:100C40007F916F915F914F913F912F910F900BBECC
:100C50000F900FBE0F901F901895883109F485C032
:100C6000803241F78093810214C0803409F49AC025
:100C700040F48033B9F38833E9F68093810285EC40
:100C8000ADC0803509F482C0883509F493C088343A
:100C900089F655DDCFCF883909F48AC038F5883711
:100CA00029F050F4883611F0803721F683E08093E4
:100CB00082021092800255C0883809F479C08039C8
:100CC00019F0803809F0B6CF80918002803208F0A8
:100CD0006FC0E091800281E08E0F8093800280914E
:100CE000BB00F0E0E05AFD4F80833BC0803B39F011
:100CF000D0F4803A09F477C0883A09F09BCF84E0B9
:100D00008093820210925F0210925E02F0E0E0E0B7
:100D1000199580915E0281110FC081E080935E027F
:100D200010923E0209C0803C09F4A9CF883C09F426
:100D3000A6CF883B09F07ECFE0915F0281E08E0F65
:100D400080935F02F0E0E25CFD4F80818093BB0006
:100D500090915F0280915E0229C08091A7028093EA
:100D6000BB0085EC8093BC0065CF9091A60280917A
:100D7000A502981758F5E091A60281E08E0F8093A6
:100D8000A602F0E0EB57FD4F8081E9CFE091A6028B
:100D900081E08E0F8093A6028091BB00F0E0EB57BC
:100DA000FD4F80839091A6028091A5029817C8F20A
:100DB00085E8D8CFE091A60281E08E0F8093A6024D
:100DC0008091BB00F0E0EB57FD4F8083809184025F
:100DD00081115FCF81E08093830284EA8093BC001D
:100DE0001092820227CF85EC8093BC001092820281
:100DF00080918002803230F4E0918002F0E0E05A8D
:100E0000FD4F10826091800270E080E692E0F0E099
:100E1000E0E01995109280020DCF1092810239CF37
:100E20001F920F920FB60F9211240BB60F922F93B1
:100E30003F934F935F936F937F938F939F93AF9362
:100E4000BF93EF93FF93F89461E08091010290913A
:100E50000202892B09F060E0862F90E09093020255
:100E60008093010282E066DA1092B2007894809159
:100E7000000281111EC080E88093B3008BE0809354
:100E8000000280910002815080930002FF91EF9157
:100E9000BF91AF919F918F917F916F915F914F9192
:100EA0003F912F910F900BBE0F900FBE0F901F9090
:100EB00018958A3031F787E28093B300E2CFE7ECF0
:100EC000F2E01382128288EE93E0A0E0B0E0848327
:100ED0009583A683B78389E292E09183808385EC32
:100EE00090E09587848784EC90E09787868780ECF4
:100EF00090E0918B808B81EC90E0938B828B82ECE5
:100F000090E0958B848B86EC90E0978B868B118E8E
:100F1000128E138E148E0895CF93DF93CDB7DEB764
:100F20002E970FB6F894DEBF0FBECDBF789484B570
:100F3000826084BD84B5816084BD85B5826085BDD5
:100F400085B5816085BD80916E00816080936E0063
:100F50001092810080918100826080938100809155
:100F60008100816080938100809180008160809306
:100F700080008091B10084608093B1008091B000C6
:100F800081608093B0008091910082608093910095
:100F900080919100816080939100809190008160A8
:100FA000809390008091A10082608093A100809145
:100FB000A10081608093A1008091A0008160809356
:100FC000A000809121018260809321018091210104
:100FD00081608093210180912001816080932001B4
:100FE00080917A00846080937A0080917A00826098
:100FF00080937A0080917A00816080937A0080915A
:101000007A00806880937A001092C10060E085E0E9
:10101000BED961E082E0BBD961E082E08BD960E0BB
:1010200086E0B5D961E087E0B2D961E083E0AFD96D
:1010300061E08AE0ACD961E084E0A9D960E08AE0AF
:1010400079D985E08093030282E08093040281E0F5
:101050008093B9028EE0E7E0F2E0DE0111960190A4
:101060000D928A95E1F77E0123E0E20EF11C11E07A
:10107000812C94E2992E94EFA92EB12C20E4422EDB
:101080002CE9522E612C712CF701219131917F01B5
:1010900050E040E0C501B401CBD0CA01B901A301C1
:1010A0009201C6D0223031054105510508F09AC0A1
:1010B0001F5F173049F78091BB02811105C081E0A5
:1010C0008093BB021092BA0293D94B015C0182E378
:1010D000C82ED12CE12CF12C8BD9681979098A09F9
:1010E0009B09683E734081059105B0F3F1E0CF1A8A
:1010F000D108E108F10828EE820E23E0921EA11C1F
:10110000B11CC114D104E104F10431F7F894109238
:10111000B0001092B1001092B20087E28093B30049
:101120008091B00082608093B0008091B1008360B4
:101130008093B100809170008260809370007894F9
:10114000E091D702F091D80282E08083E091D3024F
:10115000F091D4021082E091D502F091D6028FEC8A
:1011600080831092DF02E091DB02F091DC0286E0E6
:101170008083E091D902F091DA02808180618083DE
:10118000E091D902F091DA02808188608083E09159
:10119000D902F091DA02808180688083E091D902DF
:1011A000F091DA0280818F7D808384E690E09093D5
:1011B0000602809305021092BD021092BC0220919B
:1011C000BC023091BD028091050290910602281761
:1011D00039078CF750E040E067E372E087EC92E07B
:1011E0002CD9EDCF163009F466CF1092800088E03C
:1011F0008093810080918100182B1093810030939F
:1012000089002093880080916F00826080936F0036
:1012100061E080910402BBD860E080910302B7D8FE
:1012200061E08AE0B4D86091B9028AE083D843CF04
:10123000A1E21A2EAA1BBB1BFD010DC0AA1FBB1FDA
:10124000EE1FFF1FA217B307E407F50720F0A21B4C
:10125000B30BE40BF50B661F771F881F991F1A94B9
:1012600069F760957095809590959B01AC01BD01E3
:10127000CF010895EE0FFF1F881F8BBF0790F691D7
:08128000E02D1994F894FFCF52
:101288000501000B0C64000000010008004000008C
:10129800010004050D0D0E131516191A1C23252619
:1012A800292A2C323400000000B2021D024A02FE34
:0812B800027B0259026D0200E5
:00000001FF
