:100000000C9462000C948A000C948A000C948A0070
:100010000C948A000C948A000C945A040C948A0064
:100020000C948A000C948A000C948A000C9471043D
:100030000C948A000C948A000C948A000C948A0018
:100040000C94B8030C948A000C9428040C940204B9
:100050000C948A000C948A000C948A000C948A00F8
:100060000C948A000C948A000000000024002700F1
:100070002A0000000000250028002B0000000000DE
:1000800023002600290004040404040404040202DA
:100090000202020203030303030301020408102007
:1000A0004080010204081020010204081020000012
:1000B0000008000201000003040700000000000027
:1000C00000008C0511241FBECFEFD8E0DEBFCDBFEE
:1000D00011E0A0E0B1E0ECEDF5E102C005900D9279
:1000E000A434B107D9F722E0A4E4B1E001C01D9225
:1000F000A43AB207E1F710E0C2E6D0E004C02197CD
:10010000FE010E94DD0AC136D107C9F70E94E00551
:100110000C94EC0A0C940000833081F028F48130B8
:1001200099F08230A9F008958730A9F08830C9F09D
:100130008430B1F4809180008F7D03C08091800075
:100140008F7780938000089584B58F7784BD08955C
:1001500084B58F7DFBCF8091B0008F778093B00006
:1001600008958091B0008F7DF9CFCF93DF93282F32
:1001700030E0F901E255FF4F8491F901E656FF4F57
:10018000D491F901EA57FF4FC491CC23A1F081111A
:100190000E948C00EC2FF0E0EE0FFF1FE458FF4FA1
:1001A000A591B491EC91ED2381E090E009F480E019
:1001B000DF91CF91089580E090E0FACF1F93CF9325
:1001C000DF93282F30E0F901E255FF4F8491F901C8
:1001D000E656FF4FD491F901EA57FF4FC491CC2363
:1001E000A9F0162F81110E948C00EC2FF0E0EE0F89
:1001F000FF1FEE58FF4FA591B4918FB7F894EC9183
:10020000111108C0D095DE23DC938FBFDF91CF9111
:100210001F910895DE2BF8CF682F809188020E94ED
:10022000DE008091A0029091A1028230910538F009
:10023000880F991F880F991F05970197F1F7089567
:1002400081E00C940C01CF93DF9390E0FC01E65623
:10025000FF4F24918A579F4FFC0184918823D1F04E
:1002600090E0880F991FFC01E859FF4FA591B491C8
:10027000FC01EE58FF4FC591D49161110EC09FB79C
:10028000F8948C91E22FE0958E238C932881E223C1
:10029000E8839FBFDF91CF9108958FB7F894EC91D9
:1002A000E22BEC938FBFF6CF3FB7F8948091E20139
:1002B0009091E301A091E401B091E50126B5A89BDE
:1002C00005C02F3F19F00196A11DB11D3FBFBA2FE8
:1002D000A92F982F8827BC01CD01620F711D811DA8
:1002E000911D42E0660F771F881F991F4A95D1F72D
:1002F00008958F929F92AF92BF92CF92DF92EF922A
:10030000FF926B017C010E9454014B015C01C114FE
:10031000D104E104F104B9F00E945401681979098B
:100320008A099B09683E73408105910580F321E0AD
:10033000C21AD108E108F10888EE880E83E0981E01
:10034000A11CB11CE4CFFF90EF90DF90CF90BF9045
:10035000AF909F908F900895AF92BF92CF92DF920F
:10036000EF92FF920F931F93CF93DF936C017B016A
:100370008B01040F151FEB015E01AE18BF08C017FB
:10038000D10759F06991D601ED91FC910190F0816E
:10039000E02DC6010995892B79F7C501DF91CF9131
:1003A0001F910F91FF90EF90DF90CF90BF90AF9093
:1003B0000895FC01538D448D252F30E0842F90E06B
:1003C000821B930B541710F0CF9608950197089550
:1003D000FC01918D828D981761F0A28DAE0FBF2F19
:1003E000B11D5D968C91928D9F5F9F73928F90E06F
:1003F00008958FEF9FEF0895FC01918D828D9817DE
:1004000031F0828DE80FF11D858D90E008958FEF1A
:100410009FEF0895FC01918D228D892F90E0805CE3
:100420009F4F821B91098F739927089586EE91E063
:100430000E940A0221E0892B09F420E0822F08950E
:1004400080E090E0892B29F00E94160281110C9423
:1004500000000895FC01A48DA80FB92FB11DA35A67
:10046000BF4F2C91848D90E001968F739927848FD4
:10047000A689B7892C93A089B1898C9183708064F7
:100480008C93938D848D981306C00288F389E02D98
:1004900080818F7D80830895EF92FF920F931F9349
:1004A000CF93DF93EC0181E0888F9B8D8C8D981327
:1004B0001AC0E889F989808185FF15C09FB7F89433
:1004C000EE89FF896083E889F9898081837080647F
:1004D00080839FBF81E090E0DF91CF911F910F91CA
:1004E000FF90EF900895F62E0B8D10E00F5F1F4FD9
:1004F0000F731127E02E8C8D8E110CC00FB607FCE8
:10050000FACFE889F989808185FFF5CFCE010E9475
:100510002A02F1CFEB8DEC0FFD2FF11DE35AFF4FB7
:10052000F0829FB7F8940B8FEA89FB898081806203
:10053000CFCFCF93DF93EC01888D8823B9F0AA89C0
:10054000BB89E889F9898C9185FD03C0808186FD8E
:100550000DC00FB607FCF7CF8C9185FFF2CF8081DD
:1005600085FFEDCFCE010E942A02E9CFDF91CF9126
:1005700008958EBD00000DB407FEFDCF8EB5089521
:10058000FC0101900020E9F73197AF01481B590B9E
:10059000BC0186EE91E00C94AC018F929F92AF92D9
:1005A000BF920F931F93CF93DF93CDB7DEB7A19781
:1005B0000FB6F894DEBF0FBECDBF19A2423008F4CB
:1005C0004AE08E010F5D1F4F842E912CB12CA12C7F
:1005D000A50194010E94AC0AE62FB901CA01EA30D4
:1005E000F4F4E05DD801EE938D01232B242B252B11
:1005F00079F790E080E0109719F0CD010E94C002D9
:10060000A1960FB6F894DEBF0FBECDBFDF91CF919C
:100610001F910F91BF90AF909F908F900895E95CCC
:10062000E1CFCF92DF92EF92FF92CF93DF936B01F6
:100630007C016DE286EE91E00E944C02EC0166279F
:100640007727CB016C197D098E099F094AE00E942A
:10065000CD028C0F9D1FDF91CF91FF90EF90DF9027
:10066000CF9008950F931F9300918A0210918B02EF
:1006700020918C0230918D0240E052E16AE770E0F7
:1006800080E0041715072607370740F4769567952D
:10069000579547958F5F8630A1F787E0982F906A2E
:1006A0009695809581709CBD8DBD80E01F910F91C6
:1006B0000C940C01FF920F931F93CF93DF93C82FDD
:1006C000F62E072F142F0E9432038C2F80620E9477
:1006D000B90280938E02CF2DD02F115020F0899136
:1006E0000E94B902FACFDF91CF911F910F91FF9035
:1006F0000C942001CF93C82F0E9432038C2F0E94AC
:10070000B90280938E028FEF0E94B902C82F0E9417
:1007100020018C2FCF910895CF93C82F0E943203D0
:100720008C2F80620E94B90280938E02CF910C942C
:1007300020010E94320380E50E94B90280938E025C
:1007400083E70E94B9020C942001CF93DF93D82F46
:10075000C62F0E9432038D2F80620E94B9028093BF
:100760008E028C2F0E94B902DF91CF910C94200150
:100770001F920F920FB60F9211242F933F938F93D6
:100780009F93AF93BF938091DE019091DF01A09181
:10079000E001B091E1013091DD0123E0230F2D371D
:1007A00058F50196A11DB11D2093DD018093DE0156
:1007B0009093DF01A093E001B093E1018091E20109
:1007C0009091E301A091E401B091E5010196A11D92
:1007D000B11D8093E2019093E301A093E401B093F3
:1007E000E501BF91AF919F918F913F912F910F9014
:1007F0000FBE0F901F90189526E8230F0296A11D9B
:10080000B11DD2CF1F920F920FB60F9211242F93CA
:100810003F934F935F936F937F938F939F93AF9388
:10082000BF93EF93FF9386EE91E00E942A02FF911F
:10083000EF91BF91AF919F918F917F916F915F9158
:100840004F913F912F910F900FBE0F901F901895D1
:100850001F920F920FB60F9211242F938F939F9395
:10086000EF93FF93E091F601F091F7018081E09121
:10087000FC01F091FD0182FD1BC090818091FF0180
:100880008F5F8F7320910002821741F0E091FF018A
:10089000F0E0EA51FE4F958F8093FF01FF91EF91B9
:1008A0009F918F912F910F900FBE0F901F901895D1
:1008B0008081F4CF1F920F920FB60F9211248F9365
:1008C0000FB6F894A89580916000886180936000CD
:1008D000109260000FBE8F910F900FBE0F901F906F
:1008E00018951F920F920FB60F9211242F933F93DA
:1008F0004F935F936F937F938F939F93AF93BF9328
:10090000CF93EF93FF93C091DC01CC2351F0809102
:100910005101811106C0809100010E94B5008093B1
:100920005001809151018823E1F080914F0191E0C5
:10093000980F90934F01811114C0609152018AE089
:100940000E94DE0060E08CE00E94DE001092510107
:1009500080914D0190914E01019690934E018093AC
:100960004D0180914F01883010F010924F01CC233F
:1009700009F492C08091510181118EC09091500173
:10098000992329F080914C018F5F80934C018091D5
:100990004A0120914B01921709F44AC02BE080359F
:1009A00008F02DE1820F80934A0190934B01209132
:1009B0004A01203A08F470C08091480190914901A1
:1009C00096958795909349018093480130914C0109
:1009D000353028F098609093490180934801205A5F
:1009E00020934A0110924C018091A801882309F4B8
:1009F00082C0809147018F5F809347018C3008F45B
:100A00004BC08091480190914901382F3F73232FAB
:100A100026952695287048E0420F421769F0E22F8C
:100A2000F0E0ED5EFE4F5081351739F02F5FF5CFC6
:100A30008C5E80934A01BBCF20E040E1249F90016F
:100A4000112436E0969587953A95E1F7482F9595CC
:100A5000879595958795887098E0980F981749F035
:100A6000E82FF0E0ED5EFE4F5081451719F08F5FE3
:100A7000F5CF80E0822B9091A40191111FC080934B
:100A800046019CEF980F9D34C8F01092A801809108
:100A900045018F5F80934501FF91EF91CF91BF9109
:100AA000AF919F918F917F916F915F914F913F9106
:100AB0002F910F900FBE0F901F901895E091A401F9
:100AC00091E09E0F9093A401F0E0EC5AFE4F8083DA
:100AD0009091A40180914601981750F01092A801BE
:100AE000809144018F5F8093440181E08093A50150
:100AF00010924701D1CF80914801909149018833EC
:100B00009B4051F681E08093A8011092470110921A
:100B1000A4011092A501C0CFE6EEF1E0138212828B
:100B200088EE93E0A0E0B0E084839583A683B7834A
:100B30008FE291E09183808385EC90E095878487B4
:100B400084EC90E09787868780EC90E0918B808B97
:100B500081EC90E0938B828B82EC90E0958B848B80
:100B600086EC90E0978B868B118E128E138E148EEE
:100B7000E4E8F2E088E090E09383828387E090E00D
:100B80009583848380E896E9A8E9B0E0868397831B
:100B9000A087B18780E28387128A138A85E0858BDC
:100BA00081E0868B85E090E0A0E0B0E0848F958FB7
:100BB000A68FB78F83E892E091838083148608958F
:100BC000CF93DF93CDB7DEB7CA55D1090FB6F894EE
:100BD000DEBF0FBECDBF789484B5826084BD84B57E
:100BE000816084BD85B5826085BD85B5816085BD28
:100BF00080916E00816080936E00109281008091E0
:100C00008100826080938100809181008160809367
:100C10008100809180008160809380008091B1008C
:100C200084608093B1008091B00081608093B000B7
:100C300080917A00846080937A0080917A0082604B
:100C400080937A0080917A00816080937A0080910D
:100C50007A00806880937A001092C10061E083E09E
:100C60000E94230160E083E10E94230160E082E1B1
:100C70000E94230160E081E10E94230160E080E1A5
:100C80000E94230161E084E00E94230161E084E08E
:100C90000E94DE0064EF71E080E090E00E94790144
:100CA00089E08093000181E0809352018EE0E5E0CD
:100CB000F1E0DE01119601900D928A95E1F77E0137
:100CC00023E0E20EF11C11E0812C74E2972E74EF08
:100CD000A72EB12CE0E24E2EEEE45E2E612C712C9C
:100CE000F701219131917F0150E040E0C501B4014D
:100CF0000E94AC0ACA01B901A30192010E94AC0A88
:100D0000223031054105510508F0E2C21F5F17305E
:100D100039F78091DC01811105C081E08093DC010D
:100D20001092A80162E370E080E090E00E947901F7
:100D3000E091F601F091F70182E08083E091F60105
:100D4000F091F7011082E091F201F091F30110822D
:100D5000E091F401F091F50180E180831092FE01B1
:100D6000E091FA01F091FB0186E08083E091F801C7
:100D7000F091F901808180618083E091F801F09128
:100D8000F901808188608083E091F801F091F90198
:100D9000808180688083E091F801F091F901808181
:100DA0008F7D80831FB7F89480915301811127C0F4
:100DB000E0E9F0E08491E4EAF0E09491E82FF0E0DB
:100DC000EE0FFF1FE859FF4FA591B491EC91E92375
:100DD00021F461E08AE00E94DE0061E08AE00E9486
:100DE00023018CB580618CBD8CB580648CBD61E0C5
:100DF0008DE00E94230161E08BE00E94230180913D
:100E000053018F5F809353011FBF809186029091A1
:100E100087028F3F980709F49CC020918802309187
:100E200089022F3F320709F494C08217930741F0DB
:100E300061E00E94230161E0809188020E94230109
:100E400080918602909187022091880230918902D8
:100E50008217930719F060E00E94DE0081E00E9493
:100E60000C0165E070E080E090E00E9479016FE5A0
:100E700084E00E94A50385E590E0A0E0B0E08093C7
:100E80009C0290939D02A0939E02B0939F0267E004
:100E900086E00E94A5038DE10E947A03182F0E942C
:100EA00099038DE10E947A0391E0181390E09093EA
:100EB0009602882341F0181302C00E94990360E053
:100EC0008DE10E94A5031092980260E08CE10E94DF
:100ED000A50310929A026FE381E00E94A50363E0EC
:100EE00082E00E94A50380E280938F0211E160916D
:100EF0008F02812F0E94A5031F5F1731C1F763E0A6
:100F000083E00E94A50385E0809399026CE40E942F
:100F1000A50360E787E00E94A50382EE0E948C0390
:100F200081EE0E948C036CE080E00E94A50380E0CB
:100F30000E947A038093950281FD0BC0682F626046
:100F40006093950280E00E94A5038BE19EE40197E7
:100F5000F1F786E00E947A03887F682F656086E05B
:100F60000E94A5036CE685E00E94A50363E284E08D
:100F70000E94A5036FE381E00E94A50381EE6296C3
:100F80008FAF629763961FAE639764961FAE6497A8
:100F900065961FAE659766961FAE669767961FAEFD
:100FA000679768961FAE689769961FAE69974091DC
:100FB0009902BE016F5A7F4F8AE00E945A03409106
:100FC0009902BE016F5A7F4F80E10E945A0343E2AB
:100FD000242E312C54E0452E512C612C712C809103
:100FE000A501882309F4ACC08091A401835090919D
:100FF000A601891710F48093A6014091A60150E044
:1010000065E571E0CE0101960E94E30A1092A50108
:101010002091A401E4E5F1E08FEF9FEF215098F0DB
:1010200031918327082E8295807F8025092E982F65
:1010300082958F700826869598278927880F880FB4
:10104000880F8025EBCF883B904F09F079C0109234
:10105000DC010E9454014B015C0160E083E00E94CE
:10106000DE008FE090E00197F1F761E083E00E94FD
:10107000DE00C1010197F1F760E083E00E94DE002D
:10108000C1010197F1F780E10E94B500892BD9F3E6
:1010900081E08093D6010E9454010E945401609324
:1010A000A9017093AA018093AB019093AC011092B7
:1010B000D5016A961FAE6A97F1E06B96FFAF6B970A
:1010C0000E9454010091A9011091AA012091AB0145
:1010D0003091AC01601771078207930750F46801E3
:1010E0007901C094D094E094F0946C0D7D1D8E1D18
:1010F0009F1D601B710B820B930B6033754781053D
:10110000910558F11092A9011092AA011092AB0119
:101110001092AC016B969FAD6B97911108C082E461
:1011200091E00E94C0028FE391E00E94C002809192
:10113000DC01811105C081E08093DC011092A801DF
:10114000E0E0F0E0EF2B09F44ACF0E94160288237A
:1011500009F445CF0E94000042CF6A968FAD6A978E
:101160008111D8CF33E2E32E31E0F32ED12CF701F9
:101170008081F2E0EF0EF11C0E94B5000097C1F4EF
:10118000C090D5010C2D10E0E1EDF1E08017910742
:101190000CF0C7C021912817190651F00196F6CF1F
:1011A00081E08C0D8093D501F801EF52FE4FD08283
:1011B000D39484E0D812DBCF83CFF12C86E0E82EE5
:1011C000E1C0FA94FFEFFF1621F080E00E94B9021F
:1011D000F8CF0E9420018091860290918702209191
:1011E0008802309189028217930719F061E00E940A
:1011F000DE008FB7F894C090DE01D090DF01E09060
:10120000E001F090E1018FBF8FEF0E948C0380918D
:101210008E028073F9F42FB7F8948091DE019091DB
:10122000DF01A091E001B091E1012FBF8C199D0970
:10123000AE09BF0980369105A105B10528F321E06B
:1012400020939B026B961FAE6B9721E06A962FAF9F
:101250006A9736CF8091860290918702209188020A
:10126000309189028217930719F060E00E94DE0036
:1012700060E787E00E94A50380918E0284FD20C074
:101280004AE061E070E080E090E00E94CD028DE3F2
:1012900091E00E94C0026091D7017091D8018091C5
:1012A000D9019091DA0197FF0FC00E9411038FE3DB
:1012B00091E00E94C00241E06A964FAF6A97FCCE6F
:1012C00081EE0E948C03BECF4AE00E94CD02EFCF98
:1012D000163009F41ECD1092800088E080938100C2
:1012E00080918100182B1093810030938900209306
:1012F000880080916F00826080936F0061E08CE0D5
:101300000E94230160E0809100010E94230161E0BE
:101310008AE00E942301609152018AE00E94DE006F
:10132000F8CC0E945401DC01CB0188199909AA0963
:10133000BB098093D7019093D801A093D901B093B2
:10134000DA018C329140A105B1050CF429CFD0927D
:10135000DB010E94220AA30192010E947A0A660F11
:10136000771F881F991F0E94790180919A0281112D
:1013700024CF80918F02E82E873010F096E0E92E7E
:10138000F82EFE180E94320380EA0E94B902809370
:101390008E0206ED11E0EA942FEFE21609F411CF68
:1013A000F80181918F010E94B902F5CF8F929F922F
:1013B000AF92BF92CF92DF92EF92FF92CF93DF93E3
:1013C000EC01688179818A819B81611571058105B4
:1013D000910521F464E279ED8BE597E02DE133EF9F
:1013E00041E050E00E947A0A49015A019B01AC0198
:1013F000A7EAB1E40E94990A6B017C01ACEEB4EF5C
:10140000A50194010E94A70AC60ED71EE81EF91E68
:10141000F7FE06C081E0C81AD108E10880E8F80AA2
:10142000C882D982EA82FB82C701B6019F77DF9129
:10143000CF91FF90EF90DF90CF90BF90AF909F90B3
:101440008F9008958F929F92AF92BF92CF92DF922A
:10145000EF92FF926091010170910201809103016E
:1014600090910401611571058105910521F464E2F3
:1014700079ED8BE597E02DE133EF41E050E00E94FC
:101480007A0A49015A019B01AC01A7EAB1E40E9422
:10149000990A6B017C01ACEEB4EFA50194010E94A6
:1014A000A70AC60ED71EE81EF91EF7FE06C081E089
:1014B000C81AD108E10880E8F80AC0920101D09268
:1014C0000201E0920301F0920401C701B6019F7787
:1014D000FF90EF90DF90CF90BF90AF909F908F9054
:1014E000089560930101709302018093030190932A
:1014F00004010895052E97FB1EF400940E94910AA2
:1015000057FD07D00E94AC0A07FC03D04EF40C94A0
:10151000910A50954095309521953F4F4F4F5F4F21
:10152000089590958095709561957F4F8F4F9F4F4F
:1015300008950E94CE0AA59F900DB49F900DA49F80
:10154000800D911D11240895B7FF0C94990A0E94F3
:10155000990A821B930B0895A1E21A2EAA1BBB1BAA
:10156000FD010DC0AA1FBB1FEE1FFF1FA217B3076F
:10157000E407F50720F0A21BB30BE40BF50B661F85
:10158000771F881F991F1A9469F760957095809549
:1015900090959B01AC01BD01CF010895A29FB001C0
:1015A000B39FC001A39F700D811D1124911DB29F97
:1015B000700D811D1124911D0895EE0FFF1F0590E0
:1015C000F491E02D0994FB01DC0102C001900D9221
:0C15D00041505040D8F70895F894FFCF28
:1015DC000B010000000000010008004000000100A9
:1015EC0004050D0D0E131516191A1C232526292A70
:1015FC002C32341300120011001000000000004CBB
:10160C0002AC01D90199020A02E801FC012C000D7F
:04161C000A002E0092
:00000001FF
