:100000001EC100004DC100004BC1000049C10000ED
:1000100047C1000045C1000043C1000041C10000CC
:100020003FC100003DC100003BC1000039C10000DC
:1000300037C100000C941E0A33C1000031C100001A
:100040002FC1000059C600002BC1000029C10000CB
:1000500027C1000025C1000023C1000003C6000025
:100060001FC100002EC4000003C4000019C100001D
:1000700017C1000015C1000013C1000011C100002C
:100080000FC100000DC100000BC1000009C100003C
:10009000C6C300009BC3000003C1000001C10000F3
:1000A000FFC00000FDC00000FBC00000F9C0000060
:1000B000F7C00000F5C00000F3C00000F1C0000070
:1000C000EFC00000EDC00000EBC00000E9C0000080
:1000D000E7C00000E5C00000E3C00000E1C0000090
:1000E000DFC000008F029202810285028B02C902EA
:1000F00096029A02A002A402A802AE02B202B602BE
:10010000C902BC02C002C402000021002400270072
:100110002A002D0030003300010100000401070116
:100120000A01010210202008081020401020408001
:1001300002010201080402010102040810204080AB
:100140008040201008040201800402018040201039
:100150000804020108040201010204081020408082
:100160000102040810204080050505050705080860
:100170000808020202020A0A080804040404010131
:100180000101010101010303030303030303040746
:1001900007070C0C0C0C0C0C0C0C020202020606DD
:1001A0000606060606060B0B0B0B0B0B0B0B0001D2
:1001B000020304051112131415160A0B0C0D0E0F71
:1001C00000002200250028002B002E003100340002
:1001D00002010000050108010B01000020002300BE
:1001E000260029002C002F0032000001000003012E
:1001F0000601090100000A0B02090C0D0E08070395
:1002000004010000000000000000000000000000E9
:1002100000000000000000000000000000000000DE
:10022000121110000000000000000000000000009B
:1002300000000000000000000000521613161124F8
:100240001FBECFEFD1E2DEBFCDBF00E00CBF13E099
:10025000A0E0B2E0E6E3FBE300E00BBF02C00790E2
:100260000D92AA3BB107D9F727E0AAEBB3E001C092
:100270001D92AB37B207E1F711E0CEE1D1E000E02B
:1002800006C021970109802FFE010E947E1CCD31FE
:10029000D10780E00807A9F70E94CA0C0C948A1DB8
:1002A000AFCEFC01A089B1898C91A689B78982FD66
:1002B0000FC09C91818D8F5F8F73228D821749F0C3
:1002C000218DDF01A20FB11D5D969C93818F089552
:1002D0008C910895FC01538D448D252F30E0842F9F
:1002E00090E0821B930B541710F0CF96089501975E
:1002F0000895FC01918D828D981761F0828DDF0148
:10030000A80FB11D5D968C91928D9F5F9F73928F08
:1003100090E008958FEF9FEF0895FC01918D828DFD
:10032000981731F0828DE80FF11D858D90E00895CA
:100330008FEF9FEF0895FC01918D228D892F90E022
:10034000805C9F4F821B91098F73992708958AECD7
:1003500094E0F1DF21E0892B09F420E0822F089559
:100360008DE294E0E8DF21E0892B09F420E0822F80
:100370000895FC01848DDF01A80FB11DA35ABF4F62
:100380002C91848D90E001968F739927848FA68994
:10039000B7892C93A089B1898C9180648C93938DBB
:1003A000848D981306C00288F389E02D80818F7DAB
:1003B00080830895EF92FF920F931F93CF93DF9363
:1003C000EC0181E0888F9B8D8C8D981305C0E889A6
:1003D000F989808185FD23C0F62E0B8D10E00F5F1B
:1003E0001F4F0F731127E02E8C8DE8120BC00FB634
:1003F00007FCFACFE889F989808185FFF5CFCE0126
:10040000B8DFF2CF8B8DFE01E80FF11DE35AFF4FED
:10041000F0820B8FEA89FB898081806207C0EE89B8
:10042000FF896083E889F98980818064808381E025
:1004300090E0DF91CF911F910F91FF90EF90089581
:10044000CF93DF93EC01888D8823C1F0EA89FB8983
:10045000808185FD05C0A889B9898C9186FD0EC073
:100460000FB607FCF5CF808185FFF2CFA889B98947
:100470008C9185FFEDCFCE017CDFE8CFDF91CF916E
:10048000089580E090E0892B19F06ADF811120C087
:1004900080E090E0892B19F05ADF81111CC080E0C8
:1004A00090E0892B41F080E090E0892B21F00E94C0
:1004B0000000811113C080E090E0892BA1F080E062
:1004C00090E0892B81F00E94000081110AC00895FC
:1004D0000E940000DDCF0E940000E1CF0E940000DA
:1004E000EACF0C940000089590E0FC013197E231CE
:1004F000F10508F04EC08827EE58FF4F8F4F0C943F
:100500007E1C809180008F7703C0809180008F7D5A
:1005100080938000089580918000877FF9CF84B513
:100520008F7702C084B58F7D84BD08958091B0001F
:100530008F7703C08091B0008F7D8093B0000895C5
:10054000809190008F7707C0809190008F7D03C0CD
:1005500080919000877F8093900008958091A00003
:100560008F7707C08091A0008F7D03C08091A0008D
:10057000877F8093A0000895809120018F7707C026
:10058000809120018F7D03C080912001877F80931F
:10059000200108953FB7F8948091290490912A048E
:1005A000A0912B04B0912C0426B5A89B05C02F3F29
:1005B00019F00196A11DB11D3FBFBA2FA92F982F89
:1005C0008827820F911DA11DB11DBC01CD0142E004
:1005D000660F771F881F991F4A95D1F708950895D0
:1005E00080E090E008950E94761D0F931F93CF93B3
:1005F000DF938C01C0E0D0E0F801868197812081F3
:100600003181C817D90770F4AE01440F551FF901A5
:10061000E40FF51F80819181009711F00E94AA19C3
:100620002196EACF2115310539F0C901DF91CF912B
:100630001F910F910C94AA19DF91CF911F910F91E7
:1006400008952F923F924F925F926F927F928F9276
:100650009F92AF92BF92CF92DF92EF92FF920F9351
:100660001F93CF93DF93EC018B017A0139017B83D8
:100670006A837F836E835D834C835987488781E0DB
:1006800090E09B878A8761388FE3780720F4CB015D
:10069000880F991F02C08FEF9FEF0E941519998351
:1006A00088832701440C551C440C551C5301C12C54
:1006B000D12CC016D10661F11601220C331C8880A2
:1006C0009980820C931CA1ECEA16AFE1FA0610F4B3
:1006D000C20102C08FEF9FEF0E941519F4019183B0
:1006E00080836114710469F088819981FC01E20DB5
:1006F000F31DD5016D917C91A201808191810E94B1
:100700007A1DBFEFCB1ADB0AE2E0AE0EB11CD1CFEF
:10071000672819F580E090E080179107F1F0BC019F
:10072000660F771F40E050E020E030E02E153F05D7
:1007300091F0E881F981E60FF71F0190F081E02D3B
:10074000E40FF51F10821182128213822F5F3F4F38
:100750004C5F5F4FEBCF0196DFCFDF91CF911F91C1
:100760000F91FF90EF90DF90CF90BF90AF909F9050
:100770008F907F906F905F904F903F902F90089553
:10078000EF92FF920F931F93CF93DF938C01FC01A5
:10079000C081D1812A853B85215031093B872A8739
:1007A0008CE090E00E9415197C01288139814C81F0
:1007B0005D816A817B8145DFF801F182E082DF9112
:1007C000CF911F910F91FF90EF9008951F920F927C
:1007D0000FB60F9211240BB60F922F933F934F93A6
:1007E0005F936F937F938F939F93AF93BF93EF9399
:1007F000FF938AEC94E0BDDDFF91EF91BF91AF9143
:100800009F918F917F916F915F914F913F912F9128
:100810000F900BBE0F900FBE0F901F9018951F9258
:100820000F920FB60F9211240BB60F922F933F9396
:100830004F935F936F937F938F939F93AF93BF93E8
:10084000EF93FF938AEC94E02CDDFF91EF91BF9141
:10085000AF919F918F917F916F915F914F913F9158
:100860002F910F900BBE0F900FBE0F901F901895F9
:100870001F920F920FB60F9211240BB60F922F9367
:100880003F934F935F936F937F938F939F93AF9318
:10089000BF93EF93FF938DE294E06BDDFF91EF91B7
:1008A000BF91AF919F918F917F916F915F914F9188
:1008B0003F912F910F900BBE0F900FBE0F901F9086
:1008C00018951F920F920FB60F9211240BB60F922C
:1008D0002F933F934F935F936F937F938F939F9348
:1008E000AF93BF93EF93FF938DE294E0DADCFF9137
:1008F000EF91BF91AF919F918F917F916F915F9198
:100900004F913F912F910F900BBE0F900FBE0F9004
:100910001F901895CF93DF93282F30E0F901EC500A
:10092000FE4F8491F901EE5DFE4FD491F901E85933
:10093000FE4FC491CC2389F08111D6DDEC2FF0E07D
:10094000EE0FFF1FE652FE4FA591B491EC91ED23FF
:1009500081E090E021F480E002C080E090E0DF914F
:10096000CF9108951F93CF93DF93282F30E0F901A3
:10097000EC50FE4F8491F901EE5DFE4FD491F901E8
:10098000E859FE4FC491CC23C1F0162F8111ACDD84
:10099000EC2FF0E0EE0FFF1FE054FE4FA591B49155
:1009A0008FB7F894111105C09C91ED2FE095E923C4
:1009B00002C0EC91ED2BEC938FBFDF91CF911F9193
:1009C0000895CF93DF9390E0FC01EE5DFE4F2491FC
:1009D000FC01E859FE4F8491882361F190E0880F73
:1009E000991FFC01E85FFE4FC591D491FC01E054D2
:1009F000FE4FA591B491611109C09FB7F894888109
:100A0000209582238883EC912E230BC0623061F401
:100A10009FB7F8943881822F809583238883EC9147
:100A20002E2B2C939FBF06C08FB7F894E8812E2BF6
:100A300028838FBFDF91CF9108958F929F92AF92BD
:100A4000BF92CF92DF92EF92FF926B017C01A2DD09
:100A50004B015C01C114D104E104F104E9F09ADD19
:100A6000DC01CB0188199909AA09BB09883E93408A
:100A7000A105B10578F321E0C21AD108E108F10817
:100A800088EE880E83E0981EA11CB11CC114D1040D
:100A9000E104F10421F7DECFFF90EF90DF90CF90DB
:100AA000BF90AF909F908F9008952FB7F89460916A
:100AB00025047091260480912704909128042FBF6B
:100AC00008953F924F925F926F927F928F929F9282
:100AD000AF92BF92CF92DF92EF92FF920F931F934C
:100AE000CF93DF938C015B0155DD6B017C01DDDF72
:100AF00026E0209FF001219FF00D1124EF01A114A9
:100B0000B10429F4CB53DD4FE754FD4F04C0C75463
:100B1000DD4FEB53FD4F2581223031F4C082D1826D
:100B2000E282F38221E025833D8044244394341003
:100B300087C0488059806A807B80A701960124196C
:100B400035094609570929013A0131E643163AEEBB
:100B50005306610471040CF46AC02CE02A9DD00194
:100B60002B9DB00D112455E2509F9001519F300DE7
:100B70001124A20FB31FA454BC4F8D909D90AD9033
:100B8000BC9013974FEF841A940AA40AB40A8D926A
:100B90009D92AD92BC92139714968D909D90AD90BE
:100BA000BC9017972B013C01481859086A087B082C
:100BB00018964D925D926D927C921B9714966D9350
:100BC0007D938D939C931797D901A454BC4F58964D
:100BD0000D911D912D913C915B970F5F1F4F2F4FF2
:100BE0003F4F58960D931D932D933C935B975C96C6
:100BF0000D911D912D913C915F973B014C01601A25
:100C0000710A820A930A91966D927D928D929C92BE
:100C100094975C966D937D938D939C935F9782E000
:100C20008D83C082D182E282F382358209C020EABC
:100C300042162FE052066104710414F482E08D83A1
:100C4000DF91CF911F910F91FF90EF90DF90CF90A8
:100C5000BF90AF909F908F907F906F905F904F90DC
:100C60003F9008951F920F920FB60F9211242F9369
:100C70003F938F939F93AF93BF938091250490915F
:100C80002604A0912704B09128043091240423E085
:100C9000230F2D3720F40196A11DB11D05C026E8B4
:100CA000230F0296A11DB11D2093240480932504D7
:100CB00090932604A0932704B093280480912904DC
:100CC00090912A04A0912B04B0912C040196A11DAF
:100CD000B11D8093290490932A04A0932B04B09310
:100CE0002C04BF91AF919F918F913F912F910F90C5
:100CF0000FBE0F901F9018951F920F920FB60F9274
:100D000011240BB60F922F933F934F935F936F93E2
:100D10007F938F939F93AF93BF93EF93FF938091B4
:100D20000904882301F18091060491E0980F9093C3
:100D30000604811118C0E091080480910A04E817A4
:100D4000C8F060E08AE00EDE60E0809100020ADE1A
:100D500010920904809122049091230401969093AB
:100D600023048093220480910604883018F11092A5
:100D7000060420C0F0E0EF5FFD4F908180910704F2
:100D800021E0280F2093070461E070E001C0660FA6
:100D90008A95EAF7692380910002E4DD80910704D7
:100DA000863008F310920704809108048F5F8093C7
:100DB0000804D9CFFF91EF91BF91AF919F918F918F
:100DC0007F916F915F914F913F912F910F900BBE4B
:100DD0000F900FBE0F901F9018958627082E8295B2
:100DE000807F8025092E982F82958F700826869502
:100DF00098278927880F880F880F802508958EBD32
:100E000000000DB407FEFDCF8EB508954F925F929E
:100E10006F927F928F929F92AF92BF92CF92DF920A
:100E2000EF92FF920F931F93CF93DF9300D01F9207
:100E3000CDB7DEB74C01270138010C8D1D8DDC01CB
:100E40005D965C934E935C975B967C936E935A97FA
:100E50005F963C932E935E97DC961C92FC0114AA3D
:100E600015AA16AA17AA80E090E0AFE7B3E480AF16
:100E700091AFA2AFB3AF84E690E0A0E0B0E080AB6A
:100E800091ABA2ABB3AB118F008F20E030E0A90192
:100E9000C301B2010E94421A87FD7AC020E030E00F
:100EA000A901C601B5010E94421A87FD71C020E068
:100EB00030E0A901688D798D8A8D9B8D0E94421A40
:100EC00087FD66C0D4014D925D926D927C9213971E
:100ED000F401A482B582C682D782888D998DAA8DAD
:100EE000BB8D80879187A287B387448655866686A7
:100EF00077862DEC3CEC4CEC5DE3C601B5010E941D
:100F0000A71A69837A838B839C83F401608B718B2E
:100F1000828B938B2DEC3CEC4CEC5DE3688D798DF2
:100F20008A8D9B8D0E94C01B6B017C01D40154965D
:100F30006D937D938D939C9357970130110541F5E7
:100F4000A301920160E070E0CB010E945B1BF40101
:100F5000648775878687978729813A814B815C8171
:100F600060E070E0CB010E945B1BD40150966D9352
:100F70007D938D939C935397A701960160E070E059
:100F8000CB010E945B1BF401648B758B868B978B66
:100F90008CDDD401D0960D911D912D913C91D3976C
:100FA000DC01CB01801B910BA20BB30BF40180A3DE
:100FB00091A3A2A3B3A30F900F900F900F90DF9176
:100FC000CF911F910F91FF90EF90DF90CF90BF9046
:100FD000AF909F908F907F906F905F904F9008950B
:100FE0002F923F924F925F926F927F928F929F9239
:100FF000AF92BF92CF92DF92EF92FF920F931F9327
:10100000CF93DF9300D01F92CDB7DEB79C838B8345
:101010005A834983DB01ED91FC91DC011196FC932D
:10102000EE9382859385019693878287029714F0C9
:10103000CD01A6DBEB81FC8180809180D4011296EA
:101040004D905C90139700E010E004151505A1F198
:10105000D40114962D903C9015973801660C771C9E
:10106000A12CB12CC12CD12CC214D30411F1D40168
:10107000ED91FC91E60DF71DE080F180EA0CFB1C80
:10108000E981FA812081318142815381D7016D91BB
:101090007D918D919C910E94A71AF70160837183C5
:1010A00082839383FFEFCF1ADF0A84E0A80EB11C7E
:1010B000DBCF0F5F1F4FC9CF8B819C810F900F90AB
:1010C0000F900F90DF91CF911F910F91FF90EF90B4
:1010D000DF90CF90BF90AF909F908F907F906F9058
:1010E0005F904F903F902F900895EF92FF920F9353
:1010F0001F93CF93DF938C017B01DB01ED91FC917A
:1011000082859385019693878287F801C081D1817A
:101110002A853B85215031093B872A87232B39F4C7
:10112000209729F0CE0161DACE010E94AA19D701D9
:101130008D919C91F80191838083C801DF91CF91BB
:101140001F910F91FF90EF900895EF92FF920F93F0
:101150001F93CF93DF937C01EB018A01DC01ED91BA
:10116000FC91828193816817790728F484819581A5
:101170004817590720F081E090E00E948A1D82857F
:101180009385029714F0C701FBDAD701ED91FC912A
:10119000CC0FDD1F60817181C60FD71F000F111F9B
:1011A000000F111F88819981800F911FDF91CF91CE
:1011B0001F910F91FF90EF900895CF93DF93FC0163
:1011C000C081D1818A859B8501979B878A87892BDE
:1011D00049F4209739F0CE0108DACE01DF91CF91A2
:1011E0000C94AA19DF91CF910895EF92FF920F937B
:1011F0001F93CF93DF9300D01F92CDB7DEB78C0142
:101200008CE090E04B835C8369837A830E9415199C
:101210007C0120E030E04B815C8169817A8111DAC8
:10122000F801F182E0820F900F900F900F90DF9104
:10123000CF911F910F91FF90EF9008950F931F93FF
:10124000CF93DF93EC018A0141E050E062E070E06F
:10125000CCDFB801CE0149DFCE01DF91CF911F91E4
:101260000F9108958F929F92AF92BF92CF92DF928B
:10127000EF92FF920F931F93CF93DF93EC017A01CC
:10128000FB016281738141E050E0AFDF00E010E0DC
:1012900040E050E0B801CE0158DF6C0140E050E082
:1012A000B801C70152DFFC0180809180A280B38029
:1012B000B8016E5F7F4F40E050E0C70146DFFC01A0
:1012C0002081318142815381C501B4010E945C1BA0
:1012D000F60160837183828393830130110519F0D5
:1012E00001E010E0D5CF40E050E062E070E0CE01D8
:1012F0002CDF8C0140E050E062E070E0C70125DFA8
:10130000FC0180819181A281B381F8018083918366
:10131000A283B38340E050E063E070E0CE0115DFCC
:101320008C0140E050E063E070E0C7010EDFFC019B
:1013300080819181A281B381F80180839183A2830E
:10134000B383CE01DF91CF911F910F91FF90EF906A
:10135000DF90CF90BF90AF909F908F9008950F93A4
:101360001F93CF93DF93EC018A0141E050E061E0ED
:1013700070E03BDFB801CE01B8DECE01DF91CF9146
:101380001F910F9108958F929F92AF92BF92EF920B
:10139000FF920F931F93CF93DF93EC018A01FB0120
:1013A0006281738141E050E020DF40E050E060E086
:1013B00070E0CE01CADE7C0140E050E060E070E009
:1013C000C801C3DEFC0180809180A280B38040E030
:1013D00050E061E070E0C801B8DEFC01208131819D
:1013E00042815381C501B4010E945C1BF7016083F7
:1013F00071838283938340E050E061E070E0CE012E
:10140000A4DE7C0140E050E061E070E0C8019DDEB8
:10141000FC0180819181A281B381F7018083918356
:10142000A283B383CE01DF91CF911F910F91FF90E3
:10143000EF90BF90AF909F908F9008951F920F9262
:101440000FB60F9211240BB60F920F931F932F9389
:101450003F934F935F936F937F938F939F93AF933C
:10146000BF93CF93DF93EF93FF9380911C049091F0
:101470001D04A0911E04B0911F04AC01BD014F5F7B
:101480005F4F6F4F7F4F40931C0450931D04609338
:101490001E0470931F044597A105B1050CF46BC0A1
:1014A000CCEBD3E002DB0C811D812E813F81DC017E
:1014B000CB01801B910BA20BB30B088519852A85E4
:1014C0003B85081719072A073B0724F48887998763
:1014D000AA87BB87EADA088919892A893B89DC014E
:1014E000CB01801B910BA20BB30B0C891D892E899C
:1014F0003F89081719072A073B0724F48C8B9D8B1B
:10150000AE8BBF8BA59684E0C630D80759F683E032
:1015100001DA80931B04C82F880FDD0B809119041A
:1015200090911A04C817D90741F0BE0181E090E0FC
:10153000C8DAD0931A04C093190484E1EBD98093DC
:101540001804C82F880FDD0B8091160490911704A2
:10155000C817D90741F0BE0180E090E0B2DAD0931D
:101560001704C093160410921C0410921D041092CC
:101570001E0410921F04FF91EF91DF91CF91BF9154
:10158000AF919F918F917F916F915F914F913F911B
:101590002F911F910F910F900BBE0F900FBE0F90C8
:1015A0001F901895CF93DF93EC018CE193E0998322
:1015B000888346E050E066E070E0CE01069615DED6
:1015C00046E050E066E070E0CE0108960EDE46E0B0
:1015D00050E066E070E0CE010A96DF91CF9105CE33
:1015E000CF92DF92EF92FF920F931F93CF93DF93EF
:1015F0006C017A018B01C0E0D0E0CE15DF0589F0E7
:10160000D8016D918D01D601ED91FC910190F08191
:10161000E02DC6011995892B11F47E0102C0219697
:10162000ECCFC701DF91CF911F910F91FF90EF9009
:10163000DF90CF900895009761F0FC0101900020A9
:10164000E9F73197AF01481B590BBC018DE294E0DB
:10165000C7CF80E090E008958F929F92AF92BF92A3
:101660000F931F93CF93DF93CDB7DEB7A1970FB63C
:10167000F894DEBF0FBECDBF19A2423008F44AE095
:101680008E010F5D1F4F842E912CA12CB12CA50132
:1016900094010E945C1CE62FB901CA010150110996
:1016A000EA3014F4E05D01C0E95CD801EC93232B2F
:1016B000242B252B61F7C801BEDFA1960FB6F89445
:1016C000DEBF0FBECDBFDF91CF911F910F91BF90B5
:1016D000AF909F908F900895E0912D04F0912E048B
:1016E0000190F081E02D682F8DE294E01994CF9263
:1016F000DF92EF92FF92CF93DF936C01990FEE0888
:10170000FF08F7FE10C08DE2E7DFEC0166277727C0
:10171000CB016C197D098E099F094AE09DDF7C0190
:10172000EC0EFD1E05C04AE0C701B60195DF7C0145
:1017300084EA93E080DF8E0D9F1DDF91CF91FF90B3
:10174000EF90DF90CF9008959CB59F7D9CBD9CB598
:10175000937F9CBD9CB59C7F9CBD9DB59E7F9DBD90
:10176000682F80915007FEC8CF9380E090E0ECDFB7
:1017700082EE45DBC82F81E090E0E6DF8C2FCF9131
:101780000895CF9380E090E0DFDF81EE38DBC82F53
:1017900081E090E0D9DF8C2FCF910895CF93C82FAF
:1017A00080E090E0D1DF8C2F8F7129DB8FEF27DB7A
:1017B000C82F81E090E0C8DF8C2FCF9108951F9350
:1017C000CF93DF931F92CDB7DEB7182F80E090E064
:1017D0006983BADF812F8F71806211DB182F6981D5
:1017E000862F0DDB81E090E0AFDF812F0F90DF913E
:1017F000CF911F910895EF92FF920F931F93CF9374
:10180000DF931F921F92CDB7DEB7082F162F80E00F
:1018100090E049837A8398DF802F8F718062EFDABE
:10182000082FE12E7A81F72E4981140F1E1529F019
:10183000F70181917F01E3DAF9CF81E090E084DF65
:10184000802F0F900F90DF91CF911F910F91FF90FC
:10185000EF900895CF93DF93CDB7DEB7A8970FB67B
:10186000F894DEBF0FBECDBF84E1FE01BE96DE015F
:10187000119601900D928A95E1F786E190E00E9421
:10188000151924E1FE013196DE01559601900D9265
:101890002A95E1F724E1FE017596DC01129601908C
:1018A0000D922A95E1F7DC011D921C92E0916F07E1
:1018B000F0917007309729F49093700780936F0729
:1018C0000CC0DC01ED93FC939093700780936F073D
:1018D0000190F081E02D3097D9F780916D079091BC
:1018E0006E07019690936E0780936D07A8960FB6CA
:1018F000F894DEBF0FBECDBFDF91CF9108958F92D8
:101900009F92AF92BF92CF92DF92EF92FF92CF93CE
:10191000DF93EC018CAD811130C0EC8DFD8DC0806A
:10192000D180E280F380CCA2DDA2EEA2FFA2EA8DFC
:10193000FB8D80819181A281B38188A799A7AAA7F5
:10194000BBA788AC99ACAAACBBACA5019401C701FC
:10195000B6010E94541C181664F08CA89DA8AEA86D
:10196000BFA8A5019401C701B6010E94421A87FFD2
:1019700004C08CA29DA2AEA2BFA281E08CAFDF9179
:10198000CF91FF90EF90DF90CF90BF90AF909F905E
:101990008F900895CF93DF93CDB7DEB7C75BD109A2
:1019A0000FB6F894DEBF0FBECDBF789484B58260C9
:1019B00084BD84B5816084BD85B5826085BD85B5F3
:1019C000816085BD80916E00816080936E00109271
:1019D00081008091810082608093810080918100EC
:1019E000816080938100809180008160809380007D
:1019F0008091B10084608093B1008091B0008160DB
:101A00008093B000809191008260809391008091DA
:101A1000910081608093910080919000816080931B
:101A200090008091A10082608093A1008091A1002C
:101A300081608093A1008091A00081608093A000CC
:101A40008091210182608093210180912101816038
:101A500080932101809120018160809320018091F9
:101A60007A00846080937A0080917A00826080930B
:101A70007A0080917A00816080937A0080917A0068
:101A8000806880937A001092C10069EA262E66E091
:101A9000362E2CEF32E0CD54DF4F39832883C35BE1
:101AA000D0404AEF52E0CB54DF4F59834883C55BA7
:101AB000D04005EC16E0C10122DFD80154966D91AB
:101AC0007D918D919C9157970E94461A9B01AC0184
:101AD00060E070E086E193E40E94C01B6B017C0132
:101AE0009B01AC01F10160897189828993890E940F
:101AF000A71AD10150966D937D938D939C93539724
:101B0000A701960154966D917D918D919C91579767
:101B10000E94C01BF101648B758B868B978B26E925
:101B200030E040E050E0D80154962D933D934D9322
:101B30005C935797CD54DF4FE881F981C35BD04068
:101B40006191CD54DF4FF983E883C35BD04070E0EF
:101B500080E090E00E94461A4B015C01CB54DF4FBD
:101B6000A881B981C55BD0406D91CB54DF4FB9835B
:101B7000A883C55BD04070E080E090E00E94461AE8
:101B80006B017C01A50194010E94541C87FF67C072
:101B9000F801C08ED18EE28EF38ED801848E958EA0
:101BA000A68EB78EF10184AD882309F458C02D911B
:101BB0003C91CF54DF4F39832883C15BD040D9019A
:101BC0004D905D906D907C90A5019401C301B20190
:101BD0000E94541C18165CF4CF54DF4FE881F98141
:101BE000C15BD04080829182A282B38213C0A701E0
:101BF0009601C301B2010E94421A87FF0BC0CF5465
:101C0000DF4FA881B981C15BD040CD92DD92ED92CA
:101C1000FC921397F80180849184A284B384C48CCD
:101C2000D58CE68CF78CA7019601C501B4010E9402
:101C3000541C18166CF0F801C08CD18CE28CF38C1B
:101C4000A7019601C501B4010E94421A87FF07C08F
:101C5000D8011896CD92DD92ED92FC921B97BDE3D0
:101C60002B0E311C035C1F4FE3E22E16E7E03E060D
:101C700009F021CF80E090E0A8E8B1E480930C0463
:101C800090930D04A0930E04B0930F0480939106DB
:101C900090939206A0939306B0939406109299069F
:101CA00010929A0610929B0610929C061092A10622
:101CB0001092A2061092A3061092A406809310041C
:101CC00090931104A0931204B0931304809395068B
:101CD00090939606A0939706B093980610929D064F
:101CE00010929E0610929F061092A0061092A506D2
:101CF0001092A6061092A7061092A80661E08DE049
:101D00000E94E10460E083E00E94E10460E084E17D
:101D10000E94E1041092C0031092C1031092C2030A
:101D20001092C3031092C4031092C5031092C6030D
:101D30001092C7031092BC031092BD031092BE0311
:101D40001092BF0381E280933F071FEF109340077B
:101D500010924207109241078091BA039091BB0301
:101D6000909346078093450760E081E20E94B204A9
:101D700061E080913F070E94E10480E28093470781
:101D80001093480710924A07109249078FE397E093
:101D900090934E0780934D0787E497E09093BB03A1
:101DA0008093BA0360E080E20E94B20461E0809117
:101DB00047070E94E10452EFE52E52E0F52E00E1C4
:101DC00013E061E0D8018D918D010E94E10460E093
:101DD000F70181917F010E94E104F3E008311F07C0
:101DE00081F760E085E20E94E10460E084E20E9405
:101DF000E10460E083E20E94E10460E083E00E948D
:101E0000E10460E082E00E94E10461E085E00E947C
:101E1000E10460E084E00E94E104E0913D04F0917F
:101E20003E0422E02083E0913D04F0913E041082C4
:101E3000E0913904F0913A041082E0913B04F09172
:101E40003C0480E1808310924504E0914104F091CC
:101E5000420496E09083E0913F04F0914004808139
:101E600080618083E0913F04F0914004808188602C
:101E70008083E0913F04F0914004808180688083FA
:101E8000E0913F04F091400480818F7D8083E09158
:101E9000DA04F091DB042083E091D604F091D704BA
:101EA0001082E091D804F091D90483E380831092EA
:101EB000E204E091DE04F091DF049083E091DC0421
:101EC000F091DD04808180618083E091DC04F091F9
:101ED000DD04808188608083E091DC04F091DD0482
:101EE000808180688083E091DC04F091DD04808152
:101EF0008F7D808361E085E10E94E10461E085E1FE
:101F00000E94B20461E080914F070E94E10461E009
:101F1000809150070E94E1041FB7F89480910B0450
:101F2000811127C0EDE9F1E08491E7E5F1E09491BA
:101F3000E82FF0E0EE0FFF1FE85FFE4FA591B49190
:101F4000EC91E92321F461E085E30E94B20461E0B1
:101F500085E30E94E1048CB580618CBD8CB5806402
:101F60008CBD61E084E30E94E10461E083E30E94B0
:101F7000E10480910B048F5F80930B041FBF60E02E
:101F800080914F070E94B20481E090E0DDDB65E0C4
:101F900070E080E090E00E941D056FE484E00FDCBB
:101FA00086E0FCDB682F666086E009DC86E0F6DB15
:101FB00010925107877D182F1062612F86E0FFDB9A
:101FC00086E0ECDB811709F48FC41092510786E09C
:101FD000E5DB10925107182F177D612F86E0EFDBAC
:101FE00086E0DCDB81131092510780E0D7DB682F9D
:101FF0006C6080E0E4DB60E08CE1E1DB60E787E0DF
:10200000DEDB6CE485E0DBDBAFDBBBDB86E0C6DB85
:10201000897F682F646086E0D2DB21EECF55DF4FE9
:102020002883C15AD04090EFCE55DF4F9883C25AD3
:10203000D040CD55DF4F9883C35AD04088EECC5561
:10204000DF4F8883C45AD040CB55DF4F8883C55AB1
:10205000D040CA55DF4F1882C65AD040C955DF4F0D
:102060001882C75AD040C855DF4F1882C85AD0408E
:1020700020935707909358079093590780935A07D6
:1020800080935B0710925C0710925D0710925E07C9
:10209000EAEBF1E0849145E0BE016F557F4FABDB89
:1020A000E4EBF1E084916091530789DB82E076DB19
:1020B000EEEAF1E0E49161E070E001C0660FEA95BC
:1020C000EAF7682B82E07BDB6CE685E078DB65E590
:1020D00084E075DB6FE381E072DB8CE080930002CB
:1020E0008EE0E3EEF2E08E010F5F1F4FD80101900A
:1020F0000D928A95E1F76E0123E0C20ED11CFF24F8
:10210000F394812C24E2922E24EFA22EB12C412CA8
:102110003DE7532E612C712CD6012D913D916D011F
:1021200040E050E0C501B4010E945C1CCA01B90145
:10213000A30192010E945C1C22303105410551052A
:1021400028F4F394B7E0FB12E7CF29C086E0F81635
:1021500031F1FF2021F11092800088E0809381000E
:1021600080918100F82AF0928100309389002093B9
:10217000880080916F00826080936F0061E08091A1
:1021800000020E94E10460E08BE00E94E10461E053
:102190008AE00E94E10460E08AE00E94B20481E0EB
:1021A00090E0A0E0B0E089839A83AB83BC839E83F8
:1021B0008D8398878F832AE530E0388B2F879C8B1F
:1021C0008B8B84E090E09A8B898B8AE090E09A87F1
:1021D00089879C878B879E878D87EDB7FEB774971D
:1021E0000FB6F894FEBF0FBEEDBFADB7BEB71196E8
:1021F00084E1F80101900D928A95E1F72BDB82E0F2
:1022000090E0A0E0B0E089839A83AB83BC839E8397
:102210008D8382ED90E09A8789872DB73EB7245150
:1022200031090FB6F8943EBF0FBE2DBFADB7BEB794
:10223000119684E1F80101900D928A95E1F70ADB8D
:102240000FB6F894DEBF0FBECDBF80E693E0F3D9A2
:102250008091770790917807009711F48BE797E0CA
:10226000D801A81BB90BCD0142DA62E070E080E032
:1022700090E00E941D05F8941092B0001092B100F9
:102280001092B20089EF8093B3008091B000826019
:102290008093B0008091B10082608093B100809102
:1022A0007000826080937000789484E090E0909356
:1022B00034078093330782E090E090933607809351
:1022C000350744E050E064E070E0CE0183559F4F55
:1022D0000E94F508E12CF12C812C912C90E8A92E7C
:1022E0009FE3B92E8091330790913407E816F906E1
:1022F00084F4A701B701CE0183559F4F0E94A50822
:10230000FC0180829182A282B382FFEFEF1AFF0A62
:10231000E9CF6091350770913607AB01CE01855545
:102320009F4F0E94F508E12CF12C812C912C80E824
:10233000A82E8FE3B82E8091350790913607E816C6
:10234000F9068CF4A701B701CE0185559F4F0E9475
:10235000A508DC018D929D92AD92BC921397BFEFC0
:10236000EB1AFB0AE8CFBE0163557F4F8BE397E082
:102370000E9475088EEB97E3A6E8B5E389839A83FC
:10238000AB83BC83A801BE0163557F4FCE01875547
:102390009F4F0E94F007BE0167557F4F87E397E08C
:1023A0000E947508CE0187559F4F0E94DD088BE083
:1023B00097EDA3E2BAE389839A83AB83BC83A80138
:1023C000BE0165557F4FCE0187559F4F0E94F00794
:1023D000BE0167557F4F89E397E00E947508CE01E3
:1023E00087559F4F0E94DD08609133077091340735
:1023F00041E050E0C8010E94F508B8018DE397E084
:102400000E947508C8010E94DD08CE0185559F4FC6
:102410000E94DD08CE0183559F4F0E94DD0882E0B7
:1024200090E0909326078093250781E090E09093B9
:1024300028078093270742E050E062E070E0CE0179
:1024400083559F4F0E94F508E12CF12C812C912C93
:10245000B0E8AB2EBFE3BB2E8091250790912607F5
:10246000E816F90684F4A701B701CE0183559F4F02
:102470000E94A508FC0180829182A282B382FFEFB4
:10248000EF1AFF0AE9CF6091270770912807AB0187
:10249000CE0185559F4F0E94F508E12CF12C812C2F
:1024A000912CA0E8AA2EAFE3BA2E80912707909135
:1024B0002807E816F9068CF4A701B701CE01855567
:1024C0009F4F0E94A508DC018D929D92AD92BC9217
:1024D0001397BFEFEB1AFB0AE8CFBE0163557F4F9E
:1024E0008DE297E00E9475088EEB97E3A6E8B5E3CE
:1024F00089839A83AB83BC83A801BE0163557F4F58
:10250000CE0187559F4F0E94F007BE0167557F4F50
:1025100089E297E00E947508CE0187559F4F0E947F
:10252000DD088BE097EDA3E2BAE389839A83AB835E
:10253000BC83A801BE0165557F4FCE0187559F4FD3
:102540000E94F007BE0167557F4F8BE297E00E9423
:102550007508CE0187559F4F0E94DD0860912507C1
:102560007091260741E050E0C8010E94F508B801CB
:102570008FE297E00E947508C8010E94DD08CE0135
:1025800085559F4F0E94DD08CE0183559F4F0E94C5
:10259000DD0883E00E948A048093010484E10E94A4
:1025A0008A048093DC0384E596E0A9D960918406CF
:1025B00070918506809186069091870667D79B016A
:1025C000AC0160E070E086E193E40E94C01B6B0107
:1025D0007C019B01AC01609164067091650680915D
:1025E000660690916706B3D760936406709365069C
:1025F0008093660690936706A7019601609168062E
:102600007091690680916A0690916B060E94C01BCA
:10261000609368067093690680936A0690936B06D0
:1026200086E990E0A0E0B0E0809384069093850670
:10263000A0938606B0938706FE01EF5AFF4FC1555F
:10264000DF4FF983E883CF5AD040CD54DF4F198351
:102650000883C35BD040F8018FEF8083DF01A05B6C
:10266000BF4F8C933A96C155DF4F28813981CF5A9D
:10267000D040E217F30789F740E153E0CF54DF4F32
:1026800059834883C15BD040C12CD12C77247394EB
:1026900070921404E9EAF2E001900020E9F7319722
:1026A000CF01895A92407C01682E9DE49E1508F462
:1026B000A3C0809109048111FCCF23E02E0D622F6D
:1026C0008FEF9FEFC954DF4F2883C75BD0400E9434
:1026D000ED06C954DF4F2881C75BD040E22FF0E000
:1026E00074E0F595E7957A95E1F7E050FD4F30817C
:1026F000309309022F70E22FF0E0E050FD4F20816F
:1027000020930A02ECE08E2EE2E09E2EF4E1AF2E42
:10271000F4E0BF2E2A2DE4E1F4E02E1B261500F58F
:10272000D5016C910E94ED06F50121915F01D40164
:102730001197E22FF0E064E0F595E7956A95E1F7EF
:10274000E050FD4F30813C932F70E22FF0E0E050DD
:10275000FD4F2081D4012C93B2E08B0E911CDACF77
:10276000E3942E2D220F80959095A22FB0E0A75FC5
:10277000BD4FFC0134E0F695E7953A95E1F7EF702F
:10278000FF27E050FD4F30813C93E1E0E20FF0E0A5
:10279000E75FFD4FDC01AF70BB27A050BD4F3C9100
:1027A0003083E2E0E20FF0E0E75FFD4FDC01AB2FAA
:1027B000BB27A295AF70A050BD4F3C913083A3E0E2
:1027C000A20FB0E0A75FBD4F892F9927FC01EF70E2
:1027D000FF27E050FD4F80818C93245F20930A04F3
:1027E00010920804109207041092060461E08AE037
:1027F0000E94B20470920904809109048111FCCFF7
:10280000CF54DF4FA881B981C15BD040FD90CF5438
:10281000DF4FB983A883C15BD04060E08F2D0E9459
:10282000B2048FE090E00197F1F761E08F2D0E94F4
:10283000B20487E390E00197F1F760E08F2D0E94EA
:10284000B20480E00E94CE0B682F636080E00E949B
:10285000DF0B60E787E00E94DF0B20915707309184
:1028600058074091590750915A0760915B07709142
:102870005C0780915D0790915E07A0E00E94861C36
:1028800031F045E067E577E08AE00E94FB0B0E94AB
:10289000B40B0E94C10B61E080914F070E94B2040B
:1028A00083E092E00197F1F70E9455051B012C018E
:1028B000A12CB12CF12C80E090E00E94A40B8FEFB2
:1028C0000E94FF06E82E81E090E00E94A40BE6FE45
:1028D0004EC060E487E00E94DF0BE5FE09C060E2C5
:1028E00087E00E94DF0B04C081E0809352076FCB2A
:1028F000F11040C080915307E82E8B3010F09AE021
:10290000E92E90915507911103C0F82EFE1801C0D1
:10291000F12C80E090E00E94A40B81E60E94FF066B
:1029200045018C0C9D1C800E911EEA94FFEFEF1662
:1029300039F08FEF0E94FF06F40181934F01F5CF2C
:10294000FF2029F08FEF0E94FF06FA94F9CF81E073
:1029500090E00E94A40B87E10E94CE0B20E5A20E1E
:10296000B11C30EAA316B10409F0A4CF03C0FF20C4
:1029700009F449C160E080914F070E94B2040E94AF
:10298000C10B0E94B40B62E370E080E090E00E9413
:102990001D054AE0C40ED11C50E5C516D10409F04E
:1029A00077CE212C312C89E693E00E941B0BC101CC
:1029B0000E94770BCD54DF4F88819981C35BD04053
:1029C000CF54DF4F99838883C15BD040A2E0B0E051
:1029D000CB54DF4FB983A883C55BD040CF54DF4FC2
:1029E000A881B981C15BD040FC90BFEFFB1609F410
:1029F000C3C082E793E00E941B0B6F2D70E080E064
:102A000090E04AE00E942C0B8FE793E00E941B0BA2
:102A1000CF54DF4FE881F981C15BD0406181728181
:102A20008381948135D52AE939E949EE51E4A8D664
:102A30006B017C014B015C019B01AC0139D7882300
:102A400019F08DE893E018C026013701E89477F873
:102A50002FEF3FEF4FE75FE7C301B20129D78111A5
:102A60000EC02FEF3FEF4FE75FE7C301B2010AD57A
:102A700018162CF481E993E00E941B0B67C02FEF1E
:102A80003FEF4FE75FE4C701B6010ED718161CF4FD
:102A900085E993E0F1CF2FEF3FEF4FE75FECC70100
:102AA000B601F0D487FDF4CF20E030E0A901C701E2
:102AB000B601E8D487FF09C08DE20E946C0B460185
:102AC0005701B7FAB094B7F8B0942AE037ED43EA6B
:102AD0005BE3C501B401F0D54B015C01B9D66B01D4
:102AE0007C01D4D49B01AC01C501B401E4D54B01F8
:102AF0005C014AE0C701B6010E942C0B8EE20E94E5
:102B00006C0B20E030E040E251E4C501B4011FD578
:102B10006B017C019DD64B01A12CB12C4AE0C50173
:102B2000B4010E942C0BC501B401B0D49B01AC01CF
:102B3000C701B601C0D520E030E040E251E407D53E
:102B400087D680E090E04AE00E942C0B89E993E070
:102B50000E941B0BCF54DF4FA881B981C15BD040CD
:102B600015966C9170E080E090E04AE00E942C0B9A
:102B700084EA93E00E941B0BCF54DF4FE881F98178
:102B8000C15BD040E05BFF4FCF54DF4FF983E88358
:102B9000C15BD040CB54DF4F28813981C55BD04029
:102BA0002130310549F0E1E0F0E0CB54DF4FF9830B
:102BB000E883C55BD04012CF3FEF231A330ACD54D0
:102BC000DF4F48815981C35BD040465F5F4FCD5492
:102BD000DF4F59834883C35BD04058E0251631044A
:102BE00009F0E1CE87EA93E00E941B0B84EA93E0B0
:102BF0000E941B0B68EE73E080E090E00E941D05D0
:102C00000E94410222CD0E945505DC01CB018219B0
:102C10009309A409B509FF24F394CD97A105B10543
:102C200008F049CE47CE0F931F93CF93DF93C3E2B3
:102C3000D7E084E593E0998388838FE297E00E9450
:102C4000DD080CE113E0198308838DE297E00E9410
:102C5000DD088BE297E00E94DD0889E297E00E94A0
:102C6000DD08C1E3D7E08CE593E0998388838DE3A9
:102C700097E00E94DD08198308838BE397E00E94A8
:102C8000DD0889E397E00E94DD0887E397E00E9472
:102C9000DD088091710790917207DF91CF911F91AC
:102CA0000F9158C37F928F929F92AF92BF92CF9213
:102CB000DF92EF92FF920F931F93CF93DF931092C7
:102CC000CD041092CC0448EE53E060E070E04093F5
:102CD000CE045093CF046093D0047093D10482E467
:102CE00093E09093CB048093CA042DEC30E03093B2
:102CF000D7042093D6042CEC30E03093D9042093F1
:102D0000D80428EC30E03093DB042093DA0429EC7B
:102D100030E03093DD042093DC042AEC30E0309383
:102D2000DF042093DE042EEC30E03093E1042093A6
:102D3000E0041092E3041092E4041092E50410926F
:102D4000E6041092300410922F0440933104509303
:102D50003204609333047093340490932E04809370
:102D60002D0485EC90E090933A048093390484EC30
:102D700090E090933C0480933B0480EC90E090932F
:102D80003E0480933D0481EC90E090934004809356
:102D90003F0482EC90E0909342048093410486ECDF
:102DA00090E0909344048093430410924604109260
:102DB000470410924804109249041092720710922E
:102DC0007107109274071092730710927607109291
:102DD000750761E070E080E090E0A4D5009791F085
:102DE0009093720780937107109274071092730783
:102DF0002091750730917607232B09F00EC2FC0154
:102E000010820BC28091710790917207009709F0B0
:102E1000A1D2109272071092710710927607109249
:102E20007507109274071092730710926E07109234
:102E30006D071092700710926F0710926A07109238
:102E4000690710926C0710926B071092630710923B
:102E5000610710926507109266071092670710923B
:102E600068071092640789E080934F0785E3809399
:102E70005007C1E0C09351071092520780E280933F
:102E8000530710925407109255071092570710924B
:102E900058071092590710925A0710925B07109228
:102EA0005C0710925D0710925E0710923F072FEFAC
:102EB00020934007109242071092410792E29093AC
:102EC000430786E98093440710924607109245070E
:102ED000109247072093480710924A07109249071B
:102EE00090934B0780934C0710924E0710924D071A
:102EF00081E397E00E94D20A8CE593E09093320739
:102F00008093310746E050E066E070E08DE397E0A3
:102F10000E94F50883E297E00E94D20A84E593E0DC
:102F2000909324078093230746E050E066E070E02A
:102F30008FE297E00E94F5081F92CF938CE3782EE2
:102F40007F9293E2892E8F9227ED922E9F92DAE064
:102F5000DF933AE9A32E39E9B32ECB2C3EE3D32EEF
:102F60001AE9E12E19E9F12E09E11FE321E936E022
:102F700049E956E061EA76E089EA96E00E940607B0
:102F80001F92CF937F928F929F92DF9325E936E035
:102F90004DE956E065EA76E086EE96E00E94060787
:102FA0001F921F921F921F921F921F92A12CB12C51
:102FB0006501E12CF12C00E010E421ED32E045ED5B
:102FC00052E069ED72E084E596E00E94060700E0B9
:102FD00010E020E03EE3009340061093410620936A
:102FE00042063093430640E050E060E072E44093D4
:102FF000440650934506609346067093470680E06A
:1030000090ECAFE7B4E480934C0690934D06A09308
:103010004E06B0934F06A0924806B0924906C09261
:103020004A06D0924B0600932C0610932D0620934F
:103030002E0630932F06409330065093310660934E
:103040003206709333068093380690933906A09326
:103050003A06B0933B06A0923406B0923506C09271
:103060003606D09237060093040610930506209387
:1030700006063093070640930806509309066093AE
:103080000A0670930B068093100690931106A09386
:103090001206B0931306A0920C06B0920D06C092D1
:1030A0000E06D0920F06009318061093190620936F
:1030B0001A0630931B0640931C0650931D0660931E
:1030C0001E0670931F068093240690932506A093F6
:1030D0002606B0932706A0922006B0922106C09241
:1030E0002206D09223068091CC049091CD04909337
:1030F0006A05809369058091CE049091CF04A091D8
:10310000D004B091D10480936B0590936C05A0938B
:103110006D05B0936E058091D2049091D304A09177
:10312000D404B091D50480936F0590937005A0935B
:103130007105B093720582E493E0909368058093E3
:1031400067058091D6049091D7049093740580937D
:1031500073058091D8049091D9049093760580935B
:1031600075058091DA049091DB0490937805809343
:1031700077058091DC049091DD0490937A0580932B
:1031800079058091DE049091DF0490937C05809313
:103190007B058091E0049091E10490937E058093FB
:1031A0007D058091E20480937F058091E304809304
:1031B00080058091E404809381058091E5048093EB
:1031C00082058091E6048093830580E4E7EEF4E0D5
:1031D000A4E8B5E001900D928A95E1F780E4E7E27A
:1031E000F5E0A4ECB5E001900D928A95E1F78DB77A
:1031F0009EB742960FB6F8949EBF0FBE8DBFDF916B
:10320000CF911F910F91FF90EF90DF90CF90BF90E3
:10321000AF909F908F907F900895109276071092B4
:10322000750766EA73E06FD400CECF93DF938230E8
:10323000910510F482E090E0E0917907F0917A072F
:1032400020E030E0C0E0D0E0309711F140815181C2
:1032500048175907C0F04817590761F482819381D4
:10326000209719F09B838A832BC090937A078093D1
:10327000790726C02115310519F04217530718F4B4
:103280009A01BE01DF01EF010280F381E02DDCCF66
:103290002115310509F1281B390B2430310590F433
:1032A00012968D919C9113976115710521F0FB0188
:1032B0009383828304C090937A0780937907FD01FA
:1032C000329644C0FD01E20FF31F81939193225087
:1032D00031092D933C933AC02091770730917807BC
:1032E000232B41F42091DF023091E00230937807E4
:1032F000209377072091DD023091DE022115310500
:1033000041F42DB73EB74091E1025091E202241BF7
:10331000350BE0917707F0917807E217F307A0F4F7
:103320002E1B3F0B2817390778F0AC014E5F5F4F1B
:103330002417350748F04E0F5F1F509378074093CE
:1033400077078193919302C0E0E0F0E0CF01DF9135
:10335000CF9108950F931F93CF93DF93009709F4B4
:103360008CC0FC0132971382128200917907109170
:103370007A070115110581F420813181820F931F95
:1033800020917707309178072817390779F5F0935E
:103390007807E093770771C0D80140E050E0AE179E
:1033A000BF0750F412962D913C911397AD01211552
:1033B000310509F1D901F3CF9D01DA01338322836D
:1033C00060817181860F971F8217930769F4EC0162
:1033D00028813981260F371F2E5F3F4F318320838D
:1033E0008A819B8193838283452B29F4F0937A070A
:1033F000E093790742C01396FC93EE931297ED0188
:10340000499159919E01240F351FE217F30771F47A
:1034100080819181840F951F029611969C938E93C3
:103420008281938113969C938E931297E0E0F0E053
:10343000D80112968D919C911397009719F0F8017D
:103440008C01F6CF8D919C9198012E5F3F4F820F9A
:10345000931F20917707309178072817390769F46F
:10346000309729F410927A071092790702C01382DC
:1034700012821093780700937707DF91CF911F9105
:103480000F91089540D008F481E00895E89409C0B0
:1034900097FB3EF490958095709561957F4F8F4F87
:1034A0009F4F9923A9F0F92F96E9BB279395F6959D
:1034B000879577956795B795F111F8CFFAF4BB0F1B
:1034C00011F460FF1BC06F5F7F4F8F4F9F4F16C07F
:1034D000882311F096E911C0772321F09EE8872F09
:1034E000762F05C0662371F096E8862F70E060E0C5
:1034F0002AF09A95660F771F881FDAF7880F96953E
:10350000879597F90895990F0008550FAA0BE0E8E1
:10351000FEEF16161706E807F907C0F01216130695
:10352000E407F50798F0621B730B840B950B39F4D5
:103530000A2661F0232B242B252B21F408950A263B
:1035400009F4A140A6958FEF811D811D08950BD030
:1035500078C069D028F06ED018F0952309F05AC0D1
:103560005FC01124A2C07ED0A0F3959FD1F3950F28
:1035700050E0551F629FF001729FBB27F00DB11DF7
:10358000639FAA27F00DB11DAA1F649F6627B00D87
:10359000A11D661F829F2227B00DA11D621F739F70
:1035A000B00DA11D621F839FA00D611D221F749F7E
:1035B0003327A00D611D231F849F600D211D822FC5
:1035C000762F6A2F11249F5750408AF0E1F088230C
:1035D0004AF0EE0FFF1FBB1F661F771F881F915019
:1035E0005040A9F79E3F510570F014C05EC05F3F88
:1035F000ECF3983EDCF3869577956795B795F7954C
:10360000E7959F5FC1F7FE2B880F911D96958795D3
:1036100097F9089597F99F6780E870E060E0089552
:103620009FEF80EC089500240A94161617061806DA
:103630000906089500240A941216130614060506B6
:103640000895092E0394000C11F4882352F0BB0F47
:1036500040F4BF2B11F460FF04C06F5F7F4F8F4FAA
:103660009F4F089557FD9058440F551F59F05F3FE5
:1036700071F04795880F97FB991F61F09F3F79F094
:1036800087950895121613061406551FF2CF469516
:10369000F1DF08C0161617061806991FF1CF869598
:1036A0007105610508940895E894BB27662777277C
:1036B000CB0197F908955058BB27AA270ED0C1CF48
:1036C000B2DF30F0B7DF20F031F49F3F11F41EF489
:1036D000A7CF0EF4E095E7FB9DCFE92FC3DF80F382
:1036E000BA17620773078407950718F071F49EF5FF
:1036F000DBCF0EF4E0950B2EBA2FA02D0B01B901F4
:1037000090010C01CA01A0011124FF27591B99F057
:10371000593F50F4503E68F11A16F040A22F232F63
:10372000342F4427585FF3CF469537952795A795B3
:10373000F0405395C9F77EF41F16BA0B620B730B5A
:10374000840BBAF09150A1F0FF0FBB1F661F771FCB
:10375000881FC2F70EC0BA0F621F731F841F48F480
:10376000879577956795B795F7959E3F08F0B3CF06
:103770009395880F08F09927EE0F979587950895F0
:103780000CD05FCF57DF40F04EDF30F021F45F3FC9
:1037900019F040CF511189CF43CF64DF98F39923BB
:1037A000C9F35523B1F3951B550BBB27AA27621705
:1037B0007307840738F09F5F5F4F220F331F441F4A
:1037C000AA1FA9F333D00E2E3AF0E0E830D0915082
:1037D0005040E695001CCAF729D0FE2F27D0660F6F
:1037E000771F881FBB1F261737074807AB07B0E8AE
:1037F00009F0BB0B802DBF01FF2793585F4F2AF0C4
:103800009E3F510568F006CF50CF5F3FECF3983EE6
:10381000DCF3869577956795B795F7959F5FC9F720
:10382000880F911D9695879597F90895E1E0660FA9
:10383000771F881FBB1F621773078407BA0720F022
:10384000621B730B840BBA0BEE1F88F7E09508958B
:1038500011DF88F09F5790F0B92F9927B751A0F04A
:10386000D1F0660F771F881F991F1AF0BA95C9F714
:1038700012C0B13081F018DFB1E0089515CF672F85
:10388000782F8827B85F39F0B93FCCF386957795C4
:103890006795B395D9F73EF49095809570956195AD
:1038A0007F4F8F4F9F4F08952EDE08F48FEF0895BE
:1038B0002ADE880B990B0895A1E21A2EAA1BBB1BC6
:1038C000FD010DC0AA1FBB1FEE1FFF1FA217B307EC
:1038D000E407F50720F0A21BB30BE40BF50B661F02
:1038E000771F881F991F1A9469F7609570958095C6
:1038F00090959B01AC01BD01CF010895EE0FFF1F14
:10390000881F8BBF0790F691E02D19940024A7FD26
:1039100000942A17300540055005600570058005A4
:10392000900508956F927F928F929F92AF92BF926F
:10393000CF92DF92EF92FF920F931F93CF93DF937B
:10394000EC01009781F4CB01DF91CF911F910F9192
:10395000FF90EF90DF90CF90BF90AF909F908F90AF
:103960007F906F9062CCFC01E60FF71F9C01225004
:103970003109E217F30708F4A8C0D9010D911C9191
:10398000119706171707A8F00530110508F49BC01A
:10399000C80104978617970708F495C002501109CB
:1039A000061B170B019311936D937C93CF01D2DC0F
:1039B0008AC05B01A01AB10A4C01800E911EA09131
:1039C0007907B0917A0740E050E0E12CF12C109794
:1039D00009F44AC0A815B905D1F56D907C901197EE
:1039E000630182E0C80ED11CCA14DB0480F1A3017C
:1039F0004A195B096A0182E0C80ED11C1296BC907C
:103A000012971396AC91B5E0CB16D10440F0B28278
:103A1000A38351834083D9016D937C930AC00E5FC9
:103A20001F4FC301800F911FF90191838083EB2DFC
:103A3000FA2FE114F10431F0D7011396FC93EE93C1
:103A4000129741C0F0937A07E09379073CC08D91BB
:103A50009C9111974817590708F4AC017D01129603
:103A60000D90BC91A02DB3CF8091770790917807EE
:103A700088159905E1F446175707C8F48091DD02CF
:103A80009091DE02009741F48DB79EB74091E1021C
:103A90005091E202841B950BE817F907B0F4F093FC
:103AA0007807E0937707F901718360830CC0CB013D
:103AB000BCDB7C01009749F0A801BE011BD0CE0100
:103AC00049DCC70104C0CE0102C080E090E0DF9174
:103AD000CF911F910F91FF90EF90DF90CF90BF900B
:103AE000AF909F908F907F906F90089581E090E0CD
:103AF000F89410C0FB01DC0102C001900D9241500E
:103B00005040D8F70895FB01DC0101900D92002090
:103B1000E1F7089511E0CEE1D1E000E005C0802F8B
:103B2000FE01ECDE2196011DCF31D10780E00807B0
:063B3000B1F7F894FFCF8D
:103B36000C2A2A2A2A2A2A382C0000000000000013
:103B4600000000000000000000000000000000006F
:103B5600000000000000000000000000000000005F
:103B6600000000000000000000000000000000004F
:103B7600000000000000000000000000000000003F
:103B8600000000000000000000000000000000002F
:103B9600000000000000000000000000000000001F
:103BA600000000000000000000000000000000000F
:103BB60000000000000000000000000000000000FF
:103BC60000000000000000000000000000000000EF
:103BD6000000000000000000002E000000000000B1
:103BE60000000000000000000000000000000200CD
:103BF60000000000020000000000020000000000BB
:103C0600020000803F0000803F0000803F00007BF4
:103C160007800000000100080040000001000405C4
:103C26000D0B2A2B2C2D2E30312F000028280A00B0
:103C36000D0E131516191A1C232526292A2C323483
:103C4600262728291618191700000000F302F30288
:103C560000000000F302F00AF002EF02F302F302A2
:103C6600F30200000000F302F00AF002EF02000087
:103C76000000DA01F00A6A0120029B0179018D0138
:103C860000000000C309AF090000000032091E0948
:103C96004D2E467265653A2000456D69736F723A1E
:103CA600200020202D3E42616C697A613A20002C6A
:103CB6002044697374616E6369613A20006E616EB7
:103CC60000696E66006F7666002C2053656E736F12
:103CD600723A20000D0A002D2D2D2D2D2D2D2D2D66
:0A3CE6002D2D2D2D2D2D2D2D00006C
:00000001FF
