:100000000C9462000C9426030C94FF020C948A005A
:100010000C948A000C948A000C948A000C948A0038
:100020000C948A000C94DC040C948A000C94A503B4
:100030000C948A000C948A000C948A000C948A0018
:100040000C94B5020C948A000C9473030C944D0329
:100050000C948A000C948A000C948A000C948A00F8
:100060000C948A000C948A000000000023002600F3
:10007000290000000000240027002A0000000000E2
:10008000250028002B0004040404040404040202D4
:100090000202020203030303030301020408102007
:1000A0004080010204081020010204081020000012
:1000B0000008000201000003040700000000000027
:1000C0000000FF0411241FBECFEFD8E0DEBFCDBF7C
:1000D00011E0A0E0B1E0E6EEFEE002C005900D9276
:1000E000AE33B107D9F722E0AEE3B1E001C01D9213
:1000F000A53DB207E1F710E0C2E6D0E004C02197C9
:10010000FE010E946B07C136D107C9F70E94360570
:100110000C9471070C9400003FB7F8942091B20042
:10012000B89B16C02091B2008091CB029091CC0276
:10013000A091CD02B091CE020196A11DB11D809378
:10014000CB029093CC02A093CD02B093CE02B89A8A
:100150006091CB027091CC028091CD029091CE0241
:10016000982F872F762F6627620F711D811D911D95
:100170006093CF027093D0028093D1029093D20209
:100180003FBF0895833081F028F4813099F08230A8
:10019000A9F008958730A9F08830C9F08430B1F40F
:1001A000809180008F7D03C0809180008F77809345
:1001B0008000089584B58F7784BD089584B58F7DC0
:1001C000FBCF8091B0008F778093B000089580912D
:1001D000B0008F7DF9CF1F93CF93DF93282F30E0AE
:1001E000F901E255FF4F8491F901E656FF4FD49192
:1001F000F901EA57FF4FC491CC23A9F0162F8111C2
:100200000E94C200EC2FF0E0EE0FFF1FE458FF4FFA
:10021000A591B4918FB7F894EC91111108C0D095C5
:10022000DE23DC938FBFDF91CF911F910895DE2BEA
:10023000F8CFCF93DF9390E0FC01E656FF4F249177
:100240008A579F4FFC0184918823C9F090E0880F62
:10025000991FFC01EE58FF4FA591B491FC01E458A1
:10026000FF4FC591D49161110DC09FB7F8948C9147
:10027000209582238C938881282328839FBFDF9138
:10028000CF910895623051F49FB7F8943C91822F3A
:10029000809583238C93E8812E2BEFCF8FB7F89432
:1002A000EC912E2B2C938FBFEACF3FB7F89480911F
:1002B0002A0290912B02A0912C02B0912D0226B51A
:1002C000A89B05C02F3F19F00196A11DB11D3FBF8E
:1002D000BA2FA92F982F8827BC01CD01620F711D5D
:1002E000811D911D42E0660F771F881F991F4A9557
:1002F000D1F70895CF93DF93F894C0911B02D0916A
:100300001C0280910601909107018C179D0774F0E3
:100310000E948C00FE01EE0FFF1FEF5AFE4F71830B
:1003200060832196D0931C02C0931B027894DF91C6
:10033000CF9108950895AF92BF92CF92DF92EF923E
:10034000FF920F931F93CF93DF936C017B018B017F
:10035000040F151FEB015E01AE18BF08C017D107CF
:1003600059F06991D601ED91FC910190F081E02D59
:10037000C6010995892B79F7C501DF91CF911F91AE
:100380000F91FF90EF90DF90CF90BF90AF900895C6
:10039000FC01538D448D252F30E0842F90E0821B8B
:1003A000930B541710F0CF96089501970895FC0110
:1003B000918D828D981761F0A28DAE0FBF2FB11D68
:1003C0005D968C91928D9F5F9F73928F90E00895C0
:1003D0008FEF9FEF0895FC01918D828D981731F07A
:1003E000828DE80FF11D858D90E008958FEF9FEFCE
:1003F0000895FC01918D228D892F90E0805C9F4FA4
:10040000821B91098F73992708958EE292E00E94D2
:10041000F90121E0892B09F420E0822F089580E082
:1004200090E0892B29F00E94050281110C940000B4
:100430000895FC01A48DA80FB92FB11DA35ABF4F79
:100440002C91848D90E001968F739927848FA689D3
:10045000B7892C93A089B1898C91837080648C9327
:10046000938D848D981306C00288F389E02D8081D6
:100470008F7D80830895EF92FF920F931F93CF9308
:10048000DF93EC0181E0888F9B8D8C8D98131AC0CF
:10049000E889F989808185FF15C09FB7F894EE89B6
:1004A000FF896083E889F989808183708064808313
:1004B0009FBF81E090E0DF91CF911F910F91FF905E
:1004C000EF900895F62E0B8D10E00F5F1F4F0F7306
:1004D0001127E02E8C8D8E110CC00FB607FCFACFC1
:1004E000E889F989808185FFF5CFCE010E94190244
:1004F000F1CFEB8DEC0FFD2FF11DE35AFF4FF08292
:100500009FB7F8940B8FEA89FB8980818062CFCFF7
:10051000CF93DF93EC01888D8823B9F0AA89BB893A
:10052000E889F9898C9185FD03C0808186FD0DC025
:100530000FB607FCF7CF8C9185FFF2CF808185FF46
:10054000EDCFCE010E941902E9CFDF91CF9108953E
:10055000FC0101900020E9F73197AF01481B590BCE
:10056000BC018EE292E00C949B011F920F920FB699
:100570000F9211242F933F938F939F93AF93BF9329
:100580008091260290912702A0912802B091290221
:100590003091250223E0230F2D3758F50196A11D38
:1005A000B11D209325028093260290932702A093E9
:1005B0002802B093290280912A0290912B02A091E7
:1005C0002C02B0912D020196A11DB11D80932A022B
:1005D00090932B02A0932C02B0932D02BF91AF9168
:1005E0009F918F913F912F910F900FBE0F901F9071
:1005F000189526E8230F0296A11DB11DD2CF1F9298
:100600000F920FB60F9211242F933F934F935F9346
:100610006F937F938F939F93AF93BF93EF93FF93CA
:10062000E0910401F09105010995FF91EF91BF91CF
:10063000AF919F918F917F916F915F914F913F917A
:100640002F910F900FBE0F901F9018951F920F9231
:100650000FB60F9211242F933F934F935F936F9395
:100660007F938F939F93AF93BF93EF93FF93E0910B
:100670000201F09103010995FF91EF91BF91AF91B4
:100680009F918F917F916F915F914F913F912F91AA
:100690000F900FBE0F901F9018951F920F920FB6DC
:1006A0000F9211242F933F934F935F936F937F93F8
:1006B0008F939F93AF93BF93EF93FF938EE292E05C
:1006C0000E941902FF91EF91BF91AF919F918F917D
:1006D0007F916F915F914F913F912F910F900FBE3E
:1006E0000F901F9018951F920F920FB60F92112422
:1006F0002F938F939F93EF93FF93E0913E02F0919E
:100700003F028081E0914402F091450282FD1BC0CE
:100710009081809147028F5F8F73209148028217EA
:1007200041F0E0914702F0E0E25DFD4F958F80934C
:100730004702FF91EF919F918F912F910F900FBEE4
:100740000F901F9018958081F4CF1F920F920FB6D3
:100750000F9211241F932F933F934F935F936F93A7
:100760007F938F939F93AF93BF93CF93DF93EF9339
:10077000FF9310915001112339F180914D018111A6
:1007800023C02091000130E0F901E255FF4F849130
:10079000F901E656FF4FD491F901EA57FF4FC49192
:1007A000CC2379F081110E94C200EC2FF0E0EE0F13
:1007B000FF1FE859FF4FA591B491EC91DE2381E032
:1007C00009F480E080934C0180914D018823E9F089
:1007D00080914B0191E0980F90934B01811115C0CE
:1007E00060914E018AE00E94EB0060E0809101017F
:1007F0000E94EB0010924D018091490190914A01B5
:10080000019690934A018093490180914B01883071
:1008100010F010924B01112309F491C080914D0109
:1008200081118DC090914C01992329F0809148014C
:100830008F5F809348018091460120914701921774
:1008400009F44AC02BE0803508F02DE1820F809337
:1008500046019093470120914601203A08F46FC069
:10086000809144019091450196958795909345011B
:100870008093440130914801353028F0986090937E
:10088000450180934401205A20934601109248016B
:1008900080914F01882309F47EC0809143018F5FCE
:1008A000809343018C3008F44AC0809144019091B8
:1008B0004501382F3F73232F26952695287048E051
:1008C000420F421769F0E22FF0E0EA5EFE4F5081DE
:1008D000351739F02F5FF5CF8C5E80934601BBCF83
:1008E00020E036E0969587953A95E1F7382F959573
:1008F000879595958795887098E0980F981749F097
:10090000E82FF0E0EA5EFE4F4081341719F08F5F68
:10091000F5CF80E090914201911125C090E1299F8F
:1009200090011124822B8093410184508D34D8F0A2
:1009300010924F01809140018F5F80934001FF91A1
:10094000EF91DF91CF91BF91AF919F918F917F9167
:100950006F915F914F913F912F911F910F900FBE1B
:100960000F901F901895809142018F5F80934201F4
:100970009091420180914101981750F010924F01DF
:1009800080913F018F5F80933F0181E080933E0122
:1009900010924301D4CF8091440190914501883356
:1009A0009B4069F681E080934F01109243011092C1
:1009B000420110923E01C3CF1F920F920FB60F92C9
:1009C00011248F939F93AF93BF93EF93FF93EBEC1F
:1009D000F2E080819181A281B3810196A11DB11DB8
:1009E00080839183A283B383FF91EF91BF91AF91F5
:1009F0009F918F910F900FBE0F901F901895EEE270
:100A0000F2E01382128288EE93E0A0E0B0E08483EB
:100A10009583A683B7838AE291E09183808385ECF6
:100A200090E09587848784EC90E09787868780ECB8
:100A300090E0918B808B81EC90E0938B828B82ECA9
:100A400090E0958B848B86EC90E0978B868B118E53
:100A5000128E138E148EEBECF2E010821182128251
:100A6000138214821582168217820895CF93DF9322
:100A7000CDB7DEB7A1970FB6F894DEBF0FBECDBFDE
:100A8000789484B5826084BD84B5816084BD85B569
:100A9000826085BD85B5816085BD80916E00816075
:100AA00080936E001092810080918100826080931B
:100AB000810080918100816080938100809180001D
:100AC0008160809380008091B10084608093B10048
:100AD0008091B00081608093B00080917A00846042
:100AE00080937A0080917A00826080937A0080916E
:100AF0007A00816080937A0080917A008068809388
:100B00007A001092C10062E083E00E94190161E066
:100B100089E00E94190160E086E00E94190161E00D
:100B200087E00E94190161E085E00E94190161E0FF
:100B30008AE00E94190160E084E00E94190160E0EF
:100B40008AE00E94EB0083E08093000189E08093BB
:100B5000010181E080934E018EE0E8E0F1E0DE01EA
:100B6000119601900D928A95E1F77E0123E0E20E45
:100B7000F11C11E0812C64E2962E64EFA62EB12CBC
:100B800070E4472E7CE9572E612C712CF7012191DE
:100B900031917F0150E040E0C501B4010E9435076A
:100BA000CA01B901A30192010E9435072230310523
:100BB0004105510508F01BC11F5F173039F78091BF
:100BC0005001811105C081E08093500110924F01C6
:100BD0000E9455014B015C0152E3C52ED12CE12C42
:100BE000F12C0E945501681979098A099B09683E10
:100BF000734081059105A8F3F1E0CF1AD108E1080F
:100C0000F10828EE820E23E0921EA11CB11CC11433
:100C1000D104E104F10429F7E0913E02F0913F0292
:100C200082E08083E0913A02F0913B021082E091F1
:100C30003C02F0913D028FEC808310924602E091DD
:100C40004202F091430286E08083E0914002F091FD
:100C50004102808180618083E0914002F0914102F5
:100C6000808188608083E0914002F0914102808120
:100C700080688083E0914002F091410280818F7D05
:100C800080838091B0008093D3028091B1008093E3
:100C9000D4028091B100887F82608093B1008091FE
:100CA00070008160809370008091B0008C7F809391
:100CB000B0008091B100877F8093B1008AE791E016
:100CC0009093050180930401809169008C6080936A
:100CD0006900E99A94E6292E312C2AE0422E512C03
:100CE000612C712C3CE3A32EB12C40E0842E40E01B
:100CF000942E80911D02811105C00E948C00F1E0AC
:100D0000F0931D02309207012092060110921C02FE
:100D100010921B020E945501709352016093510181
:100D200020911B0230911C028091060190910701D5
:100D3000281739070CF446C081E5C82E81E0D82E6B
:100D400010E000E080910601909107010817190753
:100D5000F4F5F601219131916F01349780819181F1
:100D6000281B390B50E040E019A27E01F1E2EF0EA2
:100D7000F11CCA01B901A30192010E943507605D0F
:100D8000F70162937F01211531054105510589F76E
:100D9000309719F0CF010E94A80288E391E00E94E9
:100DA000A802C801B5010E942107892B41F48CE3F8
:100DB00091E00E94A8028AE391E00E94A8020F5FDE
:100DC0001F4FC0CF8CE391E00E94A802A9CF1092E0
:100DD0001C0210921B028114910409F48ACF0E9414
:100DE0000502882309F485CF0E94000082CF1630C7
:100DF00009F4E5CE1092800088E080938100809114
:100E00008100182B10938100309389002093880073
:100E100080916F00826080936F0061E0809101019A
:100E20000E94190160E0809100010E94190161E0B7
:100E30008AE00E94190160914E018AE00E94EB0055
:100E4000BECE97FB072E16F4009407D077FD09D08D
:100E50000E94570707FC05D03EF4909581959F4F5F
:100E60000895709561957F4F0895A1E21A2EAA1BEF
:100E7000BB1BFD010DC0AA1FBB1FEE1FFF1FA2174A
:100E8000B307E407F50720F0A21BB30BE40BF50B47
:100E9000661F771F881F991F1A9469F760957095D0
:100EA000809590959B01AC01BD01CF010895AA1BCF
:100EB000BB1B51E107C0AA1FBB1FA617B70710F045
:100EC000A61BB70B881F991F5A95A9F78095909577
:100ED000BC01CD010895EE0FFF1F0590F491E02DA8
:060EE0000994F894FFCF15
:100EE6000B0C9A019A016400000001000800400002
:100EF60000010004050D0D0E131516191A1C2325E5
:100F060026292A2C3234000000003B029B01C8012E
:0E0F16008802F901D701EB012C000D0A000042
:00000001FF
