:100000000C9462000C948A000C948A000C948A0070
:100010000C948A000C948A000C9459040C948A0065
:100020000C948A000C948A000C948A000C9470043E
:100030000C948A000C948A000C948A000C948A0018
:100040000C94B7030C948A000C9427040C940104BC
:100050000C948A000C948A000C948A000C948A00F8
:100060000C948A000C948A000000000024002700F1
:100070002A0000000000250028002B0000000000DE
:1000800023002600290004040404040404040202DA
:100090000202020203030303030301020408102007
:1000A0004080010204081020010204081020000012
:1000B0000008000201000003040700000000000027
:1000C00000008B0511241FBECFEFD8E0DEBFCDBFEF
:1000D00022E0A0E4B1E001C01D92A03AB207E1F72E
:1000E00011E0A0E0B1E0E6EFF3E102C005900D926F
:1000F000A034B107D9F710E0C2E6D0E004C02197E0
:10010000FE010E94EA09C136D107C9F70E94DF0546
:100110000C94F9090C940000833081F028F48130AC
:1001200099F08230A9F008958730A9F08830C9F09D
:100130008430B1F4809180008F7D03C08091800075
:100140008F7780938000089584B58F7784BD08955C
:1001500084B58F7DFBCF8091B0008F778093B00006
:1001600008958091B0008F7DF9CFCF93DF93282F32
:1001700030E0F901E255FF4F8491F901E656FF4F57
:10018000D491F901EA57FF4FC491CC23A1F081111A
:100190000E948C00EC2FF0E0EE0FFF1FE458FF4FA1
:1001A000A591B491EC91ED2381E090E009F480E019
:1001B000DF91CF91089580E090E0FACF1F93CF9325
:1001C000DF93282F30E0F901E255FF4F8491F901C8
:1001D000E656FF4FD491F901EA57FF4FC491CC2363
:1001E000A9F0162F81110E948C00EC2FF0E0EE0F89
:1001F000FF1FEE58FF4FA591B4918FB7F894EC9183
:10020000111108C0D095DE23DC938FBFDF91CF9111
:100210001F910895DE2BF8CF682F809184020E94F1
:10022000DE0080919C0290919D028230910538F011
:10023000880F991F880F991F05970197F1F7089567
:1002400081E00C940C01CF93DF9390E0FC01E65623
:10025000FF4F24918A579F4FFC0184918823D1F04E
:1002600090E0880F991FFC01E859FF4FA591B491C8
:10027000FC01EE58FF4FC591D49161110EC09FB79C
:10028000F8948C91E22FE0958E238C932881E223C1
:10029000E8839FBFDF91CF9108958FB7F894EC91D9
:1002A000E22BEC938FBFF6CF3FB7F8948091DE013D
:1002B0009091DF01A091E001B091E10126B5A89BEA
:1002C00005C02F3F19F00196A11DB11D3FBFBA2FE8
:1002D000A92F982F8827BC01CD01620F711D811DA8
:1002E000911D42E0660F771F881F991F4A95D1F72D
:1002F00008958F929F92AF92BF92CF92DF92EF922A
:10030000FF924B015C010E9454016B017C010E9431
:1003100054016C197D098E099F09683E734081055F
:100320009105A8F321E0821A9108A108B10888EE8E
:10033000C80E83E0D81EE11CF11C81149104A104B5
:10034000B10429F7FF90EF90DF90CF90BF90AF906E
:100350009F908F900895AF92BF92CF92DF92EF92CD
:10036000FF920F931F93CF93DF936C017B018B015F
:10037000040F151FEB015E01AE18BF08C017D107AF
:1003800059F06991D601ED91FC910190F081E02D39
:10039000C6010995892B79F7C501DF91CF911F918E
:1003A0000F91FF90EF90DF90CF90BF90AF900895A6
:1003B000FC01538D448D252F30E0842F90E0821B6B
:1003C000930B541710F0CF96089501970895FC01F0
:1003D000918D828D981761F0A28DAE0FBF2FB11D48
:1003E0005D968C91928D9F5F9F73928F90E00895A0
:1003F0008FEF9FEF0895FC01918D828D981731F05A
:10040000828DE80FF11D858D90E008958FEF9FEFAD
:100410000895FC01918D228D892F90E0805C9F4F83
:10042000821B91098F739927089582EE91E00E94B3
:10043000090221E0892B09F420E0822F089580E051
:1004400090E0892B29F00E94150281110C94000084
:100450000895FC01A48DA80FB92FB11DA35ABF4F59
:100460002C91848D90E001968F739927848FA689B3
:10047000B7892C93A089B1898C91837080648C9307
:10048000938D848D981306C00288F389E02D8081B6
:100490008F7D80830895EF92FF920F931F93CF93E8
:1004A000DF93EC0181E0888F9B8D8C8D98131AC0AF
:1004B000E889F989808185FF15C09FB7F894EE8996
:1004C000FF896083E889F9898081837080648083F3
:1004D0009FBF81E090E0DF91CF911F910F91FF903E
:1004E000EF900895F62E0B8D10E00F5F1F4F0F73E6
:1004F0001127E02E8C8D8E110CC00FB607FCFACFA1
:10050000E889F989808185FFF5CFCE010E94290213
:10051000F1CFEB8DEC0FFD2FF11DE35AFF4FF08271
:100520009FB7F8940B8FEA89FB8980818062CFCFD7
:10053000CF93DF93EC01888D8823B9F0AA89BB891A
:10054000E889F9898C9185FD03C0808186FD0DC005
:100550000FB607FCF7CF8C9185FFF2CF808185FF26
:10056000EDCFCE010E942902E9CFDF91CF9108950E
:100570008EBD00000DB407FEFDCF8EB50895FC01C1
:1005800001900020E9F73197AF01481B590BBC01DE
:1005900082EE91E00C94AB018F929F92AF92BF924A
:1005A0000F931F93CF93DF93CDB7DEB7A1970FB60D
:1005B000F894DEBF0FBECDBF19A2423008F44AE066
:1005C0008E010F5D1F4F842E912CB12CA12CA50103
:1005D00094010E94C809E62FB901CA01EA30F4F477
:1005E000E05DD801EE938D01232B242B252B79F789
:1005F00090E080E0109719F0CD010E94BF02A19613
:100600000FB6F894DEBF0FBECDBFDF91CF911F9123
:100610000F91BF90AF909F908F900895E95CE1CFCC
:10062000CF92DF92EF92FF92CF93DF936B017C0129
:100630006DE282EE91E00E944B02EC016627772783
:10064000CB016C197D098E099F094AE00E94CC02FA
:100650008C0F9D1FDF91CF91FF90EF90DF90CF9097
:1006600008950F931F9300918602109187022091A5
:1006700088023091890240E052E16AE770E080E050
:10068000041715072607370740F4769567955795A1
:1006900047958F5F8630A1F787E0982F906A9695EF
:1006A000809581709CBD8DBD80E01F910F910C9451
:1006B0000C01FF920F931F93CF93DF93C82FF62E59
:1006C000072F142F0E9431038C2F80620E94B802E2
:1006D00080938A02CF2DD02F115020F089910E9453
:1006E000B802FACFDF91CF911F910F91FF900C9438
:1006F0002001CF93C82F0E9431038C2F0E94B80293
:1007000080938A028FEF0E94B802C82F0E942001B6
:100710008C2FCF910895CF93C82F0E9431038C2F37
:1007200080620E94B80280938A02CF910C942001CB
:100730000E94310380E50E94B80280938A0283E719
:100740000E94B8020C942001CF93DF93D82FC62FBC
:100750000E9431038D2F80620E94B80280938A022A
:100760008C2F0E94B802DF91CF910C9420011F9230
:100770000F920FB60F9211242F933F938F939F9355
:10078000AF93BF938091DA019091DB01A091DC01DE
:10079000B091DD013091D90123E0230F2D3758F5B9
:1007A0000196A11DB11D2093D9018093DA01909388
:1007B000DB01A093DC01B093DD018091DE0190911B
:1007C000DF01A091E001B091E1010196A11DB11DF1
:1007D0008093DE019093DF01A093E001B093E101EB
:1007E000BF91AF919F918F913F912F910F900FBE2D
:1007F0000F901F90189526E8230F0296A11DB11D9A
:10080000D2CF1F920F920FB60F9211242F933F93C6
:100810004F935F936F937F938F939F93AF93BF9308
:10082000EF93FF9382EE91E00E942902FF91EF91F6
:10083000BF91AF919F918F917F916F915F914F91F8
:100840003F912F910F900FBE0F901F9018951F9200
:100850000F920FB60F9211242F938F939F93EF93C4
:10086000FF93E091F201F091F3018081E091F801B2
:10087000F091F90182FD1BC090818091FB018F5F97
:100880008F732091FC01821741F0E091FB01F0E0B1
:10089000EE51FE4F958F8093FB01FF91EF919F9159
:1008A0008F912F910F900FBE0F901F901895808100
:1008B000F4CF1F920F920FB60F9211248F930FB6A1
:1008C000F894A895809160008861809360001092F0
:1008D00060000FBE8F910F900FBE0F901F90189564
:1008E0001F920F920FB60F9211242F933F934F93A5
:1008F0005F936F937F938F939F93AF93BF93CF93A8
:10090000EF93FF93C091D801CC2351F080914D011A
:10091000811106C0809100010E94B50080934C01B6
:1009200080914D018823E1F080914B0191E0980F77
:1009300090934B01811114C060914E018AE00E9496
:10094000DE0060E08CE00E94DE0010924D0180919C
:10095000490190914A01019690934A01809349017F
:1009600080914B01883010F010924B01CC2309F498
:1009700092C080914D0181118EC090914C019923BC
:1009800029F0809148018F5F809348018091460152
:1009900020914701921709F44AC02BE0803508F0F6
:1009A0002DE1820F809346019093470120914601EB
:1009B000203A08F470C080914401909145019695C9
:1009C00087959093450180934401309148013530DB
:1009D00028F098609093450180934401205A209319
:1009E0004601109248018091A401882309F482C035
:1009F000809143018F5F809343018C3008F44BC09A
:100A00008091440190914501382F3F73232F269503
:100A10002695287048E0420F421769F0E22FF0E077
:100A2000E15FFE4F5081351739F02F5FF5CF8C5EB7
:100A300080934601BBCF20E040E1249F9001112428
:100A400036E0969587953A95E1F7482F95958795E5
:100A500095958795887098E0980F981749F0E82F3A
:100A6000F0E0E15FFE4F5081451719F08F5FF5CF41
:100A700080E0822B9091A00191111FC080934201D0
:100A80009CEF980F9D34C8F01092A4018091410111
:100A90008F5F80934101FF91EF91CF91BF91AF9113
:100AA0009F918F917F916F915F914F913F912F9186
:100AB0000F900FBE0F901F901895E091A00191E04C
:100AC0009E0F9093A001F0E0E05BFE4F8083909139
:100AD000A00180914201981750F01092A4018091DA
:100AE00040018F5F8093400181E08093A1011092CB
:100AF0004301D1CF809144019091450188339B40BF
:100B000051F681E08093A401109243011092A0015C
:100B10001092A101C0CFE2EEF1E01382128288EEC2
:100B200093E0A0E0B0E084839583A683B7838BE253
:100B300091E09183808385EC90E09587848784ECB5
:100B400090E09787868780EC90E0918B808B81EC9A
:100B500090E0938B828B82EC90E0958B848B86EC7B
:100B600090E0978B868B118E128E138E148EE0E898
:100B7000F2E088E090E09383828387E090E09583C1
:100B8000848380E896E9A8E9B0E086839783A0870C
:100B9000B18780E28387128A138A85E0858B81E0A2
:100BA000868B85E090E0A0E0B0E0848F958FA68FE3
:100BB000B78F8FE792E09183808314860895CF9357
:100BC000DF93CDB7DEB7CA55D1090FB6F894DEBFB3
:100BD0000FBECDBF789484B5826084BD84B581603A
:100BE00084BD85B5826085BD85B5816085BD8091F8
:100BF0006E00816080936E00109281008091810070
:100C00008260809381008091810081608093810067
:100C1000809180008160809380008091B100846029
:100C20008093B1008091B00081608093B00080918A
:100C30007A00846080937A0080917A008260809349
:100C40007A0080917A00816080937A0080917A00A6
:100C5000806880937A001092C10061E083E00E9476
:100C6000230160E083E10E94230160E082E10E94B1
:100C7000230160E081E10E94230160E080E10E94A5
:100C8000230161E084E00E94230161E084E00E948E
:100C9000DE0064EF71E080E090E00E94790189E07D
:100CA0008093000181E080934E018EE0E1E0F1E06D
:100CB000DE01119601900D928A95E1F77E0123E005
:100CC000E20EF11C11E0812C64E2962E64EFA62E58
:100CD000B12C70E2472E7EE4572E612C712CF70167
:100CE000219131917F0150E040E0C501B4010E94A3
:100CF000C809CA01B901A30192010E94C8092230A2
:100D000031054105510508F0E1C21F5F173039F781
:100D10008091D801811105C081E08093D8011092A3
:100D2000A40162E370E080E090E00E947901E0912C
:100D3000F201F091F30182E08083E091F201F09101
:100D4000F3011082E091EE01F091EF011082E09149
:100D5000F001F091F10180E180831092FA01E091BD
:100D6000F601F091F70186E08083E091F401F091C3
:100D7000F501808180618083E091F401F091F501BB
:100D8000808188608083E091F401F091F501808199
:100D900080688083E091F401F091F50180818F7D7E
:100DA00080831FB7F89480914F01811127C0E0E93B
:100DB000F0E08491E4EAF0E09491E82FF0E0EE0FA7
:100DC000FF1FE859FF4FA591B491EC91E92321F45D
:100DD00061E08AE00E94DE0061E08AE00E94230177
:100DE0008CB580618CBD8CB580648CBD61E08DE07C
:100DF0000E94230161E08BE00E94230180914F015A
:100E00008F5F80934F011FBF809182029091830278
:100E10008F3F980709F49CC020918402309185028D
:100E20002F3F320709F494C08217930741F061E025
:100E30000E94230161E0809184020E94230180913D
:100E40008202909183022091840230918502821760
:100E5000930719F060E00E94DE0081E00E940C011F
:100E600065E070E080E090E00E9479016FE584E049
:100E70000E94A40385E590E0A0E0B0E08093980292
:100E800090939902A0939A02B0939B0267E086E048
:100E90000E94A4038DE10E947903182F0E949803F9
:100EA0008DE10E94790391E0181390E090939202F3
:100EB000882341F0181302C00E94980360E08DE17E
:100EC0000E94A4031092940260E08CE10E94A403AB
:100ED000109296026FE381E00E94A40363E082E037
:100EE0000E94A40380E280938B0211E160918B0247
:100EF000812F0E94A4031F5F1731C1F763E083E0D5
:100F00000E94A40385E0809395026CE40E94A403F0
:100F100060E787E00E94A40382EE0E948B0381EECB
:100F20000E948B036CE080E00E94A40380E00E949A
:100F300079038093910281FD0BC0682F62606093FA
:100F4000910280E00E94A4038BE19EE40197F1F7F7
:100F500086E00E947903887F682F656086E00E94A2
:100F6000A4036CE685E00E94A40363E384E00E948E
:100F7000A4036FE381E00E94A40382EE62968FAF28
:100F8000629763961FAE639764961FAE64976596EB
:100F90001FAE659766961FAE669767961FAE6797FA
:100FA00068961FAE689769961FAE69974091950243
:100FB000BE016F5A7F4F8AE00E945903409195020B
:100FC000BE016F5A7F4F80E10E9459033FE0832E9C
:100FD000912C40E0A42E40E0B42E8091A101882302
:100FE00009F4ADC08091A00183509091A2018917AE
:100FF00010F48093A2014091A20150E061E571E0FC
:10100000CE0101960E94F0091092A1012091A00149
:10101000E0E5F1E08FEF9FEF215098F031918327C9
:10102000082E8295807F8025092E982F82958F70BB
:101030000826869598278927880F880F880F80258E
:10104000EBCF883B904F09F07AC01092D8010E94F4
:1010500054012B013C0160E083E00E94DE00C401EA
:101060000197F1F761E083E00E94DE0083E290E007
:101070000197F1F760E083E00E94DE0083E290E0F8
:101080000197F1F780E10E94B500892BD9F3F2E0D6
:10109000F093D2010E9454010E9454016093A50173
:1010A0007093A6018093A7019093A8011092D1019B
:1010B0006A961FAE6A9721E06B962FAF6B970E94DE
:1010C00054010091A5011091A6012091A701309132
:1010D000A801601771078207930750F4680179012E
:1010E000C094D094E094F0946C0D7D1D8E1D9F1DD6
:1010F000601B710B820B930B603375478105910563
:1011000050F11092A5011092A6011092A701109221
:10111000A8016B962FAD6B97211108C08EE391E06B
:101120000E94BF028BE391E00E94BF028091D80130
:10113000811105C091E09093D8011092A401A114EF
:10114000B10409F44ACF0E941502882309F445CF5F
:101150000E94000042CF6A96FFAD6A97F111D9CF85
:101160002FE1E22E21E0F22E312CF7018081F2E016
:10117000EF0EF11C0E94B5000097C1F42090D10140
:10118000022D10E0EDECF1E0801791070CF0C7C0E4
:1011900021912817190651F00196F6CF81E0820DB2
:1011A0008093D101F801E353FE4F3082339484E001
:1011B0003812DBCF84CFF12C86E0E82ED5C0FA942C
:1011C000FFEFFF1621F080E00E94B802F8CF0E94E6
:1011D00020018091820290918302209184023091BB
:1011E00085028217930719F061E00E94DE008FB735
:1011F000F894C090DA01D090DB01E090DC01F0902F
:10120000DD018FBF8FEF0E948B0380918A02807374
:10121000F9F42FB7F8948091DA019091DB01A09155
:10122000DC01B091DD012FBF8C199D09AE09BF090A
:1012300080369105A105B10528F321E0209397029E
:101240006B961FAE6B9741E06A964FAF6A9737CFA8
:1012500080918202909183022091840230918502D4
:101260008217930719F060E00E94DE0060E787E0D4
:101270000E94A40380918A0284FD20C04AE062E0BB
:1012800070E080E090E00E94CC0289E391E00E944F
:10129000BF026091D3017091D4018091D5019091EA
:1012A000D60197FF0FC00E9410038BE391E00E94CC
:1012B000BF0241E06A964FAF6A97FDCE81EE0E9471
:1012C0008B03BECF4AE00E94CC02EFCF163009F468
:1012D0001FCD1092800088E0809381008091810072
:1012E000182B1093810030938900209388008091FF
:1012F0006F00826080936F0061E08CE00E942301A8
:1013000060E0809100010E94230161E08AE00E9478
:10131000230160914E018AE00E94DE00F9CC0E9418
:101320005401DC01CB0184199509A609B709809302
:10133000D3019093D401A093D501B093D6018C3200
:101340009140A105B1050CF429CF3092D7018091CD
:101350009602811130CF80918B02E82E873010F0F9
:1013600096E0E92EF82EFE180E94310380EA0E94D2
:10137000B80280938A0202ED11E0EA942FEFE216A0
:1013800009F41DCFF80181918F010E94B802F5CFB9
:10139000A1E21A2EAA1BBB1BFD010DC0AA1FBB1F79
:1013A000EE1FFF1FA217B307E407F50720F0A21BEB
:1013B000B30BE40BF50B661F771F881F991F1A9458
:1013C00069F760957095809590959B01AC01BD0182
:1013D000CF010895EE0FFF1F0590F491E02D0994C1
:1013E000FB01DC0102C001900D9241505040D8F742
:0613F0000895F894FFCF00
:1013F6000B000001000800400000010004050D0D6F
:101406000E131516191A1C232526292A2C323413D5
:1014160000120011001000000000004B02AB01D8C2
:101426000198020902E701FB012C000D0A002E00BB
:00000001FF
